:020000040800F2
:10000000F0FF00104DFE0408FD8903086DEF0108A4
:10001000E9FE0408E9FE0408E9FE04080000000007
:10002000000000000000000000000000098A030832
:10003000058A030800000000018A0308FDEF01089B
:10004000E9FE0408E9FE0408E9FE0408E9FE0408E4
:10005000E9FE0408E9FE040879A10008B9A2000835
:1000600079A2000839A20008F9A1000811E90008E6
:1000700001E90008F1E80008E1E80008CDE800081F
:10008000B9E80008A5E80008E9FE0408E9FE04084C
:10009000E9FE0408E9FE0408E9FE0408B9A1000825
:1000A0001DD00108A9D50108E9FE04082DD70108D3
:1000B000E9D4010829D401085DD301083D160108DF
:1000C000451601082D16010835160108E9FE040839
:1000D000E9FE0408C9F10108E9FE04082DF1010850
:1000E00039A10008E9FE040821D003084DCF01081A
:1000F000EDD00108E9FE0408BDD1010891E800082F
:10010000E9FE0408E9FE04088DD20108E9FE0408AE
:10011000E9FE0408E9FE0408798002086580020807
:100120007DE8000869E8000855E8000841E8000893
:100130002DE80008E9FE0408E9FE0408E9FE0408C9
:10014000E9FE0408E9FE0408E9FE040855BF0308B7
:1001500019E8000805E80008F1E7000891F0010837
:100160001D16010825160108E9FE0408E9FE040829
:10017000E9FE0408E9FE0408E9FE0408E9FE0408B3
:08018000E9FE0408E9FE040891
:08018800F4F90400010000007D
:1001900010020100E0320020DC32002000000000EC
:1001A0004407000803123300045B0020375B002083
:1001B000000000004807000825009600B8590020FC
:1001C0004E5A00200000000000000000F6210C0044
:1001D000B0580020BC580020000000007C07000838
:1001E00015007000D057002040580020000000008B
:1001F000000000002A006000105700207057002007
:1002000000000000C9D103082C001000E45A0020AF
:10021000F45A002000000000B13401082B00240033
:100220008E5B00206A5B0020000000008134010822
:1002300029107800C8580020405900200000000014
:100240000000000004120200F85D0020205F002082
:1002500000000000880700080F020100F45D002084
:10026000245F0020000000008A070008140003003B
:10027000085700200B570020000000008C070008E2
:1002800010100200505E0020285F002000000000D7
:1002900090070008281010006C5D00202C5F0020E3
:1002A00000000000B117010823001000F4550020E1
:1002B0003C5F002000000000CD170108F821060077
:1002C000EE5600204C5F002000000000920700085E
:1002D0001A023C00F060002058640020000000007A
:1002E000B593000827000400EC600020946400200F
:1002F000000000009807000818020200A06A002011
:10030000806B0020000000000000000017020B00BE
:10031000956A0020846B00200000000039840008EA
:1003200007020200486B0020906B002000000000D4
:100330009C07000802000C00206B0020946B00203A
:10034000000000000000000006020C00146B0020FA
:10035000A06B002000000000A59200080812090010
:100360008C6A0020AC6B0020000000007D84000837
:10037000F7010600826A0020B86B00200000000030
:100380009E0700080A020A00FC690020C06B0020DA
:1003900000000000A4070008030001001865002009
:1003A000CC6B002000000000000000001B020800D1
:1003B000847200208886002000000000D584000898
:1003C00001200800DC84002090860020000000004E
:1003D000AE070008190005008C85002098860020D3
:1003E00000000000B607000837001E0064850020EA
:1003F000A086002000000000BC0700081E000500C9
:1004000060700020C086002000000000DA070008AD
:100410001B00F4006C6D0020C88600200000000066
:10042000A1D202080E020200C0770020BC87002083
:1004300000000000E00700082F00110024860020C3
:10044000C087002000000000E20700080510060039
:1004500068860020D487002000000000F407000810
:10046000F5317000E46C0020DC8700200000000003
:1004700095FA020826000E005C8800204C880020B7
:100480000000000055BA02080B201000566D002035
:100490009088002000000000FA0700081F201C00C0
:1004A000C46C0020A0880020000000000A0800089A
:1004B00005020400CC720020BC880020000000006F
:1004C0002608000816000800E8890020F0890020AE
:1004D000000000002A08000803010A00849C002094
:1004E0001C9D0020000000003208000813020300D9
:1004F00044920020289D0020000000003C080008D5
:100500001A000E0080AF0020B4B1002000000000EF
:10051000400800080400800084EB00203CEC002030
:1005200000000000000000000D00340020EB00205F
:10053000BCEC002000000000DD2F0308FD012400BA
:1005400050E20020F0EC00200000000081AB010828
:1005500018202C0020E2002014ED002000000000F4
:100560007D9400080610180078D5002040ED00208A
:10057000000000006DD20308FB01010074D50020CB
:1005800058ED00200000000051940008FC01090013
:1005900040D400205CED00200000000061940008C1
:1005A0000A40200018D4002068ED00200000000060
:1005B0004E080008340010000CD3002088ED002005
:1005C0000000000041D2030811020800E4D200201C
:1005D00098ED0020000000006E08000812120400D0
:1005E000DCD20020A0ED002000000000760800080A
:1005F00012200D00CCD20020A4ED0020000000004D
:100600007A080008FF01080064C60020B4ED00204D
:100610000000000001E50008F9010400F8C5002011
:10062000BCED00200000000001800008FA0102007B
:1006300098BF0020C0ED002000000000D585000814
:100640000202030058B20020C4ED002000000000A8
:10065000000000000C02030014B20020C8ED0020CE
:10066000000000002984000811000C0024B40020C0
:10067000CCED002000000000992D0308FE010900C8
:100680000CB40020D8ED002000000000B584000864
:100690000E502001B6020120E006012000000000FB
:1006A000F1D10308130004004005012000080120D7
:1006B0000000000088080008010104003002012049
:1006C00004080120000000000000000000010400F8
:1006D0002802012008080120000000008C08000802
:1006E00002010300230201200C0801200000000089
:1006F000AD2D020809020100D405012010080120D7
:1007000000000000900800080C106C00000401209C
:100710001408012000000000852D020801020500D8
:1007200038020120800801200000000091B0040878
:10073000000205009C040120880801200000000040
:0407400000000000B5
:1007440000000000000000000000000000000000A5
:100754000000000000000000000000000000000095
:100764000000000000000000000000000000000085
:100774000000000000000100000000000100000073
:10078400020200001118000003000000000504012B
:10079400F401190020030000023C240100000000C1
:1007A40000004A01B400D6010000E8036400040A12
:1007B400000100002801000020003200C800D0071A
:1007C4009600140032002800B004400600055000D2
:1007D40014000F00080100000100000000000000E8
:1007E4000000000000000000000000000000000005
:1007F4002000020100002B21231E640101000000DF
:1008040001000A01290000000000000100000005A9
:1008140000000102030000000000000000000000CE
:10082400000000000000C409000019012828040188
:1008340001006C1600000000000000007E05EA05BF
:10084400B4053200E803D0070000003001000000C6
:10085400000064002C010000000000000000000003
:10086400020000019E077D004632000000000101E5
:100874000101FFFFFFFF000000010000054F42538C
:0D0884004400000000200430900100002816
:100891001A0300000000000000000000000000003A
:1008A1000000000000000000000000000403090433
:1008B10012010002000000408304205700020102DF
:1008C1000301000001A1000831850008DD94000842
:1008D10015850008BDA0000871A000080585000865
:1008E100DC000020B5C500081D8500081985000839
:1008F10011850008799B00080D850008098500080D
:100901009C1A05088DBA03089D80030875B9030870
:100911000000000000000000C5AE0308EDAE0308B2
:10092100000000000000000000000000FD7E030840
:10093100C9850008BD850008259500084195000876
:100941007585000809950008ED9400080100000074
:10095100500100000700000002000000000000003C
:1009610000000000010203040607080900800202DA
:100971001F00000053544D202020202050726F642E
:10098100757420202020202020202020302E30317E
:10099100D6010100000101010001FFFF010000007B
:1009A100685E0C00010102FFFF0000000100000071
:1009B1000000803F00000000000000000000000077
:1009C100FF000000284A0508050804000000000097
:1009D100246805086855050810680508000000002E
:1009E10000000000544A050805080A000000000044
:1009F1002468050868550508F06605080000000030
:100A01000000000001000000000001FFFF010000E4
:100A11000000803FFF1FFF1F6C88002000000000C6
:100A21008407002004000000EC940508ACA7050829
:100A3100000000006D2D0308A086010004000000E5
:100A410000000000000000000000000000000000A5
:100A5100000000000000000000000000EC94050808
:100A610008A80508000000000DBF0108E803000008
:100A71000400000000000000000000000000000071
:100A81000000000000000000000000000000000065
:100A9100C4B90508907705080000000099370208DD
:100AA1007D000000060000000000000000000000C2
:100AB1000000000000000000000000000000000035
:100AC1000000000044940508000000000000000040
:100AD10091E50108E80300000300000000000000A8
:100AE1000000000000000000000000000000000005
:100AF100000000000000000010A805080000000030
:100B010000000000BDD4030810270000030000000E
:100B110000000000000000000000000000000000D4
:100B21000000000000000000000000001CA80508F3
:100B310000000000B530010845AF01085F760000F4
:100B4100050000000000000000000000000000009F
:100B51000000000000000000000000000000000094
:100B6100AC9605080000000000000000811F02088B
:100B7100102700000100000000000000000000003C
:100B81000000000000000000000000000000000064
:100B91000000000020A8050800000000000000007F
:100BA10049A80108E803000005000000000000005A
:100BB1000000000000000000000000000000000034
:100BC10000000000000000002CA805080000000043
:100BD1000000000075340308204E000003000000EF
:100BE1000000000000000000000000000000000004
:100BF1000000000000000000000000003CA8050803
:100C01000000000000000000E12D0308204E00005C
:100C110003000000000000000000000000000000D0
:100C210000000000000000000000000000000000C3
:100C31004CA8050800000000000000009DBC010850
:100C4100400D030003000000000000000000000050
:100C51000000000000000000000000000000000093
:100C610000000000B0950508000000000000000031
:100C7100B14003081027000001000000000000003F
:100C81000000000000000000000000000000000063
:100C910000000000000000005C9405080000000056
:100CA1000000000061050308102700000300000098
:100CB1000000000000000000000000000000000033
:100CC1000000000000000000000000005CA8050812
:100CD100000000000000000081710108A0860100F1
:100CE1000100000000000000000000000000000002
:100CF10000000000000000000000000000000000F3
:100D01004894050800000000000000006DAE0108D5
:100D110050C30000010000000000000000000000BE
:100D210000000000000000000000000000000000C2
:100D310000000000000000000000000000000000B2
:100D410000000000000000000000000000000000A2
:100D51000000000000000000000000000000000092
:100D6100000000000000000064A805080000000069
:100D710000000000F9AB0108A861000001000000BB
:100D81000000000000000000000000000000000062
:100D910000000000000000000000000070A805082D
:100DA10000000000000000005DDD0408A0860100D5
:100DB1000100000000000000000000000000000031
:100DC1000000000000000000000000000000000022
:100DD100B4960508000000000000000019F30108A6
:100DE100A00F000001000000000000000000000052
:100DF10000000000000000000000000000000000F2
:100E0100000000007CA805080000000000000000B0
:100E11009DCE020810270000010000000000000024
:100E210000000000000000000000000000000000C1
:100E31000000000000000000DC9505080000000033
:100E41000000000021300308A00F00000100000095
:100E51000000000000000000000000000000000091
:100E6100000000000000000000000000B895050827
:100E71000000000000000000FD2403081A410000EA
:100E81000100000000000000000000000000000060
:100E91000000000000000000000000000000000051
:100EA10014970508000000000000000009B70208BF
:100EB10010270000010000000000000000000000F9
:100EC1000000000000000000000000000000000021
:100ED10000000000C0A7050800000000000000009D
:100EE1009DE104081A41000001000000000000001B
:100EF10000000000000000000000000000000000F1
:100F0100000000000000000088A8050800000000A3
:100F11000000000005DF0208400D03000000000092
:100F210000000000000000000000000000000000C0
:100F310000000000000000000000000090A805086B
:100F4100000000000000000005A80108400D03009A
:100F51000000000000000000000000000000000090
:100F61000000000000000000000000000000000080
:100F710098A80508000000000000000035130308D0
:100F810050C300000300000000000000000000004A
:100F91000000000000000000000000000000000050
:100FA10000000000A4A805080000000000000000E7
:100FB1004134030840420F0000000000000000001F
:100FC1000000000000000000000000000000000020
:100FD1000000000000000000B0A8050800000000AB
:100FE100000000004531030850C30000000000006C
:100FF10000000000000000000000000000000000F0
:1010010000000000000000000000000001000000DE
:10101100FFFFFFFF000200051002700B000000003F
:10102100088A00200800000000000000F889002064
:101031000800000015850308E180030839B303089F
:10104100000000004D7F0308EDBA0308C9840308BE
:1010510071B003080000000000000000097F0308D0
:10106100C97D0308BD7D03088DA70308A9A703084F
:1010710071A7030855A7030839A70308CD840308FE
:10108100BD80030879B2030800000000217F030836
:1010910075B003089D840308D1AF03080000000068
:1010A10000000000157F0308040309041201000277
:1010B100EF020140830456320002010203010000E5
:1010C10012010002020200408304405700020102A3
:1010D1000301000009022000010104C032090400DB
:1010E10000020806500507058102400000070501BE
:1010F1000240000009026400030100C0320904003B
:10110100000103000000092111010001222600074E
:1011110005830308000A080B010202020100090409
:101121000100010202010005240010010524010053
:1011310002042402020524060102070582030800B5
:10114100FF09040200020A00000007050102400035
:10115100000705810240000009024300020100C0AE
:1011610032090400000102020100052400100105FA
:10117100240100010424020205240600010705825E
:10118100030800FF09040100020A0000000705012D
:10119100024000000705810240000000FF0000003E
:1011A10000FFFF0000000000AA550501000000003B
:1011B10005010905A101A100050109300931093223
:1011C100093309350934094009381581257F750826
:1011D10095088102C0C0000009022200010100E05F
:1011E100320904000001030102000921110100017B
:1011F1002226000705830308000A00000000000002
:1012010001020304010203040607080919B10308D6
:10121100E1B703085DB30308897F0308AD810308C3
:10122100997F0308B57F0308617F0308517F030895
:1012310000000000000000002D202D2D202D2D2D5F
:101241002D202D2D2D2D000000000000000000009C
:1012510000000000000000AA550B010000AA55077C
:10126100010000AA550902000000AA5503009F00D1
:1012710001000000C01200000000803F00000000DB
:1012810000000000000000000000803F000000009E
:10129100000000000000000000000000000000004D
:1012A100000000000000000000000000000000003D
:1012B100010000000000803F00000000000000006D
:1012C10000000000FFFFFFFF0000803F080000005A
:1012D100FFFFFFFFB97D0308B57D0308B17D03085A
:1012E100A57D0308A17D0308AD7D0308A97D030841
:1012F1000060024010600240000000000000000099
:10130100000B0000000000000000000000000000D1
:10131100006002402860024001000000000000005F
:10132100060C0000000000000000000000000000AA
:101331000060024040600240020000000000000026
:10134100100D00000000000000000000000000007F
:1013510000600240586002400300000000000000ED
:10136100160E000000000000000000000000000058
:1013710000600240706002400400000000000000B4
:10138100200F00000000000000000000000000002D
:10139100006002408860024005000000000000007B
:1013A1002610000000000000000000000000000006
:1013B10000600240A0600240060000000000000042
:1013C10030110000000000000000000000000000DB
:1013D10000600240B8600240070000000000000009
:1013E100362F000000000000000000000000000097
:1013F1000064024010640240000000000000000090
:1014010000380000000000000000000000000000A3
:101411000064024028640240010000000000000056
:10142100063900000000000000000000000000007C
:10143100006402404064024002000000000000001D
:10144100103A000000000000000000000000000051
:1014510000640240586402400300000000000000E4
:10146100163B00000000000000000000000000002A
:1014710000640240706402400400000000000000AB
:10148100203C0000000000000000000000000000FF
:101491000064024088640240050000000000000072
:1014A10026440000000000000000000000000000D1
:1014B10000640240A0640240060000000000000039
:1014C10030450000000000000000000000000000A6
:1014D10000640240B8640240070000000000000000
:1014E100364600000000000000000000000000007F
:1014F10001000000E0010000FFFFFFFF010101000A
:10150100ADB2040800000000E40D00200CC0050885
:1015110000000000000000000000000000000000CA
:10152100C0A405080000000000000000700E0020AB
:1015310004000000B8BF05080D00000045CE0408F6
:10154100582800200000000034B905080D000000F3
:101551006DCE04084C28002000000000ACBA05083C
:1015610008000000000000004028002004000000E6
:10157100A0B905080D00000061B30408342800205B
:10158100000000005CBA050803000000BDD004089B
:1015910028280020000000001CC0050803000000EE
:1015A100BDD004081C28002000000000E4B5050897
:1015B1000100000000000000000000000000000029
:1015C100000000000E00000000000000000000000C
:1015D100000000000CC00508000000000000000031
:1015E1000000000000000000C0A405080000000089
:1015F10000000000700E00200400000064BF050818
:10160100030000007DB90408102800200800000034
:10161100A0B905080D00000061B3040834280020BA
:10162100000000005CBA050803000000BDD00408FA
:1016310028280020000000001CC00508030000004D
:10164100BDD004081C28002000000000E4B50508F6
:101651000100000000000000000000000000000088
:10166100000000000E00000000000000000000006B
:101671000000000024C00508000000000000000078
:101681000000000000000000C0A4050800000000E8
:1016910000000000700E0020040000006CBF05086F
:1016A10003000000BDD004086428002000000000F1
:1016B100E4B5050801000000000000000000000082
:1016C10000000000000000000E000000000000000B
:1016D100000000000000000020700020702D72004A
:1016E10008000000425702000000010642570200B4
:1016F100000001060000000000000000CC230020D3
:101701002D202D2D202D2D2D2D202D2D2D000000B6
:1017110000000000000000000000000000000000C8
:10172100FFFFFFFFFA0000000100000001000000C0
:10173100B8B50508C0B50508DCB50508000000000E
:1017410000000000000000000000000083B5050853
:10175100040000000DCC040800000000000000009F
:10176100E4B50508010000000000000000000000D1
:1017710000000000000000000E000000000000005A
:10178100000000000000000024EC00200100C4095A
:101791000000000022EC00200100C409000000004C
:1017A10020EC00200100C409000000001EEC002014
:1017B1000100C409000000001AEC00200100C40966
:1017C100000000001CEC00200100C4090000000022
:1017D10018EC00200100C4090000000016EC0020F4
:1017E1000100C409000000004A0201200100C800F4
:1017F1000100000048020120320030753200000073
:1018010046020120055A05004302012000FF0100A4
:101811004502012001000000A00E0020410201202C
:1018210002000000084E05084202012000FF0100ED
:101831004402012001000000A00E0020400201200E
:1018410002000000084E05083602012080C1803EDA
:10185100050000003402012080C1803E0500000027
:101861002E02012080C1803E050000002C020120D3
:1018710080C1803E050000002602012000FF01001A
:10188100220201200A32010021020120040000008D
:10189100D06605082002012002000000E466050868
:1018A1000000000000000000A80E0020C89C0020DD
:1018B1009CFF2C01000000006C0C00200A000000BD
:1018C100F066050816020120E0150C170000000063
:1018D1006E0C002008000000685505086D0C002002
:1018E100050000002468050818020120020000001C
:1018F10008670508860401200100FF7F0100000040
:10190100850401200200000014670508A9020120D6
:101911000300000024670508A8020120030000005D
:1019210024670508E00301200000F4010100000024
:10193100DE0301200000F40101000000DC030120AE
:101941000000F40101000000DA0301200000F401AD
:1019510001000000D80301200000803E01000000CA
:10196100D60301200000803E01000000FC0301209D
:10197100E803D0070A000000FA0301200064010017
:101981000A000000EF03012000640100EE030120C2
:1019910000640100F6030120006401000A00000058
:1019A100F5030120006401000A000000F403012096
:1019B100006401000A000000F90301200064010035
:1019C1000A000000F8030120006401000A00000081
:1019D100F7030120006401000A000000F303012065
:1019E10000FF01000A000000F203012000FF0100D6
:1019F1000A000000F103012000FF01000A000000BD
:101A0100B20201200000F40101000000B002012037
:101A11000000F40101000000AE0201200000F40109
:101A210001000000AC0201200000F40101000000EF
:101A3100AA0201200000F40101000000EC030120D2
:101A410000640100EA0301201400E8030100000022
:101A5100E8030120E80330750A000000E6030120D5
:101A610000C80100E503012000C80100E4030120D2
:101A710000C80100E3030120006401000A00000026
:101A81007A0401200000D007010000007504012044
:101A910000C801007404012000C801007304012082
:101AA10000C80100780401200000D00701000000F7
:101AB1007204012000C801007104012000C8010066
:101AC1007004012000C80100760401200000D00745
:101AD100010000006F04012000C801006E04012014
:101AE10000C801006D04012000C801000CB6050802
:101AF10000000000000000000000000000000000E5
:101B01007477050809000000000000004C0F002058
:101B1100040000007C7705080900000000000000B7
:101B2100400F00200400000050BD0508090000001E
:101B310000000000340F002004000000B8A60508D2
:101B41000900000000000000280F00200400000030
:101B51001CB6050809000000000000001C0F002051
:101B61000400000024B60508090000000000000080
:101B7100100F0020040000002CB605080900000029
:101B810000000000040F00200400000034B6050826
:101B91000900000000000000F80E00200400000011
:101BA100E4B505080100000000000000000000008D
:101BB10000000000000000000E0000000000000016
:101BC100000000000000000028B805080000000027
:101BD100000000000000000000000000A0940508C3
:101BE1000700000000000000700F0020000000004E
:101BF10038B805080800000000000000640F00204C
:101C01000000000044B805080800000000000000C2
:101C1100580F002000000000E4B505080100000095
:101C210000000000000000000000000000000000B3
:101C31000E00000000000000000000000000000095
:101C41004CB8050800000000000000000000000082
:101C5100000000005CB805080D0000000000000055
:101C6100AC0F00200000000064B805080D00000062
:101C710000000000A00F0020000000006CB8050863
:101C81000700000000000000980F00200000000085
:101C910074B805080D000000000000008C0F002042
:101CA100000000007CB805080D00000000000000E5
:101CB100800F00200000000084B805080700000024
:101CC10000000000780F002000000000E4B50508C6
:101CD1000100000000000000000000000000000002
:101CE100000000000E0000000000000000000000E5
:101CF100000000008CB80508000000000000000092
:101D01000000000000000000A09405080C00000085
:101D1100000000004C02012000000000A0B80508EE
:101D21000C000000000000004E0201200000000035
:101D3100B0B805080C00000000000000840201207A
:101D410000000000C0B805080C0000000000000001
:101D51007802012000000000D4B805080C00000042
:101D6100000000005002012000000000E8A8050862
:101D71000C000000000000005202012000000000E1
:101D8100E0B805080C00000000000000540201202A
:101D910000000000F4B805080C000000000000007D
:101DA1005602012000000000FCB805080C000000EC
:101DB10000000000580201200000000004B90508DD
:101DC1000C0000000000000096020120000000004D
:101DD1001CB905080C000000000000005A02012097
:101DE1000000000028B905080C00000000000000F8
:101DF1005C02012000000000847705080C0000004F
:101E0100000000005E0201200000000030B905085A
:101E11000C00000000000000600201200000000032
:101E21003CB905080C00000000000000620201201E
:101E31000000000048B905080C0000000000000087
:101E4100640201200000000054B905080C000000E4
:101E510000000000660201200000000060B90508D2
:101E61000C000000000000006802012000000000DA
:101E71006CB905080C000000000000007C02012084
:101E81000000000074B905080C000000000000000B
:101E91007A020120000000007CB905080C00000056
:101EA10000000000880201200000000088B9050838
:101EB1000C000000000000008A0201200000000068
:101EC10094B905080C0000000000000090020120F8
:101ED1000000000064A805080C00000000000000DC
:101EE1006A02012000000000A0B905080C000000F2
:101EF100000000007202012000000000A8B90508DE
:101F01000C000000000000006C0201200000000035
:101F1100B4B905080C000000000000006E020120A9
:101F210000000000C0B905080C000000000000001E
:101F31007002012000000000C8B905080C00000073
:101F4100000000007402012000000000C094050898
:101F51000C000000000000007E02012000000000D3
:101F6100D4B905080C000000000000007602012031
:101F710000000000E0B905080C00000000000000AE
:101F81008602012000000000ECB905080C000000E9
:101F9100000000008002012000000000F4B90508E3
:101FA1000C0000000000000082020120000000007F
:101FB100FCB905080C000000000000008C020120A3
:101FC1000000000004BA05080C0000000000000039
:101FD1008E020120000000000CBA05080C00000070
:101FE10000000000A002012000000000E4B5050887
:101FF10001000000000000000000000000000000DF
:10200100000000000E0000000000000000000000C1
:102011000000000014BA05080000000000000000E4
:10202100000000000000000020BA05080D000000BB
:1020310000000000041000200000000028BA05087C
:102041000D00000000000000F80F0020000000005B
:1020510030BA05080700000000000000F00F002062
:10206100000000003CBA0508070000000000000065
:10207100E80F00200000000048BA05080900000030
:1020810000000000DC0F00200000000054BA050829
:102091000900000000000000D00F00200000000037
:1020A10060BA05080900000000000000C40F00200C
:1020B1000000000070BA05080900000000000000DF
:1020C100B80F002000000000E4B505080100000081
:1020D10000000000000000000000000000000000FF
:1020E1000E000000000000000000000000000000E1
:1020F10084BA050800000000000000000000000094
:102101000000000094BA050805000000000000006E
:10211100A702012000000000E4B50508010000004D
:1021210000000000000000000000000000000000AE
:102131000E00000000000000000000000000000090
:102141009CBA05080000000000000000000000002B
:1021510000000000C0A4050800000000000000000D
:10216100A809002004000000A8BA05080D0000001D
:1021710071CC04085810002000000000B8BF050809
:102181000D00000065B204084C10002000000000A2
:1021910034B905080D00000049B2040840100020C0
:1021A10000000000ACBA05080800000000000000B3
:1021B1003410002004000000A0B905080D00000043
:1021C10093B104082810002000000000B4BA0508EB
:1021D10009000000000000001C10002004000000A5
:1021E1005CBA050803000000BDD0040810100020EF
:1021F10000000000E4B50508010000000000000037
:102201000000000000000000000000000E000000BF
:10221100000000000000000000000000BCBA05083A
:1022210000000000000000000000000000000000AD
:10223100CCBA05080D00000000000000701000205D
:1022410000000000D4BA05080A00000000000000E8
:102251009D05012000000000E0BA05080A00000009
:1022610000000000A505012000000000E8BA0508F3
:102271000A00000000000000AD0501200000000080
:10228100F0BA0508080000000000000064100020FA
:1022910000000000F8BA050804000000DDD20408BF
:1022A1000000000000000000E4B505080100000086
:1022B100000000000000000000000000000000001D
:1022C1000E000000000000000000000000000000FF
:1022D10004BB050800000000000000000000000031
:1022E1000000000018BB05080D0000000000000000
:1022F100881000200000000028BB05080400000031
:10230100E9CE0408000000000000000030BB050811
:102311000D000000000000007C1000200000000003
:1023210044BB050804000000C5CE040800000000FD
:1023310000000000E4B505080100000000000000F5
:102341000000000000000000000000000E0000007E
:102351000000000000000000000000004CBB050868
:10236100000000000000000000000000000000006C
:1023710060BB05080800000000000000D01000202C
:10238100000000006CBB0508080000000000000010
:10239100C41000200000000078BB05080800000000
:1023A10000000000B81000200000000084BB0508F8
:1023B1000800000000000000AC1000200000000038
:1023C10090BB05080800000000000000A0100020DC
:1023D100000000009CBB0508080000000000000090
:1023E1009410002000000000E4B505080100000081
:1023F10000000000000000000000000000000000DC
:102401000E000000000000000000000000000000BD
:10241100A8BB050800000000000000004B0E0020D2
:1024210000000000B4BB05080B0000000000000024
:102431006411002000000000C0BB05080B00000073
:10244100000000005811002000000000CCBB05086E
:102451000B000000000000004C11002000000000F3
:10246100D8BB05080B00000000000000401100204F
:1024710000000000E4BB05080B00000000000000A4
:102481003411002000000000F0BB05080B00000023
:10249100000000002811002000000000FCBB05081E
:1024A1000B000000000000001C11002000000000D3
:1024B10008BC05080B0000000000000010110020FE
:1024C1000000000014BC05080B0000000000000023
:1024D100041100200000000020BC050807000000D6
:1024E10000000000FC1000200000000028BC0508CE
:1024F1000700000000000000F410002000000000B0
:1025010034BC05080B00000000000000E8100020AA
:102511000000000040BC05080800000000000000A9
:10252100DC10002000000000E4B5050801000000F7
:10253100000000000000000000000000000000009A
:102541000E0000000000000000000000000000007C
:102551004CBC050800000000000000000000000065
:102561000000000060BC0508080000000000000039
:10257100A0110020000000006CBC0508080000004C
:1025810000000000941100200000000078BC050844
:102591000800000000000000881100200000000079
:1025A10084BC050808000000000000007C11002028
:1025B1000000000090BC05080800000000000000B9
:1025C1007011002000000000E4B5050801000000C2
:1025D10000000000000000000000000000000000FA
:1025E1000E000000000000000000000000000000DC
:1025F10098BC05080000000000000000480E002003
:1026010000000000A8BC05080B000000000000004D
:10261100E411002000000000B4BC05080700000020
:1026210000000000DC11002000000000C0BC050813
:102631000700000000000000D4110020000000008D
:10264100CCBC05080700000000000000CC110020F0
:1026510000000000D8BC05080800000000000000D0
:10266100C011002000000000E0BC050808000000C7
:1026710000000000B411002000000000E8BC0508C3
:102681000700000000000000AC1100200000000065
:10269100E4B5050801000000000000000000000092
:1026A10000000000000000000E000000000000001B
:1026B1000000000000000000F4BC0508000000005C
:1026C10000000000480E00200000000000BD0508C9
:1026D100070000000000000054120020000000006C
:1026E10008BD050807000000000000004C12002092
:1026F1000000000010BD05080700000000000000F8
:10270100441200200000000018BD05080800000068
:1027110000000000381200200000000080A605081B
:10272100070000000000000030120020000000003F
:1027310088A60508070000000000000028120020FC
:102741000000000090A6050807000000000000003E
:1027510020120020000000003CA70508080000002E
:1027610000000000141200200000000020BD050838
:1027710007000000000000000C1200200000000013
:1027810028BD050807000000000000000412002019
:102791000000000030BD0508070000000000000037
:1027A100FC1100200000000038BD050808000000F1
:1027B10000000000F011002000000000E4B5050851
:1027C1000100000000000000000000000000000007
:1027D100000000000E0000000000000000000000EA
:1027E1000000000000000000D5B504085C120020C4
:1027F100A50201202B00000034670508A402012076
:1028010000C80100A2020120E803D0070100000076
:102811004F4D4E4942555346345344003F02012027
:10282100000301003E020120000301001DB5040860
:10283100F5B4040838130020B1B4040865B40408E1
:10284100B01300205DB5040845B5040864140020E8
:10285100D1B3040885B3040884170020EBB504083C
:1028610095CE040860180020D1B1040800000000D2
:10287100B0180020B9D2040889B804088C190020C6
:1028810011B6040800000000401A0020C9B604086F
:1028910095B60408CC1A002059B70408A5B7040856
:1028A100801B0020ED0301200106010059B6040838
:1028B10025B60408C01C0020FDB604080DCF04088D
:1028C100601D0020D5B7040869CF0408281E002028
:1028D100E20301200103010040BD050800000000E2
:1028E1000000000000000000000000004CBD0508D1
:1028F1000800000000000000741F0020000000001C
:1029010054BD050807000000000000006C1F0020F6
:102911000000000064BD05080D000000000000007B
:10292100601F00200000000070BD050803000000CA
:10293100BDD00408541F002000000000E4B50508C4
:102941000100000000000000000000000000000085
:10295100000000000E000000000000000000000068
:102961000000000078BD0508000000000000000024
:10297100000000000000000088BD05080A000000FA
:1029810000000000BCA805080000000090BD05087B
:102991000A000000000000008C6A05080000000029
:1029A10098BD05080A000000000000007C04012019
:1029B10000000000A0BD05080A00000000000000A2
:1029C100801F002000000000E4B5050801000000A0
:1029D10000000000000000000000000000000000F6
:1029E1000E000000000000000000000000000000D8
:1029F100A8BD050800000000000000000000000064
:102A010000000000B4BD050803000000BDD00408AB
:102A1100B41F002000000000C0BD05080300000035
:102A2100BDD00408A81F002000000000C8BD050893
:102A310003000000BDD004089C1F0020000000001E
:102A4100D0BD050805000000000000003D02012086
:102A510000000000D8BD05080700000000000000CC
:102A6100941F002000000000E4BD050807000000DD
:102A7100000000008C1F002000000000E4B50508E4
:102A81000100000000000000000000000000000044
:102A9100000000000E000000000000000000000027
:102AA10000000000F0BD050800000000000000006B
:102AB100000000000000000070A9050803000000EC
:102AC100BDD00408E41F00200000000004BE05087A
:102AD10003000000BDD00408700C002000000000BD
:102AE1000CBE050803000000BDD00408D81F00205B
:102AF1000000000014BE050803000000BDD004085A
:102B0100CC1F002000000000A0B905080300000050
:102B1100BDD00408C01F002000000000E4B5050876
:102B210001000000000000000000000000000000A3
:102B3100000000000E000000000000000000000086
:102B41000000000020BE0508000000000000000099
:102B5100000000000000000030BE05080700000072
:102B6100C5CF04084020002000000000C4B90508BA
:102B710003000000BDD00408342000200000000044
:102B81003CBE050803000000BDD004082820002039
:102B91000000000044BE050803000000BDD0040889
:102BA1001C200020000000004CBE050807000000AA
:102BB100A9CF04081420002000000000F8A6050891
:102BC10003000000BDD00408082000200000000020
:102BD10058BE050803000000BDD00408FC1F0020FA
:102BE1000000000064BE050803000000BDD0040819
:102BF100F01F002000000000E4B5050801000000FE
:102C010000000000000000000000000000000000C3
:102C11000E000000000000000000000000000000A5
:102C2100A5B5040875B504084820002055B8040866
:102C310000000000D420002041B404081DB40408A1
:102C4100602100200000000000000000142200208C
:102C51002DB80408E1CF0408B422002070BE050895
:102C61000000000000000000000000000000000063
:102C71007CBE050803000000BDD00408C02300206D
:102C81000000000084BE050803000000BDD0040858
:102C9100B423002000000000B895050803000000DF
:102CA100BDD00408A82300200000000090BE050844
:102CB10003000000BDD004089C2300200000000098
:102CC1009CBE050803000000BDD00408902300202D
:102CD10000000000A4BE05080200000031D3040872
:102CE1000000000000000000ACBE0508020000006A
:102CF10031D304080100000000000000B8BE05083F
:102D01000200000031D304080200000000000000AE
:102D1100000000000E0000000000000000000000A4
:102D2100000000001C02012088136F170100000041
:102D31001E02012088136F1700000000C4BE0508A1
:102D41000000000000000000000000000000000082
:102D5100D4BE05080800000000000000A0240020E7
:102D610004000000E0BE05080800000000000000AB
:102D710094240020000000005CBA05080400000053
:102D810099CC04080000000000000000E4B505082B
:102D91000100000000000000000000000000000031
:102DA100000000000E000000000000000000000014
:102DB100000000001A02012088136F1701000000B3
:102DC1000A9D002088136F170000000015B3040846
:102DD10000000000AC2400203D050120010000009E
:102DE100E46705080C9D002001000000F06705085C
:102DF100029D002002000000F86705081A9B0020D0
:102E01000000000000000000189B002000000000EE
:102E110000000000169B00200000000000000000E0
:102E2100149B00200000000000000000129B002005
:102E31000000000000000000109B002000000000C6
:102E410000000000E4090020000000000000000074
:102E51001902012002000000046805081CBF0508D2
:102E61000000000000000000000000000000000061
:102E7100D4BE050808000000000000003025002035
:102E810004000000E0BE050808000000000000008A
:102E910024250020000000005CBA050804000000A1
:102EA100E5B204080000000000000000E4B50508D8
:102EB1000100000000000000000000000000000010
:102EC100000000000E0000000000000000000000F3
:102ED100000000002CBF05080000000000000000F9
:102EE10000000000000000003CBF05080D000000CC
:102EF100E9CD0408602500200400000048BF050852
:102F01000D0000003DB3040854250020040000001A
:102F110054BF05080D000000ADCD04084825002070
:102F21000000000060BF0508030000009DB904080F
:102F31003C250020080000006CBF050803000000CC
:102F4100BDD004086428002000000000E4B5050895
:102F5100010000000000000000000000000000006F
:102F6100000000000E000000000000000000000052
:102F710000000000DCB505080000000000000000B2
:102F8100000000000000000083B5050804000000F7
:102F9100B1CC04080000000000000000E4B5050801
:102FA100010000000000000000000000000000001F
:102FB100000000000E000000000000000000000002
:102FC10000000000C0BF0508000000000000000074
:102FD1000000000000000000E8B205080D0000003C
:102FE10000000000C025002004000000D0BF05083B
:102FF1000800000000000000B425002004000000CB
:10300100DCBF05080800000000000000A825002022
:1030110004000000E4BF05080800000000000000F3
:103021009C25002004000000ECBF050808000000FA
:10303100000000009025002004000000F4BF0508F6
:1030410008000000000000008425002004000000AA
:10305100FCBF0508080000000000000078250020E2
:103061000400000004C00508080000000000000082
:103071006C25002004000000E4B5050801000000F3
:10308100000000000000000000000000000000003F
:103091000E00000000000000000000000000000021
:1030A100FDB2040800000000CC2500200000000053
:1030B1000000000044260020000000000000000085
:1030C100E4260020089D0020040000001068050887
:1030D100069D0020E0150C1700000000059D002052
:1030E1000800000068550508049D00200500000047
:1030F10024680508000000000000000034270020BB
:103101007428002000000000000000000000000002
:1031110000000000000000000000000000000000AE
:10312100000000000000000000000000000000009E
:10313100000000000000000000000000000000008E
:10314100000000000000000000000000000000007E
:10315100000000000000000000000000000000006E
:08316100000000000100000065
:1080000000232522027043708370C370704700BF45
:1080100090ED057A90ED004AD0ED066AD0ED014A68
:10802000D0ED047A90ED035AD0ED025AA4EE007A16
:10803000B0EE406AB0EE470AB0EE667AA4EE867AF9
:1080400067EEC07AA5EE407AE5EE867A80ED057A95
:10805000C0ED067A704700BFD0ED057A90ED013A89
:10806000D0ED003AD0ED064A90ED024A90ED077A45
:1080700090ED035A90ED086AD0ED045AC0ED067AEF
:10808000F0EE406A27EE830AC0ED056AA3EEA60A69
:1080900080ED087AA4EE240AA5EE470AA5EEC60AEA
:1080A00080ED070A704700BFD0ED007A90ED017AAD
:1080B00030EE670AE7EE007AB0EE670AC0ED007AAC
:1080C000704700BF704700BF2DE9F04714461D46BA
:1080D00006464FF47A7200232046294647F0EAFC10
:1080E0004D4BDFF848814D4A4D4F034488FB031048
:1080F0001844D91782FB032CC1EB601088FB0028C1
:1081000087FB03279C44474AC1EBEC2CC0EB001EC5
:1081100082FB0C29A3EB8E0E1F44434A86F806E02F
:10812000C1EB27474FEAEC7E08EB000ACEEBA90E25
:1081300082FB07824FEAE0780EEB4E0EC8EB6A181E
:10814000ACEBCE0CC8EB0818DFF8E4E086F804C00E
:10815000A0EB880070718EFB0303F817C0EBE212EE
:1081600040F2B55000FB1272C1EBE353B2F5896FD8
:108170004FEA83073CDA40F2DA239A4242DCB2F556
:10818000B77FB4BF4FF0000E4FF0010E4FEA4E091B
:10819000DFF8A08009EB0E0308EBC3031FFA8EFC87
:1081A000D88A09EB0E0108EBC10116310B2301E05F
:1081B00031F8020D904218DD013BF9D1CE44012384
:1081C00038F83E00B37007F5FA670132121ABC4462
:1081D000F270A6F800C0204629464FF47A720023B8
:1081E00047F068FC3281BDE8F0870133DBB2E9E794
:1081F0004FF0030CE64640F29650DFF838804FF01F
:108200000609CEE74FF0020CDFF82880E64640F280
:1082100029404FF00409C4E780BC92C7C5B3A291BE
:1082200007452EC2ABAAAA2A73B06D168988888822
:10823000792D03111818050830B403888278C478A2
:10824000154DA3F5FA6303F0030101EB4101013A77
:1082500002EB81029B0835F812500279611E40F250
:10826000B55404FB03132B4403EB430302EBC3039A
:108270004279847909490089C3EB031302EB830334
:108280002144C3EB031301EB83034FF47A72002103
:10829000C2FB030130BC70471818050880436D38D5
:1082A0000028F0B403DA2D230B7040420131092875
:1082B00004464FF0010307DD03EB83035B00B0FBD3
:1082C000F3F2092AF8D883B10F48A0FB0326B4FBC8
:1082D000F3F2092A02F1570C02F1300709DD03FB22
:1082E0001244F30801F801CBEFD100230B70F0BC6E
:1082F000704703FB1244F30801F8017BE5D100232A
:108300000B70F0BC704700BFCDCCCCCC884270B4B1
:108310004FF0010442D301FB04F4B0FBF4F58D42AD
:10832000F9D2ECB142BB092D04FB150005F157064B
:1083300005F130020EDDB4FBF1F403F8016B7CB102
:10834000B0FBF4F5092D04FB150005F1570605F106
:108350003002F0DCB4FBF1F403F8012B002CEFD178
:1083600000221A7070BC704703F8016BB4FBF1F483
:10837000002CF5D0B0FBF4F5092D04FB150005F138
:10838000370605F13002EFDCB4FBF1F403F8012B02
:10839000002CEFD100221A7070BC70470546002AED
:1083A000EAD1C0E703685A1C02601970704700BF29
:1083B0002DE9F047089C2578002B804689460CBFA4
:1083C0004FF0200A4FF0300A661C25B3002A26DD44
:1083D000334601E0024698B113F8011B501E0029F4
:1083E000F8D1971E60B13D46013D51464046C84711
:1083F0006B1C002BF8DC257827EAE770013045B1CB
:10840000041B29464046C847301916F8015B002D69
:10841000F7D1BDE8F087002A03DC2846F9E7002001
:10842000EEE7571EDFE700BF01211F220323017083
:1084300042708370704700BFF0B400250E4E00F10B
:10844000FF3C2F46142165B103788B420BD00346C5
:108450000CEB050403E013F8012F8A4203D0A3427A
:10846000F9D1C155013701350B2D02D016F8011F86
:10847000E9E7F0BC704700BF781805080C4AF0B473
:10848000002302F1080717261625152403EB4303E2
:10849000C118BA42C4544D708E7006D092F904309F
:1084A00054799579D6790432F0E7F0BC704700BF73
:1084B0008418050830B4012302253224312110220A
:1084C000057244704171C27003700371837030BCD7
:1084D000704700BF06224FF47A7302704360704702
:1084E00030B41D6995420AD314460A4621448D4290
:1084F000996938BF2A1B214430BC47F02BBD30BCE2
:10850000704700BF0020704700207047012070476F
:108510000120704700207047002070474FF4007022
:10852000024B10609B680B600020704770C60020F3
:1085300003484FF40073806A08600020136070479E
:10854000FCC50020013A30B4D2B28C1C04EB4204CA
:108550000025020F092AD3B203F130028ABF373354
:108560000A700B704D7002318C424FEA0010F0D14E
:1085700030BC70470B4A0C4B10681B681A22C0189D
:108580000A8001D10948704710B5094B09491C6898
:108590000822FFF7D7FF204604220749FFF7D2FF42
:1085A000024810BDE8F7FF1FECF7FF1F0000002096
:1085B000EAF7FF1F020000201200002004230B80B6
:1085C000004870471C00002012230B8000487047B1
:1085D000200000202C22022302704370704700BF4D
:1085E0000830704708307047044A054B126803EBA7
:1085F000421318465B689B69184700BFD8280020C3
:10860000C0BF00200448054B006803EB4013184628
:108610005B685B69184700BFD8280020C0BF0020F6
:10862000704700BF816170476D4B2DE9F04F5C686A
:108630006C4BB3F80AE0B3F804809A894FEA0E2A2B
:10864000B4EB0A044FEA1E6B4FF0000587B065EBF0
:108650000B05CDE900450746009C1889019EA0FB4B
:10866000044500FB0655E00940EA45604FEA08442E
:108670008C46E9114FEA184510EB0408D888009C95
:1086800041EB0509CDE90489A0FB0445B3F802805C
:1086900000FB0655200A40EA05604FEAC83429125B
:1086A0004FEA584510EB040841EB05090099A2FB7D
:1086B000010102FB06114FEAD05A4AEA412A1AF593
:1086C000FA634FEAE15B4BF10004B3F5FA6FCDE9D1
:1086D000023474F10003424E64DA0524AAFB04015B
:1086E00004FB0B1100FB0BF40AFB0144DDE904233E
:1086F000A0FB0A0121444D104FEA3004121B4FEA3F
:10870000900463EB050344EA8174B8EB0408CDE9F7
:108710000423DDE9023434484FEAA10569EB050979
:108720004FF0FF31834274EB010326DA40F6AC5080
:108730001AEB00024FF000014BEB010302FB03F1C7
:10874000A2FB022303EB4103D400DD00101B45EA2A
:10875000527563EB0501DDE9044524184D41CDE96F
:1087600004450B24A2FB040104FB031149104FEA4A
:108770003000B8EB000869EB0109DDE90032534332
:10878000009ADDE90201A2FB02AB0BEB430B4FEABF
:10879000DA7242EA4B02801A4FEAEB7361EB030193
:1087A000CDE9020197B1B168A1FB082301FB0933B0
:1087B000540D5D1544EAC324DDE90423A21A65EBD8
:1087C00003031D46D30B43EA45433B60BCF1000F56
:1087D00002D0029BCCF8003007B0BDE8F08F00BF9C
:1087E000D8280020C45D002024FAFFFF2DE9F04FB7
:1087F000DFF8DCC1754CDCF80C502288B4F90AA013
:10880000C2EB25135200C2EBE502B4F902505B4300
:108810006A43B4F904501B135D43AD1305EBE22525
:10882000B5F5FA324FEAE57B85B04BF1FF33CDE980
:108830000023DDE900325343009AA561A2FB0289BF
:10884000CDE90201B4F908200199009809EB430928
:108850005143D31700FB0311A2FB00230B444FEA43
:10886000EA7B0AFB09F11F0308FB0B13AAFB0801B3
:1088700019444FEA102A4AEA016A16034FEA212BEB
:1088800047EA12571AEB0602E6884BEB070312F190
:10889000000A43F5004BAAFB060106FB0B114A1028
:1088A000CB1752EA030100F08E80B4F910600098F3
:1088B00006FB09F1F71708FB0711A6FB0867394407
:1088C000B4F90E808B4601994FEAE87908FB01F173
:1088D00000FB0911A8FB00898944DCF810104FEA5D
:1088E0004947C1F5801C47EAD837B2464FEA4846A7
:1088F000B4F90C801AEB060A66464BEB070BF71728
:108900004FEAC806019600260096F907DDE90067E0
:108910004FEACC7016EB0A0647EB0B0741EA5C0105
:10892000801B61EB070140F6354C8946A0FB0C012A
:108930000CFB091147F0BEF8B4F91620B4F914A0E5
:108940004E13470B47EAC14702FB06FCD31707FB50
:1089500003CCA2FB07236344564307FB0366A2FB39
:1089600007233344560E46EAC31632184FEA6367AC
:1089700047EB010380460AFB01F14FEAEA7B08FB63
:108980000B17AAFB08013944C60C46EA413612EB24
:1089900006084FEAE147B4F9122043EB07094FEA12
:1089A000182141EA096113010B44029A0AB11B0A1A
:1089B0001360039B23B105EB850580352D121D60E7
:1089C00005B0BDE8F08F0023EFE700BFD85D0020C1
:1089D000D8280020704770472DE9F041334B344EC2
:1089E0009A8A7489B6F91450B6F90480B6F90E70F3
:1089F000B6F920C09B69121B34895443E213B6F9BF
:108A000012401544E40294FBF5F4B6F90250144404
:108A1000A4F57A6E0EFB0EF20EFB05F50EFB08FEBA
:108A2000B6F90C80F4611213574302FB08F21214DA
:108A300002EB6E32ED1205EBE7270232B6F9005079
:108A4000B6F806E0921002F5004207EB85070EFB30
:108A500002F207FA0CF74FEAD23E02374CF25032DC
:108A6000A3EBA70742FA0CF37B4355BF5B00B3FBB4
:108A7000FEF3B3FBFEF35B0078B11A1202FB02F5C2
:108A800040F6DE326A430B4D12145D4302EB254281
:108A900002F6CF6203EB2213036021B10A235C4389
:108AA000083424110C60BDE8F08100BFD8280020F4
:108AB000A05D002043E3FFFF4FF400638382704713
:108AC0004FF40063838270474FF4006383827047E2
:108AD000012380F854307047F0B4037C4569026884
:108AE0001F2B37D9203B2021546899400C4223D0BA
:108AF00010249C40D160D4605168D940CE074ED438
:108B0000EFF31183502282F31288EA6B1168C907D0
:108B100009D45468002C52D1D5E909618E4243D161
:108B2000012285F86020DBB283F31188037C0268A0
:108B30001F2B194614D9203B082150689940084240
:108B400000D0D1600421506801FA03F3184223D108
:108B5000F0BC7047202416689C4026420FD119466D
:108B6000082310688B40184200D0936004231068DB
:108B700003FA01F10842EBD09160F0BC704710217C
:108B80009940946091601168D940CC07B8D5012113
:108B900001FA03F39360B3E7D360F0BC704701219F
:108BA00001FA03F3D360ABE7AF690F44D7600ED887
:108BB0002E69711A5160AC62002185F8601011684D
:108BC00041F00101DBB2116083F31188AEE7711A45
:108BD0005160AE62F0E700BF70B4037C01681F2BE8
:108BE00026D9A3F1200520224C68AA40224214BFB6
:108BF00001220022D2B142691B481C4C02EB420206
:108C000000EB4212257854682068CDB9E568568992
:108C10002C6824F001042C6082891F2B22EA0602B2
:108C200082811AD8202202FA03F38B6070BC70474D
:108C300020220C689A40224214BF01220022D9E768
:108C4000A469226822F001022260828922F48072E3
:108C50001204120C1F2B8281E4D9A3F120022023DD
:108C60009340CB6070BC704794D50020C8110010B1
:108C700070B59D4C2368002B40F005819B4B1A7802
:108C8000002A68D09A4B19789A4B002964D1186849
:108C9000B3F82C5141628489012A44EA0504848195
:108CA000A3F82C1157D0D3F83001B3F85C524162CD
:108CB0008489022A44EA05048481A3F85C124AD01C
:108CC000D3F86002B3F88C5341628489032A44EAE2
:108CD00005048481A3F88C133DD0D3F89003B3F836
:108CE000BC5441628489042A44EA05048481A3F8BF
:108CF000BC1430D0D3F8C004B3F8EC554162848979
:108D0000052A44EA05048481A3F8EC1523D0D3F89E
:108D1000F005B3F81C5741628489062A44EA050429
:108D20008481A3F81C1716D0D3F82007B3F84C5849
:108D300041628489072A44EA05048481A3F84C1817
:108D400009D0D3F85028B3F87C4951629089204368
:108D50009081A3F87C1970BD5C68198961602568F1
:108D6000186845F0010540F20D312560A0F8481063
:108D70008489012A44F480748481ECD0D3F834418E
:108D8000B3F83851D3F830016560256845F0010526
:108D90002560A0F848108489022A44F480748481F4
:108DA000D9D0D3F86442B3F86852D3F86002656052
:108DB000256845F001052560A0F848108489032A3C
:108DC00044F480748481C6D0D3F89443B3F89853A4
:108DD000D3F890036560256845F001052560A0F88B
:108DE00048108489042A44F480748481B3D0D3F871
:108DF000C444B3F8C854D3F8C0046560256845F08E
:108E000001052560A0F848108489052A44F480747F
:108E10008481A0D0D3F8F445B3F8F855D3F8F00521
:108E20006560256845F001052560A0F84810848933
:108E3000062A44F4807484818DD0D3F82447B3F893
:108E40002857D3F820076560256845F0010525609F
:108E5000A0F848108489072A44F4807484813FF480
:108E60007AAFD3F85428B3F85808D3F85038506084
:108E7000106840F001001060A3F848109A8942F48D
:108E800080729A8170BD054615F01CFF217AA9B148
:108E90006DB1194A002316890133002E18BF002135
:108EA000AB4202F16002F6D100293FF4E7AE00F5D3
:108EB0001C501030002320602372DFE62368C31AA1
:108EC000002BFFF648AF637A3BB1013BDBB2637224
:108ED0002BB100F57A702060D0E62360CEE663689F
:108EE00003442360CAE600BF9C64002094D800209D
:108EF000C811001098D8002094D5002010B5027C2D
:108F000001681F2A4FF020030ED94C68203A934085
:108F10001C4208D00B4A406800241470026822F0FA
:108F200001020260CB6010BD0C6893401C42FAD075
:108F3000044A406800241470026822F001020260B2
:108F40008B60F0E70C89002010B5027C01681F2AB5
:108F50004FF020030ED94C68203A93401C4208D0B1
:108F60000B4A406800241470026822F0010202607B
:108F7000CB6010BD0C6893401C42FAD0044A406894
:108F800000241470026822F0010202608B60F0E796
:108F90002D7000202DE9F041C40023189B00B74933
:108FA000CA585268958AADB2EFB2FE070B4461D43D
:108FB000BE0737D5BFF35F8F1D7EEDB2012D00F0E8
:108FC000BB80AF4E138BBFF35F8F231801EB83037E
:108FD0001D7E022D00F0CE80231801EB83031D7E41
:108FE000032D05D19B7E1BB1737F002B40F01A81AE
:108FF000938896F91CC043F480639380231801EB97
:1090000083031B7E013363450AD1B37F0025757747
:10901000002B40F08A80204401EB80000023437540
:10902000BDE8F081964E17F0040F96F91CC04DD1A3
:1090300017F0400700F0B280178A1D6AFFB205F8EA
:109040000C705FFA8CF56F1C93F818E07BB2DF1C94
:10905000BE4533779C4600F00981271801EB87074E
:109060003F7EBB42CAD105F1020C4FFA8CFC86F858
:109070001CC0C3E71588824E25F400652D042D0C15
:109080001580158845F4806515809D7E002737770B
:10909000002D3DD0757F002D37D0231801EB8303C1
:1090A00001251B7E7577022B03D1138843F40063DF
:1090B0001380231801EB83039B7D43F0010313828C
:1090C000204401EB8000037EBDE8F0819F7E757F28
:1090D0004FF0010E86F81EE0002F5CD0002D78D1F5
:1090E000231801EB83035B7E002B00F0A480138820
:1090F0000CF1010C4FFA8CFC43F4007386F81CC091
:1091000013801388DF05FCD478E7DB7DFF2BC4D008
:10911000231801EB83039D7D05F0FE051582DB7DA1
:10912000FF2BCDD0FF233377CAE7938823F4407316
:109130001B041B0C93806EE79B7E514E002B3FF46B
:1091400041AF737F002B3FF43DAF138823F480635E
:109150001B041B0C1380BFF35F8F138B1388B57731
:1091600043F400731380938896F91CC043F4806322
:10917000938043E79B7E002B3FF42EAF737F002B41
:109180003FF42AAF138896F91CC023F480631B04B4
:109190001B0C138016E0002DA2D0A8E72D067FF54A
:1091A0002DAFBCF1FF3F6DD0DD6915F80C50158275
:1091B0000CF1010C1D7E4FFA8CF39D429C463377D7
:1091C0007FF41CAF938823F480631B041B0C9380F3
:1091D00014E71F7ED3F820805FFA8CF5AE44022F8F
:1091E0004FFA8EFE17882DD927F480673F043F0C75
:1091F0001780178AFFB208F80C701788D3F820C0C0
:1092000047F400731380138ADBB20CF80E30938896
:1092100005F1020C4FFA8CFC43F4806386F81CC005
:1092200093806EE7938896F91CC023F480631B0437
:109230001B0C9380E2E61388012543F480731380AE
:1092400075775EE747F400771780178AFFB208F852
:109250000C70178AD3F8208005F1030C4FFA8CFCB0
:10926000FBB286F81CC008F80E304AE7978827F44E
:1092700080673F043F0C9780EFE600BFA86A00209C
:10928000D8280020DD7D15829D7E37771DB91B7E95
:10929000002B7FF415AF938823F480631B041B0C11
:1092A00093800DE700230122036003714371C371B2
:1092B00003724372C3728271827270472DE9F84F54
:1092C000DDE90A64894617460021202298460546B2
:1092D00046F0A6FE5EB1D6E900327189EB81C3F398
:1092E0000F432B82C2F30F43EA822B8369824846E5
:1092F00045F0F4FE17F0100B10D1431E70B119F8B1
:1093000003202E2A18BF09EB030104D14AE011F80B
:10931000016D2E2E3ED013F1FF33F8D208280246FD
:10932000CA46A8BF08224FF0000B4FF020336B60F5
:109330002B60C5F807304946284605F1080646F077
:1093400009FE5A465146304646F004FE6B1EE81DA3
:1093500013F8012FA2F1610119299CBF203A1A705C
:109360008342F5D105F10B0116F8013BA3F161022F
:10937000192A9CBF203B06F8013CB142F4D11823C6
:10938000C8F30F42EF722B73A5F81A80AA82EC6122
:10939000BDE8F88FC01A00F1FF3BBBF1030FA8BF77
:1093A0004FF0030B082B03F1010AA8BF0823CA449E
:1093B0001A46BAE738B51D4B1B78044600F125055F
:1093C00093B104221A49203046F068FE2846142240
:1093D000184946F063FE012384F83A30164B1B7897
:1093E00073B984F83B3038BD28461422134946F03F
:1093F00055FE012384F83A300F4B1B78002BF0D038
:109400000F4B186859689A68DD68E56020606160F4
:10941000A260DD69186959699A69A2610123E56151
:109420002061616184F83B3038BD00BFBDAD0020D4
:10943000BEAD0020C3AD00209CAD002044680508EF
:109440009DAD0020014B186815F062BF0864002034
:1094500010B500210446012014F0E8FB207010BD77
:1094600038B500240472451EE1B2022014F0DEFB80
:109470000134082C05F8010FF6D138BD38B52C227F
:10948000002146F0CDFD0346642140F2DC5240F25B
:10949000022019745A821321202240F21A4540F208
:1094A0006C74188399760E2002211A7701229D820E
:1094B000DC8240F2753540F6430483F8220083F8DD
:1094C0002A109A7383F82920DD831C8419460248E8
:1094D000BDE838400FF0ECBC5068050808B530F026
:1094E0007DFE80F00100404240B208BD10B5044C42
:1094F00004480A46214631F0F9F8204610BD00BF65
:10950000F82800205C68050810B5044C04480A4699
:10951000214631F0EBF8204610BD00BFF8280020AE
:109520006C68050810B5044C04480A46214631F021
:10953000DDF8204610BD00BFF82800207868050837
:109540000A4608B5054920B1054831F0CFF803486F
:1095500008BD044831F0CAF8004808BDF8280020CA
:10956000A46805088C680508064B53F820302BB119
:109570001A689B8851690B4201D11383704753834A
:10958000704700BF60B2002003682DE9F04F03F17F
:109590003F4404F57E04534EA40A0125345D04F0D3
:1095A0001F066409032C05FA06F500F09580042CCB
:1095B00000F08D80022C46D08588B5FA85F0C0F188
:1095C0001F0080B2C40803EB840400F00700266A81
:1095D00080000F27874026EA07062662276A01F0E7
:1095E000030602FA00F0721E3843012AC1F3810E0D
:1095F000C1F3001820624FEA51114FF000024FF002
:10960000010C25D94FF0030E0CFA02F0A84315D136
:1096100050001F680EFA00F4E44327401F60D3F89F
:10962000008006FA00F747EA08071F60DF683C4041
:10963000DC60DC6801FA00F02043D8600132102AB7
:10964000E2D1BDE8F08F284C666C35436564B3E722
:109650004FF003090CFA02F737EA050033D1500046
:10966000D3F800A009FA00F4E4430AEA040AC3F8B4
:1096700000A0D3F800B006FA00FA4AEA0B0AC3F8D1
:1096800000A0D3F808A004EA0A0AC3F808A0D3F897
:1096900008B00EFA00FA4AEA0B0AC3F808A0D3F899
:1096A00004A02AEA07075F60D3F804A008FA02F7CB
:1096B00047EA0A075F60DF683C40DC60DC6801FA6B
:1096C00000F02043D8600132102AC3D1B9E7064C1C
:1096D000266B354325636FE7034C266C35432564C1
:1096E0006AE700BF8C5905080038024010B504092C
:1096F000013C032C17D80E4B33F8142000F00F0058
:1097000042FA00F313F001030FD0012303FA00F033
:109710000138104046F01EFA064A074B125D10440D
:1097200003EBC00010BD002010BD184610BD00BFE7
:10973000685C0508705C0508A0B200202DE9F04FB8
:109740004A484B494B4B4C4C4FF0010A4FF0020931
:109750004FF004084FF0080E4FF0100C2027402661
:10976000802530F8022B12F0010F03D01960A3F806
:1097700004A0083312F0020F03D01960A3F804907C
:10978000083312F0040F03D01960A3F804800833E3
:1097900012F0080F03D01960A3F804E0083312F0A8
:1097A000100F03D01960A3F804C0083312F0200F83
:1097B00002D019609F80083312F0400F02D0196068
:1097C0009E80083312F0800F02D019609D8008330C
:1097D00012F4807F05D04FF4807B1960A3F804B0A9
:1097E000083312F4007F05D04FF4007B1960A3F812
:1097F00004B0083312F4806F05D04FF4806B196009
:10980000A3F804B0083312F4006F05D04FF4006BD6
:109810001960A3F804B0083312F4805F05D04FF448
:10982000805B1960A3F804B0083312F4005F05D020
:109830004FF4005B1960A3F804B0083312F4804FB2
:1098400005D04FF4804B1960A3F804B00833D20B55
:1098500004D04FF4004219609A80083301F580610A
:10986000A1427FF47EAFBDE8F08F00BF685C0508C1
:1098700000000240A0B200200010024000B9704772
:1098800003682DE9F04F03F13F4404F57E04534E85
:10989000A40A0125345D04F01F066409032C05FAAF
:1098A00006F500F09580042C00F08D80022C45D048
:1098B0008588B5FA85F0C0F11F0080B2C40803EBBB
:1098C000840400F00700266A80000F27874026EAFC
:1098D00007062662276A01F003068240701E3A439B
:1098E00001282262C1F3810EC1F300184FF000027B
:1098F0004FEA51114FF0010C25D94FF0030E0CFA2D
:1099000002F0A84315D150001F680EFA00F4E4439A
:1099100027401F60D3F8008006FA00F747EA0807DF
:109920001F60DF683C40DC60DC6801FA00F0204327
:10993000D8600132102AE2D1BDE8F08F284C666C65
:1099400035436564B4E74FF003090CFA02F737EAD0
:10995000050033D15000D3F800A009FA00F4E44325
:109960000AEA040AC3F800A0D3F800B006FA00FA25
:109970004AEA0B0AC3F800A0D3F808A004EA0A0ACE
:10998000C3F808A0D3F808B00EFA00FA4AEA0B0AA6
:10999000C3F808A0D3F804A02AEA07075F60D3F849
:1099A00004A008FA02F747EA0A075F60DF683C4054
:1099B000DC60DC6801FA00F02043D8600132102A34
:1099C000C3D1BDE8F08F064C266B354325636FE7A6
:1099D000034C266C354325646AE700BF8C590508A3
:1099E0000038024000B97047036803F13F4202F5B6
:1099F0007E022DE9F04F920A464DAA5C02F01F0547
:109A000052090124032A04FA05F47ED0042A77D0EF
:109A1000022A30D001F00306721E012AC1F3810E22
:109A2000C1F300188588C1F341114FF000024FF0D7
:109A3000010C25D94FF0030E0CFA02F0A84315D102
:109A400050001F680EFA00F4E44327401F60D3F86B
:109A5000008006FA00F747EA08071F60DF683C400D
:109A6000DC60DC6801FA00F02043D8600132102A83
:109A7000E2D1BDE8F08F284A556C2C435464C9E705
:109A80004FF003090CFA02F737EA050033D1500012
:109A9000D3F800A009FA00F4E4430AEA040AC3F880
:109AA00000A0D3F800B006FA00FA4AEA0B0AC3F89D
:109AB00000A0D3F808A004EA0A0AC3F808A0D3F863
:109AC00008B00EFA00FA4AEA0B0AC3F808A0D3F865
:109AD00004A02AEA07075F60D3F804A008FA02F797
:109AE00047EA0A075F60DF683C40DC60DC6801FA37
:109AF00000F02043D8600132102AC3D1BDE8F08FB6
:109B0000054A156B2C43146384E7034A156C2C43F8
:109B100014647FE78C5905080038024010B10368CF
:109B200082885A83704700BF10B1036882881A8305
:109B3000704700BF18B10368828809B95A8370471B
:109B40001A83704710B40A4B0A4A1C7801238340D9
:109B5000234052F8200029B9B3FA83F149095DF88E
:109B6000044BE7E7191C18BF01215DF8044BE1E73E
:109B70005DB2002060B200202DE9F04F002087B0D8
:109B80000C461D4601219246FFF7DCFF002D63D0F5
:109B900005EB0A03DFF8D094DFF8D0B40393554601
:109BA0001CE0002D00F0C581D9F81430AB4264D020
:109BB000D9F81030AB4200F09780D9E90631AB42BA
:109BC00052D8A94200F26F81691A20463DF058FC34
:109BD000039B01359D4204F500743DD0D9F8206007
:109BE000AE42DED8D9F83080AE1B4FEAD60AD8F89C
:109BF00030300AF1020A9A4506F0070603D3D8F876
:109C000038309A4509D9414650463DF007FC804618
:109C1000002800F04D81C9F8300098F80430002B7E
:109C200040F0E280D8F82870002F00F0DF81D8F8EB
:109C30003030D8F80C20AAEB030A06EBCA0A4346D8
:109C4000204602EB4A224FF40071B847039B0135CE
:109C50009D4204F50074C1D100210846FFF772FF50
:109C6000002007B0BDE8F08FA942ADD94FF40072D3
:109C70000021204646F0D4F9AAE752226120412370
:109C8000002622706270A070722284F8E70184F8C6
:109C9000E631D9F82800E3704FF0FF33314684F8FD
:109CA000E42184F8E521C4F8E8014FF4F07284F867
:109CB000EC3184F8ED3184F8EE3184F8EF31201D79
:109CC00046F0AEF955216FF05502C4F8F061C4F8C2
:109CD000F461C4F8F86184F8FC6184F8FD6184F8EB
:109CE000FE1184F8FF2173E74FF400720021204633
:109CF00046F096F9D44BD54F03CBEB2302222370C9
:109D00004FF0080C9026F8234FF0580EC4F80300CB
:109D1000227484F80DC0C4F8071084F801E0A6701E
:109D20006375D9F81010D9F80830D9F81C6022737F
:109D3000591A21624FF0FF3100233F20A1763E21C6
:109D4000A273E372E3736374A374E3742375A3755E
:109D5000E3756376E3766377A377E37720762177FD
:109D600084F82C2007CFD9F8187084F82830F61B17
:109D700084F8293084F82A3084F82B3084F82D3088
:109D800084F82E3084F82F3084F8313084F8323063
:109D900084F8333080236662C4F8470004F1470634
:109DA00084F8403029209423A94F84F846C084F8D1
:109DB000420084F843300E200D234FF0010C84F84C
:109DC000440084F8453084F830C0716003CF3346D6
:109DD0005527AA269A60C4F85200C4F8561084F891
:109DE000FE7184F8FF61F3E64FF400720021204613
:109DF00046F016F9D8F84030002E61D104F1200762
:109E0000002B77D0D8F8303092491122CDE9006686
:109E10002046FFF753FAD8F840301A6C04F1400A94
:109E2000002A79D01B6B8C49CDE900663846112297
:109E3000FFF744FAD8F84460002E3FF4C9AE4FF45F
:109E4000E078CDE904450CE00024CDE900C4FFF73B
:109E500035FAB66CBA46A8F120080EB3B8F11F0F58
:109E60001ED93468356B96F804E011222B46214642
:109E700050460AF1200706F11C0CBEF1000FE3D199
:109E800072793369019342F021022B46CDF800C06C
:109E9000FFF714FAB66CBA46A8F12008002EDDD1FF
:109EA000DDE9044594E6E91A20463DF0E9FA8FE63B
:109EB000231F04F5FE7243F804BF9A42FBD187E6E4
:109EC000002BD8F844200CBF01230223C3EB061358
:109ED000002A3FF47DAE966C013B002E3FF478AE35
:109EE000013BB66CF9D1002E3FF472AEA2464FF49E
:109EF0000078A6E7CDE900663346D9F80C100822B1
:109F00002046FFF7DBF9D8F84460002E3FF460AE3E
:109F1000BA464FF4F07894E7CDE900663346384608
:109F200011224D49FFF7CAF9D8F84460002E86D1B6
:109F30004EE64FF400722946204646F071F8802222
:109F40000C2384F8BE2184F8C231D9F81000434BA9
:109F5000D9F8086084F8B85183FB0032C117C1EB0F
:109F60002232B2F5806F84F8B95184F8BA5184F87E
:109F7000BB5184F8BC5184F8BD51C4F8C601C4F883
:109F8000CA6142DBFF2384F8BF3184F8C13184F811
:109F9000C031324B711E83FB0132CE17C6EB223229
:109FA000B2F5806F29DA2E4B84F8C52183FB0103BB
:109FB0000B442C48C6EB6313C3EB831680FB037082
:109FC000891B1844DE17921022F03F020131C6EBC4
:109FD000E0100A43034484F8C42184F8C3315522B5
:109FE000AA2384F8FE2184F8FF31F1E539464FF4C5
:109FF0000072204646F014F8EAE5FF2384F8C331E6
:10A0000084F8C53184F8C431E9E7154B84F8C121DF
:10A0100083FB00730344134FC1EB631387FB0317E8
:10A02000C3EB831C9110A0EB0C02F818DF1721F092
:10A030003F010132C7EBE0100A43034484F8C0211A
:10A0400084F8BF31A5E700BFC4680508D0680508DB
:10A05000E0680508BC680508C068050897554541D3
:10A06000832008828180808070C60020DEADBEEF34
:10A0700070B50C4601211E4608461546FFF762FDE5
:10A08000AEB104EB462601E030F0A8F800222146EC
:10A0900028463DF057F80028F6D130F09FF8002808
:10A0A000FBD004F50074B44205F10105EED10021A6
:10A0B0000120FFF747FD002070BD00BF70B50C46C2
:10A0C00001211E4608461546FFF73CFD96B104EBFC
:10A0D00046260022214628463DF0CCF80028F8D03C
:10A0E00030F07CF80028FBD004F50074B44205F190
:10A0F0000105EED100210120FFF724FD002070BDF5
:10A10000002108B50846FFF71DFD3DF0EFF830F0DF
:10A1100065F80028FBD001210020FFF713FD002087
:10A1200008BD00BF30B1036882881B691A4214BFA2
:10A1300001200020704700BF2DE9F0410C4E35682A
:10A1400073691D4011D0DFF82C800127B5FA85F422
:10A15000C4F11F0408EB840307FA04F4D3F82001C8
:10A1600003689847A5437461F0D1BDE8F08100BF52
:10A17000003C0140D82800202DE9F0410C4E356804
:10A1800073691D4011D0DFF82C800127B5FA85F4E2
:10A19000C4F11F0408EB840307FA04F4D3F8200188
:10A1A00003689847A5437461F0D1BDE8F08100BF12
:10A1B000003C0140D82800202DE9F0410C4E3568C4
:10A1C00073691D4011D0DFF82C800127B5FA85F4A2
:10A1D000C4F11F0408EB840307FA04F4D3F8200148
:10A1E00003689847A5437461F0D1BDE8F08100BFD2
:10A1F000003C0140D82800202DE9F0410C4E356884
:10A2000073691D4011D0DFF82C800127B5FA85F461
:10A21000C4F11F0408EB840307FA04F4D3F8200107
:10A2200003689847A5437461F0D1BDE8F08100BF91
:10A23000003C0140D82800202DE9F0410C4E356843
:10A2400073691D4011D0DFF82C800127B5FA85F421
:10A25000C4F11F0408EB840307FA04F4D3F82001C7
:10A2600003689847A5437461F0D1BDE8F08100BF51
:10A27000003C0140D82800202DE9F0410C4E356803
:10A2800073691D4011D0DFF82C800127B5FA85F4E1
:10A29000C4F11F0408EB840307FA04F4D3F8200187
:10A2A00003689847A5437461F0D1BDE8F08100BF11
:10A2B000003C0140D82800202DE9F0410C4E3568C3
:10A2C00073691D4011D0DFF82C800127B5FA85F4A1
:10A2D000C4F11F0408EB840307FA04F4D3F8200147
:10A2E00003689847A5437461F0D1BDE8F08100BFD1
:10A2F000003C0140D8280020002875D02DE9F0410D
:10A300008488B4FA84F4C4F11F04651C82B002D1BD
:10A3100002B0BDE8F081E7B207F0FC0606F1804626
:10A3200006F59C3607F00307D6F808E0DFF8C4C04E
:10A330000068BF004FF00F0808FA07F82EEA08057A
:10A340000CEB840E00F13F40CEF8201100F57E00AA
:10A35000B560D6F808E02549254DC0F38720B84000
:10A360000127A74040EA0E00B0604F610E68F84335
:10A3700006400E604E6806404E600E683E430E601A
:10A380008E6806408E60CE682C443040102BC8602A
:10A3900094F8780021D003F1804303F59E331968C7
:10A3A0003943196084449CF860319342B0DD054420
:10A3B000941195F888308DF804300021012301A80C
:10A3C0008CF860218DF805408DF806108DF8073067
:10A3D00031F096FB02B0BDE8F0818B683B438B60A7
:10A3E000CB681F43CF60DDE7704700BF003C0140F2
:10A3F00018180508D8280020094A10B5536C094CD4
:10A4000043F48043536404F590704022002145F0EA
:10A4100007FE4FF0FF33C4F86031C4F8633110BD5C
:10A4200000380240D828002010B58B68016004462F
:10A4300098470022FF230121A2736373217310BD8B
:10A4400003685B6A184700BF03681B6A184700BFB0
:10A4500070B44E1C0568C2728672AC69A44670BCAA
:10A46000604700BF2DE9F041044618460D461646E8
:10A470001F4644F033FE2844A0722068E672294645
:10A4800045693B4632462046AC46BDE8F041604750
:10A49000036810B504461B689847236820469B68EC
:10A4A0009847A37B0133A37310BD00BF10B50368A9
:10A4B00004469B689847FF2301226373227310BDF3
:10A4C00038B50D46FFF712F9044650B136238371B3
:10A4D000C5710121FFF786FA2046BDE83840FFF735
:10A4E00023BB38BD38B50D46FFF700F9044650B11F
:10A4F00035238371C5712021FFF774FA2046BDE82A
:10A500003840FFF711BB38BDF8B5124F054600249F
:10A51000E65D3046FFF7EAF8854204D12146304631
:10A52000BDE8F840DEE701340B2CF1D10A4C20786D
:10A53000FFF7DCF8854209D06078FFF7D7F885424D
:10A5400006D10121605CBDE8F840B9E70021F9E7D8
:10A55000F8BD00BF956A0020A06A00200E4B98420B
:10A5600014D0A3F5784398420ED003F58063984247
:10A570000ED10222094B03EB02135A89013292B227
:10A580005A81588980B270470122F3E70022F1E72F
:10A590004FF0FF30704700BF0030014018B200207C
:10A5A000F8B584894FF6FF764FF47A7433B319B354
:10A5B0000F78013101E0B44218D00589013CAD07A4
:10A5C000A4B2F8D5BCB284814FF47A7402E0BCB274
:10A5D000B4420BD00589ED0704F1FF37F7D5858923
:10A5E000ADB20AB115700132013BDFE7FFF7B6FFEC
:10A5F000003018BF0120F8BDFF27DEE70120F8BDBD
:10A6000030B5437F83B004461BB90120637703B0A4
:10A6100030BD0523ADF80430056800BFA868FFF71A
:10A620007DFA6A4601A902236868FFF7B9FFA868A6
:10A63000FFF77AFA00BF9DF8013003F0010383F0C1
:10A640000100637703B030BDF8B5074C05460F46EF
:10A65000266803E023689B1BBB4204D82846FFF70B
:10A66000CFFF0028F6D0F8BD94B20020F0B5077FE8
:10A6700083B004464FF0030C0020009016461D46A0
:10A680008DF804008DF800C06FB30B0E8DF801300B
:10A690000DF10203080C0A0A997018700621204671
:10A6A0005A70FFF7D1FFE0B1236800BF9868FFF749
:10A6B00035FA237F2268002B14BF05230423694643
:10A6C00050680022FFF76CFF23683246002158686B
:10A6D0002B46FFF765FF23689868FFF725FA00BF50
:10A6E000284603B0F0BD0DF10103D3E72DE9F04199
:10A6F0008046806810B1046880886083D8F80400C0
:10A7000085894FF47A744FF6FF7613F1FF3320D327
:10A7100041B30F78013101E0B44218D00589013C02
:10A72000AD07A4B2F8D5BCB284814FF47A7402E0CC
:10A73000BCB2B4420BD00589ED0704F1FF37F7D561
:10A740008589ADB2002AE0D015700132DDE7FFF750
:10A7500005FFD8F8083013B11A689B8813830120CD
:10A76000BDE8F081FF27D9E7F0B5876983B00646D9
:10A7700017B13B68BA885A837069DFF8A8E083890B
:10A78000C3244FF47A734FF0060C6D464FF6FF71F9
:10A790000EF1010E03E0013B9BB28B4220D00289F7
:10A7A0009207F8D5A3B283814FF47A7302E0A3B283
:10A7B0008B4215D00289D20703F1FF34F7D5828985
:10A7C00092B20DB12A700135BCF1000F0BD00CF123
:10A7D000FF3CFF24BEF1000FE1D09EF80040D7E718
:10A7E000FFF7BCFEB76917B13B68BA881A839DF8BA
:10A7F00005009DF801509DF802109DF803409DF85A
:10A8000004209DF8063041EA052143EA002342EA8C
:10A8100004220120A6F85010A6F85220A6F85430C1
:10A8200003B0F0BDA818050808B540F2E93300E010
:10A83000A3B10289013B12F0020F9BB2F8D089B29A
:10A84000818140F2E93300E043B10289013B12F01B
:10A85000010F9BB2F8D08089C0B208BDFFF77EFE21
:10A86000C0B208BD427A4AB110B5044604F10A01EB
:10A87000D0E9003098470023637210BD704700BFD5
:10A88000437A5A1C0344D2B242729972037A9342B9
:10A890000AD84AB110B5044604F10A01D0E90030E3
:10A8A00098470023637210BD704700BF48B1012371
:10A8B000302803FA01F101D0312803D14A0709D128
:10A8C000002070473228F9D03328F7D0342803D13C
:10A8D0008B07F5D0012070473528F9D02028F7D014
:10A8E0002128F5D01028E9D01128E7D01228E5D08A
:10A8F0001328E3D01428EBD01528E9D0162804D16A
:10A9000011F0030018BF012070471728D8D111F0AB
:10A91000030018BF01207047302829D0312829D0E2
:10A92000322829D0332829D0342829D0352829D0D5
:10A9300020282BD021282BD0102825D0112829D031
:10A94000122829D0132829D0142829D0152829D035
:10A95000162805D0172808BF0F2302D00020704703
:10A960000E23114A03EB4303134493F89A007047F4
:10A970000023F6E70123F4E70223F2E70323F0E7DD
:10A980000423EEE70523ECE70823EAE70623E8E7DC
:10A990000723E6E70923E4E70A23E2E70B23E0E7DE
:10A9A0000C23DEE70D23DCE718180508024A1368BC
:10A9B00023EA00001060704740050120F8B50468E4
:10A9C000C4F30D0405460E4604B32F6831F0A4F914
:10A9D000092840F08880454C236923F440732361A3
:10A9E000236943F400732361236943F00103236166
:10A9F0003E6031F091F92369092823F001032361B6
:10AA000071D12B6804332B60002035E0384B394A74
:10AA100093422BD902F58042934226D902F5804217
:10AA200093422AD902F58042934228D902F5803216
:10AA3000934226D902F50032934224D902F500321E
:10AA4000934222D902F50032934220D902F5003216
:10AA500093421ED902F5802293421CD9B3F1016FB3
:10AA60001BD3052013F086FBFBE7082431F054F9D3
:10AA7000092814D04FF0FF30F8BD1024F6E7182451
:10AA8000F4E72024F2E72824F0E73024EEE7382426
:10AA9000ECE74024EAE74824E8E75824E6E7134FC8
:10AAA0003B6923F440733B613B6943F400733B61B2
:10AAB0003B6923F0F8033B613B6943F002031C430D
:10AAC0003C613B6943F480333B6131F025F93B69DC
:10AAD00023F002033B613B69092823F0F8033B6143
:10AAE0003FF473AFC6E76FF00100C5E7003C0240DA
:10AAF00000400008FF3F0008F8B504460D468E18D8
:10AB00000027B542206900D1F8BDE368591CE16017
:10AB1000234415F8012B1A720429F2D118B9A1683F
:10AB20002046FFF74BFFC4E90370EAE730B4026840
:10AB30001146531C036011F8024B0160D31C51787D
:10AB400003609378151D05601B0443EA0123D07848
:10AB5000234343EA006030BC704700BF0368591CC0
:10AB60001A46016012F8021B0260587841EA002080
:10AB7000704700BF03685A1C02601878704700BF16
:10AB800070B5044608460E4644F0A8FA314605461C
:10AB90000246206845F0DEF920682844206070BD38
:10ABA00038B504460068154645F0D4F922682A44B1
:10ABB000226038BD036810B40A0E5C1C04601A7071
:10ABC00003680A0C5C1C04601A7003680A0A5C1CA7
:10ABD00004601A7003685A1C026019705DF8044B17
:10ABE000704700BF036810B40A0A5C1C04601A7046
:10ABF00003685A1C026019705DF8044B704700BF6F
:10AC000003685A1C026010B4197003680A0A5C1CBD
:10AC100004601A7003680A0C5C1C04601A700368F4
:10AC2000090E5A1C026019705DF8044B704700BF92
:10AC300003685A1C026019700368090A5A1C0260F2
:10AC40001970704710EE103AC3F3160242F07E52AC
:10AC500007EE102ADFED167ADFED164A9FED165A41
:10AC6000DFED165A9FED166ADFED163ADFED166A34
:10AC70009FED164AE7EE274ADB1507EE903AA4EE61
:10AC8000875AF8EEE77AE5EE075A67EEA37AA5EE63
:10AC9000876AB5EEC00AE6EE077AF1EE10FAD4BF85
:10ACA000B0EE440AB0EE660A37EE800A704700BF85
:10ACB000DACDFE3CB9D593BE5CB8903FAA841DC0E6
:10ACC00022E061401872313F07F1B3C2000080FFFB
:10ACD000DFED1D3ADFED1D7A9FED1D7A9FED1D4AD8
:10ACE000DFED1D4A9FED1D5ADFED1D5A9FED1D6AD8
:10ACF000DFED1D6AE0EE237AF4EEC77AF1EE10FA8A
:10AD000088BFF0EE477AF4EEC47AF1EE10FAB8BFDD
:10AD1000F0EE447AFDEEE77A17EE903AC3F31602AE
:10AD200042F07E5207EE102AA7EE245A03F0FF43AA
:10AD300000EE103AE5EE075AA5EE876AE6EE076ADE
:10AD400026EE800A704700BF3BAA384B00007E4EBB
:10AD50000000FF4E00000000ED185E3C81900FBB2C
:10AD6000AF9D2A3EB2D19F3EE886023F07EE901A81
:10AD7000F8EE677A9FED837A27EE800A20EE070AC5
:10AD8000FDEEC07A17EE903A2033402B00F281801E
:10AD9000DFED7D7AB4EEE70AF1EE10FA40F3E680DB
:10ADA000B0EE407A9FED796ADFED796A01E0B0EEAE
:10ADB000677AB4EEE67AF1EE10FA77EE467AF6DCD0
:10ADC0009FED747AF4EEC77AF1EE10FA40F1D1807B
:10ADD0009FED6E6ADFED706A01E0F0EE477AF4EE07
:10ADE000E67AF1EE10FA37EE867AF6D4DFED6B7A7A
:10ADF000B4EEE77AF1EE10FA40F3A780DFED627A65
:10AE000037EEC77A27EE076ADFED655ADFED657A20
:10AE1000DFED656A9FED655AE6EE257A67EE065A24
:10AE2000E6EE276AF7EE007AA5EEA67AF0EE675A0C
:10AE3000E7EE055AE7EE457A87EEA55ADFED577A39
:10AE400030EE277AFDEEC76A16EE903A2033402B9B
:10AE500024D99FED577AF6EE006AB7EE006AF7EE56
:10AE6000004AC4EEA57A0023836143610362C36193
:10AE700080ED045A67EEA66A27EE866A27EE877A87
:10AE8000C0ED006AC0ED026A80ED016A80ED037AD0
:10AE90007047B7EE005AF0EE455ACFE7B4EEE70A36
:10AEA000F1EE10FA6BDD9FED396ADFED396A01E0F2
:10AEB000B0EE677AB4EEE67AF1EE10FA77EE467A03
:10AEC000F6DC9FED347AF4EEC77AF1EE10FA53D542
:10AED0009FED2E6ADFED306A01E0F0EE477AF4EE86
:10AEE000E67AF1EE10FA37EE867AF6D4DFED2B7AB9
:10AEF000B4EEE77AF1EE10FA33DCDFED2E7AB4EE41
:10AF0000E77AF1EE10FA44BFDFED227A37EEC77A26
:10AF100027EE076ADFED224ADFED226ADFED227AB3
:10AF2000E6EE246A67EE064AE6EE267AB7EE006A97
:10AF3000A4EEA77AF6EE006A36EE476AF8EE007ADB
:10AF400027EE277A66EE266A89E7DFED1A7AB4EEF5
:10AF5000E77AF1EE10FA44BFDFED0E7A37EEC77AEA
:10AF600050E7DFED097A37EEC77AD1E7F0EE407AA5
:10AF700026E7B0EE677A39E7B0EE677AB6E7F0EE2B
:10AF8000477A9EE727D4D236DB0F4940DB0FC94012
:10AF9000E4CB1641DB0F49C0E4CB16C1DB0FC93F40
:10AFA00092E741B99730083C15A82ABEF304353F13
:10AFB00000000000DB0FC9BFFDEEC07A17EE903A2B
:10AFC0002033402B45D8DFED2D7AB4EEE70AF1EEC1
:10AFD00010FA4DDDDFED2A6A9FED2A7A01E0B0EE2E
:10AFE000670AB4EEC70AF1EE10FA70EE667AF6DC84
:10AFF0009FED257AF4EEC77AF1EE10FA3BD5DFED3E
:10B00000206A9FED227A01E0F0EE407AF4EEC77AF2
:10B01000F1EE10FA37EEA60AF6D4DFED1D7AB4EEA3
:10B02000E70AF1EE10FA17DDDFED147A37EEC00A09
:10B0300060EE006A9FED176A9FED177ADFED177AD1
:10B04000A6EE867A20EE266AE6EE877AA6EE270A34
:10B0500070479FED130A7047DFED127AB4EEE70AEE
:10B06000F1EE10FA44BFDFED087A37EEC00ADFE7F1
:10B07000F0EE407ABCE7B0EE670ACEE7DB0F49405E
:10B08000DB0FC940E4CB1641DB0F49C0E4CB16C14E
:10B09000DB0FC93F92E741B99730083C15A82ABE9B
:10B0A00000000000DB0FC9BFDFED2E7AB4EEE70A27
:10B0B000F1EE10FA4ADDDFED2C6A9FED2C7A01E00B
:10B0C000B0EE670AB4EEC70AF1EE10FA70EE667AD7
:10B0D000F6DC9FED277AF4EEC77AF1EE10FA3ED552
:10B0E000DFED216A9FED237A01E0F0EE407AF4EE85
:10B0F000C77AF1EE10FA37EEA60AF6D4DFED1E7A23
:10B10000B4EEE70AF1EE10FA14DDDFED167A37EE51
:10B11000C00A60EE006A9FED196A9FED197ADFEDB3
:10B12000197AA6EE867A20EE266AE6EE877AA6EEF1
:10B13000270A7047DFED147AB4EEE70AF1EE10FA51
:10B1400044BFDFED0B7A37EEC00AE2E79FED087AE5
:10B15000F0EE407AF4EEC77AF1EE10FAC0D4B0EE19
:10B16000670ACBE7DB0F4940DB0FC940E4CB164150
:10B17000DB0F49C0E4CB16C1DB0FC93F92E741B9F1
:10B180009730083C15A82ABEDB0FC9BFDFED317A26
:10B1900030EE277AFDEEC76A16EE903A2033402B48
:10B1A00002D99FED2D0A7047B4EEE70AF1EE10FACE
:10B1B0004DDD9FED2A6ADFED2A6A01E0B0EE677A85
:10B1C000B4EEE67AF1EE10FA77EE467AF6DC9FED11
:10B1D000257AF4EEC77AF1EE10FA35D5DFED1F6A65
:10B1E0009FED217A01E0F0EE407AF4EEC77AF1EEBD
:10B1F00010FA37EEA60AF6D4DFED167AB4EEE70AB7
:10B20000F1EE10FA1BDCDFED197AB4EEE70AF1EE8D
:10B2100010FA44BFDFED137A37EEC00A60EE006A21
:10B220009FED136A9FED137ADFED137AA6EE867A0F
:10B2300020EE266AE6EE877AA6EE270A7047DFED53
:10B240000F7A37EEC00AE9E7B0EE670AD4E7F0EE0E
:10B25000477ABCE7DB0FC93F00000000DB0FC940A5
:10B26000E4CB1641DB0F49C0E4CB16C1DB0FC9BFED
:10B2700092E741B99730083C15A82ABEDB0F494038
:10B280002DE90048FCF7D8FF054A064B1268B0EBE1
:10B29000020B61F1000CC3E900BC0120BDE800888D
:10B2A00094B20020F87000200F4B2DE93048D3E90C
:10B2B000004554EA05020AD1034640F2011200207B
:10B2C0001880988098715A801881BDE83088074BA3
:10B2D0001A6814EB020B45F1000C5A466346FCF762
:10B2E000F3FE0120BDE83088F870002094B2002001
:10B2F00002B370B48E1803E0121B14D1B14215D002
:10B3000010F8012BA2F14103192B11F8013BA3F115
:10B31000410598BF2032192D03F12004ECD9D21A2F
:10B3200001D1002BEAD1104670BC704700221046B4
:10B3300070BC70471046704770B5044608460D460D
:10B3400043F0CCFE064602E014F8013F43B132461A
:10B3500029462046FFF7CCFF0028F5D1204670BDD6
:10B360001C46204670BD00BF4FF0FF32FFF7C0BF44
:10B37000A0F16103192B98BF20387047A0F1410359
:10B38000192B98BF20307047202805D00938042891
:10B390008CBF002001207047012070472DE9F0414B
:10B3A0001F46064603461C782046FFF7EDFF1D4664
:10B3B00001330028F7D12B2C51D02D2C24D0102A6A
:10B3C000804628D04FF0FF33B3FBF2F302FB03FCBF
:10B3D0006FEA0C0C5FFA8CFC013500200BE0303C6E
:10B3E000E4B2944225DA98422E461DD81AD002FBC8
:10B3F000004015F8014B392CF1D944F02004602CA1
:10B4000017D9573CE4B2ECE74FF00108102A6C78EA
:10B4100005F10105D6D1302C23D06FF070434FF0E9
:10B420000F0CD9E76445E2D907EA08084FF0FF306E
:10B43000DFE701B10E60B8F1000F08D027B1B0F11D
:10B44000004F28BF4FF000404042BDE8F081002F80
:10B45000FBD06FF00043984228BF1846F5E78046BE
:10B46000D4E76C782046FFF789FF782805F10106BC
:10B4700005D035466FF070434FF00F0CACE7AC7859
:10B480006FF0704302354FF00F0CA5E701230A223D
:10B49000002183E7613819288CBF00200120704704
:10B4A000413819288CBF0020012070473038092806
:10B4B0008CBF002001207047A0F13003092B07D971
:10B4C00020F02000413819288CBF0020012070474F
:10B4D000012070470378202B024600F10100F9D0CB
:10B4E000092BF7D02D2B00F0A4802B2B03BF537812
:10B4F000B7EE000A0246B7EE000AA3F13001C8B267
:10B5000009289FED577A10D8F2EE046A07EE901AD8
:10B51000F8EEE77A12F8013FE7EE267AA3F1300160
:10B52000C8B20928B0EE677AF0D92E2B63D003F0A9
:10B53000DF03452B02D020EE070A704710B4517884
:10B540002D294FD02B2979D0A1F13003092B02F1FD
:10B5500001027AD80024002303EB830301EB4303A9
:10B5600012F8011FA1F130000928A3F13003F3D92B
:10B57000B3F59A7F1A4628BF4FF49A72072B6CD9FD
:10B58000DFED386A1346F7EE007A083B072B67EECB
:10B59000A67AFAD802F00702DAB1F2EE046A012ABA
:10B5A00067EEA67A15D0022A67EEA67A11D0032A92
:10B5B00067EEA67A0DD0042A67EEA67A09D0052A8E
:10B5C00067EEA67A05D067EEA67A062A18BF67EE60
:10B5D000A67A002C3BD087EE277A5DF8044B20EE4C
:10B5E000070A70479178A1F13003092B02F102029A
:10B5F00030D80124AFE75378A3F13001C8B209284D
:10B6000002F1010293D8F2EE046AF0EE665A07EEF8
:10B61000901AF8EEE77A12F8013F87EEA66AA3F1D6
:10B620003001C8B2092866EEA56A37EE067AEED96F
:10B630007DE75378BFEE000A02465EE79178A1F1FC
:10B640003003092B02F1020284D9F7EE007A27EECB
:10B65000277AC2E7F7EE007ABDE7F7EE007A9BE7BC
:10B660000000000020BCBE4CF8B506461546084652
:10B67000B6FBF2F434B905FB14640C4B1B5D00F807
:10B68000013BF8BDB4FBF2F75FB905FB1747074B69
:10B6900005FB1464DA5D00F8012B1B5D00F8013B2B
:10B6A000F8BD3846FFF7E0FFEFE700BFEC6805089C
:10B6B000B5EEC00ADFED677A674AF1EE10FACCBF4B
:10B6C00030EE270A30EE670ADFED647A20EE270AB3
:10B6D0002DE9F047FDEEC07A88B017EE904A84EA73
:10B6E000E4760023A6EBE476CDE902330493A2FBD3
:10B6F00006325FEAD208054641D105AF58483946BF
:10B70000554BA3FB0623DB0803EB8303A6EB4303A4
:10B71000002CC35C0B704FF00002ACBF20232D2324
:10B720004A7038468DF8083043F0D8FC0128394675
:10B7300039D0022842D0032805BF302302A802A82E
:10B740008DF8093044F074FC02A843F0C7FC0338BC
:10B75000C4B2224602A9284644F0A0FC00232B557F
:10B76000284643F0BBFC2E22431C02A92A54214444
:10B77000E81844F079FC284608B0BDE8F087394B5A
:10B78000A3FB06235B0922D105AF35483946324A6F
:10B79000A2FB0832D20802EB8202A8EB4202835CD1
:10B7A00001F8013BACE7302302A88DF809308DF891
:10B7B0000A308DF80B3044F03BFCC5E7302302A87B
:10B7C0008DF809308DF80A3044F032FCBCE7264A87
:10B7D000A2FB06125FEA92190ED105AF2048394646
:10B7E0001D4AA2FB03C2D20802EB8202A3EB420372
:10B7F000C35C01F8013BCAE71C4AA2FB06125FEAE0
:10B80000523A0ED105AF16483946134AA2FB09C277
:10B81000D20802EB8202A9EB4202825C01F8012B02
:10B82000DEE71348B6FBF0F058B905AF39460A20F9
:10B83000BAFBF0F200FB12A20948825C01F8012B6E
:10B84000E3E705AF39460A220193FFF70DFF019B9D
:10B850000146ECE76F12033ACDCCCCCC00007A4421
:10B86000EC6805081F85EB51D34D62105917B7D10D
:10B87000A086010070B406688E4217D90139751E82
:10B88000002311F8014F0822634013F0800F4FEAA4
:10B89000430318BF83F0D503013ADBB2F5D18D42E3
:10B8A000EFD1721C0260337070BC7047721C0023B1
:10B8B0000260337070BC70470A44914215D010B4D6
:10B8C0000139541E11F8012F0823504010F0800F49
:10B8D0004FEA400018BF80F0D500013BC0B2F5D15F
:10B8E000A142EFD15DF8044B7047704748400823F0
:10B8F00010F0800F4FEA400018BF80F0D500013BE8
:10B90000C0B2F5D1704700BF0A44914215D030B49F
:10B910000139551E41F2210211F8014F082380EA36
:10B92000042004044CBF82EA40004000013B80B286
:10B93000F7D18D42F0D130BC7047704770B502220C
:10B940001349144C144E4FF6FF70FFF7DDFF2288A9
:10B950004AB1A518B54218D2052A16D92146FFF7D3
:10B96000D3FF2C46F3E721460222FFF7CDFF022248
:10B97000A118FFF7C9FF094BE41A094B1C8041F6D7
:10B980000F53C31A5842584170BD0020FCE700BF56
:10B99000004000080240000800800008FA3F00084C
:10B9A000025700202DE9F043002489B006460D46D9
:10B9B0001F46A04605E025290CD030460134A84793
:10B9C000039A531C039311780029F4D1204609B03F
:10B9D000BDE8F083931CCDE903385078302842D07D
:10B9E000A0F13003DBB2092B4FF0000945D96C28D8
:10B9F0002AD0642873D019D9732858D063D97528F0
:10BA000040F0828007F1040C386805AB00220A215F
:10BA10006746FCF77BFC05AB049A009329464B462E
:10BA20003046FCF7C5FC039A0444CAE725283CD0FD
:10BA300051D958286BD06328C2D139783046A847ED
:10BA400004370134039ABCE7039B5A1C03921B780A
:10BA5000642B52D016D8252B27D064D9582B18D058
:10BA6000632BEAD0ADE7D31C03939078A0F13003A9
:10BA7000DBB2092B4FF00109B9D804AA03A93BF0A6
:10BA800051FDB4E7732B12D051D9752B2DD0782BE3
:10BA900097D1A3F15802B2FA82F23868520905AB85
:10BAA00010210437FCF732FCB5E7252185E73B6818
:10BAB000049A0093294600233046FCF779FC0437AA
:10BAC0000444039A7DE76E287FF47AAF039A3B68BB
:10BAD00004371C6075E700283FF478AF70E73868DA
:10BAE00005A9FCF7DDFB043795E7386805AB0022B4
:10BAF0000A21FCF70BFC04378DE73B1D386805A9CC
:10BB00001F46FCF7CDFB86E778287FF459AFA0F1FC
:10BB10005802B2FA82F23868520905AB1021FCF7DC
:10BB2000F5FB043777E7002B3FF450AF49E76E2B66
:10BB3000CDD046E70EB400B584B005AB019053F804
:10BB4000042B0649039301A8FFF72CFF019B002259
:10BB50001A7004B05DF804EB03B07047A5830008C9
:10BB60002DE9F04707468CB01E469246002A5CD16C
:10BB7000154614460A88B2F5FA6F36D38B78581EEC
:10BB80000B2832D891F803C00CF1FF301E282CD8B6
:10BB900091F804E0BEF1170F27D891F80590B9F19C
:10BBA0003B0F22D888793B281FD8B1F80880B8F518
:10BBB0007A7F1AD24FF001085EBB09890491002CEC
:10BBC000B4BF2D212B21002CB8BF6442CDE90290D7
:10BBD000CDE905140795CDE900CE38462A49FFF78F
:10BBE000A9FF40460CB0BDE8F08700232749ADF817
:10BBF00028304FF0010C18468DF82A30ADF82C3063
:10BC000099469E461A4698460991634609A9002E10
:10BC1000D3D0CDE90290CDE900CE38461C49FFF7DC
:10BC200089FF40460CB0BDE8F0871A4C84FB023413
:10BC3000A318D417C4EB6314C4EB0415A2EB850559
:10BC40002DB2002D0846B8BF6D42FCF7F5FA4FF44F
:10BC50007A7200238046894643F02CFF3C230AFB7E
:10BC6000030A4FF47A7200234046494643F022FF0C
:10BC70004FF47A7192B20023C1FB0A2309A8FCF7A2
:10BC800023FA24B209A975E7346905080000010107
:10BC9000146905088988888810B44C09012250F875
:10BCA000243001F01F0102FA01F10B4340F8243067
:10BCB0005DF8044B704700BF4B0901F01F0150F8BD
:10BCC0002320012303FA01F1114214BF184600207A
:10BCD000704700BFF0EEC07AB0EEE07AB4EEE77ADB
:10BCE000F1EE10FAB4BFB0EE676AB0EE476AB5EE97
:10BCF000406AF1EE10FA46D0B4EEE77AF1EE10FAAF
:10BD00008CBFF0EE675AF0EE475AC5EE866A9FED9B
:10BD10001F3A9FED1F6A9FED1F4A9FED1F5ADFEDEF
:10BD20001F3ADFED1F4ADFED1F5AA6EEC36AE6EEAB
:10BD3000A34AA6EE864AB7EE006AA6EE845AA6EE9D
:10BD4000A46AE6EE855AC5EE866AB4EEE77AF1EEAD
:10BD500010FA48BFDFED147AF5EEC00A48BF77EE5F
:10BD6000E66AF1EE10FA48BFDFED107AB5EEC00AD0
:10BD700048BF77EEE66AF1EE10FA48BFF1EE666A68
:10BD8000B0EE660A7047DFED076ADEE739094E3D1F
:10BD9000E3B59E3E88FA163E45FE7F3F99FB243F61
:10BDA00069A2163EA7DFA834DB0FC93FDB0F49406D
:10BDB00070B544880546C4F30B04224608460E4677
:10BDC000002144F02DF92B69094A934202D3094A14
:10BDD000934205D35BB121463046BDE87040184719
:10BDE000224630461946BDE8704044F0B3B870BDF5
:10BDF000440700089108000838B5064C064DAC42CF
:10BE000006D2616820461434FFF7D2FFAC42F8D363
:10BE100038BD00BF9001000844070008084B0949DD
:10BE20008B4203D309E014338B4206D21A88C2F343
:10BE30000B029042F7D1184670470023184670470E
:10BE4000900100084407000808B5064B186838B18F
:10BE5000FEF768F9044B9B7813B180F00100C0B283
:10BE600008BD00BFA46A00204492002008B53BF042
:10BE700003F92CF09FFD1B20FDF738FC18B123229D
:10BE800000238271C3713AF087F818B1232200238E
:10BE90008271C3710C4B9B78012B10D0022B0CD1FB
:10BEA0000A4B0B4A1A600B4901F12C003AF0DAFEFA
:10BEB000094B002083F8230008BD012008BD034B77
:10BEC000064A1A60EFE700BF68860020389C002011
:10BED000340000207400002000ED00E05400002039
:10BEE00008B5054B4FF0FF321A60012012F09AFF9F
:10BEF00072B644F001F800BFF0FF012008B5FFF76B
:10BF0000A3FF0028FBD1142012F08CFF00BFFFF725
:10BF10009BFF0028FAD0FFF7E3FF00BF08B5054BF1
:10BF20001B6803B19847044B044A1A6072B643F089
:10BF3000E3FF00BFC8560020F0FF01201010DDDD38
:10BF4000074A084B10781B78074A834296BFC31AEA
:10BF5000C3F180030020126818441044704700BFEA
:10BF6000C4060120400601203C060120064A074B7A
:10BF700010781B7883428ABFC3F18003C01AC018AF
:10BF8000C0F17F00704700BFC406012040060120B9
:10BF9000064808B54368DB68984705480549064ADE
:10BFA000002303700B70136008BD00BF9CBF00200E
:10BFB000C4060120400601203C06012030B583B0B4
:10BFC0000C46C2250223002201A98DF805408DF8F8
:10BFD0000450FEF78BFB024B1C6003B030BD00BF6A
:10BFE000400A00202DE9F04F85B0CDE9020383B36C
:10BFF0000D4617461E46DFF86CB0DFF86CA0DFF880
:10C000006C9001E0361B28D0DBF80020DAF8001035
:10C01000B5FBF2F802FB1853F418944294BFC3EB3B
:10C020000404C3EB020488452544414605D001932E
:10C03000029B1868FFF7C2FF019B09EB48101946E5
:10C0400043683A46D3F824802346C0472744002853
:10C05000D8D1002005B0BDE8F08F039805B0BDE849
:10C06000F08F00BF00C00020400A0020C0BF0020A9
:10C070000E4B70B51A680E4D0E4E2B680C46B1FB78
:10C08000F3F1914231600E4605D00068FFF796FF4C
:10C090002B68B4FBF3F1084800EB461003FB114199
:10C0A0004368BDE870401B69184700BF400A002084
:10C0B00000C00020D8280020C0BF00202DE9F0419A
:10C0C0000B4D0C4C16461F46FFF7D2FF286804EBB9
:10C0D00040103A46436831465B6998472B6804EB49
:10C0E000431420466368BDE8F0419B69184700BFD0
:10C0F000D8280020C0BF00202DE9F0410E4E336843
:10C10000002B17DD0D4DDFF8388007460024D8F8E6
:10C110000030A342214604F1010402D03868FFF741
:10C120004DFF6B682846DB6898473368A34205F1EA
:10C130002005ECDCBDE8F081BCBF0020C0BF0020C2
:10C14000400A00200D4B70B51A680D4D0C462B6847
:10C15000B1FBF3F191420E4605D00068FFF72EFFC8
:10C160002B68B4FBF3F1074800EB461003FB1141C9
:10C170004368BDE870409B68184700BF400A002034
:10C1800000C00020C0BF00202DE9F0410F4E3368F1
:10C19000002B18DD0E4C0F4F80460025637F63B1E6
:10C1A0003B68AB42294603D0D8F80000FFF706FFF2
:10C1B000636820461B68984730B133680135AB424D
:10C1C00004F12004EADC0120BDE8F081BCBF0020BE
:10C1D000C0BF0020400A0020F8B5074C05460F46B6
:10C1E000266803E023689B1BBB4204D82846FFF760
:10C1F000CBFF0028F6D0F8BD94B2002010B504465D
:10C2000000BF8068FDF78AFC6068FEF70DFBA06840
:10C21000FDF78AFC00BF10BDF0B5077F836983B0CE
:10C2200004464FF0020C002000900E4615468DF893
:10C2300004008DF800C0002F34D01A0E8DF80120B4
:10C240000DEB0C02180C1F0A93701070577006212A
:10C250002046FEF7F9F906212068FFF7CFFF0123FA
:10C260006377236800BF9868FDF758FC237F226836
:10C27000002B14BF05230423694650680022FEF7F3
:10C280008FF923683146002258682B46FEF788F95B
:10C2900023689868FDF748FC00BFA2692A44A261A0
:10C2A00003B0F0BD0DF10102CCE700BF10B414469D
:10C2B00081611A4621465DF8044BADE710B504468E
:10C2C00045F20821FEF7C0F920680621FFF796FF26
:10C2D000012363772068C721BDE810408EE700BFC7
:10C2E00010B5027F82B000230446D82000938DF859
:10C2F00004308DF800002AB30B0E8DF801300DF1DB
:10C3000002030A0A080C997018705A7041F28831B9
:10C310002046FEF799F920680621FFF76FFF0123F9
:10C320006377246800BFA068FDF7F8FB6946052322
:10C3300000226068FEF734F9A068FDF7F5FB00BF46
:10C3400002B010BD0DF10103DBE700BF03484368F5
:10C3500013B19B6A03B11847014870479CBF002086
:10C36000E01805082DE9F04784B0FFF7EFFF856876
:10C37000ED0A1BD0DFF840800026C14604AFD8F894
:10C380000430AC196410D3F824A0E10210236A46EB
:10C390004846D0470F2809DD6B4653F8042B01327D
:10C3A00008D19F42F9D12546B542E8DCE80204B045
:10C3B000BDE8F087661CF7E79CBF00202DE9F04F31
:10C3C00087B04FEA820A0491CDE9013000220B4682
:10C3D000514453F8040B8B420244FAD1019B05925D
:10C3E0002BB9424843681B689847002863D0FFF781
:10C3F000ADFF43880393059B002B4AD03C4B029A28
:10C400003A4E1B68DDF814B092440399B3FBF1F97E
:10C4100001FB193303EB0B028A428CBFA1EB03092A
:10C42000D946FFF793FF324B196883688B4248D98E
:10C4300073682E481B6998477168029C049D4F469B
:10C44000AC4655F8043B30461A468BB1D4F800E0B0
:10C45000D1F81480BB4271461FD2C04755F8042C56
:10C4600023687168134423600023BF1A45F8043C15
:10C4700004345445E4D18B69304698471C4A13680C
:10C480004B441360019AABEB090B3AB3BBF1000FBD
:10C49000BBD1059807B0BDE8F08F4346E0463A4669
:10C4A00098472268D8F8003071683A44DF1B226050
:10C4B000C8F80070DFE7019B0593059807B0BDE859
:10C4C000F08F05980B490C4AA0EB0B0005900598DE
:10C4D00000230B70137007B0BDE8F08F059BA3EB32
:10C4E0000B030593059807B0BDE8F08F9CBF0020B3
:10C4F0003C060120C40601204006012070B5104D05
:10C50000104E2B7831788B4284B016D00E4A0392AD
:10C510001A4402928CBF0C46CA1A04A98CBFC3F1FC
:10C5200080020024012341F8102D02A80222019468
:10C53000FFF744FF002333702B7004B070BD00BFC1
:10C5400040060120C40601204406012010B5FFF773
:10C55000FDFE836803B910BDFFF704FF0446FFF733
:10C56000CDFF014B1C6010BD3C0601202DE9F041C0
:10C57000054614460F46FFF7E9FE83682A199A42DA
:10C5800003D9FFF7E3FE8468641BFFF7B7FF054894
:10C5900046682346746A3A462946A446BDE8F041F7
:10C5A000604700BF9CBF002013460A46014618465C
:10C5B000DCE700BF2DE9F04F012189B00020FDF735
:10C5C000C1FA3AF0DBF9FFF7C1FF41F62C72002106
:10C5D000BE48BF4D43F024FD0024BC4B4C2229191A
:10C5E0001819144443F0B6FCE42CF6D1FFF7BAFE58
:10C5F0008246002800F0B8800026B64FDFF8F0B27F
:10C6000035463446122203A92846FFF7AFFF12220F
:10C61000594603A843F030FD28BBAF4BAF49DFF8C4
:10C62000C48206EB860206EB420203EB0209AC422F
:10C63000A5EB04034846019315D001363246FFF7B7
:10C6400079FA019BC7F80090C7E90433A44BFC605A
:10C650000122642EC7E90733C7E90938BA6000F040
:10C6600085804C372C4605F50065AA45CAD8642E4E
:10C67000A04600F00A81A54272D006EB8602964CD5
:10C68000984B9649019306EB420214442046721CD3
:10C69000FFF750FA924A019B3C600121C7E902185A
:10C6A000C7E90722A5EB0805C7E904557A62351DDD
:10C6B000BB6205364FF04C080193844B884FDFF87E
:10C6C000349208FB05F55C1942460021204643F0F0
:10C6D000A7FC42460021204643F0A2FC7B4B0122EE
:10C6E00043F80590019BA362A260C4E907776762E3
:10C6F000FFF738FEC4E904004C27744B784DDFF88F
:10C70000F88107FB06F69C193A460021204643F0C3
:10C7100087FC3A460021204643F082FC6B49022206
:10C72000012341F806800F46C4E90755656262712E
:10C73000A360FFF717FEBD68C0F100604000C4E9C8
:10C7400004000DB93A79AAB94FF47A7012F06AFB75
:10C7500000210846FDF7F6F9002009B0BDE8F08F8A
:10C76000F51C002E40F0E6800326C5E74346682608
:10C7700067259FE73B68002BE6D0FB6C3D64C7E96B
:10C780001155FD6343B3384629462A46466DC0F825
:10C790008C204C1EA6420346C0E92422C0F8882003
:10C7A00000F14C0000F0AA804F1CBE426FD08E42B8
:10C7B000CAD11C460029C7D0266CF76B0137F76336
:10C7C000C3F88C60A064C36C002BDFD13F4B1C68A6
:10C7D000002C00F09D801A793C4C00200646022374
:10C7E000114612E0E16B236349011CBF01F6FF71A2
:10C7F00007EB1133C4E90D33C4E9046654F84C2F38
:10C80000194601350133E2B121795F1E0029E9D1D2
:10C8100021692363002944D001F6FF7107EB11322F
:10C820006169626319B101F6FF7307EB1333821A72
:10C83000D018A36354F84C2F194601350133002A50
:10C84000E2D1294B294ADA6001394FEA91794FEA5E
:10C85000810840223E2498629A613F2058EA0902EA
:10C8600059625D634FEAC101C3E904401BD1423103
:10C87000CC0D4D0242224120C3E90702134A9960C0
:10C88000C3E90B22C3E900545EE7164B6FE71C4671
:10C89000217900293FF458AF60643946C3F88C40D1
:10C8A00091E71A46BCE740F2FF1418EB04064FF07C
:10C8B000000549EB0507720A42EAC75202F140003F
:10C8C00002441144CC0D4D02D6E700BFE4320020F3
:10C8D000F0180508C8330020402A002078690508B0
:10C8E0000068214CA9C5000870C60020A46905088D
:10C8F00064690508886905089869050800293FF4F6
:10C9000023AF8E421C6C01D0314653E70F46BFE780
:10C910000A4B0B4E5C633E253F2040224221C3E977
:10C920000502C3E90365C3E909440A464FF4044517
:10C930004120A1E7034B0436BCE600BF70C60020CF
:10C94000A4690508A9C5000870B5194C194D2378CC
:10C950002978994284B027D0174A03921A44029248
:10C9600034BF0E46CA1A04A934BFC3F180020026A0
:10C97000002341F8102D02A802220196FFF71EFDA8
:10C9800023781844C0B203062B7848BF80F080009B
:10C990008342207002D0002004B070BD002301202B
:10C9A0002B70237004B070BD012004B070BD00BFB7
:10C9B00040060120C40601204406012008B5FFF707
:10C9C000C5FC8068003018BF012008BD08B5FFF71E
:10C9D000BDFC806800B908BD024843681B689847E1
:10C9E00008BD00BF9CBF0020144B984223D003F524
:10C9F000806398421FD0038823F040031B041B0C64
:10CA00000380038823F038031B041B0C69B141F435
:10CA10008071002991FAA1F1B1FA81F108BF4FF0BC
:10CA2000FF31013943EAC1039BB20380038843F01D
:10CA30004003038070474908DDE700BF003800402D
:10CA40002DE9F047AB4F3B7803B1FEE7DFF8B88242
:10CA5000A94CD8F80430A94A0125A34212883D7098
:10CA600000F0DB8104F58064A34200F0D6811C88CD
:10CA700024F040042404240C1C801C8824F0380476
:10CA80002404240C6AB142F48072002A92FAA2F2C1
:10CA9000B2FA82F208BF4FF0FF32013A44EAC20212
:10CAA00094B21C801C88D8F8082044F040041C80F4
:10CAB00012B1146892886283914A8A460146012025
:10CAC000107040F2E93202E0002A00F0B5811889C6
:10CAD000013A10F0020F92B2F6D000229A8140F291
:10CAE000E93202E0002A00F0A7811889013A10F02B
:10CAF000010F92B2F6D09A8940F2E93202E0002AA0
:10CB000000F0B8811889013A10F0020F92B2F6D005
:10CB100000229A8140F2E93202E0002A00F0AA8164
:10CB20001889013A10F0010F92B2F6D09A8940F2BA
:10CB3000E93202E0002A00F097811889013A10F0EA
:10CB4000020F92B2F6D009229A8140F2E93202E055
:10CB5000002A00F089811889013A10F0010F92B281
:10CB6000F6D09A8940F2E93202E0002A00F076819C
:10CB70001889013A10F0020F92B2F6D089B2998169
:10CB800040F2E93202E0002A00F068811989013A96
:10CB900011F0010F92B2F6D09A895A4E0AF1FF3A7B
:10CBA00000244FF00A090B2540F2E93202E0002A86
:10CBB00000F00E811989013A11F0020F92B2F6D0FD
:10CBC000A3F80C9040F2E93202E0002A00F0008164
:10CBD0001989013A11F0010F92B2F6D09A8940F208
:10CBE000E93202E0002A00F0FF801989013A11F0D1
:10CBF000020F92B2F6D0A2B29A8140F2E93202E07C
:10CC0000002A00F0F1801989013A11F0010F92B267
:10CC1000F6D09A891AF8011F40F2E93202E0002AA0
:10CC200000F0E8801889013A10F0020F92B2F6D0B5
:10CC30009D8140F2E93202E0002A00F0DB80188991
:10CC4000013A10F0010F92B2F6D09A8940F2E9321F
:10CC500002E0002A00F0C2801889013A10F0020FA9
:10CC600092B2F6D089B2998140F2E93202E0002A0C
:10CC700000F0B4801989013A11F0010F92B2F6D098
:10CC80009A89326832B1116892884869024214BFA9
:10CC90004A830A830134362C86D140F2E93202E01D
:10CCA000002A00F0D5801989013A11F0020F92B2E2
:10CCB000F6D008229A8140F2E93202E0002A00F020
:10CCC000C7801989013A11F0010F92B2F6D09A8902
:10CCD00040F2E93202E0002A00F0B4801989013AFA
:10CCE00011F0020F92B2F6D0A0229A8140F2E932FE
:10CCF0000FE000BFB7040120003800403C0A0020CC
:10CD0000B804012060B2002008B20020002A00F020
:10CD100099801989013A11F0010F92B2F6D09A89DF
:10CD2000A024002140F2E93201E0002A6FD01889E6
:10CD3000013A10F0020F92B2F7D09C8140F2E93232
:10CD400001E0002A63D01889013A10F0010F92B275
:10CD5000F7D09A8940F2E93201E0002A50D01889D0
:10CD6000013A10F0020F92B2F7D0998140F2E93205
:10CD700001E0002A44D01889013A10F0010F92B264
:10CD8000F7D09889C0B28206CCD4D8F8082012B166
:10CD9000116892880A833A4A934240D002F5806231
:10CDA00093423CD01A8822F040021204120C1A80DE
:10CDB0001A8822F038021204120C08210A431A8041
:10CDC0001A88002142F040021A803970BDE8F087CD
:10CDD0001846FDF7C3FBD8F8043000E71846FDF706
:10CDE000BDFBD8F804304CE71846FDF7B7FBD8F880
:10CDF00004300FE71846FDF7B1FBD8F8043025E7FB
:10CE00001846FDF7ABFBD8F80430C0B2BBE71846B4
:10CE1000FDF7A4FBD8F804309CE7520827E61A88EF
:10CE200022F040021204120C1A801A8822F03802F2
:10CE30001204120C0021C1E71846FDF78FFBD8F849
:10CE4000043059E61846FDF789FBD8F8043067E747
:10CE50001846FDF783FBD8F8043039E71846FDF78C
:10CE60007DFBD8F8043098E61846FDF777FBD8F834
:10CE7000043077E61846FDF771FBD8F8043056E623
:10CE80000038004038B51E4D40F2E9326B6800E0D2
:10CE90005AB31C89013A14F0020F92B2F8D080B252
:10CEA000988140F2E93200E0FAB11889013A10F0B5
:10CEB000010F92B2F8D09A8940F2E93200E0CAB18B
:10CEC0001889013A10F0020F92B2F8D089B2998114
:10CED00040F2E93200E06AB11989013A11F0010F1C
:10CEE00092B2F8D09889C0B238BD1846FDF736FB2B
:10CEF0006B68E1E71846FDF731FBC0B238BD00BFF3
:10CF000008B200202DE9F84FDFF8D482B04BD8F8F2
:10CF10000400B04A9842128800F09D8203F58063B5
:10CF2000984200F09882038823F040031B041B0CF6
:10CF30000380038823F038031B041B0C6AB142F4FE
:10CF40008072002A92FAA2F2B2FA82F208BF4FF07F
:10CF5000FF32013A43EAC2039BB203800388D8F848
:10CF6000082043F04003038012B1136892885A836B
:10CF700040F2E93302E0002B00F0E3820289013B3A
:10CF800012F0020F9BB2F6D00523838140F2E93301
:10CF900002E0002B00F0D5820289013B12F0010F64
:10CFA0009BB2F6D0838940F2E93302E0002B00F017
:10CFB000C3820289013B12F0020F9BB2F6D000231C
:10CFC000838140F2E93302E0002B00F0B582028950
:10CFD000013B12F0010F9BB2F6D0838940F2E93396
:10CFE00002E0002B00F09E820289013B12F0020F4A
:10CFF0009BB2F6D00623838140F2E93302E0002B96
:10D0000000F090820289013B12F0010F9BB2F6D032
:10D01000838940F2E93302E0002B00F07E8202892E
:10D02000013B12F0020F9BB2F6D00023838140F245
:10D03000E93302E0002B00F070820289013B12F01C
:10D04000010F9BB2F6D08389DFF8989199F8B41557
:10D0500040F2E93341F0010402E0002B00F0448289
:10D060000289013B12F0020F9BB2F6D004238381A8
:10D0700040F2E93302E0002B00F036820289013BE6
:10D0800012F0010F9BB2F6D0838940F2E93302E03F
:10D09000002B00F024820289013B12F0020F9BB2A8
:10D0A000F6D0A4B2848140F2E93302E0002B00F014
:10D0B00016820289013B12F0010F9BB2F6D08389E0
:10D0C000454D2B88002B49D0DFF81CB1434F5E46FD
:10D0D0004FF0200A072417F8011FFF2940F2E93317
:10D0E00003D18EE1002B00F0D1810289013B12F0C7
:10D0F000020F9BB2F6D0848140F2E93302E0002BAC
:10D1000000F0C4810289013B12F0010F9BB2F6D0FE
:10D11000838940F2E93302E0002B00F09E8102890E
:10D12000013B12F0020F9BB2F6D089B2818140F22E
:10D13000E93302E0002B00F090810289013B12F0FC
:10D14000010F9BB2F6D083893B7806F8013B2A8811
:10D15000A6EB0B039A42BEDC99F8B41540F2E93312
:10D1600002E0002B00F0C5810289013B12F0020FA2
:10D170009BB2F6D00723838140F2E93302E0002B13
:10D1800000F0B7810289013B12F0010F9BB2F6D08B
:10D19000838940F2E93302E0002B00F0B981028973
:10D1A000013B12F0020F9BB2F6D0FF23838140F2C5
:10D1B000E93302E0002B00F0AB810289013B12F061
:10D1C000010F9BB2F6D0838940F2E93311E000BF32
:10D1D000003800403C0A0020640C002007000120B9
:10D1E00008B20020D8280020902E0020002B00F04C
:10D1F0008A810289013B12F0020F9BB2F6D0042310
:10D20000838140F2E93302E0002B00F07C81028947
:10D21000013B12F0010F9BB2F6D0838940F2E93353
:10D2200002E0002B00F06A810289013B12F0020F3C
:10D230009BB2F6D089B2818140F2E93302E0002B43
:10D2400000F05C810289013B12F0010F9BB2F6D025
:10D2500083892B88002B00F0B880B54F0021FF2672
:10D26000072403E001318B4240F3AF807A5CFF2A50
:10D27000F8D14FEA212940F2E93302E0002B00F017
:10D2800029810289013B12F0020F9BB2F6D00523DF
:10D29000838140F2E93302E0002B00F01B81028918
:10D2A000013B12F0010F9BB2F6D0838940F2E933C3
:10D2B00002E0002B00F009810289013B12F0020F0D
:10D2C0009BB2F6D01FFA89F9A0F80C9040F2E9332E
:10D2D00002E0002B00F0F9800289013B12F0010FFF
:10D2E0009BB2F6D083895FFA81F940F2E93302E01C
:10D2F000002B00F0E5800289013B12F0020F9BB287
:10D30000F6D00623838140F2E93302E0002B00F0DF
:10D31000D7800289013B12F0010F9BB2F6D08389BE
:10D3200040F2E93302E0002B00F0C5800289013BA6
:10D3300012F0020F9BB2F6D01FFA89F9A0F80C90F8
:10D3400040F2E93302E0002B00F0B5800289013B96
:10D3500012F0010F9BB2F6D0838940F2E93302E06C
:10D36000002B00F0A3800289013B12F0020F9BB258
:10D37000F6D0848140F2E93302E0002B00F0968081
:10D380000289013B12F0010F9BB2F6D0838940F273
:10D39000E93302E0002B00F083800289013B12F0A8
:10D3A000020F9BB2F6D0868140F2E93301E0002BF8
:10D3B00076D00289013B12F0010F9BB2F7D083892E
:10D3C0002B8801318B423FF751AFD8F8083013B1A9
:10D3D0001A689B881383574B984243D003F58063A8
:10D3E00098423FD0038823F040031B041B0C0380AA
:10D3F000038823F038031B041B0C08223EE0002B9B
:10D4000049D00289013B12F0020F9BB2F7D0848110
:10D4100040F2E93301E0002B3DD00289013B12F0DC
:10D42000010F9BB2F7D0838940F2E93300E0A3B14A
:10D430000289013B12F0020F9BB2F8D0A0F80CA0B9
:10D4400040F2E93300E043B10289013B12F0010FE1
:10D450009BB2F8D077E6520865E5FDF77FF8D8F87B
:10D46000040071E6038823F040031B041B0C0380B7
:10D47000038823F038031B041B0C00221343038092
:10D48000038843F040030380BDE8F88FFDF766F89A
:10D49000D8F804003DE6FDF761F8D8F80400C3E7CA
:10D4A000FDF75CF82B88D8F80400DBE6FDF756F8AA
:10D4B000D8F804006BE7FDF751F8D8F804004CE702
:10D4C000FDF74CF8D8F804002AE7FDF747F8D8F83C
:10D4D000040008E7FDF742F8D8F80400E6E6FDF797
:10D4E0003DF8D8F80400EBE5FDF738F8D8F804006B
:10D4F000CBE5FDF733F8D8F804004AE6FDF72EF83F
:10D50000D8F80400A5E6FDF729F8D8F8040085E668
:10D51000FDF724F8D8F8040056E6FDF71FF8D8F810
:10D52000040091E5FDF71AF8D8F8040071E500BF92
:10D530000800012000380040FDF710F8D8F804007A
:10D540004CE5FDF70BF8D8F804002CE52DE9F04187
:10D55000AC4CAD4A6368AD4D9342288800F00B8215
:10D5600002F58062934200F0068201461A8822F09A
:10D5700040021204120C1A801A8822F03802120497
:10D58000120C71B141F4807189B2002991FAA1F1B4
:10D59000B1FA81F108BF4FF0FF31013942EAC1020F
:10D5A00092B21A801A88A76842F040021A8017B116
:10D5B0003A68B9885183964A1278012A00F0368277
:10D5C000C0F01682022A00F0D88192490A7812F03F
:10D5D000400F0CBF4FF4C37C4FF4F07C8A4A8E4E50
:10D5E0009342A6F800C000F0D48102F58062934215
:10D5F00000F0CF811A8822F040021204120C1A8027
:10D600001A8822F038021204120C68B140F48070BB
:10D61000002890FAA0F0B0FA80F008BF4FF0FF3079
:10D62000013842EAC00292B21A801A8842F04002DF
:10D630001A8017B13A68B888508310274FF0010854
:10D6400040F2E93202E0002A00F0A5811889013A8F
:10D6500010F0020F92B2F6D0BAB29A8140F2E932DB
:10D6600002E0002A00F097811889013A10F0010FBA
:10D6700092B2F6D09A8940F2E93202E0002A00F034
:10D680008F811889013A10F0020F92B2F6D0A3F8F8
:10D690000C8040F2E93202E0002A00F08181188912
:10D6A000013A10F0010F92B2F6D09A890137202F7B
:10D6B000C6D1A76817B13A68B8881083524A934216
:10D6C00000F0738102F58062934200F06E811A8847
:10D6D000288822F040021204120C1A801A8892B292
:10D6E00022F0380242F008021A801A8842F0400202
:10D6F0001A801A8822F040021204120C1A801A882A
:10D7000022F038021204120C68B140F48070002834
:10D7100090FAA0F0B0FA80F008BF4FF0FF30013867
:10D7200042EAC00292B21A801A8842F040021A807D
:10D7300017B13A68B88850830D7840F2E93202E0B8
:10D74000002A00F079811989013A11F0020F92B292
:10D75000F6D000229A8140F2E93202E0002A00F07D
:10D760006B811989013A11F0010F92B2F6D09A89B2
:10D7700040F2E93202E0002A00F063811989013A9F
:10D7800011F0020F92B2F6D0ADB29D8140F2E932B3
:10D7900002E0002A00F055811989013A11F0010FC9
:10D7A00092B2F6D09A891D4940F2E9320D7802E032
:10D7B000002A00F04B811989013A11F0020F92B250
:10D7C000F6D002229A8140F2E93202E0002A00F00B
:10D7D0003D811989013A11F0010F92B2F6D09A8970
:10D7E00040F2E93202E0002A00F035811989013A5D
:10D7F00011F0020F92B2F6D0ADB29D8140F2E93243
:10D8000011E000BF08B20020003800403C0A0020B0
:10D8100054B20020500E0020640C00205BB20020A7
:10D82000002A00F018811989013A11F0010F92B213
:10D83000F6D09A89964940F2E9320D7802E0002A42
:10D8400000F00E811989013A11F0020F92B2F6D060
:10D8500003229A8140F2E93202E0002A00F00081BE
:10D860001989013A11F0010F92B2F6D09A8940F26B
:10D87000E93202E0002A00F0F8801989013A11F03B
:10D88000020F92B2F6D0ADB29D8140F2E93202E0D1
:10D89000002A00F0EA801989013A11F0010F92B2D2
:10D8A000F6D09A897B4A92F8B45540F2E93245F0B5
:10D8B000040502E0002A00F0DD801989013A11F028
:10D8C000020F92B2F6D004229A8140F2E93202E0CD
:10D8D000002A00F0CF801989013A11F0010F92B2AD
:10D8E000F6D09A8940F2E93202E0002A00F0C780BF
:10D8F0001989013A11F0020F92B2F6D0ADB29D81B2
:10D9000040F2E93202E0002A00F0B9801989013AB8
:10D9100011F0010F92B2F6D09A89A26812B1116883
:10D9200092880A835C4A934255D002F58062934202
:10D9300051D01A8822F040021204120C1A801A8860
:10D9400022F038021204120C08210A431A801988A6
:10D95000524C3288524841F040011980002142F077
:10D960005FFB94F8BC3023B1FFF7CCFA002384F8B6
:10D97000BC30BDE8F0814108F8E54A4908220A7048
:10D98000454A494E4FF4C37C9342A6F800C07FF449
:10D990002CAE40082EE61846FCF7E0FD63686AE608
:10D9A0001846FCF7DBFD636880E61A8828883A4D44
:10D9B00022F040021204120C1A801A8822F0380257
:10D9C0001204120C1A801A88AB4242F040021A80EC
:10D9D0005AD140088DE61A8822F040021204120C37
:10D9E0001A801A8822F038021204120C0021ACE7C7
:10D9F0001846A021FCF718FF00216068FCF714FF0F
:10DA000000F00603022B0AD000F00500012806D121
:10DA1000244963682888A76848220A7009E02149D8
:10DA200063682888A76808220A70A9E71D49482268
:10DA30000A704FF4F07CD1E51846FCF78FFD63685F
:10DA400096E61846FCF78AFD6368ACE61846FCF7D4
:10DA500085FD6368C4E61846FCF780FD6368E9E667
:10DA60001846FCF77BFD636801E71846FCF776FD76
:10DA7000636817E71846FCF771FD636832E71846DC
:10DA8000FCF76CFD636848E7084A9342A1D030E692
:10DA90005CB20020D82800200038004000000020A0
:10DAA000902E0020500E0020640C0020003C00400E
:10DAB0002DE9F843874C884A63688849934208886F
:10DAC00000F09A8002F58062934200F095801A88F7
:10DAD00022F040021204120C1A801A8822F0380236
:10DAE0001204120C68B140F48070002890FAA0F083
:10DAF000B0FA80F008BF4FF0FF30013842EAC002B0
:10DB000092B21A801A88A06842F040021A8010B1BE
:10DB100002688088508340F2E93201E0002A76D022
:10DB20001889013A10F0020F92B2F7D080229A8140
:10DB300040F2E93201E0002A69D01889013A10F078
:10DB4000010F92B2F7D09A8940F2E93201E0002A3F
:10DB500057D01889013A10F0020F92B2F7D0002284
:10DB60009A8140F2E93201E0002A4AD01889013A4C
:10DB700010F0010F92B2F7D09889C0B2A26812B12A
:10DB8000156892882A83544A934210D002F5806225
:10DB900093420CD01A8822F040021204120C1A8010
:10DBA0001A8822F038021204120C08250BE01A8899
:10DBB00022F040021204120C1A801A8822F0380255
:10DBC0001204120C00252A431A801A88444D454E2F
:10DBD00042F040021A802A78376882420ED1424AC7
:10DBE00012783AB9DFF80881D8F89827BA1AB2F54E
:10DBF0007A7F11D8BDE8F883400868E7BDE8F843AC
:10DC0000A4E41846FCF7AAFC6368C0B2B6E718465D
:10DC1000FCF7A4FC636897E718460988FEF7E4FE62
:10DC2000A36813B11A689B885383A0216068FCF72E
:10DC3000FBFD00216068FCF7F7FDA368024613B105
:10DC400019689B880B83DFF8AC9060680421FEF7AD
:10DC5000CBFE99F80030182B0CD12B78234903F018
:10DC60004003002B02F007000CBF0D2410240B8092
:10DC70004880CC80510706D50023C8F89C37C8F8E7
:10DC80009877BDE8F88302F00502012A1AD0002A2D
:10DC9000F5D12B785B06F2D5D8F89C273368AAB16A
:10DCA0009B1A642BEBD9FFF751FC99F80030182B25
:10DCB000E5D1B8F8A0370D4A01339BB2A8F8A037D8
:10DCC0009380DCE72B785A06E6D5D8E7C8F89C376E
:10DCD000D5E700BF08B20020003800403C0A002011
:10DCE000500E002094B2002054B200204CB200200C
:10DCF000D828002049B200202DE9F84F564A574E47
:10DD000001231370FFF7D4FEB6F8A227544BDFF8B7
:10DD100064E1B3F8008002F1640C1FFA8CFC00236C
:10DD20004FF0050B4FF0060A4FF0070902E062457D
:10DD300000F08F80B4181EF8020094F8B8158142E4
:10DD400002F1010503F1050111D07718F11884F8EB
:10DD5000B805140A81F8A4B781F8A6A781F8A72707
:10DD600081F8A89781F8A547063387F8A407AAB2D7
:10DD70004245DCD30022A6F8A22723B9364A002365
:10DD80001370BDE8F88F374C374A606837499042C6
:10DD900009884FD002F5806290424BD0028822F071
:10DDA00040021204120C0280028822F0380212048F
:10DDB000120C69B141F48071002991FAA1F1B1FA14
:10DDC00081F108BF4FF0FF31013942EAC10292B23E
:10DDD00002800288A16842F04002028011B10A6804
:10DDE0008988518300222249FCF7DAFBA36813B12A
:10DDF0001A689B88138363681B4A93421CD002F500
:10DE00008062934218D01A8822F040021204120C49
:10DE10001A801A8822F038021204120C08210A43D0
:10DE20001A801A8842F040021A800B4A00231370AD
:10DE3000BDE8F88F4908B1E71A8822F040021204C1
:10DE4000120C1A801A8822F038021204120C0021D7
:10DE5000E5E7A6F8A22790E7B7040120D82800201C
:10DE6000640C002008B20020003800403C0A00206A
:10DE70007C300020080001200F4B10B41C889CB19E
:10DE80000E4B0F4A187892F8B815884210D11C44EE
:10DE900002F5B762013305E013F8011B12F8010F18
:10DEA000884205D1A342F7D101205DF8044B7047A9
:10DEB00000205DF8044B7047640C0020080001202E
:10DEC000D82800201378C3B130B41E240B4D14FBA6
:10DED00001012944801A84181D2C07DC01F8013B3C
:10DEE00012F8013F002BF6D130BC704712F8013F09
:10DEF0000131002BEFD130BC704770470800012082
:10DF000070B5514C514D6368514A2E88C1F10301DF
:10DF100041EA80059342EDB200F0878002F580620D
:10DF2000934200F082801A8822F040021204120C00
:10DF30001A801A8822F038021204120C6EB146F4CC
:10DF40008071002991FAA1F1B1FA81F108BF4FF077
:10DF5000FF31013942EAC10292B21A801A88A168DF
:10DF600042F040021A8011B10A6889885183ADB22B
:10DF7000102140F2E93201E0002A4CD01889013A20
:10DF800010F0020F92B2F7D08AB29A8140F2E932D1
:10DF900001E0002A3FD01889013A10F0010F92B237
:10DFA000F7D09A8940F2E93201E0002A38D0188986
:10DFB000013A10F0020F92B2F7D09D8140F2E9329F
:10DFC00000E06AB31889013A10F0010F92B2F8D05C
:10DFD0009A8901312029CCD1A26812B111689288A6
:10DFE0000A831B4A934222D002F5806293421ED0DC
:10DFF0001A8822F040021204120C1A801A8822F0A9
:10E0000038021204120C08210A431A801A8842F0BE
:10E0100040021A8070BD1846FCF7A0FA6368C1E799
:10E020001846FCF79BFA6368D3E776087BE71A8803
:10E0300022F040021204120C1A801A8822F03802D0
:10E040001204120C0021DFE708B200203C0A002075
:10E050000038004038B5524B93F8B445002840F0E2
:10E06000948004F0F7044F494F4D48684F4A83F8B5
:10E07000B445A842128800F086804D4B984200F0CB
:10E080008280038823F040031B041B0C0380038859
:10E0900023F038031B041B0C6AB142F48072002A7F
:10E0A00092FAA2F2B2FA82F208BF4FF0FF32013ABE
:10E0B00043EAC2039BB2038003888A6843F04003AB
:10E0C000038012B1136892885A8340F2E93301E069
:10E0D000002B61D00289013B12F0020F9BB2F7D0F6
:10E0E0000423838140F2E93301E0002B54D00289FC
:10E0F000013B12F0010F9BB2F7D0838940F2E93364
:10E1000001E0002B44D00289013B12F0020F9BB2C8
:10E11000F7D0A4B2848140F2E93301E0002B37D07C
:10E120000289013B12F0010F9BB2F7D083898B6803
:10E1300013B11A689B8813831B4B984210D003F5C8
:10E14000806398420CD0038823F040031B041B0C0F
:10E150000380038823F038031B041B0C08220BE008
:10E16000038823F040031B041B0C0380038823F067
:10E1700038031B041B0C002213430380038843F065
:10E180004003038038BD52087BE744F008046AE787
:10E19000FCF7E4F94868CAE7FCF7E0F94868ADE73E
:10E1A000D828002008B20020003800403C0A002097
:10E1B000003C00400B4A0C4B90421B6810D0A2F56B
:10E1C000806290420CD002F58042904208D002F565
:10E1D0008062904204D002F58062904218BF5B08D2
:10E1E000184670470004014018E20020F0B587B0DF
:10E1F00000236A4A00930193136843F48033136049
:10E2000003E0009BB3F5A04F09D0136803F400337B
:10E210000193009B01330093019B002BF1D05F4BD6
:10E220001B6813F4003318BF01230193019B012BDA
:10E2300075D05B4D594B5B4AEA605B49586F5B4A4E
:10E240000860AA605E6B5A4C5A4F5B4A5B4826F0E6
:10E2500080065E635E6F46F080765E67196B0C43E6
:10E260001C63596B5963996B9963196C3943196431
:10E27000596C06AC0A4348F2FF715A6444F8101D09
:10E280000123002621468DF80F304FF6FF778DF8D9
:10E290000C608DF80D608DF80E602EF0D5F92146DA
:10E2A000474802972EF0D0F92146464802972EF0B3
:10E2B000CBF9214644482EF0C7F9214643482EF0B9
:10E2C000C3F9214642482EF0BFF9214641482EF0BD
:10E2D000BBF9214640482EF0B7F921463F482EF0C1
:10E2E000B3F920462DF0E8FD3D4B3E4C1B68029AE9
:10E2F0003D483E49A4FB03439B09A0FB0202013BAE
:10E30000920CB3F1807F0A6007D2394AF0200721CE
:10E31000536085F823009660116007B0F0BD1F4B75
:10E32000344C1A6C344942F080521A64206840F42C
:10E330004040D1E93052D1F8C81020609868986008
:10E340009868120640F40040986042EA8512986886
:10E3500042F48002490842F00802013942EA0142CF
:10E3600040F4A05098605A601A6842F080721A60B7
:10E370001A689201FCD52149084A40F205700860EC
:10E38000996821F003019960996841F00201996050
:10E39000936803F00C03082BFAD14AE700380240D7
:10E3A00000ED00E00005FA054CE200200000000846
:10E3B000FF916700FFC9FE36335F0700000002408F
:10E3C0000004024000080240000C0240001002401D
:10E3D0000014024000180240001C024000200240CD
:10E3E00018E20020D34D621083DE1B4398B2002058
:10E3F00010E000E00070004000000020003C0240FF
:10E40000074A08B51168074B994208D1064B00200E
:10E410001968106081F308885B689847FEE708BDBB
:10E42000A0180120EFBEADDE0000FF1F08B5054BB0
:10E430001B6803B19847044B044A1A6072B641F056
:10E440005BFD00BFC8560020A0180120EFBEADDE66
:10E4500008B5034B1B6803B1984772B641F04CFDF9
:10E46000C8560020064B10B5D3F8FC29054C21787E
:10E47000501C11B9C3F8FC2910BD0246F7E700BFD4
:10E48000D82800200C890020074B10B51B681844C1
:10E490000C46007EFBF72AF920B12146BDE810406A
:10E4A000FBF748BB10BD00BF886A00200A4B10B5BF
:10E4B0001B6803440446187EFBF718F958B128225C
:10E4C0008271621CC2710121FBF78CFA2046002187
:10E4D000BDE81040D8E710BD886A0020074A002335
:10E4E00002E00133102B07D05168814202F1200273
:10E4F000F7D1581CC0B2704700207047600A002056
:10E5000038B5272101232C2200250446C170027151
:10E5100005704370837043710248FFF7DFFFE571B8
:10E52000A07138BD706002400138F0B540013C4C2C
:10E53000DFF820C125583B4FDCF83060BD420CBFEE
:10E540004FF400154FF4800527182E437D68CCF852
:10E550003060354EF960B54283B07B6151D0334BAA
:10E560009D424ED0A3F57A739D4236D003F5806369
:10E570009D4232D0A3F57A739D4246D003F5806365
:10E580009D4242D0A3F57A739D4240D003F580634B
:10E590009D423CD0A3F57A739D4234D003F580634D
:10E5A0009D4230D0A3F57A739D4232D003F580634B
:10E5B0009D422ED0A3F57A739D422CD003F5806343
:10E5C0009D4228D0A3F57A739D4226D01849194B55
:10E5D0008D420CBF1D46002500E0174D04449209F2
:10E5E000667CE5610021012301A88DF804608DF8A7
:10E5F00005208DF806108DF807302DF081FA03B054
:10E60000F0BD0E4DEAE70E4DE8E70E4DE6E70E4D84
:10E61000E4E70E4DE2E70E4DE0E7064DDEE700BF12
:10E62000600A002000600240106002401064024056
:10E63000B86402400080002800880010208000108C
:10E64000208000200080201000800018008800201A
:10E6500000802020003802400138F0B4440109480D
:10E66000094D0359094F2E6B2044BB420CBF4FF498
:10E6700000134FF4800333432B6301764276F0BCE2
:10E68000704700BF600A002000380240006002406E
:10E690002DE9F04F534C54F8204083B0002C00F08B
:10E6A0009C80656E002D00F09A809846174604F114
:10E6B0006A034D4A064628692260636104F1EA0252
:10E6C0008023A261E3604FF480726B68A1602261D5
:10E6D000E365A24668B1FFF701FF721CD2B20C21BC
:10E6E000FFF7BAFFE36DA9682A69A26304332164C6
:10E6F000A365E868A0B1FFF7F1FE721C8146D2B2B3
:10E700000B21FFF7A9FF2346EA7F38494846FFF768
:10E710000BFFD5E90212E36D616404336365E263C4
:10E7200094F86900FAF7E2FF814694F86800FAF776
:10E73000DDFF8346287F00284CD118F0080F36D122
:10E74000BA070DD5B9F1000F0AD00B22731C89F856
:10E75000062089F8073048466A7F2221FBF78EF8A9
:10E76000FB0715D4236C7BB995F82020A97F8DF881
:10E77000063001A8930901228DF805308DF80410A8
:10E780008DF807202DF0BCF9504603B0BDE8F08F9E
:10E79000BBF1000FE6D0701C0C238BF807008BF840
:10E7A000063058466A7F2221FBF768F8DAE7B9F1AC
:10E7B000000F05D0701C0B2389F8070089F806307C
:10E7C00018F0100F484614BF022112216A7FFBF790
:10E7D00055F8C7E737F052FBAFE7A246D4E7AA46A1
:10E7E000D2E700BFF80600106C1A0508D98A0008A5
:10E7F0000348D0F8EC3113B100F5F07018477047BA
:10E80000600A00200348D0F8CC3113B100F5E07065
:10E8100018477047600A00200348D0F8AC3113B1A4
:10E8200000F5D07018477047600A00200348D0F800
:10E830008C3113B100F5C07018477047600A002092
:10E840000348D0F86C3113B100F5B0701847704729
:10E85000600A00200348D0F84C3113B100F5A070D5
:10E8600018477047600A00200348D0F82C3113B1D4
:10E8700000F5907018477047600A00200348D0F8F0
:10E880000C3113B100F5807018477047600A002002
:10E890000348D0F8EC300BB1E0301847704700BFA8
:10E8A000600A00200348D0F8CC300BB1C0301847C4
:10E8B000704700BF600A00200348D0F8AC300BB1AD
:10E8C000A0301847704700BF600A00200348D0F806
:10E8D0008C300BB180301847704700BF600A0020B1
:10E8E0000248C36E0BB1603018477047600A0020C1
:10E8F0000248C36C0BB1403018477047600A0020D3
:10E900000248C36A0BB1203018477047600A0020E4
:10E910000248C36803B11847704700BF600A00206F
:10E9200003899B0746BF0089C0F3C01001207047D0
:10E93000F8B50401654D664B2A5929199A4205EB31
:10E94000040704BF01230B730646387A37F096FAA2
:10E950003B7A03F01F015B090122032B02FA01F24B
:10E960006DD0042B66D0022B5CD02B1901361879A0
:10E97000FAF7BCFEF6B2074610B11223C6718371D6
:10E980002B195879FAF7B2FE10B11323C6718371AF
:10E990002B199879FAF7AAFE10B11423C671837166
:10E9A0002E190A21F2793846FAF768FF7079FAF7DA
:10E9B0009DFEF2790A21FAF761FFB079FAF796FE27
:10E9C000F2790A21FAF75AFF2B59424A934246D06C
:10E9D0003F4A93424ED0404A934256D03F4A9342D8
:10E9E0005ED03F4A93422FD03E4A934263D02B19C8
:10E9F0001B7BE3B9012002222B59198801F44151F4
:10EA000041F445710A4302431A809A8B22F4006252
:10EA10001204120C07219A8319821A8842F04002CC
:10EA20001A80F8BD304B596A0A435A629DE70020AC
:10EA30000246E1E72C4B19690A431A6195E72A4B14
:10EA4000196A0A431A6290E702F568424FF480108F
:10EA5000536A43F4801353622DF070F9C7E702F54F
:10EA600084324FF48050536A43F4805353622DF044
:10EA700065F9BCE702F500324FF48040136A43F4B5
:10EA8000804313622DF062F9B1E702F5FE324FF4D4
:10EA90000040136A43F4004313622DF057F9A6E7D0
:10EAA00002F582324FF40050536A43F4005353622C
:10EAB0002DF044F99BE702F564424FF40010536ACD
:10EAC00043F4001353622DF039F990E718B2002097
:10EAD0000038004000300140003C0040003401405C
:10EAE000005001400054014000380240431C00F037
:10EAF00005812DE9F04F4FEAC00B0BEB00039B00A3
:10EB0000DFF85C8258F803A087B008EB0304BAF181
:10EB1000000F00F0F080143308EB03010022DAF854
:10EB2000047048F80320C1E90122CA60D4E90259FF
:10EB3000431CDBB215B11522EB71AA71B9F1000FBC
:10EB400004D0162289F8073089F8062001909AF837
:10EB5000180037F093F9BB8823F440731B041B0C97
:10EB6000BB802846FAF7E0FF4846FAF7DDFF11219F
:10EB70002846FAF737FF11214846FAF733FF0926EE
:10EB8000332405E0013C4FF00A0006D010F0ECF809
:10EB90002846FBF7C7FA0028F4D02846FAF7BEFF4C
:10EBA000052010F0E1F82846FAF7BEFF052010F026
:10EBB000DBF8013EE4D12846FAF7B0FF052010F05B
:10EBC000D3F84846FAF7AAFF052010F0CDF82846FA
:10EBD000FAF7AAFF052010F0C7F84846FAF7A4FF95
:10EBE000019B0BEB030408EB84042846E37C227CA6
:10EBF000002B0CBF12213221FAF740FEE37C627C2D
:10EC0000002B0CBF122132214846FAF737FE4B4B3E
:10EC10009F4274D04A4B9F4200F08580494B9F42EF
:10EC200077D0BB88484A494C23F440731B041B0C23
:10EC3000BB80019B9B443B8808EB8B0843F001039E
:10EC400098F812103B80BD8802A8002918BF14460E
:10EC50002DF032F9049A3E48B2FBF4F325F03F055B
:10EC6000A0FB02122D04900C2D0C0543BD803988A9
:10EC7000384C4FF496729BB202FB00F2002BA4FBBF
:10EC8000020221F0010108BF01239209090443F4A3
:10EC900000430132090C39803A84BB833A882E4BF9
:10ECA00042F001023A803A88134043F480634FF403
:10ECB00080423B803A813B8823F080031B041B0C7D
:10ECC0003B809AF81A308DF808300024012302A8FE
:10ECD0008DF80B308DF809408DF80A402CF010FFAC
:10ECE0009AF819308DF8083002A88DF809408DF88F
:10ECF0000A402CF02BFF07B0BDE8F08F7047174A91
:10ED0000136A43F4001313624FF400102DF01EF841
:10ED100087E7124A136A43F4000313624FF40000BA
:10ED20002DF014F87DE70D4A136A43F48003136253
:10ED30004FF480002DF00AF873E700BF0054004044
:10ED400000580040005C0040009F2400804F1200EB
:10ED500083DE1B43D34D6210F5FBFFFF00380240FA
:10ED6000A86A00202DE9F0410578012D82B0064601
:10ED70002FD0022D33D1806841F0800110B104689A
:10ED800080886083706840F2E93401E0002C6FD025
:10ED90000589013C15F0020FA4B2F7D089B2818138
:10EDA00040F2E93101E0002962D00489013914F010
:10EDB000010F89B2F7D081890021FBF7F1FBB3681D
:10EDC000002B53D01A689B881383012002B0BDE842
:10EDD000F08190F90400441C01D0032803DD0020D9
:10EDE00002B0BDE8F0814FEAC00EDFF8BCC00EEB08
:10EDF00000070CEB87077C68002C48D076793A62D4
:10EE000076004FF00008F6B2BE75F97587F81980E4
:10EE1000BD763B767D7587F81480A388FA619905E5
:10EE200012D42388DA050BD44FF4805501E0013D5C
:10EE30002FD023889B05FAD4238843F48073238042
:10EE4000A38843F44073A38086440CEB8E024FF4F6
:10EE5000805401E0013C13D0537D002BFAD10CEB20
:10EE60008E0E9EF8140080F00100B9E70120B7E78C
:10EE7000CDE90023FBF772FB7068DDE900239BE717
:10EE8000084A138801339BB21380FFF72FFE2046F8
:10EE9000A6E7044A138801339BB21380FFF726FECE
:10EEA00028469DE700570020A86A00207FB500256E
:10EEB00000F10C060C460D804D808D8001230DF174
:10EEC000070206213046FFF74DFF10B9002004B0BD
:10EED00070BD9DF807305B07F8D5062302AA2946C6
:10EEE0003046FFF73FFF0028F0D09DF809209DF83D
:10EEF000083043EA022323809DF80B209DF80A3056
:10EF000043EA022363809DF80D209DF80C3043EA0C
:10EF10000223A380DBE713B506230C466A460321D0
:10EF20000C30FFF71FFFA0B19DF800209DF80130C5
:10EF300043EA022323809DF802209DF8033043EA30
:10EF40000223A3809DF804209DF8053043EA0223A4
:10EF5000638002B010BD07B5032301AA0021FFF7AB
:10EF600001FF9DF805309DF804001B0243EA0043B1
:10EF70009DF80600184303B05DF804FB08B5FFF7E1
:10EF8000EAFF014B986008BDD828002008B5FFF7BC
:10EF9000E2FF014B586008BDD828002007B50623C2
:10EFA0006A46F721FFF7DEFE9DF801309DF800105C
:10EFB0000B4A1B0143EA01339DF8021043EA111387
:10EFC00013619DF804309DF803101B0143EA0133DF
:10EFD0009DF8051043EA1113D36003B05DF804FBFC
:10EFE000D828002007B5032301AAF621FFF7BAFEAF
:10EFF0009DF805309DF804201B0243EA02439DF86A
:10F0000006201343054AB2F92020C2F10802D3407A
:10F01000034A936103B05DF804FB00BFA05D0020CC
:10F02000D828002007B5022301AAF621FFF79AFE8F
:10F030009DF804209DF8053043EA0223024A93829A
:10F0400003B05DF804FB00BFD828002070B582B083
:10F050000446062310306A464321FFF783FEC0B101
:10F060009DF804009DF800609DF801109DF8025085
:10F070009DF803209DF8053041EA062143EA00236C
:10F0800042EA0522A4F85010A4F85220A4F8543003
:10F09000012002B070BD00BF2DE9F04F90F865303F
:10F0A00085B00546002B40F05184874B686993F882
:10F0B000003A002B00F0B080844B984200F034847A
:10F0C00003F58063984200F02F84038823F0400307
:10F0D0001B041B0C0380038823F038031B041B0C48
:10F0E000382213430380038843F04003038095F8DC
:10F0F0005F30032B00F28E8095F86210012900F03A
:10F100003B86A1F10201B1FA81F14909AB6913B162
:10F110001A689B88538340F2E93304E0013B9BB2B9
:10F12000002B00F0978702899707F7D51A23838170
:10F1300040F2E93304E0013B9BB2002B00F08A87E8
:10F140000289D607F7D5838940F2E93304E0013B11
:10F150009BB2002B00F07A8702899407F7D5818152
:10F1600040F2E93304E0013B9BB2002B00F06E87D4
:10F170000289D107F7D58389AB6913B11A689B88D7
:10F18000138301200FF0F0FD6A69504B9A4200F0A2
:10F19000DA8503F580639A4200F0D585138823F061
:10F1A00040031B041B0C1380138823F038031B043B
:10F1B0001B0C08210B431380138843F0400313807A
:10F1C0004321062302AA05F11000FFF7CBFD00281A
:10F1D00000F000859DF80A609DF80B309DF808400E
:10F1E0009DF809109DF80C009DF80D2043EA0623B8
:10F1F0001BB2A5F852305BB241EA042142EA002278
:10F200000133A5F85010A5F8542000F0E98405B0AA
:10F21000BDE8F08F002179E72C4B984200F01F8762
:10F2200003F58063984200F01A87038823F04003B7
:10F230001B041B0C0380038823F038031B041B0CE6
:10F240004FF4807242F48072002A92FAA2F2B2FA6B
:10F2500082F208BF4FF0FF32013A43EAC2039BB289
:10F2600003800288AB6942F04002028013B11A6841
:10F270009B88538340F2E93304E0013B9BB2002BAF
:10F2800000F0FB8602899707F7D56B23838140F254
:10F29000E93304E0013B9BB2002B00F0EE860289CB
:10F2A000D607F7D5838940F2E93304E0013B9BB2EE
:10F2B000002B00F0B58602899407F7D5802383815F
:10F2C00040F2E93309E000BFD828002000380040B0
:10F2D000013B9BB2002B00F0A3860289D107F7D532
:10F2E0008389AB6913B11A689B881383A44CDFF838
:10F2F0009CA2DFF89C82A34EDFF898C2A24F4FF089
:10F30000960BD8F80430C3F30803002B40F03C867A
:10F31000EFF31183002B40F037862068B268236832
:10F320009842FAD13B689A42F7D8DAF800E04FF4F5
:10F330007A7101FB0EF39B1AB3FBFEF301FB003065
:10F340004FF47A7ED8F80430C3F30803002B40F062
:10F35000A285EFF31183002B40F09D852368B168EF
:10F3600022689342FAD13A689142F7D8DAF80090CD
:10F370000EFB09F2521AB2FBF9F20EFB03231B1A21
:10F38000B3F57A7FDED3BBF1010BBAD1AB6913B110
:10F390001A689B885383686940F2E93304E0013BB3
:10F3A0009BB2002B00F0408602899207F7D56823B4
:10F3B000838140F2E93304E0013B9BB2002B00F073
:10F3C00033860289D707F7D5838940F2E93304E011
:10F3D000013B9BB2002B00F01F8602899607F7D5F0
:10F3E0000323838140F2E93304E0013B9BB2002B0D
:10F3F00000F012860289D107F7D58389AB6913B172
:10F400001A689B881383DFF888815E4EDFF884C119
:10F410005D4F4FF0960BD8F80430C3F30803002B70
:10F4200040F08E85EFF31183002B40F08985206832
:10F43000B26823689842FAD13B689A42F7D8DAF862
:10F4400000E04FF47A7101FB0EF39B1AB3FBFEF35D
:10F4500001FB00304FF47A7ED8F80430C3F3080380
:10F46000002B40F04B85EFF31183002B40F04685D5
:10F470002368B16822689342FAD13A689142F7D87A
:10F48000DAF800900EFB09F2521AB2FBF9F20EFB09
:10F4900003231B1AB3F57A7FDED3BBF1010BBAD17C
:10F4A000AB6913B11A689B885383686940F2E933EA
:10F4B00004E0013B9BB2002B00F0F085028991072C
:10F4C000F7D56B23838140F2E93304E0013B9BB223
:10F4D000002B00F0E3850289D207F7D5838940F23B
:10F4E000E93304E0013B9BB2002B00F0DC8502898C
:10F4F0009707F7D50323838140F2E93304E0013B0A
:10F500009BB2002B00F0CF850289D607F7D58389FF
:10F51000AB6913B11A689B8813830F200FF024FC8A
:10F52000AB6913B11A689B885383686940F2E93369
:10F5300004E0013B9BB2002B00F0B98502899407DF
:10F54000F7D56A23838140F2E93304E0013B9BB2A3
:10F55000002B00F0AC850289D107F7D5838940F2F2
:10F56000E93304E0013B9BB2002B00F0A585028942
:10F570009207F7D51023838140F2E93311E000BFF1
:10F5800094B2002010E000E09CB2002098B200206D
:10F5900000ED00E090B20020013B9BB2002B00F098
:10F5A0008B850289D707F7D58389AB6913B11A68B0
:10F5B0009B8813830F200FF0D7FBAB6913B11A6838
:10F5C0009B885383686940F2E93304E0013B9BB2B6
:10F5D000002B00F0758502899607F7D56C2383818F
:10F5E00040F2E93304E0013B9BB2002B00F0688558
:10F5F0000289D407F7D5838940F2E93304E0013B5F
:10F600009BB2002B00F0E48402899107F7D5002318
:10F61000838140F2E93304E0013B9BB2002B00F010
:10F62000D7840289D207F7D58389AB6913B11A68E9
:10F630009B8813830F200FF097FBAB6995F864103C
:10F6400013B11A689B885383686940F2E93304E078
:10F65000013B9BB2002B00F0BF8402899707F7D5CE
:10F660001923838140F2E93304E0013B9BB2002B74
:10F6700000F0B2840289D607F7D5838940F2E933D6
:10F6800004E0013B9BB2002B00F0AB84028994079D
:10F69000F7D589B2818140F2E93304E0013B9BB2A6
:10F6A000002B00F09E840289D107F7D58389AB69CE
:10F6B00013B11A689B8813830F200FF055FBAB69B9
:10F6C00013B11A689B885383686940F2E93304E0F8
:10F6D000013B9BB2002B00F0888402899207F7D58A
:10F6E0001B23838140F2E93304E0013B9BB2002BF2
:10F6F00000F07B840289D707F7D5838940F2E9338C
:10F7000004E0013B9BB2002B00F074840289960751
:10F71000F7D51823838140F2E93304E0013B9BB223
:10F72000002B00F067840289D407F7D58389AB6981
:10F7300013B11A689B8813830F200FF015FBAB6978
:10F7400013B11A689B885383686940F2E93304E077
:10F75000013B9BB2002B00F0518402899107F7D541
:10F760001C23838140F2E93304E0013B9BB2002B70
:10F7700000F044840289D207F7D5838940F2E93347
:10F7800004E0013B9BB2002B00F03D840289970707
:10F79000F7D51823838140F2E93304E0013B9BB2A3
:10F7A000002B00F030840289D607F7D58389AB6936
:10F7B00013B11A689B8813830F200FF0D5FAAB6939
:10F7C00013B11A689B885383686940F2E93304E0F7
:10F7D000013B9BB2002B00F01A8402899407F7D5F5
:10F7E0003723838140F2E93304E0013B9BB2002BD5
:10F7F00000F00D840289D107F7D5838940F2E933FF
:10F8000004E0013B9BB2002B00F03C84028992078C
:10F81000F7D51023838140F2E93304E0013B9BB22A
:10F82000002B00F02F840289D707F7D58389AB69B5
:10F8300013B11A689B8813830F200FF095FAAB69F8
:10F8400013B11A689B885383686940F2E93304E076
:10F85000013B9BB2002B00F0198402899607F7D573
:10F860003823838140F2E93304E0013B9BB2002B53
:10F8700000F00C840289D407F7D5838940F2E9337C
:10F8800004E0013B9BB2002B00F005840289910744
:10F89000F7D50123838140F2E93304E0013B9BB2B9
:10F8A000002B00F0F8830289D207F7D58389AB6972
:10F8B00013B11A689B8813830F200FF055FA6A69F9
:10F8C000204B9A4200F0B58303F580639A4200F022
:10F8D000B083138823F040031B041B0C1380138890
:10F8E00023F038031B041B0C042141F48071002910
:10F8F00091FAA1F1B1FA81F108BF4FF0FF3101395E
:10F9000043EAC1039BB21380138843F04003138082
:10F9100001200FF029FA0C4A6869012382F8003AA5
:10F92000084B98427FF4CCAB038823F040031B04C0
:10F930001B0C0380038823F038031B041B0C3022AC
:10F94000FFF7CFBB00380040D82800201E09013E39
:10F95000032E03F00F0300F20482974A32F81600D8
:10F9600040FA03F2D70740F1FC81012404FA03F3C3
:10F97000013B184040F0EEF8904B914A9B5D1844D3
:10F9800012EBC00600F0ED8120210023B171F3716C
:10F9900052F830308B4903F13F4202F57E02920A61
:10F9A000895C01F01F024909032904FA02F200F000
:10F9B0006D82042900F06582022903D18249486CD6
:10F9C00002434A64B288D4070BD5196821F00301B9
:10F9D000196019681960D96821F00301D960D968E4
:10F9E000D96090070BD5196821F00C0119601968CE
:10F9F0001960D96821F00C01D960D968D960510724
:10FA00000BD5196821F03001196019681960D9689F
:10FA100021F03001D960D968D96017070BD5196872
:10FA200021F0C001196019681960D96821F0C0017E
:10FA3000D960D968D960D4060BD5196821F4407112
:10FA4000196019681960D96821F44071D960D968C2
:10FA5000D96090060BD5196821F4406119601968C6
:10FA60001960D96821F44061D960D968D96051061C
:10FA70000BD5196821F44051196019681960D968CB
:10FA800021F44051D960D968D96017060BD519689F
:10FA900021F44041196019681960D96821F4404186
:10FAA000D960D968D960D4050BD5196821F44031E3
:10FAB000196019681960D96821F44031D960D96892
:10FAC000D96090050BD5196821F440211960196897
:10FAD0001960D96821F44021D960D968D9605105ED
:10FAE0000BD5196821F44011196019681960D9689B
:10FAF00021F44011D960D968D96017050BD5196870
:10FB000021F44001196019681960D96821F4400195
:10FB1000D960D968D960D4040BD5196821F0407137
:10FB2000196019681960D96821F04071D960D968E5
:10FB3000D96090040BD5196821F0406119601968EB
:10FB40001960D96821F04061D960D968D960510441
:10FB50000BD5196821F04051196019681960D968EE
:10FB600021F04051D960D968D96012040BD51A68C8
:10FB700022F040421A601A681A60DA6822F04042A5
:10FB8000DA60DA68DA602946104B41F80C3FF0225F
:10FB900008233046FAF7B0FBB388B3FA83F3C3F116
:10FBA0001F03012212FA03F33FF47FAA08490A68EF
:10FBB00013430B60FFF779BA685C0508705C0508B1
:10FBC000A0B200208C59050800380240D18A0008F4
:10FBD000003C0140B5F952305BB201337FF417AB02
:10FBE00095F9503001337FF412AB0A23BB4CDFF898
:10FBF00004A3BB4FBB4DBC4E019335F0A9FF4FF49E
:10FC0000FA73DFF8F4E200934FF010087B68C3F357
:10FC10000803002B40F0F180EFF31183002B40F03C
:10FC2000EC802068AA6823689842FAD133689A4227
:10FC3000F7D8DAF800C04FF47A7101FB0CF39B1A85
:10FC4000B3FBFCF301FB00304FF47A7C4FF0010969
:10FC50007B68C3F30803002B40F0B080EFF31183FF
:10FC6000002B40F0AB802368A96822689342FAD148
:10FC700032689142F7D8DAF800200CFB02FBABEBBC
:10FC80000101B1FBF2F10CFB03131B1AB3F57A7FF0
:10FC9000DED3009B013B0093B8D1072035F0B4FDC3
:10FCA0004FF47A73DFF850E200934FF010087B684E
:10FCB000C3F30803002B40F0C280EFF31183002B45
:10FCC00040F0BD802068AA6823689842FAD1336862
:10FCD0009A42F7D8DAF800C04FF47A7101FB0CF3BE
:10FCE0009B1AB3FBFCF301FB00304FF47A7C4FF01E
:10FCF00001097B68C3F30803002B40D1EFF31183A4
:10FD0000002B3CD12368A96822689342FAD132685B
:10FD10009142F7D8DAF800200CFB02FBABEB0101B3
:10FD2000B1FBF2F10CFB03131B1AB3F57A7FE0D39E
:10FD3000009B013B0093BAD1019B013B01937FF4EF
:10FD40005CAFFEF773FB138823F040031B041B0C0E
:10FD50001380138823F038031B041B0C0021FFF7CA
:10FD600029BA2946614B41F80C3FF02208230020B4
:10FD7000FAF7C2FAFFF799B90721FFF7C7B9EFF30E
:10FD8000118188F31288D5F808B02B68DB0344BFD3
:10FD9000CEF80090D5F808B02368DEF80020C9B28C
:10FDA00081F31188DAF8001013440CFB01F2A2EB86
:10FDB0000B02B2FBF1F20CFB0323B5E7EFF3118169
:10FDC00088F31288D5F808B02B68DB0344BFCEF85F
:10FDD0000090D5F808B02368DEF80020C9B281F39E
:10FDE0001188DAF8001013440CFB01F2A2EB0B02AD
:10FDF000B2FBF1F20CFB032347E7EFF3118388F327
:10FE00001288D5F808C02A68D20304D50122CEF89A
:10FE10000020D5F808C02068DEF80090DBB283F33C
:10FE20001188DAF800104FF47A72484402FB01F3AB
:10FE3000A3EB0C03B3FBF1F302FB003004E7EFF399
:10FE4000118388F31288D5F808C02A68D20304D534
:10FE50000122CEF80020D5F808C02068DEF8009016
:10FE6000DBB283F31188DAF800104FF47A72484459
:10FE700002FB01F3A3EB0C03B3FBF1F302FB003035
:10FE800033E71B49086B02430A639BE51849086C7A
:10FE900002430A6496E5EFF31181102383F312887D
:10FEA000D6F808903368DB0304D50123CCF8003082
:10FEB000D6F808902368DCF80020C9B281F31188D5
:10FEC000DAF8001013440EFB01F2A2EB0902B2FBB8
:10FED000F1F20EFB0323FFF752BA00BF94B20020E9
:10FEE00000ED00E010E000E09CB20020D18A0008A4
:10FEF0000038024098B2002090B20020EFF3118148
:10FF0000102383F31288D6F808903368DB0304D5F6
:10FF10000123CCF80030D6F808902368DCF80020E4
:10FF2000C9B281F31188DAF8001013440EFB01F214
:10FF3000A2EB0902B2FBF1F20EFB0323FFF7A9BA11
:10FF4000EFF31183102282F31288D6F808E03268AA
:10FF5000D20304D50122CCF80020D6F808E02068AE
:10FF6000DCF80090DBB283F31188DAF800104FF46C
:10FF70007A72484402FB01F3A3EB0E03B3FBF1F3E7
:10FF800002FB0030FFF766BAEFF31183102282F311
:10FF90001288D6F808E03268D20304D50122CCF8E2
:10FFA0000020D6F808E02068DCF80090DBB283F38C
:10FFB0001188DAF800104FF47A72484402FB01F31A
:10FFC000A3EB0E03B3FBF1F302FB0030FFF7B8B96C
:10FFD000FAF7C4FAFFF729BBFAF7C0FA6869FFF726
:10FFE0004DBBFAF7BBFAFFF762BBFAF7B7FA6869DD
:10FFF000FFF784BBFAF7B2FAFFF799BBFAF7AEFA4C
:020000040801F1
:100000006869FFF7BBBBFAF7A9FAFFF7D0BBFAF7AD
:10001000A5FA6869FFF7F2BBFAF7A0FAFFF7EEB9A5
:10002000FAF79CFAFFF75DB9FAF798FA6869FFF7F3
:10003000CCB9138823F040031B041B0C13801388D6
:1000400023F038031B041B0C02214EE4FAF786FA56
:10005000FFF792B8FAF782FA6869FFF775B8038874
:1000600023F040031B041B0C0380038823F0380398
:100070001B041B0C8022FFF7E5B8FAF76FFA6869DA
:10008000FFF711B9FAF76AFAFFF7D1BBFAF766FA88
:100090006869FFF7F3BBFAF761FA08E4FAF75EFA6A
:1000A0006869FFF71CBAFAF759FAFFF731BAFAF79D
:1000B00055FA6869FFF753BAFAF750FAFFF775BABD
:1000C000FAF74CFA6869FFF797BA00BF70B582B0CB
:1000D0000446062308306A463B21FEF743FEA8B1DA
:1000E0009DF804009DF800609DF801109DF80250F5
:1000F0009DF803209DF8053041EA062143EA0023DC
:1001000042EA0522E18222836383012002B070BDAE
:10011000F0B5C60033189B00244DEA585468A28AF3
:1001200083B092B20192019A2B4412F4706F1CBFFB
:1001300001221A75019B13F4E06F07460CD1A38AC4
:100140003E4423F4706305EB86051B041B0C002260
:10015000A3826A7503B0F0BD238BA38823F4806368
:100160001B041B0CA380019B9B05E8D423889805E6
:10017000E5D42388D9050DD52388DA05FCD4238856
:1001800043F40073238023889B05FCD43846FEF794
:10019000ADFCD4E7238843F400732380A38823F4C1
:1001A00040731B041B0CA380C9E700BFA86A002092
:1001B000F0B583B0441C8DF8073001D0032802DD70
:1001C000002003B0F0BDC700274E3B1806EB8303A9
:1001D0005C68002CF4D04900C9B299750125002152
:1001E000DA755D7699761D765D751975A1880DF1C4
:1001F00007028905C3E9072212D42388DA050BD444
:100200004FF4805501E0013D25D023889B05FAD4A9
:10021000238843F480732380A38843F44073A3802E
:10022000074406EB87024FF4805401E0013C09D0FB
:10023000537D002BFAD106EB8707387D80F0010053
:1002400003B0F0BD094A138801339BB21380FEF757
:100250004DFC2046B5E7054A138801339BB2138055
:10026000FEF744FC2846ACE7A86A002000570020AF
:100270000378012B47D0022B43D183682DE9F0414D
:1002800001F07F0113B11C689B8863830546174604
:10029000406840F2E93401E0002C3FD00689013C7F
:1002A00016F0020FA4B2F7D089B2818140F2E93191
:1002B00001E0002932D00389013913F0010F89B21E
:1002C000F7D0838940F2E93100E021B30489013994
:1002D00014F0020F89B2F8D0BFB2878140F2E9333F
:1002E00000E0C3B10289013B12F0010F9BB2F8D0CC
:1002F0008389AB686BB11A689B8813830120BDE8C2
:10030000F0810020704713460A46417990F90400B5
:100310004EE70120F3E7FAF721F9EAE7FAF71EF9C9
:100320006868CFE710B500F10C0401220B212046CC
:10033000FFF79EFF20B11D2209212046FFF798FFFD
:1003400000F0010010BD10B500F10C047022002176
:100350002046FFF78DFF202201212046FFF788FF6E
:10036000002202212046FFF783FF64200EF05AFD91
:10037000012010BD012248217AE70122582177E7A8
:100380003122F42174E7044B93F820209201343297
:1003900002F0FC02F4216BE7A05D00202E22F42184
:1003A00066E700BF2DE9F04F87B0009090F8650038
:1003B000002840F01687009B93F85C30072B00F074
:1003C0005B871823CDE90233009A137C012B00F0E0
:1003D0006087022B12D1936913B11A689B885383EB
:1003E000009C6B216069FAF71FFA80216069FAF7B7
:1003F0001BFAA36913B11A689B8813836423AE4C5C
:10040000AE4EDFF8C4E2AE48DFF8C082AD4F0193D4
:100410004FF01009DEF80430C3F30803002B40F05E
:100420002985EFF31183002B40F02485256882682D
:1004300023689D42FAD13B689A42F7D8D6F800C0AB
:100440004FF47A7101FB0CF39B1AB3FBFCF301FB35
:1004500005354FF47A7C4FF0010ADEF80430C3F31F
:100460000803002B40F0BC84EFF31183002B40F015
:10047000B7842368816822689342FAD13A6891422E
:10048000F7D832680CFB02FBABEB0101B1FBF2F1D8
:100490000CFB03135B1BB3F57A7FDED3019B013B9F
:1004A0000193B7D1009A137C012B00F0FC86022B3C
:1004B00012D1936913B11A689B885383009D6821F8
:1004C0006869FAF7B1F907216869FAF7ADF9AB691C
:1004D00013B11A689B8813836423DFF8ECE1784832
:1004E000DFF8E881774F01934FF01009DEF8043010
:1004F000C3F30803002B40F09B84EFF31183002B20
:1005000040F096842568826823689D42FAD13B6852
:100510009A42F7D8D6F800C04FF47A7101FB0CF379
:100520009B1AB3FBFCF301FB05354FF47A7C4FF0CB
:10053000010ADEF80430C3F30803002B40F03184D5
:10054000EFF31183002B40F02C842368816822682C
:100550009342FAD13A689142F7D832680CFB02FB19
:10056000ABEB0101B1FBF2F10CFB03135B1BB3F529
:100570007A7FDED3019B013B0193B7D1009A137CB4
:10058000012B00F0A386022B12D1936913B11A68D4
:100590009B885383009D6B216869FAF745F9002118
:1005A0006869FAF741F9AB6913B11A689B8813833C
:1005B0006423DFF814E14248DFF81081414F0193D2
:1005C0004FF01009DEF80430C3F30803002B40F0AD
:1005D0009584EFF31183002B40F0908425688268A6
:1005E00023689D42FAD13B689A42F7D8D6F800C0FA
:1005F0004FF47A7101FB0CF39B1AB3FBFCF301FB84
:1006000005354FF47A7C4FF0010ADEF80430C3F36D
:100610000803002B40F0A783EFF31183002B40F079
:10062000A2832368816822689342FAD13A68914292
:10063000F7D832680CFB02FBABEB0101B1FBF2F126
:100640000CFB03135B1BB3F57A7FDED3019B013BED
:100650000193B7D1009A137C012B00F02E86022B58
:1006600012D1936913B11A689B885383009D6B2143
:100670006869FAF7D9F801216869FAF7D5F8AB6922
:1006800013B11A689B8813830F23DFF83CE00C48F2
:10069000DFF838800B4F01934FF01009DEF804307B
:1006A000C3F30803002B40F00784EFF31183002B02
:1006B00040F002840CE000BF94B2002098B2002009
:1006C00010E000E09CB2002000ED00E090B20020BD
:1006D0002568826823689D42FAD13B689A42F7D820
:1006E000D6F800C04FF47A7101FB0CF39B1AB3FBF0
:1006F000FCF301FB05354FF47A7C4FF0010ADEF87C
:100700000430C3F30803002B40F00F83EFF3118391
:10071000002B40F00A832368816822689342FAD153
:100720003A689142F7D832680CFB02FBABEB01014F
:10073000B1FBF2F10CFB03135B1BB3F57A7FDED345
:10074000019B013B0193A9D1009A92F85F30032BE2
:1007500009D992F86330012B029B0CBF43F00103CF
:1007600043F002030293137C9DF80850012B00F024
:10077000C185022B12D1936913B11A689B885383E8
:10078000009F1B217869FAF74FF829467869FAF734
:100790004BF8BB6913B11A689B8813830F23DFF8EA
:1007A000DCE2B448DFF8D882B34F01934FF0100970
:1007B000DEF80430C3F30803002B40F0E283EFF3CC
:1007C0001183002B40F0DD832568826823689D42F9
:1007D000FAD13B689A42F7D8D6F800C04FF47A7144
:1007E00001FB0CF39B1AB3FBFCF301FB05354FF443
:1007F0007A7C4FF0010ADEF80430C3F30803002BC3
:1008000040F07582EFF31183002B40F07082236873
:10081000816822689342FAD13A689142F7D83268E7
:100820000CFB02FBABEB0101B1FBF2F10CFB031380
:100830005B1BB3F57A7FDED3019B013B0193B7D1FC
:10084000009A137C012B00F04B85022B12D1936987
:1008500013B11A689B885383009D1C216869F9F7BE
:10086000E3FF03996869F9F7DFFFAB6913B11A6811
:100870009B8813830F23DFF804E27E48DFF80082B1
:100880007D4F01934FF01009DEF80430C3F30803E5
:10089000002B40F05583EFF31183002B40F0508381
:1008A0002568826823689D42FAD13B689A42F7D84E
:1008B000D6F800C04FF47A7101FB0CF39B1AB3FB1E
:1008C000FCF301FB05354FF47A7C4FF0010ADEF8AA
:1008D0000430C3F30803002B40F0EB81EFF31183E6
:1008E000002B40F0E6812368816822689342FAD1A8
:1008F0003A689142F7D832680CFB02FBABEB01017E
:10090000B1FBF2F10CFB03135B1BB3F57A7FDED373
:10091000019B013B0193B7D1009A92F85F30032B02
:1009200000F25C8492F86250012D00F04B83A5F137
:100930000205B5FA85F56D09137C012B00F048839B
:10094000022B12D1936913B11A689B885383009FBD
:100950001A217869F9F768FF29467869F9F764FF81
:10096000BB6913B11A689B8813830F23DFF80CE16E
:100970004048DFF80C81404F01934FF01009DEF83A
:100980000430C3F30803002B40F00684EFF3118317
:10099000002B40F001842568826823689D42FAD1CB
:1009A0003B689A42F7D8D6F800C04FF47A7101FB41
:1009B0000CF39B1AB3FBFCF301FB05354FF47A7C77
:1009C0004FF0010ADEF80430C3F30803002B40F0B7
:1009D0000883EFF31183002B40F0038323688168C1
:1009E00022689342FAD13A689142F7D832680CFBF8
:1009F00002FBABEB0101B1FBF2F10CFB03135B1B40
:100A0000B3F57A7FDED3019B013B0193B7D1009A06
:100A1000137C92F86450012B00F07684022B12D1E3
:100A2000926912B1136892885A83009F19217869DC
:100A3000F9F7FAFE29467869F9F7F6FEBB6913B1B2
:100A40001A689B8813836423DFF830E00948DFF8D5
:100A50003080094F01934FF01009DEF80430C3F3E2
:100A60000803002B40F07783EFF31183002B40F055
:100A7000728307E010E000E09CB2002000ED00E08F
:100A800090B200202568826823689D42FAD13B68B5
:100A90009A42F7D8D6F800C04FF47A7101FB0CF3F4
:100AA0009B1AB3FBFCF301FB05354FF47A7C4FF046
:100AB000010ADEF80430C3F30803002B40F0CD82B6
:100AC000EFF31183002B40F0C8822368816822680D
:100AD0009342FAD13A689142F7D832680CFB02FB94
:100AE000ABEB0101B1FBF2F10CFB03135B1BB3F5A4
:100AF0007A7FDED3019B013B0193AED1009A137C38
:100B0000012B00F00B84022B12D1936913B11A68E8
:100B10009B885383009D37216869F9F785FE102172
:100B20006869F9F781FEAB6913B11A689B88138372
:100B30000F23DFF8F4E2BA48DFF8F082B94F0193EF
:100B40004FF01009DEF80430C3F30803002B40F027
:100B5000E182EFF31183002B40F0DC82256882688C
:100B600023689D42FAD13B689A42F7D8D6F800C074
:100B70004FF47A7101FB0CF39B1AB3FBFCF301FBFE
:100B800005354FF47A7C4FF0010ADEF80430C3F3E8
:100B90000803002B40F04382EFF31183002B40F059
:100BA0003E822368816822689342FAD13A68914272
:100BB000F7D832680CFB02FBABEB0101B1FBF2F1A1
:100BC0000CFB03135B1BB3F57A7FDED3019B013B68
:100BD0000193B7D1009A137C012B00F0A883022B5C
:100BE00012D1936913B11A689B885383009D3821F1
:100BF0006869F9F719FE01216869F9F715FEAB6913
:100C000013B11A689B8813830F23DFF81CE2844812
:100C1000DFF81882834F00934FF01009DEF804309C
:100C2000C3F30803002B40F05482EFF31183002B31
:100C300040F04F822568826823689D42FAD13B6864
:100C40009A42F7D8D6F800C04FF47A7101FB0CF342
:100C50009B1AB3FBFCF301FB05354FF47A7C4FF094
:100C6000010ADEF80430C3F30803002B40F01382BE
:100C7000EFF31183002B40F00E8223688168226815
:100C80009342FAD13A689142F7D832680CFB02FBE2
:100C9000ABEB0101B1FBF2F10CFB03135B1BB3F5F2
:100CA0007A7FDED3009B013B0093B7D107B0BDE84C
:100CB000F08FEFF3118189F31288D0F808B0036840
:100CC000DB0344BFC8F800A0D0F808B02368D8F808
:100CD0000020C9B281F31188316813440CFB01F282
:100CE000A2EB0B02B2FBF1F20CFB03230CE6EFF3D9
:100CF000118189F31288D0F808B00368DB0344BF80
:100D0000C8F800A0D0F808B02368D8F80020C9B20D
:100D100081F31188316813440CFB01F2A2EB0B0242
:100D2000B2FBF1F20CFB032382E5EFF3118189F3AF
:100D30001288D0F808B00368DB0344BFC8F800A0ED
:100D4000D0F808B02368D8F80020C9B281F3118820
:100D5000316813440CFB01F2A2EB0B02B2FBF1F27F
:100D60000CFB0323E8E4EFF3118189F31288D0F838
:100D700008B00368DB0344BFC8F800A0D0F808B08F
:100D80002368D8F80020C9B281F311883168134470
:100D90000CFB01F2A2EB0B02B2FBF1F20CFB032302
:100DA00050E4EFF3118189F31288D0F808B003689A
:100DB000DB0344BFC8F800A0D0F808B02368D8F817
:100DC0000020C9B281F31188316813440CFB01F291
:100DD000A2EB0B02B2FBF1F20CFB0323FFF7C6BB45
:100DE000EFF3118189F31288D0F808B00368DB03B0
:100DF00044BFC8F800A0D0F808B02368D8F8002095
:100E0000C9B281F31188316813440CFB01F2A2EBE3
:100E10000B02B2FBF1F20CFB0323FFF73BBB00BF5D
:100E200010E000E09CB2002000ED00E090B2002055
:100E3000EFF3118389F31288D0F808C00268D20357
:100E400004D50122C8F80020D0F808C02568D8F8D9
:100E500000A0DBB283F3118831684FF47A725544F5
:100E600002FB01F3A3EB0C03B3FBF1F302FB05352B
:100E7000FFF75BBBEFF3118389F31288D0F808C04A
:100E80000268D20304D50122C8F80020D0F808C0B7
:100E90002568D8F800A0DBB283F3118831684FF4DD
:100EA0007A72554402FB01F3A3EB0C03B3FBF1F39D
:100EB00002FB0535FFF7CDBAEFF3118389F31288F2
:100EC000D0F808C00268D20304D50122C8F8002077
:100ED000D0F808C02568D8F800A0DBB283F31188E9
:100EE00031684FF47A72554402FB01F3A3EB0C0313
:100EF000B3FBF1F302FB0535FFF7FDBBEFF3118305
:100F000089F31288D0F808C00268D20304D5012200
:100F1000C8F80020D0F808C02568D8F800A0DBB2D7
:100F200083F3118831684FF47A72554402FB01F360
:100F3000A3EB0C03B3FBF1F302FB0535FFF761BB39
:100F4000EFF3118389F31288D0F808C00268D20346
:100F500004D50122C8F80020D0F808C02568D8F8C8
:100F600000A0DBB283F3118831684FF47A725544E4
:100F700002FB01F3A3EB0C03B3FBF1F302FB05351A
:100F8000A1E4EFF3118389F31288D0F808C0026856
:100F9000D20304D50122C8F80020D0F808C0256883
:100FA000D8F800A0DBB283F3118831684FF47A726D
:100FB000554402FB01F3A3EB0C03B3FBF1F302FB7B
:100FC000053514E4137C012B4FF007057FF4B8AC12
:100FD00010462B46417D90F914001A22FFF7E8F8DD
:100FE000C3E4EFF3118189F31288D0F808B00368E5
:100FF000DB0344BFC8F800A0D0F808B02368D8F8D5
:101000000020C9B281F31188316813440CFB01F24E
:10101000A2EB0B02B2FBF1F20CFB0323EFE4EFF3C4
:10102000118189F31288D0F808B00368DB0344BF4C
:10103000C8F800A0D0F808B02368D8F80020C9B2DA
:1010400081F31188316813440CFB01F2A2EB0B020F
:10105000B2FBF1F20CFB0323B4E5EFF3118189F34A
:101060001288D0F808B00368DB0344BFC8F800A0BA
:10107000D0F808B02368D8F80020C9B281F31188ED
:10108000316813440CFB01F2A2EB0B02B2FBF1F24C
:101090000CFB03232AE5EFF3118189F31288D0F8C2
:1010A00008B00368DB0344BFC8F800A0D0F808B05C
:1010B0002368D8F80020C9B281F31188316813443D
:1010C0000CFB01F2A2EB0B02B2FBF1F20CFB0323CF
:1010D000E4E5EFF3118389F31288D0F808C00268C1
:1010E000D20304D50122C8F80020D0F808C0256832
:1010F000D8F800A0DBB283F3118831684FF47A721C
:10110000554402FB01F3A3EB0C03B3FBF1F302FB29
:101110000535A2E5EFF3118389F31288D0F808C0F2
:101120000268D20304D50122C8F80020D0F808C014
:101130002568D8F800A0DBB283F3118831684FF43A
:101140007A72554402FB01F3A3EB0C03B3FBF1F3FA
:1011500002FB053515E5EFF3118389F31288D0F80A
:1011600008C00268D20304D50122C8F80020D0F8D4
:1011700008C02568D8F800A0DBB283F31188316875
:101180004FF47A72554402FB01F3A3EB0C03B3FB5B
:10119000F1F302FB053588E4EFF3118389F312883C
:1011A000D0F808C00268D20304D50122C8F8002094
:1011B000D0F808C02568D8F800A0DBB283F3118806
:1011C00031684FF47A72554402FB01F3A3EB0C0330
:1011D000B3FBF1F302FB0535FFF7F0BB019DFFF711
:1011E000ABBBF8F783FA009B044603F10C0500281B
:1011F00000F0AB8000685F4900F13F4303F57E03D8
:101200009A0A01238A5C02F01F01520920268B40B2
:10121000032A4FF00001A671E17100F0A580042AB5
:1012200000F09D80022A03D1534A516C0B43536452
:10123000A388049304A9002305932BF005FA009AD0
:101240004E4BD36029460823F0222046F9F754F884
:10125000A388B3FA83F3C3F11F03012212FA03F345
:101260003FF4A9A846490A6813430B60009B93F812
:101270005C30072B7FF4A5A8009B93F86130002B0E
:101280005DD1009A1023CDE90233137C012B7FF44A
:10129000A0A810468023417D90F914006B22FEF730
:1012A00087FFFFF7ABB810460723417D90F9140084
:1012B0006822FEF77DFFFFF70FB910466B22417DD4
:1012C00090F91400FEF774FFFFF7DEB91046019B9A
:1012D000417D90F914006B22FEF76AFFFFF768B9B1
:1012E0001046039B417D90F914001C22FEF760FF1D
:1012F000FFF7C0BA10462B46417D90F914001B221F
:10130000FEF756FFFFF74ABA10462B46417D90F98B
:1013100014001922FEF74CFFFFF795BB104610236F
:10132000417D90F914003722FEF742FF00E4104699
:101330003822417D90F91400FEF73AFF64E4182347
:101340001021CDE90231FFF73FB81A460B4BD360AD
:1013500029460823F022F8F7CFFFFFF72CB8064AFA
:10136000116B0B43136363E7034A116C0B43136464
:101370005EE700BF8C59050800380240D18A00089A
:10138000003C01402DE9F04F9D4B426983B09A42E9
:10139000019000F01F8103F580639A4200F01A81EA
:1013A000138823F040031B041B0C1380138823F0C5
:1013B00038031B041B0C30210B431380138843F0AC
:1013C0004003138001200DF0CFFC019C2046FEF766
:1013D000E9FFA36913B11A689B885383019B58697D
:1013E00040F2E93302E0002B00F001810289013B69
:1013F00012F0020F9BB2F6D06A23838140F2E933E8
:1014000002E0002B00F0F3800289013B12F0010F93
:101410009BB2F6D0838940F2E93302E0002B00F062
:10142000EB800289013B12F0020F9BB2F6D0102331
:10143000838140F2E93302E0002B00F0DD80028975
:10144000013B12F0010F9BB2F6D08389019B9B698F
:1014500013B11A689B88138364236A48DFF8B0E1EC
:10146000DFF8B0C1684CDFF8B081684E00934FF0F0
:101470001009DCF80430C3F30803002B7ED1EFF32E
:101480001183002B7AD10568A26803689D42FAD1C6
:1014900033689A42F7D8DEF800704FF47A7101FB96
:1014A00007F39B1AB3FBF7F301FB05354FF47A778B
:1014B0004FF0010ADCF80430C3F30803002B3ED1DF
:1014C000EFF31183002B3AD10368A16802689342BD
:1014D000FAD132689142F7D8DEF8002007FB02FB10
:1014E000ABEB0101B1FBF2F107FB03135B1BB3F59F
:1014F0007A7FDFD3009B013B0093BAD1019B5A69ED
:101500003F4B9A4259D003F580639A4255D01388D5
:1015100023F040031B041B0C1380138823F03803B3
:101520001B041B0C08210B4313801388012043F07C
:101530004003138003B0BDE8F04F0DF015BCEFF38E
:10154000118189F31288D4F808B02368DB0344BF03
:10155000C8F800A0D4F808B00368D8F80020C9B2D1
:1015600081F31188DEF80010134407FB01F2A2EBAF
:101570000B02B2FBF1F207FB0323B7E7EFF3118392
:1015800089F31288A7682268D20303D50122C8F81C
:101590000020A7680568D8F800A0DBB283F31188A3
:1015A000DEF800104FF47A72554402FB01F3DB1BA6
:1015B000B3FBF1F302FB053578E7138823F0400312
:1015C0001B041B0C1380138823F038031B041B0C13
:1015D0000021A8E7138823F040031B041B0C138091
:1015E000138823F038031B041B0C2821E4E6F8F7CA
:1015F000B5FF019B58690EE7F8F7B0FF26E700BF7B
:101600000038004094B2002010E000E09CB20020BE
:1016100098B2002000ED00E090B200200220F7F721
:10162000B9BC00BF0220FEF773BD00BF0120F7F771
:10163000B1BC00BF0120FEF76BBD00BF0020F7F773
:10164000A9BC00BF0020FEF763BD00BF044B1878A3
:1016500028B1044A1268520744BF0020187070472E
:10166000848900200020014043680B4A23F0407326
:1016700023F4807343F48073436083681A4042F01C
:1016800002028260C36A0139C9B223F4700343EADB
:101690000153C362704700BFFDF7FFC01F4B1B68BB
:1016A000032B30B433D81E4A1E4903EB43035B00BF
:1016B00098189B5A42888088C1F8C030C1E931022D
:1016C000B3FBF2F21848194D19491A4B1A4C00FB9A
:1016D00002F22A60D1F8882042F47002C1F8882012
:1016E0001A68002042F001021A6098601A6822F01D
:1016F000847222F480321A605C601A684FF00064D1
:1017000022F480221A60D8608C6030BC7047054A91
:10171000D2F8C030D2F8C820D2E700BFA418012008
:101720007C4805080000002040420F0018E200201D
:1017300000ED00E000380240103000241548164A41
:10174000038870B4154D164C2968B2F90060226800
:1017500001339BB201310132B34203802960226020
:101760000DDA104A10491388B1F9001001339BB209
:101770008B421380A4BF0023138070BC70470B49B9
:10178000084C0B880022013322800B80028070BC41
:10179000704700BFCC060120D8060120D4060120E6
:1017A000C8060120D0060120DA060120CE0601205D
:1017B0000023012102220171427183700380C370F2
:1017C0008371C37103724372704700BF00230A2202
:1017D00003604360C381C0F80630C0F80A3002805D
:1017E000704700BF2DE9F843704CE279237A9A42A2
:1017F0007FD0E279E379C2EBC20204EB8202C3EB51
:10180000C30304EB830392F82B101E7C8B1E9E42B5
:101810002CD0674AB4F864301278E16801339BB287
:101820001B2AA4F8643067D00025E379614A0133AC
:10183000A2FB0302520802EB42029B1ADBB2E371E5
:1018400000293BD00DF03EFAD4F89830C01AB0F51C
:10185000FA7F04DB002345F0040584F89630D4F8C1
:101860009030002B32D12846BDE8F883E37904F1AB
:101870001007C3EBC30307EB830361B119440022D4
:1018800013F8015B2A44994292B2F9D1D3B203EB27
:101890001222FF2A38D0464AB4F864301278E16840
:1018A00001339BB21B2AA4F86430BDD1424BB4F87B
:1018B00064205A8004229A800025B6E794F8963076
:1018C000002BBFD1D4F89030002BCCD03B4A12680B
:1018D000D31AB3F5FA7FC6D994F86630032B04BF48
:1018E0000023A4F88C300023C4F890302846BDE8CB
:1018F000F883E1680025A3E72F4BB4F864205A80F1
:1019000003229A80002590E7E37901221C2101FB44
:101910000323FA18FD5C5DB3012D15D1082E3CD0D0
:10192000234AB4F864301278E16801339BB21B2A71
:10193000A4F864307FF478AF1F4BB4F864205A8069
:1019400006229A80002570E7194AB4F864301278AC
:10195000E16801339BB21B2AA4F864307FF464AFC2
:10196000154BB4F864205A8005229A8000255CE764
:10197000192EE16824D00E4AB4F86430127801338D
:101980009BB21B2AA4F864307FF44FAF0A4BB4F823
:1019900064205A8006229A8047E794F89430002BFE
:1019A00040F0E9801D46E1683FE700BF105200208B
:1019B00049B20020ABAAAAAA4CB2002094B20020DF
:1019C00092F802C05578036992F8038092F8049067
:1019D0009679D77992F808E00CF0070C45EA0C25C7
:1019E00008F03F0892F80AC01D8095784FEA481821
:1019F00048EAD508957BA3F8028092F803804FEA65
:101A0000890040EA981092F8058008F0010840EA41
:101A10008820988006F00F06507992F80780F6012A
:101A200046EA5000567AD8804FEA4E0E4EEAD81E4B
:101A300006F0030692F80680D07A07F07F074EEA98
:101A4000462E3F01567BA3F80AE047EA18171F818C
:101A500006F00707967A92F809E0C00040EA5610AF
:101A6000167B0CF01F0C46EA072605F03F05577B56
:101A7000D8816D014FEA8C1C45EAD7004CEA9E0CD8
:101A8000A3F80CC01E825882D07B92F80EE0D77C5F
:101A900092F8128092F811C0967C557D800040EA41
:101AA0009E1092F810E07F000EF0010E47EAD81762
:101AB0000CF00F0C92F8108040EA8E204FEACC1CFC
:101AC00092F814E098824CEA580C907DA3F816C066
:101AD00006F07F0692F811C00EF0030E47EA4E277B
:101AE000360146EA1C165F8392F814C0577D1E83A8
:101AF00005F01F05AD01C00045EA9C0540EA5710FE
:101B0000D8839D83D57D40F2147015F0010F14BF6A
:101B10000646AD2615F0020F08BFAD201E8458847E
:101B20002B0759D415F0040F0CBF0125092594F893
:101B30006630032B1AD194F86700137E2B4FA26EE8
:101B400004EB4006C3EB8323A7FB0373B6F86C706A
:101B50005B09D21B01301A4400F00F0084F86700C3
:101B60001009A6F86C30A266A4F88C00204B1B6804
:101B7000C4F8903059E65378102B14D01ED8D3B93E
:101B800094F89530E168002B7FF44EAE94F89730CE
:101B9000012B23D919B10A78303A012A1ED9002520
:101BA00084F8975041E694F895300BB984F8955035
:101BB000012384F89630E168002536E6303B012B9E
:101BC000F9D852F8010FE46091889379A1802060E0
:101BD000A3710849002528E60325A8E7013301225F
:101BE00084F8973084F8962000251EE61F85EB5177
:101BF00094B200201052002010B504460DF062F897
:101C0000514B002283F89C2093F89D20012A19D97A
:101C1000D3F8A02040F6AC51821A8A4212DD4B491B
:101C2000B3F864200978013292B21B29A3F864202A
:101C300005D1474AB3F864105180012191800022F8
:101C400083F89D20E2B27E2A27D093F89D1019B325
:101C500093F89D101B2956D893F8AC1000296CD02E
:101C6000002182F0200283F8AC1093F89D10022925
:101C700003D1012A08BF83F8A420197A93F89D4064
:101C800093F89D00C1EBC10103EB810121440130B8
:101C9000C0B2CA7383F89D0010BD93F89D20012A3D
:101CA0002BD91A7A2B49DC790132A1FB02C14908F0
:101CB00001EB4101521AD2B294420AD093F89D40EE
:101CC000197A1A72C1EBC10103EB8101621E81F81E
:101CD0002B2093F8A4203AB10121002283F89C1014
:101CE00083F8A420C3F89800184A12781B2A1ED043
:101CF0000022C3F8A80083F8AC20012283F89D20BD
:101D0000C3F8A00010BD002283F89D200F49B3F84E
:101D100064200978013292B21B29A3F86420BBD158
:101D20000B4AB3F8643053800223938010BDD3F87C
:101D3000A8200749821A0A80DAE77D2A95D1012274
:101D400083F8AC2010BD00BF1052002049B2002023
:101D50004CB20020ABAAAAAA03788B4283BF034BE4
:101D600003EB4101B1F8B000002070471052002091
:101D7000044B93F8C80018B1002283F8C820012052
:101D8000704700BF10520020F0B4C24D95F8EF60CC
:101D900005F1CC020244B41E1444A24200F0788142
:101DA000013A013C002341F2210112F8017F83EA4C
:101DB00007231FB2BBB2002FACBF5B0081EA430315
:101DC0009BB21F0454BF5B0081EA43039BB21F0414
:101DD00054BF5B0081EA43039BB21F0454BF5B0006
:101DE00081EA43039BB21F0454BF5B0081EA4303B3
:101DF0009BB21F0454BF5B0081EA43039BB21F04E4
:101E000054BF5B0081EA43039BB21F0454BF5B00D5
:101E100081EA4303A2429BB2C7D10644B21E013EEF
:101E20002A442E4492F8CC1096F8CC2002EB0122E2
:101E300092B29A4201D0F0BC704795F8F020002A87
:101E400000F02181431CDBB25C1C2C442B444FF47A
:101E5000AF6193F8CC6094F8CC3003EB06239BB2CF
:101E600001FB03F31B1303F54873012AA5F8B030F7
:101E700000F00981C31CDBB25C1C2C442B44022AF9
:101E800093F8CC6094F8CC3003EB06239BB201FBB3
:101E900003F34FEA233303F54873A5F8B23000F09B
:101EA000F280431DDBB25C1C2C442B44032A93F8C4
:101EB000CC6094F8CC3003EB06239BB201FB03F318
:101EC0004FEA233303F54873A5F8B43000F0DB8004
:101ED000C31DDBB25C1C2C442B44042A93F8CC6059
:101EE00094F8CC3003EB06239BB201FB03F34FEADB
:101EF000233303F54873A5F8B63000F0C48000F131
:101F00000903DBB25C1C2C442B44052A93F8CC60FB
:101F100094F8CC3003EB06239BB201FB03F34FEAAA
:101F2000233303F54873A5F8B83000F0AC8000F116
:101F30000B03DBB25C1C2C442B44062A93F8CC60C8
:101F400094F8CC3003EB06239BB201FB03F34FEA7A
:101F5000233303F54873A5F8BA3000F0948000F1FC
:101F60000D03DBB25C1C2C442B44072A93F8CC6095
:101F700094F8CC3003EB06239BB201FB03F34FEA4A
:101F8000233303F54873A5F8BC307CD000F10F0370
:101F9000DBB25C1C2C442B44082A93F8CC6094F8E8
:101FA000CC3003EB06239BB201FB03F34FEA233350
:101FB00003F54873A5F8BE3065D000F11103DBB21C
:101FC0005C1C2C442B44092A93F8CC6094F8CC3048
:101FD00003EB06239BB201FB03F34FEA233303F524
:101FE0004873A5F8C0304ED000F11303DBB25C1C7F
:101FF0002C442B440A2A93F8CC6094F8CC3003EBA1
:1020000006239BB201FB03F34FEA233303F5487326
:10201000A5F8C23037D000F11503DBB25C1C2C44AC
:102020002B440B2A93F8CC6094F8CC3003EB0623B6
:102030009BB201FB03F34FEA233303F54873A5F882
:10204000C43020D000F11703DBB25C1C2C442B44BD
:102050000C2A93F8CC6094F8CC3003EB06239BB2A7
:1020600001FB03F34FEA233303F54873A5F8C630A9
:1020700009D000F11903DBB25A1C2A442B4493F80F
:10208000CC3092F8CC30012385F8C830F0BC7047D2
:102090000023C2E61052002070B55C4C06460CF0DE
:1020A00011FED4F8F430C4F8F400C01AB0F5FA5FA9
:1020B0001AD9002384F8F83084F8F930A12E2FD0F3
:1020C000A22E00F09C8094F8F92094F8EF300025BF
:1020D000A2B16A1C6119D5B2F6B29D4281F8CC60FA
:1020E00084F8F8500CD070BD94F8F850002DE5D06D
:1020F00094F8F92094F8EF30002AEAD19D42F2D109
:1021000094F8FA30052B72D0062B03D194F8CD3019
:102110001E2B0DD0002384F8F93084F8F83070BD00
:1021200001221B2384F8F92084F8EF300025D0E742
:102130006A1E002A4FF0000150DD08460B4623447A
:10214000013093F8CC30DBB283EA0105ED074FEAAA
:10215000530348BF83F08C0383EA5105EE074FEA2F
:10216000530348BF83F08C0383EA9105ED074FEAE0
:10217000530344BF83F08C03DBB283EAD105EE073F
:102180004FEA530344BF83F08C03DBB283EA11159B
:10219000ED074FEA530344BF83F08C03DBB283EABD
:1021A0005115EE074FEA530344BF83F08C03DBB2B3
:1021B00083EA9115ED074FEA530344BF83F08C0384
:1021C000DBB283EAD1155908EB0748BF81F08C01D7
:1021D000C0B248BFC9B282420346B0DC224492F882
:1021E000CC308B4296D10320FFF7CEFD92E7002042
:1021F000FFF7CAFD94F8CD301E2B8BD198E7012252
:10220000232384F8F92084F8EF308FE71052002060
:1022100007299DBF034B03EB8101B1F8FC000020AF
:10222000704700BF105200201A4B93F81C2132B1A6
:1022300093F820210021A82A83F81C1101D0002046
:10224000704793F83321002AF9D110B4DFED126AF8
:1022500003F5907103F1F80003F59872B4EE047A77
:10226000CC780B7903EB042307EE903AF8EEE77A8B
:10227000B0EE666AA7EE876A02318A42FCEEC67A41
:1022800017EE903A40F8043FEAD101205DF8044B84
:10229000704700BF105200200080BBC310B5044639
:1022A0000CF010FD0F4BD3F83821C3F83801801A19
:1022B00041F288329042E4B205D983F820410122EC
:1022C00083F83C2110BD93F83C219918142A81F819
:1022D000204103D1012283F81C2110BD0132D2B26A
:1022E000EEE700BF10520020034B03EB4101B1F8B1
:1022F0004001C008704700BF10520020724B93F895
:102300006021002A00F0C28070B493F86141B3F8F4
:10231000625103EB4401002091F8676191F8682154
:1023200083F8600142EA0622954202D0002070BC88
:10233000704793F86521012A00F0AA80812AF6D11E
:102340000320102C40F2A68093F8694193F867515E
:1023500093F8681193F86A2141EA052142EA0422C0
:102360001024A3F84011A3F8422183F8614193F8A7
:102370006B1193F86C21032C42EA0122A3F844214B
:10238000D5D093F86D1193F86E21042C42EA012206
:10239000A3F84621CBD093F86F1193F87021052C48
:1023A00042EA0122A3F84821C1D093F8711193F8B1
:1023B0007221062C42EA0122A3F84A21B7D093F8F1
:1023C000731193F87421072C42EA0122A3F84C21DF
:1023D000ADD093F8751193F87621082C42EA0122CA
:1023E000A3F84E21A3D093F8771193F87821092C04
:1023F00042EA0122A3F8502199D093F8791193F879
:102400007A210A2C42EA0122A3F852218FD093F8B4
:102410007B1193F87C210B2C42EA0122A3F8542172
:1024200085D093F87D1193F87E210C2C42EA01228D
:10243000A3F856213FF47BAF93F87F1193F88021E6
:102440000D2C42EA0122A3F858213FF470AF93F813
:10245000811193F882210E2C42EA0122A3F85A211D
:102460003FF465AF93F8831193F88421102C42EA6E
:102470000122A3F85C217FF45AAF93F8851193F8F9
:10248000862142EA0122A3F85E2150E7002070472E
:10249000104656E7002C3FF44AAF93F8671193F8C3
:1024A0006821012C42EA0122A3F840213FF43FAF0A
:1024B00093F8691193F86A21022C42EA0122A3F8E9
:1024C00042217FF454AF32E71052002038B5044661
:1024D0000CF0F8FB444AD2F88C31C31AB3F57A6F8A
:1024E00016D892F89031C2F88C01B3B1022B1FD0EC
:1024F000242B92F8611175D901330231DBB2490006
:102500008B4282F890311BDB01318B4263D038BDA6
:102510000023C2F88C0182F89031A82CF7D1002357
:1025200082F86031A2F8623192F86111204603E02E
:10253000E0B282F861010146D51885F86401DBE755
:10254000B2F86231E4B283EA042424B2002CB8BFAA
:1025500041F22101A3B2B4BF81EA43035B009BB205
:102560001C0446BF41F2210181EA43035B009BB298
:10257000180446BF41F2210181EA43035B009BB28C
:10258000190446BF41F2210181EA43035B009BB27B
:102590001D0446BF41F2210181EA43035B009BB267
:1025A0001C0446BF41F2210181EA43035B009BB258
:1025B000180446BF41F2210181EA43035B009BB24C
:1025C000190446BF41F2210181EA43035B009BB23B
:1025D000A2F8623138BD0021012382F8901182F8FF
:1025E000603138BDE0B2A7E710520020F8B5134DB6
:1025F00095F8A9210AB90120F8BD114B1C68236880
:102600005E6A46B1204605F5CA71B047002385F8D9
:10261000A9310120F8BD05F5CA77BE1800E023688E
:102620009B68204698470028F9D0236817F8011BBB
:102630001B6820469847B742F1D1E7E710520020C7
:10264000BC77002003788B4210D9094B03EB810142
:1026500093F8DC31D1F8AC011BB900F5777080B28A
:102660007047400800F5777080B2704700207047CF
:10267000105200202DE9F8430CF024FBCD4C054608
:1026800094F8DD0180B9042294F8A93153B1D4F84B
:1026900000323BB1ED1AB5F57A7F03DB002310461B
:1026A000C4F80032BDE8F88394F8DE11002384F802
:1026B000DD31002900F0308194F8E031BE4F94F80C
:1026C000F0215BB213F1630FB8BF97F90030002A15
:1026D00041D013F1310F80F2B18113F1380F80F244
:1026E000B18113F13D0F80F2B18113F1420F80F2FD
:1026F000B18113F1450F80F2B18113F1470F80F2E0
:10270000B18113F1490F80F2B18113F14A0F00F04A
:10271000B18113F14B0F00F0B08113F14C0F00F0B9
:10272000B08113F14D0F00F0AF8113F15C0FB8BF12
:10273000642680F24981D4F8F401DFF888C200FBF6
:1027400006F08CFB00C6C017C0EB661004EB8206D7
:1027500080B2C6F8AC013B7094F8EC7194F8ED319E
:1027600094F8EE0194F8EF611B0443EA07633343E6
:1027700043EA002303F0F020B0F1E02F00F0C38023
:10278000102794F8040294F8E231D4F8086294F81F
:102790000CC23678034103F00F039E4210D90B2B75
:1027A0000ED8002A40F0F38094F8E28194F8E3E137
:1027B00004EB83030CEA08080EEB082EC3F8ACE127
:1027C00094F8E431034103F00F039E4210D90B2B20
:1027D0000ED8002A40F0DF8094F8E48194F8E5E117
:1027E00004EB83030CEA08080EEB082EC3F8ACE1F7
:1027F00094F8E631034103F00F039E4210D90B2BEE
:102800000ED8002A40F0CB8094F8E68194F8E7E1F6
:1028100004EB83030CEA08080EEB082EC3F8ACE1C6
:1028200094F8E831034103F00F039E4210D90B2BBB
:102830000ED8002A40F0B78094F8E88194F8E9E1D6
:1028400004EB83030CEA08080EEB082EC3F8ACE196
:1028500094F8EA31034103F00F039E423ED80D2F56
:1028600032DD94F8EC31034103F00F039E4210D99E
:102870000B2B0ED80AB19A420BD094F8EC8194F845
:10288000EDE104EB83030CEA08080EEB082EC3F815
:10289000ACE1102F18D194F8EE3143FA00F000F0BB
:1028A0000F00864210D90B280ED80AB190420BD0E7
:1028B00094F8EE2194F8EF3104EB800002EA0C0C5E
:1028C00003EB0C23C0F8AC31D1B194F8E2311B0614
:1028D00016D4C4F8005205220120D5E60B2BBED831
:1028E0000AB19A42BBD094F8EA8194F8EBE104EB88
:1028F00083030CEA08080EEB082EC3F8ACE1AEE740
:1029000005220120C0E694F8E20100063FF538AF49
:102910002A480C27036034E70CF0D4F92649284BE9
:102920004A78A3FB00035B0C12B394F8E00194F81F
:10293000E121D2B2122A18BF012A08D002F0EF0218
:10294000A2F1A202B2FA82F2520902B94A70D4F894
:10295000F81194F8F02199B18B4228D0591A012925
:1029600056D094F8DE11A4F8FC01C4F8F831F3E66F
:1029700094F8E02194F8E10100EB022080B2E6E750
:10298000A4F8FC01C4F8F83194F8DE11E4E69342AF
:102990007FF40AAF14E793427FF41EAF28E7934217
:1029A0007FF432AF3CE793427FF446AF50E794F8B0
:1029B000DE11D1E610520020000100208401002029
:1029C00083DE1B431F85EB516FF05B080C263048FC
:1029D00006F1FF3900EB490E00EB46069EF801E0D8
:1029E00096F801C010F91960ACEB0E0C981B00FBB7
:1029F0000CF0A8EB060690FBF6F0704440B20028FD
:102A000001DA002697E66428A8BF6420064692E60D
:102A1000002AA6D0B4F8FC61D4F8F4111D4F861B2F
:102A2000143E01FB06F187FB0176C917A1EBE60115
:102A300004EB820689B2C6F8AC1192E76FF0300859
:102A40000126C4E76FF037080226C0E76FF03C08A4
:102A50000326BCE76FF041080426B8E76FF044088E
:102A60000526B4E76FF046080626B0E76FF0480881
:102A70000726ACE798460826A9E76FF04A0809261A
:102A8000A5E798460A26A2E798460B269FE700BFCF
:102A90003C24050867666666344B5B68C3F308032D
:102AA00070B4CBB9EFF31183B3B9314A314E324D23
:102AB0001368AC6811688B42FAD131688C42F7D840
:102AC0002E4A15684FF47A7101FB05F2141BB4FB12
:102AD000F5F401FB034321E0EFF31181102383F3AD
:102AE000128803F1E023C9B29D681A6812F4803F8E
:102AF000234A1EBF012414609D681D4B1E68136885
:102B000081F311881D4A14684FF47A71334401FB34
:102B100004F2521BB2FBF4F201FB0323194AD2F870
:102B20001012C2F810325B1A41F288318B420AD976
:102B3000C0B2012382F8E00182F81432002382F847
:102B4000DD3170BC704792F814320F2BF9D8D118D0
:102B50000133DBB2C0B2102B81F8E00182F81432ED
:102B6000ECD1012382F8DD3170BC704700ED00E04C
:102B700094B200209CB2002010E000E098B2002047
:102B800090B2002010520020036933F8110000EBCE
:102B90008000C01000F55C7080B27047436993F804
:102BA0002320002A00F0CF802DE9F0477B4ADE7D0C
:102BB000127800211A2A06F0040506F0080483F8AA
:102BC000231000F0C280002D40F0CC80002C40F09B
:102BD000D980254693F802A093F8068093F801E087
:102BE0000269DF7893F8049093F807C00AF00700B1
:102BF00008F00F014FEAC1184EEA002107F03F0725
:102C0000187A1180997893F805A093F80AE07F016B
:102C100047EAD107D97857804FEA890949EA9119DB
:102C2000997B0AF0010A01F03F014F0149EA8A212C
:102C30009180597948EA5101D1800CF07F0C997943
:102C400093F807804FEA0C1C4CEA111C597AA2F841
:102C500008C0400040EAD81001F0030140EA4120DA
:102C600093F80DC0D97A50810EF01F0E587A4FEAB2
:102C70008E1E4EEA90009081187B93F80AE00CF0CB
:102C8000070C40EA0C20C90093F80DC0108241EAFD
:102C90005E11D18147EADC01518293F80FE093F88D
:102CA0000E80597CDF7C93F812C0587D4FEA8E0E5F
:102CB0004EEA981E93F8108008F001084EEA882E1C
:102CC00001F00F0193F81280A2F814E093F810E0DD
:102CD0007F00C90141EA5E0147EAD81793F814E082
:102CE00093F81180D1820CF07F0C4FEA0C1C997D77
:102CF0000EF0030E4CEA181C47EA4E2716F0010F9F
:102D000093F814E0A2F818C000F01F0093F815C063
:102D1000578340F2147314BF1F46AD278001C900CA
:102D200016F0020F40EA9E0041EA5C1108BFAD2395
:102D30009083D183178453840CBB002D0CBF0120DA
:102D40000920BDE8F0871046704715491F8C0E809A
:102D500075B147F002021A8412B274B147F003024F
:102D60001A8409E01A8C94B942F002021A8431E7FD
:102D70008CB147F001021A8412B24A802AE703207C
:102D8000BDE8F0871A8C42F001021A8422E742F073
:102D900003021A841EE73AB22546EEE749B2002044
:102DA0004CB200203B4B5B68C3F30803F0B42BBB71
:102DB000EFF3118313BB384A384F394E1368B568A7
:102DC0001468A342FAD13C68A542F7D8354A166880
:102DD0004FF47A7404FB06F2551BCA69B5FBF6F58D
:102DE00004FB03539A1A40F6AC54A2422EDC91F82D
:102DF000224074B3182C38D9F0BC7047EFF311841B
:102E0000102383F3128803F1E023E4B29E681A686A
:102E100012F4803F244A1EBF012515609E681E4B98
:102E20001F68136884F311881E4A15684FF47A747A
:102E300004FB05F23B44921BB2FBF5F204FB0323B7
:102E4000CA6940F6AC549A1AA242D0DD002281F839
:102E500022200F28D0D10122CB61087081F82220D6
:102E6000002381F82330F0BC7047631CDBB2192BC0
:102E700081F822300855F3D10C4B1B781A2B08BF70
:102E80000B4B4FF0010081F8230008BF9A80F0BC83
:102E9000704700BF00ED00E094B200209CB200201B
:102EA00010E000E098B2002090B2002049B200206B
:102EB0004CB20020094BDFED0A6ADFED0A7A03EB22
:102EC000810191ED867AB8EE477AE7EE267AFCEE3C
:102ED000E77A17EE903A98B2704700BF1052002080
:102EE00001F11F3F00405C44714A92F8583233B1FF
:102EF00092F85E320021162B82F8581201D0002081
:102F0000704792F85D32022BF0B440F2CE8002F5A9
:102F10001770184402F25E21D32311F8014F634069
:102F200013F0800F4FEA430318BF83F0D503DBB2E1
:102F300013F0800F4FEA430318BF83F0D503DBB2D1
:102F400013F0800F4FEA430318BF83F0D503DBB2C1
:102F500013F0800F4FEA430318BF83F0D503DBB2B1
:102F600013F0800F4FEA430318BF83F0D503DBB2A1
:102F700013F0800F4FEA430318BF83F0D503DBB291
:102F800013F0800F4FEA430318BF83F0D503DBB281
:102F900013F0800F4FEA430318BF83F0D503884234
:102FA000DBB2BAD192F87512994202D00020F0BC7F
:102FB000704792F8640292F8636292F8681292F88D
:102FC0006C3292F8704292F86052B2F860C2D2F855
:102FD000607200F00F00C00140EA560001F01F01CE
:102FE00092F86762C2F82402890141EA960103F06F
:102FF0003F0392F86B6292F86F02C2F830125B01E5
:1030000043EAD60392F85F12C2F83C3204F07F0420
:10301000B2F86432D2F86462240105F0070544EA8C
:10302000101041EA0521C3F30A13C2F84802B2F8AE
:103030006852C2F81812B2F86A42D2F86C02B2F8BA
:103040006E12C2F82832D2F87032C0F38A10C1F37F
:103050004A01C3F3CA13CCF3CA0CC7F38A37C6F3C9
:10306000CA366D09C4F30A04C2F84002C2F8441219
:10307000C2F81CC2C2F82072C2F82C62C2F83452E4
:10308000C2F83842C2F84C3292F8743292F87302A5
:10309000B2F87212DB0043EA5013C1F38A01C2F89E
:1030A0005432C2F85012012081E7D3237AE700BFDF
:1030B00010520020F8B5674B1C68E707054616D587
:1030C000654B93F89C2293F89D1291423BD1D3F823
:1030D000A022AA4202D8614A00211170D3F8C0028E
:1030E000281A002821DD012083F8C402F8BD14F459
:1030F000005449D15A4883689847C6071CD5594A95
:10310000554BC0F3400110F00A0F917093F8662000
:103110002AD0052A6BD04207D9D5012283F8C522CF
:10312000D3F8A022AA42D9D8D5E793F8C402002840
:10313000DCD193F8C502F8BD4107474BC7D5012242
:1031400083F8C522ECE7D3F8A402464C434983F840
:103150009D22284401220025C3F8A0020120A57069
:103160000A7083F8C402C1E7D3F8A412052A0D44FB
:10317000C3F8A05251D0400767D4384A012101203A
:10318000117083F8C402B1E7334BB3F8A82212BB25
:10319000B3F8AA22FAB9B3F8AC22E2B9B3F8AE2276
:1031A000CAB9B3F8B022B2B9B3F8B2229AB9B3F837
:1031B000B42282B9B3F8B6226AB9B3F8B82252B9C8
:1031C000B3F8BA223AB9B3F8BC2222B9B3F8BE2296
:1031D000002A3FF47CAFD3F8A42222481F492A4496
:1031E0000024C3F8A022012284700A7076E793F8C5
:1031F0006720996E03EB42060132B6F86C70A6F8B0
:103200006C40C91B0C0902F00F02A3F88C40440764
:1032100083F86720996680D459E793F867109A6E0F
:1032200003EB410402F2FF32B4F86C500131521B3F
:1032300001F00F0140F2FF3583F867101109A4F87F
:103240006C509A66A3F88C1095E7012283F8C5228A
:1032500093E700BF38D4002010520020E96E002010
:10326000B8050120000100200020704700207047B1
:1032700001207047024B03EB4101B1F8C8027047CF
:1032800010520020044B93F8EC0218B1002283F88E
:10329000EC220120704700BF10520020024B03EBCC
:1032A0008101B1F8F00270471052002038B5044691
:1032B0000BF008FD2E4BD3F82823821AB2F5FA7FC3
:1032C00014D90022C3F8280383F82C2383F82D2374
:1032D000E1B2042924D0202922D093F830230AB95E
:1032E000552C35D0A24216D1002209E093F82D23A7
:1032F00092B993F82C23C3F82803E1B2002AE8D04E
:1033000093F82E039C180138824284F838131BD09E
:10331000013283F82C2338BD013A83F82D2338BDC0
:10332000002202244FF6FF7083F83443A3F83203DF
:103330009C18481E824283F8301383F82E1383F8BA
:103340002F2384F83813E3D1012283F8582338BDA2
:1033500001201F2583F83043A3F8322383F8381364
:1033600083F82F0383F8340383F82E53D0E700BF8C
:103370001052002003788B4283BF034B03EB4101C3
:10338000B1F85C03002070471052002038B5394C6A
:1033900005460BF097FCD4F8B033C4F8B003C01A5C
:1033A000B0F57A7F1CDD0023282284F8B43384F83A
:1033B000B63384F8B73384F8B5233D2D42D03E2D83
:1033C0000DD12D4AC4F8B823012384F8B633012364
:1033D000157084F8B43394F8B5239A4220D038BDE0
:1033E00094F8B423002AE8D0531CDBB2D4F8B81305
:1033F00084F8B433062B8D54EDD194F8B633012BF9
:1034000027D094F8B733012B27D00023282284F843
:10341000B43384F8B63384F8B73384F8B52338BDB1
:1034200094F8B633012B04BF022384F8B63394F822
:10343000B733012B15D00022282384F8B42384F855
:10344000B53338BD0D4AC4F8B823012384F8B73327
:10345000BDE78B78282BD4D8F1E78B78092BD4D80B
:10346000EDE7022384F8B7330BF02CFCC4F8BC035F
:10347000E1E700BF10520020985500208C55002035
:1034800030B40246002305251E2400E00232032B3F
:10349000D4BF0021012100F813100133042B04D004
:1034A000122B5470F2D130BC70475570EEE700BF5C
:1034B000024B036043608360C3607047E803D0073A
:1034C000024B03EB4101B1F8A802704710520020F3
:1034D000024B03EB4101B1F8A802704710520020E3
:1034E00030B4264C94F8B633022B02D0002030BC06
:1034F000704794F88A53EDB1013D04F2893353FAD1
:1035000085F504F56270002210F8013B534083EA10
:103510000313DBB2120AD90042EA0322854281EA90
:10352000131382EA0302EFD122B1002084F8B6031C
:1035300030BC7047B4F888335BBA9BB243F6016283
:10354000934209D043F60362934205D0002384F8E6
:10355000B633012030BC7047094AA2F12E0102F1B6
:103560002005D0799379023203EB0023C3F3CC0317
:10357000AA4221F8023FF4D1E8E700BF1052002030
:103580009855002070B540F2014444EA80040BF0E5
:1035900099FB0C4E054696F8E03306EB8303D3F80F
:1035A000C003E3070AD5F6F7BFFA640805F134054E
:1035B00007D00BF087FB8542FBD8ECE7F6F7AEFAB5
:1035C000F3E770BD105200200D49B1F8E13330B57A
:1035D00008224AF2010580EA030414F0010F4FEAC1
:1035E000530318BF6B4002F1FF3218BF9BB212F0B9
:1035F000FF024FEA5000EED1A1F8E13330BD00BF29
:1036000010520020F8B5414C414D3822002120468F
:103610003CF006FD3F4B95F8E863B3F85C20A283CD
:10362000103393E8070095F8E73384F820600C2BFB
:1036300004F1080686E8070019D801229A4012F41E
:10364000E85F48D0227F042A54D0511F04208142D1
:1036500044D83149314BA077063AC4E90013032A14
:1036600051D8DFE802F03F41434E012B38D0002310
:10367000227F032AE6D12A4B284A23600423626072
:10368000A3770720274A28491368487143F00203AB
:103690004FF480711360A18223681C489847B5F8E5
:1036A000F4334FF47A7262627BB1204E06F16C07FC
:1036B000B5F8F433616A00EE103A3046B8EE400ACD
:1036C0002436F7F753FBB742F2D195F8E6337BB1D6
:1036D000A3770120F8BD12F0810FC9D1002BC4D10E
:1036E0000020F8BD0920CDE70A20CBE70B20C9E771
:1036F0000120F8BD0E49094BA277C4E90013082048
:10370000C0E70C20BEE70820BCE700BF1807001088
:1037100010520020640A0010C18A0008CD00010880
:10372000C98A0008746C002000010020085600209F
:10373000B98A000838B5194D044647203BF0A0FA75
:10374000D5F864341B0305D5D5F86C341868201AF5
:103750003BF09EFB124CA07C3BF09AFBD5F87434F6
:103760002068C01A3BF0B2FBD5F878346068C01A04
:103770003BF0ACFBA0683BF08BFBA0893BF088FBE7
:10378000E0893BF085FBD4E90023A17C85F8841413
:10379000C5F87C24C5F8803438BD00BF1052002025
:1037A000046F0020F8B50F4BD3F86854D3F86C447D
:1037B000D3F87064A9B1831E00EB410727441E446F
:1037C00004441D4434F9022B36F9023F35F9020F47
:1037D000134403EBD373A0EB63003BF077FBA742EA
:1037E000F0D1F8BD10520020F0B52B4B2B4A2C4ED7
:1037F0001F6892F800C032682A4C2B4D2B492C4888
:10380000D4F888342D78097890F82000BA4285B031
:1038100026DB84F89454C4F8903484F8950484F832
:10382000961484F897C401AD53203BF029FAD4F8DC
:1038300090043BF02DFB94F894043BF029FB94F8A2
:10384000951494F8962494F8973403932846CDE978
:1038500001123BF077FA00233360012005B0F0BD80
:10386000D4F890748DF80850BB4201938DF809008C
:103870008DF80A108DF80BC001AD04F5926204D0EA
:1038800095E8030082E80300CEE76968536899422F
:10389000F6D10020E2E700BFDC060120020601208D
:1038A000D406012010520020186F0020E96E00207D
:1038B0001C6F00202DE9F04F5E4D85B0D5F89C447B
:1038C0000193904600290CBF04230623621CDDF8F7
:1038D00038900F9F029367D0A14544DDDFF868A1BF
:1038E00057B1109BDA1B04FB02F20123B95CD5F837
:1038F00064248B4013422FD0019BD5F89824A3EB6E
:10390000080304FB03F408EB0406002A37D158F837
:1039100004003BF0E3FB00F1050B58463BF05AF87E
:10392000A0BBDAF8000095F8A024A0EB0B00CAF8C1
:103930000000002A34D1012385F8A034D5F898344A
:1039400043BB58F804003BF0FBF896F904104B1CFD
:1039500002D039483BF0ECFAD5F89C4401344C4590
:10396000C5F89C44BCDBA1454DD0D5F89804029B1A
:10397000834294BF0020012005B0BDE8F08F4FF0D6
:10398000030B58463BF026F80028CAD0012005B0AA
:10399000BDE8F08F1E44294831793BF0C9FADBE7D6
:1039A0002C203BF06DF9C9E7D5F89834029A934280
:1039B00003D3002005B0BDE8F08F214C039104EB48
:1039C00083030646D8693BF089FB0B303BF002F8D5
:1039D000039982460028D9D1D5F89834194804EBC8
:1039E0008304032B98BF3146E2693BF0A1FA164AE3
:1039F000D5F89C44136885F8A0A41B1A0134136001
:103A0000C5F89C4468E701203AF0E4FF0028ACD1F7
:103A10000D4A13680A20013B13603BF031F9D5F8D9
:103A200098044FF0FF330130C5F89804C5F89C3472
:103A30009DE700BF1052002024710508507605084C
:103A40003C2405081471050830060120F8B50BF078
:103A500039F9274E054600F1FA07344696F8E03367
:103A600006EB8303D3F8C003F6F75CFB38BB94F88E
:103A7000E03304EB8303D3F8C003F6F753FB28B31A
:103A80000BF020F9D4F8A834401B9842C4F8A404E1
:103A90002BD805F5FA7594F8E03304EB8303D3F8DB
:103AA000C003F6F73FFBB0B994F8E03304EB8303AF
:103AB000D3F8C003F6F736FB90B1002005E00BF019
:103AC00001F9B842CAD94FF0FF30F8BD0BF0FAF84F
:103AD000B842CCD9F7E70BF0F5F8A842DBD9F2E70A
:103AE0000BF0F0F8A842DFD9EDE70120EDE700BFC9
:103AF0001052002038B5002405460470FFF7A6FFD9
:103B0000431C11D0012803D12B78A0401843287002
:103B10000134082CF2D1054A2B7892F8AC144B40B2
:103B200082F8AC34012038BD0020FCE710520020A0
:103B30002DE9F843204C214D266807460236A84659
:103B400095F8E03305EB8303D3F8C003F6F7EAFA00
:103B500010BB0BF0B7F800F127060BF0B3F8864264
:103B6000FBD800252C464FF0010998F8E03308EB0C
:103B70008303D3F8C003F6F7D5FA18B109FA05F3B1
:103B80001C43A4B2092D06F134060BD00BF09AF8B1
:103B90008642FBD80135E8E723689E42D0D8002052
:103BA000BDE8F88340F201232340B3F5007FF6D14E
:103BB00064083C700120F3E794B20020105200200A
:103BC00037B502ADFF2305F8013D04462846FFF74F
:103BD000AFFF00B91CB99DF8070003B030BD013C30
:103BE000F4E773B5204C002284F8E12384F8E22343
:103BF00084F8AD2484F8AE240144FF228DF8072018
:103C00000546CEB22846FFF793FFF8B115F8010B31
:103C1000FFF7DAFCEBB2B342F4D194F8AF34EBB176
:103C20001248FFF785FF88B11148FFF781FF68B19F
:103C30000DF10700FFF77CFF40B1B4F8E123B4F8C1
:103C4000AD349A4202D0C2238DF807309DF80700A8
:103C5000A0F130035842584102B070BD0DF1070089
:103C6000FFF766FFF2E700BF10520020BD560020AC
:103C7000BE56002070B51A4C94F8E0330D4604EBA4
:103C80008303013D06460121D3F8C003EDB2F5F7E9
:103C9000A9FE0135002384F8E13384F8E23335448A
:103CA0003078FFF76FFC16F8010BFFF78DFCAE4282
:103CB000F6D194F8AF343BB194F8E103FFF762FC1E
:103CC00094F8E203FFF75EFC94F8E03304EB83041E
:103CD0002021D4F8C003BDE87040F5F783BE00BFD3
:103CE0001052002013B5FE23ADF8043000238DF8E8
:103CF000063003788DF80730044613B901238DF898
:103D0000063004210DEB0100FFF7B4FF0220FFF79E
:103D100057FFFF280CD121786068FFF7ABFF282000
:103D2000FFF74EFFA0F130035842584102B010BDDA
:103D30000020FBE737B5054608461446FFF7D2FFDB
:103D400078B10123022101A88DF805308DF80450C7
:103D5000FFF790FF2046FFF733FFA0F130035842F2
:103D6000584103B030BD07B50E4B0268934317D0DE
:103D7000FF230421ADF8043043788DF806308378B2
:103D80008DF807300DEB0100FFF774FF0220FFF7FD
:103D900017FFA0F130035842584103B05DF804FB0F
:103DA0000120FAE700FFFF0037B5054608460C463C
:103DB000FFF7D9FF60B123788DF80450022101A8E4
:103DC0008DF80530FFF756FF21786068FFF709FF8F
:103DD00003B030BD2DE9F04F2DED068B854B9B7D5B
:103DE000012B89B000F0C085022B834B01931A464A
:103DF0000CBF072300231370804B1B78132B00F29A
:103E0000E58101227E499A400A4208BF0023794990
:103E100001984A79DFF804A20371131C4FF03402B1
:103E200018BF01238AF86520CA7976498AF861307B
:103E3000232000238AF85E3081F8B33481F8B4245B
:103E40000AF0F0FF9AF81030002B40F0BB810123FC
:103E50008AF8103008AA01240025682602F80B5DB4
:103E60002346752168488AF814408AF81560FAF7E5
:103E700079FF002840F0EC85644BDAF81800CAF8A6
:103E8000143002238AF81030002800F063851C22C9
:103E900000238271C3710921F5F7A4FDDAF8180037
:103EA000F5F742FE4FF48071DAF81400F8F79CFD44
:103EB000DAF8183013B11A689B8853836B21DAF84B
:103EC0001400F6F7B1FC8021DAF81400F6F7ACFC28
:103ED000DAF8183013B11A689B88138306234C4C08
:103EE000DFF83C81DFF83C914A4D4B4E039396231B
:103EF000DFF834C100934FF0100ED9F80430C3F34B
:103F00000803002B40F03781EFF31183002B40F0C2
:103F100032812068AA6823689842FAD133689A42AD
:103F2000F7D8D8F800704FF47A7101FB07F39B1AA9
:103F3000B3FBF7F301FB00304FF47A77D9F8043084
:103F4000C3F30803002B40F0F680EFF31183002B3E
:103F500040F0F1802368A96822689342FAD1326860
:103F60009142F7D8D8F8002007FB02FBABEB010128
:103F7000B1FBF2F107FB03131B1AB3F57A7FDDD314
:103F8000009B013B0093B8D1DAF8183013B11A68DE
:103F90009B885383DAF8140040F2E93302E0002BE7
:103FA00000F00B810289013B12F0020F9BB2F6D0A8
:103FB000F523838140F2E93302E0002B00F0FD801D
:103FC0000289013B12F0010F9BB2F6D083898389ED
:103FD00040F2E93302E0002B00F0EC800289013B63
:103FE00012F0020F9BB2F6D0FF23838140F2E93337
:103FF0001FE000BF18D400200800001049B20020C4
:1040000048800A0010520020740A0010003001405D
:1040100094B2002010E000E09CB20020640A00107E
:1040200098B2002000ED00E090B20020002B00F0DC
:10403000C1800289013B12F0010F9BB2F6D0838947
:10404000DBB20293DAF8180010B1036882881A8391
:10405000029B682B00F05C84039B013B13F0FF0381
:1040600003937FF444AF06AC0222C24B8AF81020BF
:10407000CAF81430002800F0D9851C220023827170
:10408000C3710921DAF81800F5F7ACFCDAF818006A
:10409000F5F74AFD0421DAF81400F8F7A5FCDAF880
:1040A0001800F5F73BFDF521DAF81400F6F7BCFB34
:1040B000012322460021DAF81400F6F771FADAF843
:1040C0001800F5F731FD9DF81830712B00F0988538
:1040D00040F23085AC2B00F0DB84AF2B00F0E384A2
:1040E000732B00F08D859AF85C30A349DAF85820DC
:1040F000C1F8B824032B73D0042B00F03C84092BA7
:1041000008D801229A4012F4587F40F0D484120655
:1041100000F17F850020994D8AF867006B7A23B102
:104120009AF86630003318BF01236B7209B0BDECFA
:10413000068BBDE8F08FEFF311818EF31288D5F86E
:1041400008B02B68DB0304D50123CCF80030D5F888
:1041500008B02368DCF80020C9B281F31188D8F8D0
:104160000010134407FB01F2A2EB0B02B2FBF1F2C9
:1041700007FB032300E7EFF311828EF31288AF6889
:104180002B68D90303D50123CCF80030AF6823682E
:10419000DCF80000D2B282F31188D8F800104FF496
:1041A0007A72184402FB01F3DB1BB3FBF1F302FB51
:1041B0000030C1E6F6F7D2F944E7F6F7CFF9DAF8BE
:1041C000140004E7012B7FF457AE43E600231EE6FC
:1041D00003228AF85C20684ADAF85830C2F8B8340A
:1041E000674A684E13686849CAF81C1043F0010317
:1041F000F1781360654B614DCAF80430042306243E
:1042000063488AF85E3001294FF00003CAF80000C5
:104210002C718AF86740B37140F2D8830023DFED38
:104220005D7A8AF85F30012007EE100AB8EEC77A8F
:10423000544F594E3A798AF8621067EE277A431E36
:10424000FCEEE77A8AF86430C6ED007ADAF80030DE
:104250008AF86320514898473B780BB18AF85E3062
:10426000012303FA04F44CF2FF12144008BF234662
:104270008AF8663033F094FE36689FED490A494C5F
:1042800007EE906AF8EE677A80EE270A3BF0DEFFD1
:10429000A4FB0034640840F235539C42A8BF1C467E
:1042A000A7B2019A7B084FEA970807EE907A9FED34
:1042B0003E7ADFED3E6A9382F8EE677A178187EEE9
:1042C000270AA2F80C8067EEA67AB7EE087A30EEDD
:1042D000470AC2ED047A3BF0B9FF019B34499FEDD8
:1042E000355ADFED355ADFED354A9FED352ADFEDE2
:1042F000352A9FED353A9FED351ADFED351ADFEDA2
:10430000356A0128B8BF01201876002307E0013381
:10431000F6EE007A202BE1EC017A00F08E8007EEB9
:10432000903AB8EEE77A27EE057A77EE257ABDEE79
:10433000E76A16EE102A2032402AE8D8B4EEE57A71
:10434000F1EE10FA40F3F3819FED236A01E0F0EE05
:10435000477AF4EEC67AF1EE10FA37EEE67AF6DC3A
:10436000B4EEE47AF1EE10FA40F1DE819FED1B6AC3
:1043700038E000BF00300140105200200001002052
:10438000746C002018D4002090C1793D69A7000802
:1043900099F0000800007A44EC100010640A001044
:1043A00000247449ABAAAAAA000034450000003DCD
:1043B000240000103C8C4F3EDB0FC93FDB0F49C08F
:1043C00092E741B99730083C15A82ABEDB0FC9BF58
:1043D000DB0F4940DB0FC940E4CB1641E4CB16C1EB
:1043E000B0EE677AB4EEC67AF1EE10FA77EE267A7E
:1043F000F6D4F4EEE57AF1EE10FA40F38D8171EE29
:10440000E77A27EEA76AF0EE623AE6EE023A013367
:10441000202BF0EE430AE3EE860AB7EE007A26EE92
:10442000674A77EE677AB6EE007AE4EE207A67EEB6
:10443000877AE1EC017A7FF472AFED48ED4A817F33
:10444000AAF80C3506EE901AB2FBF6F189B2B1FB70
:10445000F7F7FFB207EE907AB2FBF4F3C17FDFED1E
:10446000E60ADFEDE68A9FEDE60ADFEDE65A9FED0C
:10447000E67A8AF8F57206EB4606B8EEE76A07EECA
:10448000901AB1008B4238BF0B4604EE903A92FB73
:10449000F4F3F8EE644AB7EE005AFCEEE44AF8EEA4
:1044A000E66A85EE061AD94A019EA2F5437E06EE1B
:1044B000103AF8EE644AC8EEA61AD54BCAF804358D
:1044C00003F12801A833CAF80015CAF810351023E3
:1044D000AAF8FC341423AAF80835A2F55E7364EE3A
:1044E000A04AB8EEC66A06EE908A26EE006AF8EE9A
:1044F000666AF8EEE77A34EEA50A26EE266A77EECB
:10450000677ABDEEC07A76EE250A17EE107ABDEE18
:10451000E47A9FEDC08A9FEDC04A9FEDC03ADFED7F
:10452000C03A9FEDC02ADFEDC02A8AEDBE1A17EE11
:10453000104ABDEEE07A67EE887A17EE100ABDEEFB
:10454000C67A203717EE101A203420302031C6EDFD
:10455000277A4FF0C80C402922F802CB00F2AB8139
:10456000B4EEC36AF1EE10FA40F34882F0EE467AF8
:104570009FEDB01ADFEDAD6A01E0F0EE477AF4EEA0
:10458000E67AF1EE10FA37EEC17AF6DCB4EEE37AB1
:10459000F1EE10FA40F117829FEDA61ADFEDA66A40
:1045A00001E0B0EE677AB4EEE67AF1EE10FA77EE5B
:1045B000017AF6D4F4EEE57AF1EE10FA40F3848154
:1045C00073EE677A67EEA76AB0EE628AA6EE828A19
:1045D0009FED9A7AA8EE267A27EEA61AE1EE077AE0
:1045E00067EEA17A77EE858A35EE671A85EE287A2E
:1045F00067EE877A21EE071AB1EE679A402840F2FB
:10460000EA80F0EE446A402CC3ED007A83ED014A63
:1046100083ED029AC3ED036A83ED041A83ED064A23
:1046200083ED054A83ED084A83ED074A00F2828054
:10463000F4EEC34AF1EE10FA40F36781F0EE647ACB
:104640009FED7C1ADFED796A01E0F0EE477AF4EE37
:10465000E67AF1EE10FA37EEC17AF6DCB4EEE37AE0
:10466000F1EE10FA40F14E819FED721ADFED726AA1
:1046700001E0B0EE677AB4EEE67AF1EE10FA77EE8A
:10468000017AF6D4F4EEE57AF1EE10FA40F32681E1
:1046900073EE677A27EEA77AB0EE628AA7EE028AF7
:1046A000402FDFED666A9FED621AE8EE076A27EE9B
:1046B000877AF0EE458AE7EE267AB0EE457AE7EEA5
:1046C000818AA7EEC17A87EE288A39D9B0EE447A7A
:1046D000F6EE006AB7EE001AC5EE287A243383EDB1
:1046E000BE8A66EEA76A21EE271A67EE277AC3ED27
:1046F000BA6AC3EDBC6A83EDBB1AC3EDBD7A83ED24
:10470000C04A83EDBF4A83EDC24A83EDC14A734577
:104710007FF41FAF012001E5F4EEC17AF1EE10FA4B
:1047200048BF74EEE77A6CE6F0EE477A61E6B0EEE9
:10473000677A15E6B7EE008A402FF0EE488AC5D8B2
:10474000F4EEE54AF1EE10FA40F35482F0EE407ACE
:104750009FED381ADFED356A01E0F0EE477AF4EEAE
:10476000E67AF1EE10FA37EEC17AF6DCB4EEE37ACF
:10477000F1EE10FA40F138829FED2E1ADFED2E6A2D
:1047800001E0B0EE677AB4EEE67AF1EE10FA77EE79
:10479000017AF6D4F4EEE57AF1EE10FA40F32481D2
:1047A00073EE677A27EEA77AB0EE629AA7EE029AC6
:1047B000DFED226AE7EE096A27EE271AB8EE007AE3
:1047C000E1EE267AF6EE006A35EE671A27EE877A72
:1047D00061EE266A80E7B4EEE56AF1EE10FA40F386
:1047E0000682B0EE607ADFED139A9FED108A2BE01F
:1047F00018D4002040420F00E5A6C5390000484209
:1048000027D4D236DB0FC93F0000C842E4100010A5
:10481000702405080AD7233C00000000DB0F494044
:10482000DB0F49C092E741B99730083CE4CB164111
:10483000F304353FDB0FC940E4CB16C115A82ABEEF
:10484000DB0FC9BFB0EE667AB4EEC87AF1EE10FAAB
:1048500077EE696AF6DCF4EEE36AF1EE10FA40F105
:10486000CC815FED0C9A1FED0C8A01E0F0EE476AF7
:10487000F4EEC86AF1EE10FA36EEA97AF6D4B4EE88
:10488000E57AF1EE10FA33DD33EE477A67EE076A28
:10489000B0EE62AAA6EE82AA1FED188AAAEE268AB8
:1048A00067EE269AF8EE006AA9EE887A27EE267A55
:1048B000C7EE286AA7E6B7EE001AF0EE418AB0EE1E
:1048C000449AF0EE447A99E61FED237AF4EEC77A23
:1048D000F1EE10FA48BF73EEE77A73E61FED287A1F
:1048E000F4EEC77AF1EE10FA48BF73EEE77AD1E63C
:1048F0005FED2D6AB4EEE67AF1EE10FA48BF33EEC2
:10490000C77AC3E7F0EE477ABCE6B0EE647AA5E674
:10491000F5F704F906AC8C21DAF81400F5F784FFFA
:10492000012322460021DAF81400F5F739FEDAF8FF
:104930001800F5F7F9F89DF81830142B06D3182B4A
:104940007FF646AC543B062B7FF642ACDAF81800F3
:10495000FFF78ABB1420F4F7C9FECAF81800002834
:104960003FF499AAFFF793BAB54B01931A46042373
:104970001370FFF741BAB34AB34BB449B44CCAF809
:104980001C10CAE90023B34A2368D178B24D90784D
:10499000927943F00103236001294FF007044FF09F
:1049A00004032C718AF867408AF85E3039D99AF886
:1049B0005C300A2B7FF432AC01238AF85F30184652
:1049C000DFEDA67A30E4F0EE477AF3E5A14B987874
:1049D0009AF85C200A2A34D00C2A2BD102238AF8B8
:1049E0005F30DFED9F7A1FE49FED9E7AF4EEC77A89
:1049F000F1EE10FA48BF73EEE77AD3E6B0EE467AEE
:104A0000C4E5954D226004230B242C718AF867407D
:104A10008AF85E308F4BD97898789A7901293FF6D9
:104A2000FDAB002AD4D005238AF85F30DFED8E7A03
:104A3000FFF7FABB03238AF85F30DFED8C7AFFF7CC
:104A4000F3BB04238AF85F30DFED897AFFF7ECBB14
:104A5000234629460DF116028648FAF783F99DF898
:104A6000163003F07E038DF8163008B1B3423FD004
:104A70009DF8153003F07E03682B8DF8153067D054
:104A8000702B7FF430AB04238AF85C30FFF72BBB2C
:104A90007949DAF85820C1F8B82407238AF85C303D
:104AA0008022FFF734BB7449DAF85820C1F8B824E3
:104AB00009238AF85C30654ACAF81C20644C6F48A8
:104AC00022686F49CAF80000063B42F00102CAF8AA
:104AD0000410032B3FF657AF01A151F823F000BF9C
:104AE000214B01080D4B0108F94A0108034A01084E
:104AF0008AF85C40FFF7F7BA574D226004230A2476
:104B00002C718AF867408AF85E3083E7524D226044
:104B1000042309242C718AF867408AF85E3079E70B
:104B20004D4D2260042308242C718AF867408AF8CE
:104B30005E306FE7122B33D0702B7FF4D4AA4E492E
:104B4000DAF85820C1F8B82405238AF85C30B2E7B7
:104B500006231946022406AA46488AF85C40FAF75A
:104B600001F99DF81D309DF81B209DF81910A340F8
:104B70005200224003F00403134301F001021343E7
:104B8000DAB2B0B1ABB1012A29D0022A22D003F0A7
:104B90000303032B1ED0032009F0ECFAFFF7A3BA9E
:104BA0003549DAF85820C1F8B82408238AF85C306F
:104BB00081E701230DF117020C212E48FAF7D2F8F4
:104BC0009DF8173003F00F030028E4D0002BE2D04B
:104BD000042B04D001238AF85D30FFF784BA002348
:104BE0008AF85D30FFF77FBAF0EE477AD2E5F0EE53
:104BF000606A30E6B0EE407AB8E5B0EE667A3EE63E
:104C00001D49DAF85820C1F8B82406238AF85C3028
:104C100051E79AF86120DFED1B7A9FED1B7A002A9D
:104C200018BFF0EE477ACAED077A47E71420F4F789
:104C30005DFDCAF8180000283FF423AAFFF71DBA4B
:104C400008000010A50301084DF0000890C1793D4F
:104C5000746C002018D4002000010020D14563446A
:104C600000009C43DB0FC9BF0000FA410000FA427C
:104C7000E438DE42740A0010105200208513010847
:104C800069A7000890C1793D90C1F93DF0B5184E73
:104C9000002383B004460821D6F8BC0486F89D3072
:104CA00002AD0AF035FBD6F8BC0481210AF030FBD6
:104CB0008923D6F8BC6425F8023DE71D14F8010BE2
:104CC000324629461AF07AFABC42F7D1BDF80630CE
:104CD0001A0A52FA83F3C3F1FF039BB23246D8B2E9
:104CE0000021ADF806301AF069FA03B0F0BD00BF3C
:104CF0001052002038B5384B5B68C3F30803CBB9BA
:104D0000EFF31183B3B9354A354D364C1368A068BB
:104D100011688B42FAD129688842F7D8324A116863
:104D20004FF47A7202FB01F4241AB4FBF1F402FB93
:104D3000034421E0EFF31181102383F3128803F180
:104D4000E023C9B298681A6812F4803F274A1EBF50
:104D5000012010609868214B1D68136881F3118849
:104D6000214A11684FF47A7404FB01F22B44121AA1
:104D7000B2FBF1F204FB03241D4DD5F89830E31A81
:104D8000B3F5FA6FC4BF002385F89C3095F89C30CA
:104D90001BB90023EB60012038BD00221549E868EB
:104DA00019F0A6FD95F89C3073B9134B1B781B2B9B
:104DB00004D1D5F8C034114AE31AD3800023C5F8D2
:104DC000C044EB60012038BD0D48FFF75FFF0023B2
:104DD00085F89C30E9E700BF00ED00E094B20020C8
:104DE0009CB2002010E000E098B2002090B20020B9
:104DF00010520020AC52002049B200204CB20020DA
:104E00009825050838B50D4C05460146D4F8C4046C
:104E10000AF07EFAB4F8C804082380EA052041F2BB
:104E2000210210F4004F4FEA400018BF5040013BF0
:104E300080B2F6D1A4F8C80438BD00BF10520020DB
:104E400070B582B0044609F03DFF964AD2F8CC34E2
:104E500003F24C4383420CD392F8D0344BB1022B73
:104E60008ABF92F85D020520023098420DDC02B044
:104E700070BD01210023C2F8CC0482F85C4282F8A4
:104E8000D01482F8583202B070BD591CC9B28842A1
:104E90001344D4BF0125002582F8D01483F85C4266
:104EA00082F85852E3DC92F85E520023162D82F805
:104EB000D034DCD06B00290648BF83F0D503DBB2C9
:104EC00013F0800F4FEA430318BF83F0D503DBB222
:104ED00013F0800F4FEA430318BF83F0D503DBB212
:104EE00013F0800F4FEA430318BF83F0D503DBB202
:104EF00013F0800F4FEA430318BF83F0D503DBB2F2
:104F000013F0800F4FEA430318BF83F0D503DBB2E1
:104F100013F0800F4FEA430318BF83F0D503DBB2D1
:104F200092F85D4213F0800F4FEA430318BF83F0FD
:104F3000D503022CDBB247D95B490C44023111F88E
:104F4000016F734013F0800F4FEA430318BF83F0E3
:104F5000D503DBB213F0800F4FEA430318BF83F091
:104F6000D503DBB213F0800F4FEA430318BF83F081
:104F7000D503DBB213F0800F4FEA430318BF83F071
:104F8000D503DBB213F0800F4FEA430318BF83F061
:104F9000D503DBB213F0800F4FEA430318BF83F051
:104FA000D503DBB213F0800F4FEA430318BF83F041
:104FB000D503DBB213F0800F4FEA430318BF83F031
:104FC000D5038C42DBB2BAD1104490F85B129942FF
:104FD0007FF44DAF7A2D2AD022D97C2D27D07D2D7C
:104FE0007FF445AF92F86132042B4AD0052B34D0C0
:104FF000032B7FF43CAF92F8633292F862222B4885
:105000002B49202BA8BF2023092AA8BF092280F8FA
:10501000292180F82A310A724B721CF017FC26E70E
:10502000282D7FF424AF234B01221A701FE7224A58
:10503000136E572B3FF71BAF204921480D684C6872
:105040000821995413440121C3F80150C3F80540C5
:10505000136E01700933136609E71A4B1B78EBB125
:10506000124C012194F8292104F590703AF0D8FFF0
:10507000154B164A1B6801212D3384F82B11136040
:10508000F5E6104B1B78002B3FF4F1AE02A900238C
:1050900001F8013D064838F04BF9E8E61CF0D6FB74
:1050A000E5E600BF105200206C540020107600206E
:1050B0003C7700200D7600205477002071540020AA
:1050C0000E7600200786002094B200200C86002077
:1050D0002DE9F04FE24C94F858338BB023B90023FC
:1050E00018460BB0BDE8F08F94F82F3394F82E03D8
:1050F0000022012B84F8582345D094F83853023D00
:1051000015F0FF0500F0A88104F54E710D444FF62F
:10511000FF7311F8012B9B1AA9429BB2F9D11A0A0D
:10512000204490F837139142D9D190F83623DBB25E
:105130009A42D4D194F83033202B40F0868194F8F1
:1051400034138B1C09938B1D019301F10803029307
:1051500001F10A03039301F10C03049301F10E031F
:10516000059301F11003069301F11603079301F172
:10517000180301F1040A01F1120801F11407089360
:1051800001F11A0BAFE094F83413B4F832E38B1C3E
:10519000671854FA83F6099301F1040A97F8383333
:1051A00097F839C396F8385396F8397354FA8AF653
:1051B00073448A1D96F839E301921D4496F83833FA
:1051C00054FA82F605EB0C2501F1080296F839C372
:1051D00002922B4496F8385354FA82F603EB0723D5
:1051E00001F10A0254FA82F72B4496F838530392DD
:1051F00003EB0E2301F10C0297F839E396F83963BB
:1052000004921D4497F8383354FA82F705EB0C25C5
:1052100001F10E0254FA82FC1D4497F838330592CE
:1052200005EB062501F110029CF8386397F83973F5
:105230009CF839C306922B4454FA82F503EB0E23F3
:1052400001F1120895F839E3334495F8386354FABC
:1052500088F503EB072301F1140795F839933344DC
:1052600095F8386354FA87F501F1160203EB0C2325
:10527000334495F838C3079254FA82F603EB0E23B1
:1052800001F1180295F839530892634496F838E30F
:1052900096F839C303EB092354FA82F6734401F1FB
:1052A0001A0B96F838E396F8396303EB052354FAA2
:1052B0008BF52044734495F838E390F8379395F8CC
:1052C000395390F8360303EB0C239E440EEB062E65
:1052D0000EEB052E00EB09291FFA8EFE1FFA89F945
:1052E000F1457FF4FCAE9DF8243054FA83F29DF82A
:1052F000043054FA83FC9DF808309CF839939CF8EC
:1053000038C354FA83F301939DF80C3054FA83F6B2
:105310009DF8103054FA83F59DF8143054FA83F058
:105320009DF8183054FA83F3029354FA88F30393E8
:105330009DF81C3092F8398392F8382354FA83F39D
:10534000214405939DF8203054FA8AFE54FA87F7D9
:1053500091F839A391F83813049754FA83F39EF81F
:10536000397306939EF838E3019B01EB0A2102EBA7
:1053700008220EEB072E93F8398393F83873C4F89C
:10538000F01296F8393301930CEB0921C4F8FC12A2
:1053900095F839C396F8386395F83853019BC4F8EB
:1053A000F42206EB0326049B029AC4F8F8E293F871
:1053B00039E393F8383392F8399392F83813039A13
:1053C000019603EB0E23C4F81833059B90F839A31C
:1053D000019E90F83803C4F8046307EB082701EB3B
:1053E000092192F8398392F8382393F83963C4F885
:1053F000101354FA8BFB93F83813069BC4F8007310
:1054000005EB0C2500EB0A2002EB0822C4F8085338
:10541000C4F80C0393F839539BF83903C4F81423E8
:1054200093F838239BF8383301EB062103EB002374
:10543000C4F81C13C4F82433012302EB05221846D8
:10544000C4F820230BB0BDE8F08F064818F09AFF8F
:10545000002384F82D0343E6FF224FF6FF735FE637
:10546000105200204855002010B5064CD4F8C40452
:1054700009F04AFF0028F9D0D4F8C404BDE8104070
:1054800009F03ABF1052002010B5FFF7EDFF0A4AAD
:10549000B2F8D13483EA00239BB2082141F22104FF
:1054A00013F4004F4FEA430318BF634001399BB226
:1054B000F6D1A2F8D13410BD1052002038B50B4BF4
:1054C00003EBC0040D4694F84022094803EB820325
:1054D000D3F8641129F07BF994F846322BB1691C9A
:1054E0000448BDE8384029F072B938BD3C240508AD
:1054F000CA69050818AD0508F8B50C4C0C4E0D4FDF
:1055000004F54875206829F077F9616811B13046D3
:1055100029F05DF9A16811B1384629F058F9103425
:1055200029F003FAAC42EDD1F8BD00BF9C27050875
:10553000C1690508C769050810B51EF0CBFA90B11E
:105540000B480C4C2BF07CF90B4829F055F9D4F89A
:10555000D404F5F787F9D4F8D8041EF0F9FA2DF041
:10556000DDFEF6F7DBFC0548BDE810402BF068B91E
:10557000CD69050810520020ED690508F969050894
:10558000022838B50D460FD8084CA07208482BF0F9
:1055900057F9084829F05BFA29F0C7F9294608208D
:1055A00029F0C8F9FF23A37238BD00BF0001002015
:1055B000606E0508F1B005087FB5094B0493094BEF
:1055C0000393094B0293094B0193094B0093094A3A
:1055D000094B0A490A4829F02BFA07B05DF804FB89
:1055E000686A05086D6A0508776A0508806A050813
:1055F0008C6A0508266A0508D3D20020326A05089D
:105600003D6A050870B5374C374829F0F5F894F82D
:105610002530012B60D13548354E2AF013FD94F822
:105620002A3013B194F8273013B194F8263043B9D7
:10563000B6F898502F4829F0DFF88DBB2E482AF095
:1056400001FD2E482E4D29F0D7F894F8293005EBAE
:105650008303D3F8800629F0EBF9B6F894102948B3
:1056600029F0B5F894F826302BBB27482AF0EAFC3D
:10567000264829F0C1F894F82A3005EB8305D5F8BF
:10568000880629F0D5F9B6F89610214829F09FF838
:1056900094F82A309BB91F48BDE870402AF0D2BC6C
:1056A0004FF47A72B5FBF2F102FB115292B21A4832
:1056B00029F0BEF9C5E719482AF0C4FCD8E794F8E8
:1056C000273023B91648BDE870402AF0BBBC154806
:1056D000BDE870402AF0B6BC1348BDE870402AF01F
:1056E000B1BC00BF20E20020926A0508A86A050844
:1056F000D0110010AF6A0508CA6A0508DC6A0508FF
:105700003C240508F26A05080F6B05081F6B0508A5
:105710003A6B05085D6B0508D46A0508166B050829
:10572000106B0508176B0508626B05082DE9F84337
:1057300029F0FBF81748184D2AF084FC14242D2179
:10574000D5F8D404F5F79CF8013CF8D129F0EDF830
:10575000124D134E134FDFF854802B7EE11006EBF1
:10576000830304F0070201313846D3F8649129F02D
:105770002EF86A7E49464AB10B4829F059F901349E
:10578000102C05F12005E8D1BDE8F883404629F04A
:105790004FF9F4E7706B050810520020600A0020F2
:1057A0003C240508866B0508976B050833B205088D
:1057B0002DE9F04F354C87B08046354A2378608814
:1057C00002EB8303D3F86491F6F728FBD0E901A339
:1057D0000493304B93F8DC3413B9CDF810A09A46FB
:1057E00008F04003DFF8B8B005930026A379002B3A
:1057F00008BF01239E4206DB274B08349C42DCD1C4
:1058000007B0BDE8F08F6279237906FB0323049A81
:105810000136D55CBAF1000F11D1B5FA85F77F09D1
:105820000DB305F00F032D0940350293CDE9006556
:105830004B465A463946404629F06AFBD6E71AF8E5
:105840000330EA1A57425741C3B103F00F021B0954
:1058500040330292CDE900635A464B4639464046F2
:1058600029F03EFBDCE7059B002BBFD100964B46A1
:105870000A4A3946404629F04BFBB7E700964B46AB
:10588000064A3946404629F02BFBC9E77C26050825
:105890003C240508105200209C270508B46B05081D
:1058A0009E6B05082DE9F04F6B4BDA7891B0984666
:1058B000002A00F0A68069482AF0C4FB0025DFF822
:1058C000B0A1DFF8C4B10795A94608A9E8B21DF058
:1058D00075FF9DF82830002B6CD0022D0C9C40F0F9
:1058E0009D80002C00F0918007EE904ADFED5C6A0D
:1058F000F8EEE77A86EEA77AFDEEC77A17EE906AA1
:105900009AF8DE44089B012C40F2818096FBF4F467
:105910001A460221534828F05AFF0D9A002A00F037
:10592000918041F2883002FB04004FF47A73B0FB9F
:10593000F3F00F9B002B00F0878041F2883103FBCE
:1059400004114FF47A7CB1FBFCF1062D03D0079FC4
:105950000F448144079798F803C0BCF1000F75D03D
:105960004FF47A7C0E9FB7FBFCFCCDF810C04FF0D3
:105970000A0C91FBFCFE0CFB1E11CDE902E190FB31
:10598000FCF10CFB1100CDE900102146364829F04E
:105990004FF8022D08D19AF8DE34012B04D9324693
:1059A0000999584629F044F8304A342303FB05236B
:1059B0000022DA6201351D2D87D198F80330EBB152
:1059C0002B49D1F8E824D1F8E404D1F8EC145209B9
:1059D0004FF47A73B0FBF3F3264829F029F80798BF
:1059E000079B0A2293FBF2F302FB130799FBF2F1E8
:1059F000009702FB1192204829F01AF811B0BDE877
:105A0000F08F1E482AF01EFB58E7264678E7099AD1
:105A10001B48022128F0DBFE34467EE75CB107EE2E
:105A2000904ADFED0F6AF8EEE77A86EEA77AFDEE90
:105A3000C77A17EE904A089A0A48294628F0C7FE06
:105A400000266AE7104674E719467EE721460D48AE
:105A500028F0EEFF9DE700BFCCD20020C86B050800
:105A6000002474491D6C05083F6C0508980100204E
:105A700010520020736C0508936C0508136C050820
:105A80002C6C05086F6C0508636C05082DE9F04760
:105A90006D4B6E48196890B04FF47A73B1FBF3F117
:105AA00028F0C6FF05A8F5F7FFFB58B1684A05A91D
:105AB0000023B2F9002008A8F6F752F808A96548B3
:105AC00028F0B6FF644B654D1B78654A654912782E
:105AD00009886548DFF8F4A105EB830305F5D5696E
:105AE000D3F8943628F0A4FF604B61481968614BE5
:105AF000B1FBF3F128F06BFE1DF0AAFC4FF47A72B3
:105B00005D4BB0FBF2F102FB1102B3F900300A2049
:105B100092B289B2B2FBF0F2584828F058FE584BC6
:105B2000D3F80080002405F5D96559F82470A30046
:105B3000D7B10126A64016EA080F13D0F20611D0FD
:105B40001AF804205B594F4853F82220394628F0B0
:105B50003EFE022E06D14C4B93F8211011B14B485A
:105B600028F035FE0134E0E7494C28F0DEFE3846E7
:105B70002AF07CFCB4F8F054464A4749474828F0DC
:105B800057FF474A474B4848ADB2D31A2946B4F8A5
:105B9000F22428F04DFF4549D1F88420002A43D053
:105BA00007EE902ADFED426AB8EEE77AC6EE877A12
:105BB000FDEEE77ACDED037AB4F8F4345BB107EE8D
:105BC000903ADFED3B6AF8EE677A86EEA77AFDEE53
:105BD000C77A17EE903AC96959B107EE901ADFED0E
:105BE000346AF8EEE77A86EEA77AFDEEC77A17EE0A
:105BF000901A3048304EB0F8A000304F6428CDE9FC
:105C000000310146039B2E48A8BF642128F010FFF5
:105C10002C4828F0F1FD2C4B1C68012534B928F0E4
:105C200084FE10B0BDE8F0870392C5E794FAA4F3B0
:105C3000B3FA83F305FA03F256F82310384624EA40
:105C4000020428F0C4FDE9E794B20020C16C050805
:105C5000C0770020DB6C0508546D00203C2405084B
:105C6000566F0020506F0020EC6C050818E20020F1
:105C7000126D050840420F0042860020226D050883
:105C8000746C0020436D0508180700104B6D050863
:105C900010520020F0FF0010000800004F6D0508B2
:105CA0000080000800400008736D0508980100207E
:105CB0000024744908000010384D050833B2050867
:105CC000AD6D0508F36D0508406F0020040100204C
:105CD00010B50A4C0A482AF0B3FD94F8F6240AB12C
:105CE00006F0D2FE94F8F7340BB106F0ADFE08F0E2
:105CF0007FFB0020BDE810402DF0A6BB1052002015
:105D0000096E050838B5114D0446204628F074FC8C
:105D100060B10F4B0F4893F90B104B1C0ABF0E4B91
:105D2000C9B25978BDE8384028F082BE2046F5F760
:105D3000ADFB052804D8C0B212F0C8F92C46E4E740
:105D400005210648BDE8384028F050BEF1B00508EE
:105D500000010020106E0508CCD200201F6E05083F
:105D60002DE9F74F3A4B3B4C1A785B780090A272C2
:105D7000E3722AF087FDF6F73FF80025DFF8D8B088
:105D8000A8460D27344B00996F43DE19D6F80090D2
:105D90004846F5F7D1FA00283DD0B8F1000F01D000
:105DA00028F0C3FD49462D485F4428F010FD00212E
:105DB000304628F0AFFD28F0B8FD3B7903F018031A
:105DC000082B3AD0102B3CD0304629F037F80D2361
:105DD00003FB05B3B3F80900F6F720F80746C0B196
:105DE000304628F011FCD7E90121824602440144E3
:105DF000304628F092FC60B901904946184828F0D6
:105E0000E6FC7968019A5144304628F005FD28F0F7
:105E10008CFD08F101080135B5F5C07FB1D12AF03C
:105E20001BFDFF23A372E372B8F1000F0DD10D48E3
:105E300003B0BDE8F04F28F0D9BD0B4828F007FEAD
:105E4000C2E70948FFF75EFFBEE703B0BDE8F08F89
:105E5000CCD20020000100203C330508E2AA05084E
:105E60003F6E05084F6E0508F1B00508052838B5E6
:105E70000D460FD8084CE07208482AF0E1FC0848AB
:105E8000FFF740FF28F051FD2946102028F052FD71
:105E9000FF23E37238BD00BF000100205C6E0508DF
:105EA000F1B005082DE9F04F0F468DB0C349064605
:105EB0002FF05AFB0546002840F06B82C04930465F
:105EC0002FF052FB0546002840F06582BD49304660
:105ED0002FF04AFB0546002840F05F82BA49304661
:105EE0002FF042FB002805460ABF0124082435464E
:105EF0000FB144F010042AF0C5FCF5F77DFFB3495B
:105F000028462FF031FB08B144F0200414F0090FAB
:105F100000F02C82AE482AF093FC0020FFF74CFBE7
:105F200028F003FDAB4828F03BFFAA4828F000FF0B
:105F300014F00803029305D0002028F06BFEA5485A
:105F400028F078FE04F01803182B07D1A2482AF095
:105F500077FCA24828F050FC28F0E7FCA048A14DAF
:105F6000A14E2AF06DFCA14B1A78002AA04A06BF68
:105F70000121134600219F4A204628F0C9FF9E4870
:105F80002AF05EFC2046FFF713FC9C482AF058FCE0
:105F900095F8F83495F8FB74994AF81A474206EBDD
:105FA000830347413946D3F8D836204628F098FF76
:105FB00095F8FB34924A06EB83033946914FD3F8A8
:105FC000D836204628F0A4FFD7ED007A8E4AF5EEA9
:105FD000407AF1EE10FA0CBF01210021204628F092
:105FE00097FF3A468949204629F064FC88482AF000
:105FF00027FC05F5A06205F5AC61204629F06CF997
:1060000084482AF01DFC95F9C215834AB1FA81F142
:106010004909204628F07CFF05F5B86205F5C66100
:10602000204629F0EBF87D482AF00AFC7C4B1F68DB
:106030007C4BD3F800804FF00009AB4606F5E966CB
:1060400056F82950002D40F0AA8168EA0703DFF8CE
:1060500044A20393744B53F82560002E40F0C08196
:106060007248734D2AF0ECFB724B0093DBF8A026CC
:106070006E4BDBF8AC16204628F05EFF6E482AF027
:10608000DFFB40F202230093DBF8A8266A4BDBF823
:10609000B416204628F050FF68482AF0D1FB684823
:1060A000DFF8F4C10127335C725D0CA919440DF1CE
:1060B000300E01F8202C16F80C108E440EF8102C1F
:1060C00017B1591A4F424F410136082EEBD1002526
:1060D00008AB5C4A8DF81850394620468DF8285098
:1060E00028F0FEFE04AB574ADFF8B0A1DFF8F8B0A5
:1060F0003946204628F00CFF53482AF0A1FB534AAA
:106100005349204629F07EFD52482AF099FB524A15
:106110005249204629F022FB51482AF091FB514A6E
:106120005149204629F09CFA50482AF089FB4A4AF6
:106130004A49204629F0DAF94D482AF081FB4D4AB8
:10614000204602F1780129F061FE4B482AF078FBE5
:106150004A4A204602F1960129F03AFC48482AF0C2
:106160006FFB484A204602F1100129F06BFB4648BC
:106170002AF066FB454A204602F1330128F050FF21
:1061800043482AF05DFB0126DFF8148108F1230360
:1061900008F1FF3002229919304439F019FF1AF83A
:1061A00015305B44B0FA80F793F8C42718F815301F
:1061B000022B4FEA571740F0388173E0686E0508EC
:1061C000606E05086F6E0508756E0508F96F0508A5
:1061D000796E0508F1B00508816E0508A96E0508FD
:1061E000576E0508105200203C240508C087002087
:1061F00017A40508A2AC0508B96E0508C36E05080A
:10620000C96E050884EB0020D26E05083CEC002026
:10621000E16E0508E76E0508F16E0508FE6E0508DB
:106220000008012040050120842B05081D6F05088A
:106230000C5E0508FFFF7F00246F05082B6F050823
:1062400014ED00202F6F0508366F050820EB0020A5
:10625000BCEC002044B205086C6D0020C88600200C
:10626000426F0508EC6D0020488700203D6F05084F
:10627000486F0508C85800204C6F0508B859002021
:10628000556F0508E45A00205D6F0508045B002087
:10629000616F0508126F050820E200208E5B002068
:1062A0006A5B002016F80A304FF0190940F2EE211F
:1062B00019FB0313CDE9002339462B46694A2046D2
:1062C00028F00EFE16F80830664A40F2EE2119FB5F
:1062D0000313019318F815305B44394693F8C4371B
:1062E000009320462B4628F013FE0135122D06F1AF
:1062F00002067FF449AF5C485C4E2AF0A1FA2146C1
:10630000002028F017FB029B2146002B00F0A18003
:106310000020FFF735F921460120FFF731F921462A
:106320000220FFF72DF9524D52482AF089FA3378AE
:106330005148AB7228F08BFBFF23AB720027F8B2F9
:1063400021460137FFF792FD062FF8D14B482AF07E
:1063500077FA73784848EB72FFF7D4FCFF2348487C
:10636000EB722AF06DFA474828F046FAA20704D5E6
:106370003E4B21461878FFF703F9630704D53B4BE2
:1063800021465878FFF772FD2AF066FA0DB0BDE895
:10639000F08F0124ACE50224AAE50424A8E52B78BB
:1063A000DBB14FF0010A0AFA09FA68EA070313EAB7
:1063B0000A0F14BF012100212B46334A204628F042
:1063C0008FFD67EA080313EA0A0F2F4A2B4614BF12
:1063D00001210021204628F09BFD09F101092FE64B
:1063E000337803B34FF0010909FA05F918EA090FE8
:1063F0000BD067EA080313EA090F5246334614BF6D
:1064000001210021204628F06BFD17EA090F0AD070
:10641000039B13EA090F5246334614BF01210021A2
:10642000204628F075FD013514E600922B463946CA
:10643000164A204628F054FD18F81530134A5B44DC
:10644000394693F8C437009320462B4628F060FD68
:106450004BE73078FFF794F821467078FFF706FD98
:1064600084E700BF686F0508686E0508A4ED00208A
:1064700000010020856F0508F1B00508A86F050828
:10648000CF6F0508B46E0508066F0508786F05081C
:10649000012107E5002105E52DE9F04FA64CA37881
:1064A0005A1E022A8BB040F2A6800321A1708020E0
:1064B0001DF012FD0746002800F0A48080211DF089
:1064C00001FD7E799D4B97F902C053F826209C4D23
:1064D000B2F5613F14BF002702270023022185F88F
:1064E000A2090092CDE901171A46604680211DF0ED
:1064F0004FFB0C3E934B032E186000F2F280924B40
:1065000040221A7000287DD09049914A91F800806D
:10651000E77816688F49904BB4F800E0498895F801
:1065200066C093F806A0A5F8481B18F1000818BF2C
:106530004FF00108003718BF012716F0020F4FF087
:10654000000108BF00271EF1FF3E18BF4FF0010EEB
:10655000BCEB010C93F8059095F8F8247F4B804C28
:10656000C5F8741418BF4FF0010C1AF0FD0F14BFDA
:10657000012008460890B9EB0100A2F1190903F5C2
:10658000A66AB9FA89F918BF01204FEA5919012AF8
:10659000C5F868A403F2BC5203F5C96AC3E9011146
:1065A000C3E903116F4B079014BF484601200590C3
:1065B000C5F870A4206893F800A0C5F86C24C6F351
:1065C000001BC6F380090690C6F3C0060A460C46B7
:1065D00001200995D3B2591E15291BD8DFE801F017
:1065E0006A6A6A6A6A6A6A6A66712379757D622F65
:1065F0002F2F182B271D022B40F090805A4B5A78D2
:10660000012A7ED8594B00221A700BB0BDE8F08FDA
:10661000714631B100FA02F10C430133DBB2162BA3
:106620001DD80132D6E749460029F3D1F9E74146A2
:106630000029EFD1F5E739460029EBD1F1E7069DB6
:1066400002EB420105EB410111F8561C003118BF65
:1066500001210029DED10133DBB2162BE1D9099DDE
:10666000434EC5F864441620424C2DF09DFA002399
:1066700023604149414A424C0B80138085F8583BC6
:106680003A493380D5F8502B2360D5F8883485F803
:106690004A0B02200870C5F84C2BC5F8543B0BB0D0
:1066A000BDE8F08F61460029B4D1BAE70599002909
:1066B000B0D1B6E79A4534BF002101210029A9D104
:1066C000C9E731460029A5D1ABE708990029A1D136
:1066D000A7E7079900299DD1A3E75946002999D139
:1066E0009FE7284B284A1B6803EB4303A2FB0323C5
:1066F0005B0911D0402BA8BF4023DBB2124A1370B4
:1067000000E741F2B5129B5C002B7FF47BAF0E4B90
:106710000B4D40221A70F7E60123EFE7032B3FF4FD
:10672000C6AEF6F74BF900283FF46CAF38F0C6F967
:1067300000287FF467AFEAE768860020444B05082D
:1067400010520020340601203806012049B20020F2
:10675000746C0020506F0020566D0020845600207D
:10676000CC74002010070010E4ED00208404012008
:10677000CE060120C8060120CC060120D00601204B
:10678000D4060120CC110010D34D62102DE9F04F3A
:106790008BB0FDF71FFB074618B1B14B1868FCF72B
:1067A00031FFB04CB04E94F8603B0022012BF260F8
:1067B00000F02882022B22D194F8632B84F8783BD6
:1067C000531E5BB2022BDCBF1B01A84A94F8640B7A
:1067D000D4BFD3580023C4F87C3BF2F787FFC4F83A
:1067E000800B94F85F3B0022022B84F8842B00F08E
:1067F000DB80052B00F04B82002B00F0D5809C4DF8
:106800009C4B1A7893F80580012A00F0F381022A44
:106810001ED094F8E46B022E00F03282032E00F0BA
:10682000FD81012E3AD02B6823F010032B60092440
:10683000FAF70CFF0028FBD1FAF708FF28B1013C5A
:10684000F6D138460BB0BDE8F08F1CF05FFDF6E7DF
:106850005978894E98783270013949B20229DBBFE4
:10686000824A0901002252587260F2F73FFFB0607D
:10687000B8F1060F00F2B68101A353F828F000BF6B
:10688000036E010813680108036E0108FD6C01081E
:106890006369010863690108136801084E202FF03D
:1068A000EDFA94F8E80BDFF8F491744EF2F71EFF5E
:1068B000804694F8E90BC9F80080F2F717FF3060C2
:1068C000B8F1000F00F0048398F80630002BAAD12D
:1068D000002840F076830F22002388F8062088F8ED
:1068E000073001214046F3F77DF8D9F80000F3F7AF
:1068F00015F9642008F096FA306818B110220023C8
:106900008271C3710021F3F76DF83068F3F70AFC68
:10691000B8B9DFF88C814FF0050BD8F800A037F03C
:10692000ADF805E03068F3F7FDFB002840F01D836B
:10693000D8F80030A3EB0A033B2BF3D9BBF1010BD2
:10694000EBD1D9F800300BB100229A713368002BDB
:106950003FF469AF00229A7165E7019B0BB10023F8
:106960007371142008F05EFA3378022B00F0B882BD
:106970003378012B00F088824FF000080123404A51
:106980003D48D021F8F7EEF994F8C43B582B00F0BD
:1069900083823378022B00F0D282B8F1000F3FF4EB
:1069A00038AF0023737134E794F8783B012B00F083
:1069B0005D8200238DF81030324D0DF1100928460C
:1069C0004A4601230A21F8F7CDF9002800F0628138
:1069D0009DF81030482B40F05D812B4A2B4BC4F8BA
:1069E0006C2B4FF0020CC4F8703B84F884CBB4F9E4
:1069F0005C1B9FED276A1E4D642291FBF2F302FBA4
:106A0000131212B207EE902AB8EEE77A07EE903A28
:106A1000F8EEE77AF2EE046AE7EE067A2B681D4A92
:106A200067EEA67A0121084643F0080382F807C002
:106A3000C6ED037A2B60F3F785F8D4F86C3B164863
:106A4000984700210120F3F77DF894F85E3B01227E
:106A500084F88C2B002B3FF4D3AE84F8843BCFE634
:106A6000EC100010105200202805012018B2002060
:106A7000746C00205C880020786C002014050120D4
:106A8000D45D0020885D00204703010817EF00084F
