:020000040800F2
:10000000F0FF001069FD05088F5A030881EB000816
:1000100009FE050809FE050809FE050800000000A4
:100020000000000000000000000000008D5A0308DE
:100030008B5A030800000000895A03085D55020826
:1000400009FE050809FE050809FE050809FE050860
:1000500009FE050809FE0508A55F0208D16002082F
:1000600095600208596002081D600208199B040887
:10007000099B0408F99A0408E99A0408D59A040827
:10008000C19A0408AD9A040809FE050809FE05088E
:1000900009FE050809FE050809FE0508E15F0208DA
:1000A000F9340208953A020829340208653B02082F
:1000B000D5390208153902084938020831A4040864
:1000C00039A4040825A404082DA4040809FE050881
:1000D00009FE05080D57020809FE050855560208D5
:1000E000695F020809FE050875A003085933020874
:1000F000C935020889320208A9360208999A04080B
:1001000009FE050809FE05087937020809FE0508F9
:1001100009FE050809FE0508B11C0308391B030880
:10012000859A0408719A04085D9A0408499A04089B
:10013000359A040809FE050809FE050809FE0508A8
:1001400009FE050809FE050809FE0508A18E030839
:10015000219A04080D9A0408F99904089D5502088B
:1001600019A4040821A4040809FE050809FE0508CD
:1001700009FE050809FE050809FE050809FE05082F
:0801800009FE050809FE05084F
:0801880010F905000100000060
:100190003810010001000000B81B00200C1F0020D7
:1001A0000000000040090008012001000C000000D0
:1001B000A4330020143B0020000000004209000886
:1001C0000A700100280000003C320020203B002083
:1001D00000000000597801080ED0030092010000D1
:1001E000A8300020483B00200000000055A504086E
:1001F0000101010004000000F42F0020DC3C00207D
:1002000000000000000000000001010004000000E8
:10021000EC2F0020E03C0020000000004E09000808
:100220000201010003000000E82F0020E43C002050
:100230000000000005A20308220201001C010000CA
:1002400028380020E83C002000000000C1F7030827
:100250000C200600CC00000084320020043E002068
:1002600000000000C9A10308010201000500000010
:1002700000300020D03E00200000000051000108A6
:100280000002010005000000D0360020D83E00200A
:1002900000000000000000001B0201001000000030
:1002A0009C360020E03E002000000000C5F303085B
:1002B0001B1001000C00000094200020F03E0020E4
:1002C00000000000650F010821020100F00000009D
:1002D000181F0020FC3E002000000000410E010815
:1002E0002C00040010000000104B0020004B0020E8
:1002F00000000000A19701082B001200240000005C
:10030000444B0020204B00200000000071970108A2
:100310002920140078000000CC490020684B002000
:1003200000000000000000001C0202001C00000091
:1003300044450020E04B0020000000001DF60308AB
:10034000281001001600000040480020FC4B00204F
:1003500000000000499C0108041201000200000096
:1003600010490020144C0020000000005209000831
:100370000F020100010000000C490020184C002071
:1003800000000000540900081400010003000000F0
:100390002C4800201C4C00200000000056090008DA
:1003A0002802040004000000784C0020804C00204B
:1003B00000000000C1F3030827020400040000004D
:1003C000744C0020844C002000000000B5F30308AA
:1003D0001A0201003C0000002C4C0020884C002038
:1003E0000000000059F50308270001000400000088
:1003F000704C0020C44C0020000000005A09000886
:100400000A02010014000000385900204C5C002052
:100410000000000021D30208F62101000C000000BA
:10042000B0530020605C002000000000600900085C
:100430000300010001000000485400206C5C002013
:100440000000000000000000031201003D00000059
:100450000C5C0020705C0020000000006C090008AB
:1004600025201E002C01000074590020B05C0020E3
:100470000000000000000000101001000200000059
:100480009C530020DC5D002000000000AA09000849
:1004900005020100040000007C6900209069002032
:1004A00000000000AC090008030101000A00000080
:1004B000386700209469002000000000614F0308A5
:1004C0000E0201000200000084670020A0690020E5
:1004D00000000000B0090008130201000400000041
:1004E000045E0020A469002000000000B20900089A
:1004F00007020100020000009C6A00203C6B002003
:1005000000000000B6090008020001000C00000015
:10051000746A0020406B0020000000000000000012
:10052000060203000C000000686A00204C6B0020EB
:1005300000000000B1F603081D02010002000000E7
:100540002C6A0020586B002000000000B809000849
:100550001F020800100000001C7600200C7600200E
:100560000000000009F30308100201000100000070
:1005700058A9002054A9002000000000BA09000872
:1005800019000100050000002CAE002054AF00202F
:1005900000000000BC0900081A0001000E00000065
:1005A000B4AD00205CAF002000000000C2090008CC
:1005B000F8210100060000007CAC00206CAF002098
:1005C00000000000D0090008203201000A000000ED
:1005D00084AC002074AF00200000000035A50408A2
:1005E00015001000700000008CAA002080AF0020D1
:1005F00000000000000000002A0008006000000069
:1006000094AE0020F0AF0020000000000DA504080B
:100610002312010010000000DCB9002068BA00209D
:1006200000000000D80900080510010006000000C5
:10063000D4B9002078BA002000000000E8090008C2
:10064000371001002E00000014BA002080BA0020EC
:1006500000000000EE09000816100100060000006E
:10066000B4B30020B0BA0020000000001C0A00084B
:100670002F1001002200000044BA0020B8BA002068
:1006800000000000220A00081E0001000700000010
:10069000D0B40020DCBA002000000000440A0008AA
:1006A000231001000E00000010B50020E4BA002065
:1006B00000000000B5780108F5610100CC000000E1
:1006C0009CB20020F4BA0020000000005D0D01087B
:1006D000261001000E000000D0BB0020C0BB00208F
:1006E000000000004D4B05080B3001001A0000000F
:1006F00080B200200CBC0020000000004C0A000862
:100700001F3001002400000058B2002028BC002047
:1007100000000000680A00080D000100340000001D
:10072000A0E70020F0F00020000000004581000854
:10073000090201000100000008E7002024F1002068
:10074000000000008C0A000804000800800000007F
:1007500084E6002028F100200000000000000000D6
:10076000130001000400000064E60020A8F100204E
:1007700000000000900A0008FD01010024000000B4
:1007800024E60020ACF10020000000004F1A02080F
:100790001820010030000000F0E50020D0F100201A
:1007A00000000000C5F40308061001001C00000052
:1007B00078BC002000F200200000000021F90308AE
:1007C000FB01010001000000B4E500201CF2002044
:1007D00000000000F5F80308FC010100090000001A
:1007E00080E4002020F200200000000005F903084A
:1007F000F70101000600000078E400202CF2002040
:1008000000000000940A0008160215003F000000D6
:1008100094BC002034F200200000000085F803089A
:1008200034000100100000006CE3002074F200208E
:100830000000000005A604081102010008000000E5
:1008400044E3002084F20020000000009A0A00081F
:1008500012120100040000003CE300208CF2002092
:1008600000000000A20A0008122001001000000091
:100870002CE3002090F2002000000000A60A0008EF
:10088000FF110100060000000CDF0020A0F2002094
:100890000000000029F30308081203000F00000005
:1008A00088DF0020A8F200200000000045F30308C4
:1008B000F90101000400000008DF0020B8F2002068
:1008C00000000000FD1A0208FA0101000300000008
:1008D0007CD80020BCF2002000000000398502080E
:1008E000020201000300000070BC0020C0F20020E2
:1008F00000000000000000000C02010004000000E5
:100900005CBC0020C4F20020000000009DF303083E
:10091000110001000C000000F2CC0020C8F2002001
:10092000000000009D810008FE010100140000008D
:1009300098C70020D4F2002000000000D9F203087C
:100940000000E8036400040A000114001E00900186
:100950000000111800000300000020030000000048
:100960000000000001000000020200000000000082
:100970000000000000000000000000000000000077
:100980000000000000000000000000000000000067
:100990000000000000000000000000000000000057
:1009A0000000000000000000010000050000000041
:1009B000000000000135023C00000000000028019A
:1009C00000007E05EA05B4053200E803D007000008
:1009D0000401F40114000000000000000000000009
:1009E00000000000000000002000020100002000C4
:1009F0003200C800D00796001400320028004C04D2
:100A000040060005500014000F00080064000100BB
:100A1000010005000A000000F4019600C40900006E
:100A200019000000000000000000000000000000AD
:100A300000000000000000000000000000000000B6
:100A4000000000000000010000000000AE014A01AB
:100A50005E012C0164010100000001000A019A01FD
:100A6000001E0A000000000000000000000100005D
:100A7000000500000102030000000000000000006B
:100A800000000000000000000080070028000000B7
:100A9000002044302401000000000000000001019B
:100AA0000101FFFFFFFF000000010000054F42535E
:060AB000440000080002F2
:100AB60001000000A00F0000B80B00000102FFFFBC
:100AC60001000000685E0C00020000003D7E030885
:100AD600634A0308D17D0308000000004549030866
:100AE600A9860308157D0308857903080000000020
:100AF6000000000005490308CD470308BF47030867
:100B06000D78030829780308F1770308D5770308D9
:100B1600BB770308F37D0308414A0308177D0308E2
:100B2600000000001D49030887790308E97C0308D3
:100B3600F3780308000000000000000011490308D4
:100B460000000100E0010000FFFFFFFF01FF0100C0
:100B5600DD030108000000000C1D0608FFFFFFFF73
:100B6600080000004257020000000106425702003A
:100B7600000001060000000000000000FC36060828
:100B86000000000000000000A83606080101FF0072
:100B9600FFFFFFFF2D202D2D202D2D2D2D202D2D5E
:100BA6002D2D0000000000000000000000000000E5
:100BB6000000002D202D2D202D2D2D2D202D2D2D0D
:100BC600000000000000000000000000000000001F
:100BD6000000000000000000000000003836060893
:100BE60001000000FA000000010000000100000002
:100BF600A03300200000F401010000009E33002015
:100C06000000F401010000009C3300200000F40104
:100C1600010000009A3300200000F40101000000EA
:100C2600983300200000F4010100000096330020F4
:100C36000000F40101000000943300200000F401DC
:100C460001000000CD0B0108910B0108E422060803
:100C56008433002005320100923300206400F40141
:100C660001000000903300206400C4090100000068
:100C760082330020E803D007010000008033002003
:100C8600E803D007010000007E330020E803D00708
:100C9600010000007C3300201E00B80B010000009C
:100CA6008A33002005000F00010000008C3300206D
:100CB60003000A00010000007A3300201E00F40140
:100CC600010000008E330020020000007023060899
:100CD60078330020140064000100000086330020F1
:100CE6003200E80301000000763300200000C8004F
:100CF600010000008332002000C80100823200207B
:100D06000050010081320020005A01007F3200208D
:100D1600020000007C2306089CAD0608A4AD060868
:100D260026E800200100C4090000000024E8002095
:100D36000100C4090000000022E800200100C409E7
:100D46000000000020E800200100C40900000000A7
:100D56001CE800200100C409000000001EE8002075
:100D66000100C409000000001AE800200100C409BF
:100D76000000000018E800200100C409000000007F
:100D86001730002000C801001630002000C80100FE
:100D9600143000200100C8000100000012300020BD
:100DA6003200307532000000103000200582050048
:100DB6000E30002005002C01050000000D3000203B
:100DC600055A05000A30002000FF01000C30002003
:100DD60002000000F003002008300020030000009D
:100DE600709406080930002000FF01000B30002037
:100DF60002000000F003002007300020030000007E
:100E060070940608210B0108B10A01088823060818
:100E1600B4330020EE02CA0801000000B2330020FD
:100E260000C8010064000000B133002000C80100C2
:100E360064000000B033002002000000942406087D
:100E4600FA2F002080C1803E05000000F82F002008
:100E560080C1803E05000000F22F002080C1803E48
:100E660005000000F02F002080C1803E0500000034
:100E7600EB2F002000FF0100E62F00206400F401A4
:100E860001000000E42F002004000000A024060852
:100E9600E32F002002000000B4240608973000204B
:100EA6000D000000C02406089430002000640100F4
:100EB60092300020320010270A00000090300020F7
:100EC6000D000000C02406088F3000200D00000031
:100ED600C02406088E30002002000000F824060810
:100EE600A503010800000000042506082869002063
:100EF6009CFF2C0100000000D8390020E0150C17DB
:100F06000000000025370020020000003C250608EE
:100F1600C03300200100FF7F01000000BF33002026
:100F26000200000048250608993000200300000052
:100F360058250608983000200300000058250608AA
:100F4600703200200000E803010000006E3200202D
:100F56000000E803010000006C3200200000E803F6
:100F6600010000006A3200200000E80301000000D2
:100F7600683200200000E80301000000663200200D
:100F86000000E803010000006532002000140100A3
:100F96006432002003000000682506087E32002027
:100FA60002000000782506087C3200200000F401CB
:100FB600010000007A3200200000F4010100000068
:100FC600783200200000F401010000007632002093
:100FD6000000F40101000000743200200000A00FA0
:100FE60001000000723200200000A00F0100000086
:100FF6006333002019640100623300200200000000
:101006008425060860330020E803D0070A000000A4
:101016005E330020006401000A0000005333002004
:101026000064010052330020006401005A3300209E
:10103600006401000A00000059330020006401002A
:101046000A00000058330020006401000A00000076
:101056005D330020006401000A0000005C330020BC
:10106600006401000A0000005B33002000640100F8
:101076000A0000005733002001FF01000A000000AB
:101086005633002001FF01000A00000055330020FE
:1010960001FF01000A000000A23000200000F40158
:1010A60001000000A03000200000A00F0100000099
:1010B6009E3000200000A00F010000009C300020A0
:1010C6000000A00F010000009A3000200000A00FD1
:1010D600010000003737002000C801003637002025
:1010E6000064010035370020006401003437002019
:1010F600006401003337002000640100323700200D
:10110600FF08010031370020016401001D0A0108B3
:10111600E1090108902506083A370020016401001C
:101126003937002001000000002606083837002065
:10113600040000000826060830370020006401007D
:101146002E3700201400E803010000002C37002091
:10115600E80330750A0000002B37002000C80100A4
:101166002A37002000C801002937002000C80100E6
:1011760028370020003201002737002000640100D4
:101186000A000000483700200000D00701000000D8
:101196004337002000C801004237002000C8010084
:1011A6004137002000C80100463700200000D00764
:1011B600010000004037002000C801003F37002032
:1011C60000C801003E37002000C801004437002057
:1011D6000000D007010000003D37002000C80100D4
:1011E6003C37002000C801003B37002000C8010042
:1011F60000000000B50701081C2606088B300020F9
:10120600005A01008C3000203B000000B82606087A
:101216008A30002000C8010088300020E803D0078B
:10122600010000004F4D4E49425553463453440089
:1012360006300020000301000530002000030100F5
:10124600E9060108AD060108A82706087106010887
:101256002D0601083428060825070108513801081B
:10126600B4280608FC2F002001030100350C0108F4
:10127600090C0108E02B0608B105010865050108FF
:10128600502C0608CB070108F95E0108EC2C06086D
:10129600A962010800000000942D0608D53C01084B
:1012A600950C0108302E06082D08010800000000E4
:1012B600B02E060805090108B1080108142F060812
:1012C6009D09010859090108B02F0608DD760108B5
:1012D600590A01083C300608753300200106010052
:1012E6007508010841080108383106082376010807
:1012F600B5380108A8310608217701086D390108BB
:10130600DC32060874330020010301007907010866
:101316003D070108B0330608610C01080000000013
:1013260020340608FD050108213801088434060822
:10133600000000000000000010350608890A0108B8
:10134600E539010890350608DE2F002088136F174F
:1013560001000000E02F002088136F170000000036
:101366006AE80020000000000000000068E8002095
:10137600000000000000000066E8002000000000F9
:101386000000000064E800200000000000000000EB
:1013960062E80020000000000000000060E8002075
:1013A60000000000000000003C10002000000000CB
:1013B600000000006E2F00200300000044370608DE
:1013C600DC2F002088136F170100000072690020CF
:1013D60088136F1700000000A50401080000000034
:1013E600543706082637002001000000A8370608F3
:1013F6007469002001000000B43706086A690020FD
:1014060002000000BC3706080000000000000000D3
:10141600C83706088D040108000000006438060875
:101426000000000000000000B838060800000000B8
:101436000000000028390608E22F00200200000004
:10144600603906086E690020E0150C1700000000E0
:101456000442002058420020D6010100000101018B
:1014660000FF0101FFFF0000FFFFFFFF38FD060838
:1014760000000802050303000000000040FD060806
:101486000100080205040300000000007C080708AC
:101496000200FE0101100300000000002CB2060845
:1014A60003001402000300000000000048FD0608C7
:1014B60004001F02020008000000000050FD06089C
:1014C60005001F0202010800000000004DFF03088E
:1014D6005DF803083DFF03080DF40308E9FE030861
:1014E60091FE0308FDF30308300C0020D5470408DD
:1014F60015F4030811F4030809F4030899F903081D
:1015060005F4030801F4030830730608458603084A
:10151600234A030829850308000000000000000094
:10152600C17C0308D17B0308000000000000000016
:1015360000000000F9480308ADF40308A1F403080D
:10154600A9FF0308C5FF030859F403088DFF030824
:1015560071FF0308FF01FF00008002021F00000068
:1015660053544D202020202050726F647574202023
:101576002020202020202020302E30310000803FE7
:101586000000000000000000000000007DD50008FB
:10159600000000000000000000000000FFFFFFFF49
:1015A600FF0000000403090412010002EF020140DB
:1015B60083045632000201020301000012010002F8
:1015C60002020040830440570002010203010000AA
:1015D60009022000010104C03209040000020806C5
:1015E6005005070581024000000705010240000082
:1015F60009026400030100C032090400000103006F
:1016060000000921110100012226000705830308B5
:10161600000A080B0102020201000904010001028E
:101626000201000524001001052401000204240221
:10163600020524060102070582030800FF090402C9
:1016460000020A00000007050102400000070581AC
:101656000240000009024300020100C032090400F2
:101666000001020201000524001001052401000109
:10167600042402020524060001070582030800FF70
:1016860009040100020A00000007050102400000EB
:101696000705810240000000FF00000000FF000077
:1016A600000000000000AA5507010000010000002C
:1016B60000600240106002400000000000000000D0
:1016C600000B000000000000000000000000000009
:1016D6000060024028600240010000000000000097
:1016E600060C0000000000000000000000000000E2
:1016F600006002404060024002000000000000005E
:10170600100D0000000000000000000000000000B6
:101716000060024058600240030000000000000024
:10172600160E00000000000000000000000000008F
:1017360000600240706002400400000000000000EB
:10174600200F000000000000000000000000000064
:1017560000600240886002400500000000000000B2
:10176600261000000000000000000000000000003D
:1017760000600240A0600240060000000000000079
:101786003011000000000000000000000000000012
:1017960000600240B8600240070000000000000040
:1017A600362F0000000000000000000000000000CE
:1017B60000640240106402400000000000000000C7
:1017C60000380000000000000000000000000000DB
:1017D600006402402864024001000000000000008E
:1017E60006390000000000000000000000000000B4
:1017F6000064024040640240020000000000000055
:10180600103A000000000000000000000000000088
:10181600006402405864024003000000000000001B
:10182600163B000000000000000000000000000061
:1018360000640240706402400400000000000000E2
:10184600203C000000000000000000000000000036
:1018560000640240886402400500000000000000A9
:101866002644000000000000000000000000000008
:1018760000640240A0640240060000000000000070
:1018860030450000000000000000000000000000DD
:1018960000640240B8640240070000000000000037
:1018A60036460000000000000000000000000000B6
:1018B600AA5505010000000050790608FF1FFF1F0A
:1018C60005010905A101A100050109300931093207
:1018D600093309350934094009381581257F75080A
:1018E60095088102C0C0000009022200010100E043
:1018F600320904000001030102000921110100015F
:101906002226000705830308000A000000000000E5
:10191600010203040102030406070809DF7E030827
:10192600DD830308597F03087B4903082D4B030811
:101936008B490308A7490308554903084749030883
:101946000000000000000000AA550B010000AA5587
:1019560005010000AA550902000000AA5503009FD0
:1019660001000000C0120000000000002C6B0020E7
:1019760008000000000000001C6B002008000000AA
:10198600A08106081A030000000000000000000005
:101996000000000000000000000000000000000041
:1019A60004030904120100020000004083042057CA
:1019B60000020102030100000068214C1F00000024
:1019C6001C0000001F0000001E0000001F00000099
:1019D6001E0000001F0000001F0000001E00000087
:1019E6001F0000001E0000001F0000000000040190
:1019F60000000000000000021000000007000000C8
:101A060000000000000000000102030406070809A8
:101A1600FFFFFFFF0000803F000000000000000005
:101A2600000000000000803F0000000000000000F1
:101A360000000000000000000000000000000000A0
:101A46000000000000000000000000000000803FD1
:101A5600000000000000000000000000010000007F
:101A66000000803F01820000FFFFFFFFE0BB002077
:101A76000000000004BC002000000000010000007F
:101A8600080000007D000000FFFFFFFFBD470308C0
:101A9600BB470308B9470308B3470308B147030820
:101AA600B7470308B5470308E1540308D1530308B1
:101AB60011550308557103087D890308D171030880
:101AC600E5480308D1480308C94803080100000097
:101AD600D4FD0608E41C07080000000071A20308F4
:101AE600A0860100040000000000000000000000C5
:101AF60000000000000000000000000000000000E0
:101B060000000000000000000000000000000000CF
:101B1600D4FD0608441D070800000000ADB5000806
:101B2600E8030000040000000000000000000000C0
:101B3600000000000000000000000000000000009F
:101B4600000000000000000000000000000000008F
:101B560010B6060824B006080000000031E40208AA
:101B66007D000000060000000000000000000000EC
:101B7600000000000000000000000000000000005F
:101B8600000000000000000000000000000000004F
:101B96002CFD06080000000000000000B9D5000872
:101BA600E803000003000000000000000000000041
:101BB600000000000000000000000000000000001F
:101BC600000000000000000000000000000000000F
:101BD6004C1D070800000000000000000514050861
:101BE60010270000030000000000000000000000B5
:101BF60000000000000000000000000000000000DF
:101C060000000000000000000000000000000000CE
:101C160044FD060800000000AD930108DDDB000866
:101C26005F760000050000000000000000000000D4
:101C3600000000000000000000000000000000009E
:101C4600000000000000000000000000000000008E
:101C5600EC00070800000000000000001DF000086E
:101C66001027000001000000000000000000000036
:101C7600000000000000000000000000000000005E
:101C8600000000000000000000000000000000004E
:101C9600581D070800000000000000000D81000824
:101CA600E80300000500000000000000000000003E
:101CB600000000000000000000000000000000001E
:101CC600000000000000000000000000000000000E
:101CD600641D07080000000000000000A5A5030819
:101CE600204E00000300000000000000000000007D
:101CF60000000000000000000000000000000000DE
:101D060000000000000000000000000000000000CD
:101D1600741D07080000000000000000A9A30308C6
:101D2600204E00000300000000000000000000003C
:101D3600000000000000000000000000000000009D
:101D4600000000000000000000000000000000008D
:101D5600841D070800000000000000008DEC00084C
:101D6600400D03000300000000000000000000001A
:101D7600000000000000000000000000000000005D
:101D8600000000000000000000000000000000004D
:101D9600C8FE0608000000000000000071D300081D
:101DA60010270000010000000000000000000000F5
:101DB600000000000000000000000000000000001D
:101DC600000000000000000000000000000000000D
:101DD600B8BF06080000000000000000711A0108E4
:101DE60010270000030000000000000000000000B3
:101DF60000000000000000000000000000000000DD
:101E060000000000000000000000000000000000CC
:101E1600941D07080000000000000000E9F7010813
:101E2600A086010001000000000000000000000084
:101E3600000000000000000000000000000000009C
:101E4600000000000000000000000000000000008C
:101E56008CB30608000000000000000029B400084A
:101E660050C3000001000000000000000000000058
:101E7600000000000000000000000000000000005C
:101E8600000000000000000000000000000000004C
:101E9600E0B1060800000000000000003D4B050808
:101EA600A086010000000000000000000000000005
:101EB600000000000000000000000000000000001C
:101EC600000000000000000000000000000000000C
:101ED60038B10608000000000000000025B1000827
:101EE600A8610000010000000000000000000000E2
:101EF60000000000000000000000000000000000DC
:101F060000000000000000000000000000000000CB
:101F16009C1D07080000000000000000C95F0108C2
:101F2600A086010001000000000000000000000083
:101F3600000000000000000000000000000000009B
:101F4600000000000000000000000000000000008B
:101F5600F40007080000000000000000E981000806
:101F6600A00F0000010000000000000000000000BB
:101F7600000000000000000000000000000000005B
:101F8600000000000000000000000000000000004B
:101F9600A81D07080000000000000000415A0108C3
:101FA60010270000010000000000000000000000F3
:101FB600000000000000000000000000000000001B
:101FC600000000000000000000000000000000000B
:101FD600F0FE060800000000000000000180000876
:101FE600A00F00000100000000000000000000003B
:101FF60000000000000000000000000000000000DB
:1020060000000000000000000000000000000000CA
:10201600FCBD06080000000000000000D99005087D
:102026001A4100000100000000000000000000004E
:10203600000000000000000000000000000000009A
:10204600000000000000000000000000000000008A
:10205600F8B006080000000000000000954F0308D5
:102066001027000001000000000000000000000032
:10207600000000000000000000000000000000005A
:10208600000000000000000000000000000000004A
:10209600F01C07080000000000000000CD6A0108DF
:1020A6001A410000010000000000000000000000CE
:1020B600000000000000000000000000000000001A
:1020C600000000000000000000000000000000000A
:1020D600B41D070800000000000000008557030833
:1020E600400D03000000000000000000000000009A
:1020F60000000000000000000000000000000000DA
:1021060000000000000000000000000000000000C9
:10211600BC1D07080000000000000000CB8000087E
:10212600400D030000000000000000000000000059
:102136000000000000000000000000000000000099
:102146000000000000000000000000000000000089
:10215600C41D0708000000000000000095430108A8
:1021660050C3000003000000000000000000000053
:102176000000000000000000000000000000000059
:102186000000000000000000000000000000000049
:10219600D01D07080000000000000000C5AA0308C3
:1021A60040420F0000000000000000000000000098
:1021B6000000000000000000000000000000000019
:1021C6000000000000000000000000000000000009
:1021D600DC1D07080000000000000000C1810008A7
:1021E60050C30000000000000000000000000000D6
:1021F60000000000000000000000000000000000D9
:1022060000000000000000000000000000000000C8
:042216000000803F05
:082800000000000000000000D0
:10800000274B1B782DE9F041002B47D0254B1B78DF
:10801000002B43D0244C237803F0FF07002B3DD1E5
:10802000224B1A68821A002A38DB214A214D127825
:10803000D3F804E0DFF88C80013A062606FB0251F3
:1080400006FB02524FF00A0C89885288B1FBFCF102
:108050000EF1010C18F80EE0C3F804C001FB0EF19C
:108060001044BCF10E0F084488BF5F60186023788D
:1080700003F0FF01002BFAD1012323700E4B0F4AAE
:108080001B68128A5A600E4A12685162118841F0C8
:10809000010111801A6842F001021A60BDE8F08106
:1080A000B06A0020C46A0020F1CC0020F018002043
:1080B000F2CC0020887D0608BC6A002000CD00209C
:1080C000B46A0020A016060870470C4B1B78DB072B
:1080D00000D570470A4A1368002BFAD04FF47A7122
:1080E00001FB03F39842F4D3064B1B781BB9064BF4
:1080F00099681B690B600023136070474867002074
:108100004C590020385900207C53002070B50C4C8D
:1081100023689BB15A68821A002A0FDB05460026A5
:1081200003E05A68AA1A002A08DB9A681E732260C4
:1081300018461A6890472368002BF2D170BD00BF23
:108140001C540020F8B5322204460021023059F0B8
:1081500053FA0C4F00222346052104251046D65D14
:108160009E700132062AD9701D719871597103F100
:108170000803F4D101232380522384F8323064238E
:108180002386F8BD387C0608024A034B127819781A
:1081900055F064BA116B0020126B0020074A52F8A8
:1081A0000F3F10B5036053684360936883600446D3
:1081B000002120201CF04AF8E07210BDA01606082D
:1081C00038B5084D002415F8013BFF2B184605D0A3
:1081D00032F0B0FF014620461DF086FE0134042C2B
:1081E000F1D138BD40E300202DE9F04F054B2DEDD6
:1081F000028B1C78ABB03CB12BB0BDEC028BBDE860
:10820000F08F00BF74670020DFF880B3DBF8003028
:108210005F05F1D5039013F04FFAC24B1B78012B89
:1082200000F04582C04B1B78002B3CD0BF4D03991A
:10823000D5F82C31BE4ACB1A934200F27D82DFF88A
:10824000509399F80060002E00F0A083B94A166898
:108250004EB3B94FD5F840310398B968C31A8B4271
:1082600021D395F83C31002B00F0DB8695F8457161
:10827000B24995F844C10868013BDBB2013785F883
:108280003C31FFB2002B00F0638616F8011B85F825
:10829000457101EB0C03166085F844311DF0E8FAD6
:1082A000039BC5F840311CF0CBFDA54B93F8008033
:1082B00000F57A70B8F1010F209000F0C081A14B59
:1082C0001B78002B00F0C7809F4F3B68002B00F00D
:1082D000C2809E4B954D1B6804931A46D5F84C31CD
:1082E000D31A632B40F2B780DFF8A892984EDFF8DC
:1082F000A88241204FF01EF9B9F9023086FB032015
:10830000DB17C3EBA00080B24FF0F8F8B9F90030EA
:1083100086FB0320DB17C3EBA00080B24FF0EEF822
:10832000B9F9043086FB0320DB17C3EBA00080B251
:108330004FF0E4F898F8001038681DF099FA95F8B5
:1083400050A11AF0010600F00E86DFF85092D9F81D
:10835000003098066FD57F4B7F4E1B78990742F10E
:108360004C81337D042B8CBF0323022305934720CC
:108370004FF0E0F830684FF08DF870684FF08AF8F1
:10838000F389764A3868A2FB0323C3F3471A5146A0
:108390001DF06EFA98F80010D9F800208AEA01035F
:1083A00012F0140F88F8003016BF6D4BB0681868D3
:1083B0004FF070F8059B367D386843EA8606F6B2C2
:1083C00031461DF055FA98F8003038685E40314665
:1083D00088F800601DF04CFA95F850A1BAF1000F32
:1083E00029D1604E4F204FF0A5F830684FF052F879
:1083F00070684FF04FF850464FF04CF80121386844
:108400001DF036FA534A98F800301678386806F0AE
:10841000010683F00103314688F800301DF028FA88
:1084200098F8003038687340194688F800301DF01D
:108430001FFA95F850A1049B4B4AC5F84C310AF13C
:108440000103DBB2A2FB0312D20802EB8202A3EB10
:10845000420385F85031DFF8488198F80030022B4C
:1084600000F05983344D6B7B032B00F067833F4B47
:108470001B78002B3CD03E4F3B68CBB32B4D1CF000
:10848000DFFCD5F85C31049044F61F62C31A9342B6
:108490002ED995F86231002B01F02283013B85F83B
:1084A000623195F86331002B01F00082013B85F8C1
:1084B000633195F86631002B00F0E486013B85F8C6
:1084C000663195F86A91B9F1000F00F0F58509F170
:1084D000FF3985F86A9195F86B81B8F1000F01F0CA
:1084E000A78408F1FF3885F86B81049BC5F85C31DF
:1084F000204B1B78002B40F0A3821F4B1B78002BD6
:1085000000F094801D4B1B78002B40F094801C4B96
:108510001B78002B3FF470AE044F1A4C1A4D07F530
:108520002B763FE0C5B60020D2B60020F018002020
:108530003F0D0300F4B5002088010020ECB50020B9
:10854000D3B60020E0B60020D0B5002044C70020FC
:1085500067666666A4B3002088E700201F85EB519C
:10856000E0B40020F4330020CDCCCCCCE8B6002021
:10857000ECB6002018B8002010B60020DF4500201F
:10858000F2B60020F8B60020FCB6002064E6002019
:10859000F8B50020ACB30020D4B5002050B00020C6
:1085A000D744002020681DF05FF900283FF424AE76
:1085B00020681DF051F92B78804673B1013B20688B
:1085C0002B701DF051F900283FF416AE20681DF005
:1085D00043F92B788046002BF0D14D4903223046D9
:1085E00058F0F1FF97F8AC1287F8AF82023911F01A
:1085F000FF0100F08C82314432464FF6FF7312F8CF
:10860000010B1B1A91429BB2F9D11A0A1FFA88F882
:108610009045C7D197F8AE22DBB29A42C2D13D480D
:108620004EF000FD2B7818442870BBE73A4B1B78BE
:10863000002B7FF46CAF03984FF0B0FC67E7374E28
:10864000306800283FF43BAE4FF000098DF8789079
:108650001DF00AF930B3324F324D30681DF0FCF88E
:1086600083B27E2B00F022843A7BD6F800C0002A29
:1086700040F0638395F84711002900F0BE811B2B61
:1086800085F8472140F0608360461DF0EDF8002832
:1086900000F0E884306887F80C801DF0E5F80028C9
:1086A000DBD1002020AA1EA94EF05EFF07E61E4B7C
:1086B0001B68002B3FF4B6AD1A4D0399D5F8203155
:1086C0001A4ACB1A93427FF7ADADDFF8689095F860
:1086D0002431D9F80070C5F820110133BE0785F8A0
:1086E000243101F1FC8517F0340F41F0E48595F851
:1086F0002461390701F1688316F0070701F0E08271
:10870000282E01F00B870A4B5E201B68984789E5ED
:108710009D1B00209C1B002041B60020E0B50020DE
:1087200088010020F0180020BCB3002047E80100B9
:108730007CB2002050B00020CF4BD0481B88D049DD
:10874000D04E4F7A3168D04A0533A0FB0303D5F8E9
:108750003001081A4FF47A71DB0801FB07F15FFA68
:1087600083FC00271B0A884282F81EC0D37782F858
:1087700014C053759770177180F0D683C34BC448EB
:108780001B68C44EC449B6F900C00F68DFF84083C7
:10879000896880FB03E6DB17C3EB661303F5FA7306
:1087A0009BB293761B0AD37688FB079388FB0198CC
:1087B000FF17C917C7EBA307C1EBA8010CF5EA43E4
:1087C000DFF810E3177730333F1282F820100912D8
:1087D0001B12B24E9EF800E0577782F8211080FB02
:1087E0000C874FEAEC71C1EB671182F82330AC4B78
:1087F00096F814A083F81AA078310CF1300C1EF012
:10880000020F82F8241082F822C000F04C83D6F8C0
:1088100000E0A44AD6F804C0DFF8BC82DFF8BC92BE
:1088200082FB0E314FEAEE7782FB0C32C7EBA15789
:108830004FEAEC71C1EBA25208FB07E108FB02C84A
:1088400008EB48084FEA480301EB41010493490053
:1088500089FB0138049B89FB03394FEAA943B6F829
:108860000E90B668089607EB870709EBC90907EB76
:10887000870602EB82024FEA89070596079702EB0B
:108880008202049F864E06924FEAA848CA174FEA12
:10889000DE7EBAF1050F86F809E04FEAE77A824EEC
:1088A000A8EB02073A4606FB121205997FB207EBC6
:1088B0008109049FA3EB0A084146794B06FB18780F
:1088C000089F4FEADC7C80FB076E83F80EC04FEAFE
:1088D000E776069B754FDFF808C2C6EB6E1649B205
:1088E00001EB830106F5FA730493079BBCF800C003
:1088F000A7FB03376A4B1E4683F813C0049B89B25B
:1089000083F3100304934FEA112380FB02EA1FFA5A
:1089100089F980FB08E005934FEAE878049BDFF8CB
:10892000C4E186F80A904FEAE272C8EB6010C2EB2D
:108930006A124FEA19284FEA971786F80B804FEA18
:10894000222AC3F30728059B3374BEF800E0F173B5
:108950004FEA20294FEA1C2C4FEA172134BF32235B
:108960003323327386F80DA07074049886F8129041
:10897000707586F81680F771317286F814C0F37638
:1089800086F81CE0039BC5F82C3158E4DFF85881C9
:10899000D8F800001CF068FFC0B201280FD90228E7
:1089A000434F40F042833B78002B41F0C284D5F81E
:1089B000343103997A68CB1A934281F026863D4A76
:1089C0001668002E3FF46FAC99F80030002B7FF44E
:1089D00040AC394BD8F800001B689B781E3B012B3C
:1089E00041F2A284383002214FF022FA0122002302
:1089F00089F8002085F8443152E47D2B01F09F84F2
:108A000095F84A2122B180F02003DBB285F84A11A3
:108A1000B5F8482195F846111A44062992B267D84C
:108A200005EB010E60460131A5F848218EF80830AB
:108A300085F846111CF018FF00287FF40EAE30E6D2
:108A40001E4D2A7832B11E4B1E4918681CF0DCFE00
:108A500000232B701C4E3578002D7CD0DFF88C90D5
:108A6000D9F86030002B40F03182184B039A3470F3
:108A7000C3F8A42241E500BFC0B30020CDCCCCCCCC
:108A800058B2002044C7002010B70020E0B40020F6
:108A90001F85EB51E6B30020D8B3002088E7002003
:108AA0003CB700206BCA5F6B40420F00D34D621091
:108AB00088010020F4B50020F0B50020C4B60020E5
:108AC00014B8002084B600201AB80020F018002046
:108AD00067666666A4B30020806967FF83DE1B4378
:108AE000A6B30020A8B30020ECB5002060B9002098
:108AF000D3B203EB1222FF2A87F80C80A5F8482195
:108B000040F01B8160461CF0AFFE9B48CAE5FF2287
:108B10004FF6FF737AE51CF093F9984B1B68C01A67
:108B200040F6B833984200F21B81954E33793A2BC8
:108B300001F01284002388F8003098E4914B186803
:108B40001CF086FE00283FF492AC022200236A73D8
:108B500088F800308BE48C4C2278002A40F0308179
:108B60008A4C94F82B51002D40F06482884A894940
:108B70001268096891422DD894F82021002A41F00A
:108B80009A8494F82131002B41F0528794F82231D5
:108B9000002B41F09D8794F82331002B41F09687FC
:108BA00094F82431002B41F08F8794F82531002B65
:108BB00041F0888794F82631002B41F08B8794F898
:108BC0002731002B41F0768494F828310825002BBA
:108BD00041F07184704D714CD5F8A4222178704B0E
:108BE00093FBF1F31344039A9A42FFF486AC1146C7
:108BF00095F8A8326B4AC5F8A412D65CF70744D59D
:108C0000DFF8B8819FED688AB8F9023007EE903A34
:108C1000F8EEE77A654B219367EE887A2AAFFDEE8E
:108C2000E77AA3F13D0247F8282D17EE902A91B27A
:108C300040F6C80223F8402C1E2203F83E2C38468A
:108C400037F0F4FBB8F9003007EE903AF8EEE77A27
:108C5000384667EE887AFDEEE77A17EE903A99B2D9
:108C600037F0E4FBB8F9043007EE903AF8EEE77A13
:108C7000384667EE887AFDEEE77A17EE903A99B2B9
:108C800037F0D4FB38464FF023FAB00701F17D8668
:108C9000710701F13D86330743D5444B444F21937F
:108CA0002AAEA3F13D0246F8282D41F2C811022256
:108CB00003F83E2C23F8401C3046396837F09EFB01
:108CC0003046796837F09AFBFB89242101FB03F1D8
:108CD0004FF064083046323191FBF8F189B237F039
:108CE000A5FB3B8A03EB8303590089B2304637F07A
:108CF0009DFB304B304A1B689342A8BF134623EAC2
:108D0000E37393FBF8F303F57A7189B2304637F0D9
:108D10008DFB209B3A7D591C209130461A704FF0F4
:108D2000D7F995F8A8322178013393FBF1F201FBD2
:108D3000123385F8A832FFF7E0BB60461CF094FDC3
:108D400000287FF48AACACE40D2B7FF4A3AC604622
:108D5000A5F848211CF088FD00287FF47EACA0E433
:108D60000D4AB2F8523100210133A2F8523188F88D
:108D70000010FFF77CBB00BFF8180020DC44002087
:108D80009C440020D04A002019B800201CB80020C4
:108D900044C70020E4330020F01800205CB9002014
:108DA000A086010058B9002058A08B4184B600204D
:108DB00088E70020E0B4002020A10700ACB3002029
:108DC000AE4EAF4B0093A6F13F01C827CDE91E166A
:108DD00006F8407CAB4BAC4AAC4920A83BF020F8ED
:108DE0001E9E731C1E9335701E9B2922591C1E91BA
:108DF0001A701E9BEA22591C1E911A701E9B5A1C47
:108E00001E9220A81F7056F0EDF8471C20A93A4684
:108E10001E9857F0CDF81E9AD31901331E93D555DD
:108E20001E9B5A1C1E921D701E9B5A1C1E921D706A
:108E30001E9B5A1C1E921D701E9B5A1C1E921D705A
:108E40001E9B5A1C1E921D701E9B5A1C1E921D704A
:108E50001E9B5A1C1E921D701E9B5A1C1E921D703A
:108E60001E9B5A1C1E921D701E9B5A1C1E921D702A
:108E70001E9B5A1C1E921D701E9B5A1C1E921D701A
:108E80001E9B012299182AA81E911A7050F8303D95
:108E90009B1B33704FF01CF97D4B039A2570C3F870
:108EA000A422FFF72ABB2D22DA766BE530688DF815
:108EB000789085F8469185F8478187F80C901CF0EA
:108EC000D3FC00287FF4C9ABFFF7EBBBDFF8E481EC
:108ED000002550270BE01D44EFF3118387F3128820
:108EE000D9F86020954218DADBB283F3118819F8BB
:108EF00005A0681C5146484400224EF0D1F90AF101
:108F000001030028E7D041463A204EF02BF90AF140
:108F1000010A0443E4B25544DEE70022DBB2C9F89B
:108F2000602083F31188A0E55A4B31681B78C5F89F
:108F30003011013B012B41F2EB82574B1B78013B77
:108F4000012B3FF61BAC162101239170137115E420
:108F50000CF10103614685F8457185F844311CF038
:108F600087FCFFF79DB94D4B1B88DA0501F1F181B4
:108F70005E0601F14683D80701F1EC8313F0020F7E
:108F80000CBF4FF0040A4FF00C0A454A454B1678C7
:108F9000DB7806F001060BB146F0020653204EF0D6
:108FA000C9FA414B1B8803EB8303580080B24EF093
:108FB000A5FA00204EF0A2FA16F086FF3B4BC0EB5C
:108FC000002083FB002303444FEAE079C9EB6329C7
:108FD000B9F1FF0FA8BF4FF0FF095FFA89F94946C1
:108FE00038681CF045FC98F80030386889EA0309B5
:108FF0004AEA0606002188F800901CF039FC314648
:1090000038681CF035FC98F8003038687340DBB2E3
:10901000194688F800301CF02BFC95F850A1FFF79A
:10902000DDB94EF03BFFFFF73BB94EF027FF0123C0
:109030003B70C4E4114B84F82B212AA8A3F13A0217
:109040001B4940F8282D4FF4327223F83C2C43F88A
:10905000401C21934FF03CF80D4B039AC3F8A42217
:10906000FFF74BBA30688DF8788087F80C801CF0D9
:10907000FBFB00287FF4F1AAFFF713BB84B60020A6
:1090800033E30020889D0608909D06089C9D0608F5
:10909000F0180020B2690020D8690020E4B3002055
:1090A000486700204C670020C0B3002003082080E0
:1090B000C8057DEA058105086C4B95F872E1B3F9A6
:1090C0000220B3F90010B3F904309FED696A85F806
:1090D000159007EE103A674B85F814E01B68209353
:1090E0008EF06A0383EA031306EE901AD9B20B09D5
:1090F00083F0D50343EA012383EAC1031BB283EA69
:109100000311C3F307265342C9B207EE903A86EA29
:10911000111646EA0126F8EEE77AF8EEE66AB8EEAE
:10912000C77A86EAC10636B267EE867A66EE866A46
:1091300027EE067A002086F0C80CCDED227ACDED20
:10914000216A8DED237A2490259026900DF18008D8
:109150008CEA0C1CB8E80F005FFA8CFCC6F30726FB
:1091600086EA1C1646EA0C2686EACC06DFF810C111
:1091700036B2ACE80F0086F01E0398E8070083EAD9
:109180000313DBB2C6F3072686EA131646EA032664
:109190008CE807000EF1010886EAC303C822ACF18F
:1091A00010064FF005094FF01E0E41F6FE41AA755C
:1091B00085F86A9185F817E0698206F11C0285F846
:1091C00072812B8216F8011B594081EA0111C9B244
:1091D000080980EA132343EA012383EAC10109B2A3
:1091E0008BB296422B82EDD181F0270181EA0111E9
:1091F000C9B21E0A86EA111686EA012686EAC10667
:1092000036B2B3B24FEA132AF6B2DFF86C902B8273
:1092100085F835A085F8346005F1120C05F13208A7
:10922000DCF80000DCF80410DCF80820DCF80C3076
:10923000CE46AEE80F000CF1100CC445F146EFD15C
:10924000DFF83880BCF80030AEF8003008F12409AF
:1092500085F8BE6185F8BFA118F8011F38681CF0B9
:1092600007FBC145F8D1FFF736B900BFACB300200A
:1092700088C3E43A44C700208C1A00208B1A0020CF
:1092800008190020DFF85893D9F800301922980601
:1092900085F866217FF515A9CB4BCC4E1B78990735
:1092A00041F14E82337D042B8CBF4FF0030A4FF007
:1092B000020A1BF0C5FD338AB268209003EB8303DA
:1092C0005B00ADF89A3002EB820233682293F18999
:1092D00096F814C073688DF89DC020A852004FF016
:1092E00000084FF0FF3ECDF894E08DF89CA024924A
:1092F0002393ADF89810CDF8848084460590BCE89F
:109300000F00DFF8D8E2AEE80F009CE80F00AEE8EF
:1093100007007146182221F81C39069195F8721140
:10932000EA7581F0780383EA0313DAB2130983F054
:10933000F60343EA022383EAC2031BB283EA031261
:10934000D2B2C3F3072383EA121343EA022383EA68
:10935000C2031BB283F0C80282EA0212D2B2C3F384
:10936000072383EA121343EA022383EAC2031BB2F0
:1093700083F0180C8CEA0C1C5FFA8CFCC3F30722F8
:10938000481C82EA1C1242EA0C2285F872010698F7
:10939000297582EACC0CC82341F6FE62014685F8A5
:1093A0001580A5F810C01E306A82AB7511F8013B1C
:1093B00083EA0C0383EA0313DBB21A0982EA1C2254
:1093C00042EA032282EAC3031BB21FFA83FC8142F2
:1093D000A5F810C0EAD183F0180383EA0313DBB2C7
:1093E0004FEA1C2282EA131282EA032282EAC303B2
:1093F0001BB29AB276492A82DBB2120A07910A920C
:10940000099385F8372085F836308A4605F1120C25
:1094100005F13208DCF80000DCF80410DCF8082064
:10942000DCF80C30D646AEE80F000CF1100CC44549
:10943000F246EFD1674B0893DCF80000CEF800004D
:10944000099A85F8C0210A9A85F8C12103F12608F6
:109450009A461AF8011F38681CF00AFAD045F8D16C
:109460001BF0EEFCB1688046D9F8000001EB8101E9
:1094700010F0140FD6E900324FEA410601F0918155
:109480005549096801EB81014900CDE90A21099399
:109490004DF0E4FF95F872A1ADF89A008AF06A00E9
:1094A00080EA00105FFA80FC4FEA1C1080F0D500C3
:1094B00040EA0C2080EACC0000B280EA001C5FFA8F
:1094C0008CFC0A9A0B99099BCDF88080C0F3072089
:1094D0004FF0000980EA1C10CDE92226CDE92419BD
:1094E00040EA0C2080EACC00DDF814C02193ADF8EE
:1094F000989006B2BCE80F0086F0C80888EA081801
:109500005FFA88F8DDF818E085F81590C6F30726AD
:1095100086EA1816AEE80F0046EA08269CE807001F
:1095200086EAC80636B286F0210383EA03138EE882
:109530000700DBB2294A0692C6F3072686EA13160D
:109540000AF1010246EA032185F814A085F8722188
:10955000224A81EAC303212641F6FE40C8219446EF
:109560002B821C32EE756882A9751CF8011B5940CC
:1095700081EA0111C9B2080980EA132343EA0123F1
:1095800083EAC10109B28BB294452B82EDD181F0FF
:10959000680181EA0111C9B21E0A86EA111686EA3B
:1095A000012686EAC10636B2B3B24FEA132AF6B2F2
:1095B000DFF81C802B8285F835A085F8346005F132
:1095C000120C05F132090DE0A4B3002088E7002059
:1095D0008C1A00208B1A0020E0B40020081900200B
:1095E00050B00020DCF80000DCF80410DCF80820A3
:1095F000DCF80C30C646AEE80F000CF1100CCC4580
:10960000F046EFD1BCF80030AEF80030079B85F88B
:10961000BE61089E85F8BFA103F1230816F8011F5B
:1096200038681CF025F9B045F8D19E4A95F872C10A
:10963000DFF8748285F814C0D2E9002321938CF0FE
:10964000EB0383EA0313D9B20B0983F0C50343EAA2
:10965000012383EAC1031BB283EA0311C9B2C3F336
:10966000072383EA111343EA012383EAC1031BB2F0
:1096700083F0C80686EA0616F6B24FF0000E209276
:10968000C3F30723059ACDF888E083EA161307CAC7
:1096900043EA062383EAC6030FFA83F9069B85F89B
:1096A00015E089F0310683E8070086EA0616F6B26F
:1096B000C9F3072383EA161343EA062383EAC603A2
:1096C0002E7E687EA97EEA7E1BB25E4086EA061682
:1096D000F6B2C3F3072383EA161343EA062383EAA9
:1096E000C6031BB2584080EA0010C0B2C3F3072380
:1096F00083EA101343EA002383EAC0031BB25940F4
:1097000081EA0111C9B2C3F3072383EA111343EAC3
:10971000012383EAC1031BB25A4082EA0212D2B289
:10972000C3F3072383EA121343EA022383EAC20343
:109730002E7F687FA97FEA7F1BB25E4086EA06160D
:10974000F6B2C3F3072383EA161343EA062383EA38
:10975000C6031BB2584080EA0010C0B2C3F307230F
:1097600083EA101343EA002383EAC0031BB2594083
:1097700081EA0110C0B2C3F3072181EA101141EA66
:10978000002181EAC00109B24A4082EA0212D2B243
:10979000C1F3072383EA121343EA022383EAC203D5
:1097A00095F8206095F8210095F8221095F823206F
:1097B0001BB25E4086EA0616F6B2C3F3072383EABD
:1097C000161343EA062383EAC6031BB2584080EA15
:1097D0000010C0B2C3F3072383EA101343EA002347
:1097E00083EAC0031BB2594081EA0111C9B2C3F335
:1097F000072383EA111343EA012383EAC1031BB25F
:109800005A4082EA0212D2B2C3F3072383EA121348
:1098100043EA022383EAC2031BB283F0270686EAE7
:109820000612D2B2C3F3072686EA121646EA0226C9
:1098300086EAC20636B2B2B20CF101034FEA122E2A
:10984000F6B24FF0310C40F6FE40C82185F8723177
:109850002A8285F8246085F817C0688285F825E09B
:10986000A975D8F80C30D8F80000D8F80410D8F84A
:109870000820B8F8109008F5C57CACE80F00079BED
:10988000ACF8009085F8AE61089E85F8AFE103F171
:10989000130816F8011F38681BF0EAFFB045F8D12D
:1098A000FEF70FBEF4330020021900208649874AD4
:1098B0008978126809920A2285F86321002900F04C
:1098C0007C86834A012910880A9041F228835088B7
:1098D0000890022900F0428790880790032901F040
:1098E000DB83D0880690042901F0D083108905908D
:1098F000052901F0C6830629B2F80A9001F0BD835C
:109900000729968901F0E282B2F80E8016F0DCFA9F
:1099100095F872A1099B20938AF0300383EA031320
:10992000DBB21A096B4985F814A082F07A02C0EB09
:10993000002042EA032282EAC30381FB00210144A2
:10994000C217C2EB61220A994FF0000E61F30F0EAD
:1099500007994FF0000C61F30F0C059900201BB222
:1099600061F30F00002166F30F0183EA0316C3F3CE
:1099700007230593089B63F31F4E069B69F31F4063
:1099800063F31F4C68F31F41059BCDE921ECF6B250
:10999000CDE92301FF2A83EA1613A8BFFF224FF067
:1099A00000098DF895208DF8949043EA062C0DF16E
:1099B0008008B8E80F008CEAC60636B286F0C80EFA
:1099C000DFF814C18EEA0E1E5FFA8EFEC6F307267C
:1099D000ACE80F0086EA1E1343EA0E2398E8030062
:1099E00083EACE031BB283F023024CF8040B82EA15
:1099F0000210C0B2C3F3072282EA101242EA002228
:109A00002CF8141982EAC0000AF1010A232641F257
:109A1000FE62C82385F872A128820CF1160185F830
:109A20001590EE756A82AB751CF8013B434083EAE2
:109A30000313DBB21A0982EA102242EA032282EA05
:109A4000C3031BB298B28C452882EDD183F0F40396
:109A500083EA0313DBB2060A86EA131686EA0326B4
:109A600086EAC306A84636B21FFA86F958F8120FDE
:109A7000DFF868C0A5F810904FEA192EF6B285F805
:109A80002E6085F82FE0D8F80410D8F80820D8F810
:109A90000C30ACE80F00D8F81000D8F81410D8F843
:109AA000182005F2B919ACE8070005F29B1885F8F3
:109AB000B9E185F8B86118F8011F38681BF0D8FEC5
:109AC000C145F8D1FEF7F5BC48E6002044C70020A8
:109AD00018E8002003082080081900208C1A0020B4
:109AE000C74B1A6802F00803002B48F603414AF6F8
:109AF0000B404BF60F4349F6074604BF03460E469C
:109B000012F0040F18BF1E469306BE4B1B7848BFC9
:109B100046F480464FF0190148BF46F02006022B5C
:109B200085F8621140F2B28564204FF0FF3A4FF0A1
:109B3000000995F87281209688F0F10282EA0212FB
:109B4000D2B2130983F0E703C6F3090143EA022303
:109B5000CDE9216183EAC2034FF0000E1EB2ADF8D9
:109B60008E90ADF890A08DF89E00ADF88CE0CDF809
:109B700092E0CDF896E0CDF89AE086EA06190DF16C
:109B8000800CBCE80F005FFA89F9C6F3072686EA65
:109B9000191646EA092686EAC906DFF8889285F88A
:109BA00015E0A9E80F0036B29CE80F0086F0C80C5B
:109BB0008CEA0C1C5FFA8CFCC6F3072686EA1C169E
:109BC000A9E8070046EA0C2181EACC0109B281F03C
:109BD000010080EA001029F8023BC0B2C1F307225D
:109BE00082EA10121B0C09F81E3942EA00220126F3
:109BF00082EAC00041F6FE71C82208EB06036982C2
:109C0000EE75AA7509F11F0185F81480288285F880
:109C1000723119F8013B434083EA0313DBB21A099E
:109C200082EA102242EA032282EAC3031BB298B2FC
:109C300089452882EDD183F07C0383EA0313DBB2EC
:109C4000060A86EA131686EA032686EAC30636B2B1
:109C5000B3B24FEA132AF6B2DFF8CC912B8285F823
:109C600038A085F8376005F1120C05F13208DCF8F0
:109C70000000DCF80410DCF80820DCF80C30CE46DC
:109C8000AEE80F000CF1100CC445F146EFD1DCF842
:109C90000000CEF80000DFF894819CF804308EF8C4
:109CA000043008F1270985F8C16185F8C2A118F8C8
:109CB000011F38681BF0DCFDC145F8D1FEF7F1BB90
:109CC000FF2030F05BF9002800F03E850378FF2B81
:109CD00000F03D8590F9011002204EF0FBF8FF20C6
:109CE00030F04CF9002800F065840378FF2B00F079
:109CF0006184B0F90C304449444A897E03EB830304
:109D000003EB830349089B0093FBF1F382FB0312EF
:109D1000D917C1EBA20109B23D4F03204EF0DAF88A
:109D20007B7A002B40F0E884D9F800309A0640F1A5
:109D300056844FF400504EF005FA002840F0348568
:109D4000344E4FF480604EF0FDF9002840F07286EA
:109D5000718A95F82421337DB1F5967F08D902F0F8
:109D60000F02072A04D842F20F738B4228BF0B461A
:109D7000294FFA79CAB1203B07EE903A9FED277A36
:109D8000F8EEE77AF6EE006A67EE877ABEEE007AC2
:109D9000F5EEC07AF1EE10FA58BFB0EE667A77EEC3
:109DA000877AFDEEE77A17EE903A052019B24EF069
:109DB00091F84FF480504EF0C5F9002840F013851B
:109DC00095F82461FEF79CBC4FF400704EF0BAF990
:109DD00000283EF491AC16F003077EF48DAC104AD7
:109DE0000A23B2F9041091FBF3F114204EF072F83B
:109DF00039461C204EF06EF895F82461FEF77CBCC5
:109E000050B00020C8B4002078BC002067666666A9
:109E100080B2002088E7002058B20020E4380E3FCE
:109E2000ACB30020081900208C1A00208B1A0020E7
:109E3000894B1B68052285F86B219A0603F01401F3
:109E400040F1C583854BDFED867ADA8908EE902AEA
:109E5000F8EEE88A68EEA78A002900F0F385814BC6
:109E6000DFED7F7A93ED008AB8EEC88A28EE278A64
:109E70004DF0F4FA95F872917B4BADF89000B3F980
:109E800006607A49CDED218A89F0220383EA031323
:109E9000DAB21309B6F5FA6F83F05903A8BF4FF48D
:109EA000FA6643EA022383EAC203B6F57A7F1BB25D
:109EB000B8BF4FF47A76A6F57A7C83EA0312642061
:109EC000D2B2C3F3072600FB0CF386EA1216A1FBFD
:109ED00003134FF0000E20A946EA0226C3F38F13A6
:109EE000CDF880E0CDF88CE08DED228A86EAC206BE
:109EF000ADF892308A4636B20591BAE80F0086F086
:109F0000C80C8CEA0C1C5FFA8CFCC6F30726DFF841
:109F100074E1DAF800A085F8149086EA1C16AEE821
:109F20000F0046EA0C2686EACC0212B282F04A03FF
:109F300083EA03137146DBB2C2F3072282EA1312EB
:109F400041F810A942EA032282EAC30309F1010998
:109F50004FF04A0E41F2FE4C0026C82006910A46F8
:109F600085F872912B82143185F817E0A5F812C09C
:109F70006E75A87512F8010B584080EA0010C0B247
:109F8000060986EA132343EA002383EAC00000B2ED
:109F900083B28A422B82EDD180F0140080EA001057
:109FA000C0B21E0A86EA101686EA002686EAC006B5
:109FB000A94636B21FFA86FC59F8120F2C4B0793AC
:109FC000F6B24FEA1C2E85F82C6085F82DE0D9F802
:109FD0000410D9F80820D9F80C30A5F810C0DFF823
:109FE00090C0B9F818A0ACE80F00D9F81000D9F863
:109FF0001410ACE8030005F29B19ACF800A085F83A
:10A00000B661CA4685F8B7E105F2B7161AF8011F1E
:10A0100038681BF02DFC5645F8D1164B164A1B78B4
:10A020001278013B12F00101DBB214BFC0224022C2
:10A03000172B03D81148034493F83881104B1B8821
:10A040009B071ABF42F0100200230123002940F0B1
:10A050002C83032018E000BF50B0002088E70020C8
:10A060000AD7233CE0B4002018E80020D34D62104A
:10A070008C1A00202C48002048670020A0160608F3
:10A08000E4B300200819002095F872A120938AF00B
:10A09000460383EA0313D9B20B0983F0920343EA20
:10A0A000012383EAC1031BB283EA0311C9B2C3F3DC
:10A0B000072686EA111646EA012686EAC10636B266
:10A0C00086F0C80C8CEA0C1C5FFA8CFC00238DF81F
:10A0D00086200321059A8DF88480C6F307268DF823
:10A0E00085308DF887008DF8881086EA1C1607CA1F
:10A0F00046EA0C2686EACC0636B2DDF818E0EB75A7
:10A1000086EA061CAEE803005FFA8CFCC6F3072162
:10A1100081EA1C1141EA0C2181EACC0195F818C0B2
:10A120008EF8002009B28CEA010C8CEA0C1C5FFA54
:10A130008CFCC1F3072282EA1C1242EA0C226E7EDA
:10A14000A87E95F81FE06B7582EACC0212B25640E9
:10A1500086EA0616F6B2C2F3072181EA161141EA31
:10A16000062181EAC60109B2484080EA0010C0B267
:10A17000C1F3072282EA101242EA002282EAC002F8
:10A1800095F81BC02E7F687FA97F85F814A012B2B6
:10A190008CEA020C8CEA0C1C5FFA8CFCC2F30722DE
:10A1A00082EA1C1242EA0C2282EACC0212B2564027
:10A1B00086EA0616F6B2C2F3072282EA161242EACD
:10A1C000062282EAC60212B2504080EA0010C0B2F3
:10A1D000C2F3072282EA101242EA002282EAC00297
:10A1E00012B2514081EA0111C9B2C2F3072282EAD8
:10A1F000111242EA012282EAC10212B28EEA020E72
:10A200008EEA0E1E5FFA8EFEC2F3072282EA1E124B
:10A2100042EA0E2282EACE0295F820E0D34E13B233
:10A220008EEA030282EA0212D2B2C3F3072383EA60
:10A23000121343EA022383EAC2031BB283F0320201
:10A2400082EA0212D2B2C3F3072383EA121343EA6B
:10A25000022383EAC2031BB299B240F6FE18C8205B
:10A260004FEA112C0AF10102DBB2A5F81280A875A1
:10A2700085F8722185F822C085F821303068B268EF
:10A2800029827168B6F80CA006F5C57607C6079A4C
:10A2900086F802E0A6F800A002F1100885F8ACC12B
:10A2A00085F8AB3119F8011F38681BF0E1FAC84591
:10A2B000F8D1FEF71AB94FF400604DF043FF28B112
:10A2C000AB4B3020B3F900104DF004FE95F824613B
:10A2D000B00700F0F181D9F80070FEF70ABA7020DB
:10A2E0004DF030FF00283EF4FEA9A24F2426A7F12E
:10A2F0005008B7EC017AD8ED007A67EE277A30463D
:10A30000FDEEE77A013617EE903AC3EB431103EB0B
:10A310008103D90009B2F6B24DF0DCFD272EE8D159
:10A32000D9F80070FEF7DFB902211BF08DFAFEF7B5
:10A330005DBB039BC5F834313E70FEF740BB604601
:10A3400085F84A811BF090FA00287EF486A9FEF772
:10A35000A8B9B246FEF719BEB178304616F016FF1E
:10A3600000287EF4E7AB844B18681BF07DFA0028C8
:10A370007EF478A8814F824DF378BA7B059395F8E7
:10A3800054310493042307927B73002A00F0548411
:10A39000FE7B7C4BDFF814A20136F6B206EB4609D1
:10A3A00003EB8909F3B2152B31465046FB7306F1D6
:10A3B000010600F28E853AF029FD28B999F8083097
:10A3C000FF2B09F10C09EDD1FB7BDFF8C8911A4690
:10A3D0006D4B06920C2606FB0236716A0891084600
:10A3E00054F000FEB36A0793C6B2184654F0FAFD63
:10A3F0005FFA80FA069B089906EB0A02083203F01E
:10A400000F0C0AEBC60089F8072023F00F0289F829
:10A410000A2089F80DC0324689F80E0009F10F00B4
:10A4200055F0C6FD079B06F10900194609F1060320
:10A430005246184455F0BCFD99F8072002F1010A74
:10A44000C2B1013A09F1070E504B5EFA82FE09F1E2
:10A450000606002216F8011F51408A00C80882EA49
:10A46000410200F018004A4043FA00F14A40B64564
:10A47000D2B2EFD1464B05980AF8032053F0E6FB21
:10A48000BB7B013B5FFA83FA87F80EA0BAF1000F9D
:10A4900000F06483049E384B99F8022018683D4907
:10A4A0001BF0B2F9032385F854617B7388F8003000
:10A4B000FDF7DDBF0725384B94F82A2121932AAFF9
:10A4C000A3F13901A3F1400647F8281DC821101D4A
:10A4D00003F8401C4FF4E4734EF67D2170707180D8
:10A4E000384602FB0541B380B57135F07DFF209BF6
:10A4F000721C9B1A737038464DF0EAFD6319204AAE
:10A50000002183F82011039BC2F8A432FDF7F5BFA8
:10A510001021022391701371FEF730B91F4A204BAE
:10A520001668204FA3FB06239B0BA7FB03214909B9
:10A53000C1EB0111A3EB8103190209B2002317201B
:10A5400085F824314DF0C6FC174BA3FB06239B096D
:10A55000A7FB03125209C2EB0212A3EB820319B24A
:10A5600018204DF0B7FCFEF7CEB800BF021900204E
:10A57000E6B30020AC2A0010D04A00208801002059
:10A58000F0180020C4160608A01606080007090ED9
:10A5900066E7002060E7002084B6002044C7002062
:10A5A00073B2E74589888888D34D6210E4B50020EE
:10A5B000000000000021FFF7AFBB0E468946CDE941
:10A5C0000511CDE907110A918846FFF79FB95FEDA4
:10A5D000088A00297FF443ACB0EE688A48E4190782
:10A5E0007FF5EEABB94B93E8030020AB83E80300A3
:10A5F00018464DF087FCFFF7E3BB01230593FDF7F9
:10A60000B6BE4FF0100AFEF7C0BC0126D8F8000015
:10A610003E701BF021F90490D8F800001BF01CF9E3
:10A62000049B5A06824600F0A180802800F0238215
:10A630007F2B7EF4C4A9A64A1378002B00F0BA84BD
:10A640000AF0F003E02B7EF4BAA995F83D21A14E63
:10A650000AF00F0A002A00F08F840022737085F838
:10A660003D219D4F3B78002B00F0C484AAF1070ADE
:10A67000BAF1070F00F2BA84DFE81AF0E004B80478
:10A68000B104B804F104B804ED044304934A537AC6
:10A69000927A002B40F0B981002A40F02084914644
:10A6A00064204FF0FF3AFFF744BA8D49C97800297A
:10A6B0000CBF04200520E7E44FF480604DF042FD1C
:10A6C00000283FF408AE874A874B1768D5F8202149
:10A6D0004FF064089A4298BF0027102097FBF8F6C5
:10A6E00031B24DF0F7FB08FB167109B221204DF095
:10A6F000F1FB95F82461EEE501204DF023FD0028E3
:10A7000040F09D80BB7A002B3FF40EAB02204DF051
:10A7100019FD002840F0318204204DF013FD00287F
:10A720003FF402ABBB89002B40F037826F4B996836
:10A7300081F3100109B204204DF0CCFBFFF7F4BA0D
:10A740004FF0010AFEF7B5BD0146FFF7C5BA39461D
:10A75000FFF7C2BA4FF0080AFEF717BC1E4699462B
:10A76000CDE9053307939846FFF7D0B8584B1A78D0
:10A77000002A40F08581BAF18A0F00F06B81BAF1AE
:10A780008E0F7EF41CA999F80030002B7DF45EAD8D
:10A79000574A584B13602D2385F83C311668FEF755
:10A7A00013B93146FEF771BE534B1B789B0700F17E
:10A7B000A3814FF480604DF0C5FC504E00283FF45B
:10A7C000C7AA4FF000084FF06409012098FBF9F781
:10A7D00039B24DF07FFB09FB178109B209204DF01A
:10A7E00079FBFFF7B5BA444B1A7800239007CDE9FF
:10A7F0001E3300F15B8195F82831012B00F0568162
:10A80000B7F90030DFED3E6A07EE103AB7F90230D3
:10A8100007EE903AB8EEC77AF8EEE77A27EE267A96
:10A8200067EEA67ABDEEC77AFDEEE77A20A88DED39
:10A83000207ACDED217A4DF065FBFFF7C1BADFF844
:10A84000CC80304E98F80020002A40F0B4811346A6
:10A85000110189B241EA0321C3F30323194309B269
:10A860000620A5F826214DF035FB2748B5F826111E
:10A870003388067A98F80020C07A0131012E03F15E
:10A8800005034FF00A0CA5F8261193FBFCF399B2CF
:10A8900000F0878101EB81039EB210B10AB196FBF3
:10A8A000F2F64FF0640A3A20B6FBFAF80FFA88F194
:10A8B0004DF010FB0AFB186189B20A2305313B20D9
:10A8C00091FBF3F109B24DF005FB1BE7BC1606083E
:10A8D000133B002068B70020FBB5002080B20020A9
:10A8E0004C670020E0B400203F4B4C00D8B3002060
:10A8F000F4B5002010B70020A4B3002088E70020A2
:10A900000050C347C0B3002058B20020C6B3002097
:10A91000B14BDFF820832193C82223F8402C98F80C
:10A920000020A3F140073D3B2093D2074FF02103C5
:10A93000BB7040F10281A94B1B88580500F1CC8007
:10A94000190500F1F880DA0500F1F380D80700F16D
:10A950009283990740F18783A14920AB184605935C
:10A9600035F032FD98F80030DA0740F11081209B75
:10A970009C4A0598591C209100211970209B9B1A14
:10A980007B704DF0A5FBFEF786B9934B964A97492D
:10A99000D27A219340F6C82023F8400C082003F80F
:10A9A0003E0C3D3B20930B88002A40F0978020A866
:10A9B00005330A2193FBF1F189B2059035F036FD9C
:10A9C000DDF814808A4F0A223B6893FBF2F340467D
:10A9D00099B235F02BFD2FF089FFBF68209B3A0C10
:10A9E000591C20911A70209B3A0A591C20911A7008
:10A9F000209B5A1C20921F70209B5A1C209218707A
:10AA000040464DF065FBFEF743B9784B1B8803EBDE
:10AA100083034FEA43091FFA89F9002A00F066828E
:10AA2000734BB3F900A02FF061FF40B2FFF781B87C
:10AA3000012540E56F4B1B789F077FF5C2AED6F826
:10AA40000880C0E693ED028AB8EEC88A28EE278A0D
:10AA5000FFF70EBA684B1B689E067DF5B0AF99F8FC
:10AA60000030002B7DF4F2AB644A654B13602D235C
:10AA700085F83C3192E6634B1A78002A3DF49FAF8B
:10AA8000D5F83821002A08DD5F480A2AB8BF0A2213
:10AA90000021C0F89024C5F838114FF47A6240F6CE
:10AAA000B8317A600022B9601A7064E6D6E90023F2
:10AAB00001211EA885F82811CDE91E234DF022FAA8
:10AAC000FFF77EB90525F6E40425F4E40325F2E456
:10AAD0000225F0E40625EEE44C493EE74C4A20A866
:10AAE000117893FBF1F10A23053191FBF3F189B25F
:10AAF000059035F09BFC63E7464E474BF1894FF4D8
:10AB0000F36707FB01F1112091FBF3F109B24DF05E
:10AB1000E1F9F389642107FB03F393FBF1F393FB62
:10AB2000F1F201FB123109B219204DF0D3F9FFF710
:10AB300008B93A4911E73A490FE73A4B1B68D3B9CC
:10AB4000DBF800301B067FF5F6AE2A4B1B7803F0CE
:10AB50000303032B3FF4EFAE3349FEE6DBF800308E
:10AB6000324A190616787FF596AC50464DF052F9E8
:10AB700087F810A08FE42E49EFE61D4A0A231168DA
:10AB800091FBF3F1282009B24DF0A4F9C4E5209B14
:10AB90002A22591C20911A70E9E62FF0A7FE01B273
:10ABA000C9E518B112B193FBF2F399B209B2392099
:10ABB0004DF090F9A6E5B5F82601338890FBF2F147
:10ABC0004FF0640C02FB11010CFB032350008AB20E
:10ABD000B3FBF0F33CE600BF84B60020E4B30020F2
:10ABE000789D060845B6002058B20020C0B300206A
:10ABF000D8B30020A4B3002050B00020F4B500204A
:10AC00003CB70020133B0020A81100205C9D0608E3
:10AC1000C6B3002088E70020A0860100689D0608D2
:10AC2000649D0608F8B40020549D0608E8B500208D
:10AC30004C9D060848670020BD4BBE4E1A8B93ED15
:10AC4000167AD3ED157A93ED145ADFF81CA37168C8
:10AC5000DFF818E3D6F800C0B748BEF800E0DFED33
:10AC6000B75ADFF80C9306EE102AB54A13689268BB
:10AC70001D92B2681792328A1692F2891392327D2F
:10AC80000E92BAF900201592B8EEC66AAD4A069344
:10AC900012881492C7EE066AAB4AAC4BB2F9002098
:10ACA0000D92B3F904200C92B3F902200B92B3F980
:10ACB00000200A92A64A12681C9287EE867A4A14ED
:10ACC0000029B8BF49428CEAEC7302F480424FEA93
:10ACD0006C46A3EBEC7342F40052B1FBF0FC00FBBA
:10ACE0001C1106F4804A099142EA0C02C5EE067A6C
:10ACF000B3FBF0F100FB113304984AEA010192B270
:10AD0000062600F0F00C89B21092099A12910CF10B
:10AD1000100A66EEA56A4FF47A7106FB03F30698F3
:10AD2000B3FBF1F39BB2CDF820A006FB02F2119326
:10AD3000B2FBF1F2FDEEE66A93B20EFB00F00F9368
:10AD40000EF1050E90FBF1F327EE257A09930A2305
:10AD50009EFBF3F31B939DF82030089316EE903A78
:10AD6000BDEEC77A1BB267EEA57A1A9317EE103ABA
:10AD7000FDEEE77A1BB2199317EE903A049E89F81C
:10AD80000AC01BB209F10D0A18933046089B834292
:10AD90005ED9704B0C2202FB0032431E92F82C60ED
:10ADA00046EA00128AF800200AF10101142B00F291
:10ADB000A681DFE813F0A201A0019E019C019A0187
:10ADC0009801960194019201900187017E017C0116
:10ADD0007A017801A401A400A200A0009E00150041
:10ADE0001A9B5C4A324492F82C21012A0DD9023A6E
:10ADF000D2B202F1020CE2448C460CF8013BD4457D
:10AE00004FEA1323F9D101321144092EDBB201F1CB
:10AE1000010A08D04F4A0C2606FB002223F06003EB
:10AE200092F82D2013430B704CF0DAFF4A4BAAEB3B
:10AE30000302049B83420BD246490C2303FB0013FD
:10AE400093F82C300B4493F82C311344102B9DDDD8
:10AE5000414BDFF820E1AAEB03010631C9B241F012
:10AE60004003064689F8073001F1010A0020079BDC
:10AE700012E09CF807C083EA0C0C4FEA8C034FEAFF
:10AE8000DC0283EA4C0302F0180283EA0C034EFA58
:10AE900002F253400130DBB2C2B2914209EB000C26
:10AEA000E7D82E4A05980AF8023052F0CFFE3B7CD4
:10AEB000002B7FF4F0AA2A4B1B689A067FF5EBAAB9
:10AEC0004CF082FF01233B74FFF7E5BA9846FEF78A
:10AED0001DBD162B04BF0023FB73FFF775BA184A7C
:10AEE0009946B2F900A06420FEF723BE4FF0FF3A66
:10AEF00099E5199B75E7189B73E7179B71E7169BFC
:10AF00006FE7042054F082FF99F80030002B7DF4A5
:10AF10009DA9144AAD23166085F83C313EE41E46D7
:10AF20009946CDE90533CDE907339846FEF7EEBCE7
:10AF30005C2A001088E700208096980000007A4480
:10AF4000D8B30020A6B30020E6B30020ACB30020A5
:10AF5000E0B40020A01606086DE7002066E7002098
:10AF600050B00020F4B50020A8B30020C0B30020EA
:10AF700060E700200007090E7378012B7FF471ABA6
:10AF8000AAF1070A85F83D31BAF1070F2ED801A3BF
:10AF900053F82AF031B00008EDAF0008DDAF00082B
:10AFA000EDAF00085FB00008EDAF000857B0000833
:10AFB00003AF000820A8049254F0BCFF5148049A43
:10AFC0004FF47A7341F28831C0F89034BB60239B10
:10AFD0001670C5F838317960FFF732BB4A4F3B78BD
:10AFE00023B14A4B012118680CF0C6FB002054F035
:10AFF0000DFF89E74648AAF1070A0CF0C2F80BF0EA
:10B00000B1FA7378BAF1070FF0D801A252F82AF01A
:10B0100045B00008EDAF0008DFAF0008EDAF000855
:10B020005FB00008EDAF000857B0000803AF00089C
:10B03000032054F0EBFE0BF095FA65E7032054F083
:10B04000E5FE61E70320049354F0E0FE049B012B2E
:10B050007FF45AAFEFE7022054F0D8FE54E7012006
:10B0600054F0D4FE50E72B4B2B491A782B4B002A77
:10B0700008BF194671E42A496FE41E469846FEF758
:10B0800045BC1E4699469846FEF740BC1E4699466A
:10B0900005939846FEF73ABC1E469946CDE905331E
:10B0A0009846FEF733BC159B9BE6149B99E6139BD1
:10B0B00097E6119BA5F85831129BA5F85A31D5F89F
:10B0C00058318EE60F9BA5F85831109BA5F85A31E0
:10B0D000D5F8583185E60E9B83E60D9B81E60C9BE7
:10B0E0007FE60B9B7DE60A9B7BE6099B79E61D9B31
:10B0F00077E61C9B75E6069B73E61B9B71E64FF09B
:10B10000FF336EE6A8110020FBB50020FCB500203F
:10B1100000B70020ECB40020849D06087C9D060842
:10B12000709D06082DE9F047A94ED6F8B05246F2B8
:10B13000A713451B9D422DED028B03D8BDEC028B5E
:10B14000BDE8F087A34BC6F8B0021C6814F00402F7
:10B150007FD1104614F0200438D19FED9F8AA64677
:10B16000A4469E499E4B09781F7811F0010141D1F8
:10B17000002F66D0D6F8C0721970D6F8C432C71B3B
:10B18000ACEB0308002C3FD1002A40F0AF80954B78
:10B190001B780E2BD2D1DFED947A944B944918880A
:10B1A00028EE278A0022BDEEC88A134618EE104A00
:10B1B000BDEC028B64F30F0268F30F0367F31F42C9
:10B1C00060F31F43C1E90023BDE8F087894B1C7879
:10B1D00014F0020400F085808749884C4B8AD1F82E
:10B1E00008C0B4F900E0002B40F0BE809FED7A8AE1
:10B1F0000124B6E72FBB0121B846C6F8C002C6F845
:10B20000C4C21970002CBFD096F8C8327AB1002B96
:10B2100000F0C280022B0DD0012BB8D8784B294604
:10B2200038461F6047F0C8FE704B1880AFE713F038
:10B23000FD0FACD1724A6D4BC2F80080A3F800E05C
:10B24000A5E7D6F8C012D6F8C432471AACEB03080B
:10B2500098E7DFF8CCA1DFF8CC819AF80630B8F88F
:10B260000090D6F8B472013BB7FBF3F7B9F1000FC9
:10B270003FD0644A9FED640A5369002B1946B8BF5A
:10B28000D91DA3EBE1031F44002F3B46B8BFFB1DB4
:10B29000DB1007EE903AF8EEE77A576127EE800A66
:10B2A00035F0F4F8DFED597A20EE270A35F034F95D
:10B2B000F7EE007A77EEC07A9FED550AD6F8BC32E9
:10B2C00067EE807A9F42FDEEE77AC6EDAE7A5DD0FA
:10B2D00009F1FF390022A8F80090C6F8BC721046A8
:10B2E00038E79FED3D8AA646A4463AE796F8C8326D
:10B2F00092E707EE907A9FED440A464FF8EE677AA0
:10B30000B7EE008A27EE800A35F0C0F8DFED3F7A0D
:10B3100020EE270A35F000F9DFED3D7A38EE400ADD
:10B3200020EE270A54F022FFBAF80830DFED3A6A1F
:10B3300007EE103AD6F8B832C01AB8EEC77A07EE60
:10B34000900AA7EE668AB8EEE70AD7ED0D7AF8EE16
:10B35000E77A20EE080A67EEA67AA7EE270A54F0ED
:10B3600005FF01227863F5E607EE903ADFED1E6AED
:10B370009FED2A7AF8EEE77A86EEA78AB4EEC78ABE
:10B38000F1EE10FA88BFB0EE478A31E700231A4683
:10B39000A8F800301846DDE6F7EE007A37EEC87AF6
:10B3A00007EE907AF8EEE77A154B67EE877A07EEAC
:10B3B000108AB8EEC77A2946E7EE087A3846FDEEDD
:10B3C000E77AC3ED007A47F0F7FD084B1880DEE618
:10B3D000F018002050B000209A99993E486700204C
:10B3E0004036002061BC00200000C842E6B30020C7
:10B3F00064BC0020A4B3002088E7002008340020AB
:10B40000E0B40020880100200894253741D3423E53
:10B41000D048874A54B000206F12833A6666663F70
:10B42000D0BB002096530020574B1B685B0700D40D
:10B4300070472DE9F04F554D554C2A78237E372A19
:10B4400008BF544A83B008BF1380042B7CD8DFE8C0
:10B4500003F07369615503004F4FFB6A3846984704
:10B4600000284FD04D4E3B6B06F5337106F5347016
:10B4700098474B4BD6F8D4A2D6F8D8229879D6F86C
:10B48000D0B2D6F8CC32C7F83CB00AF10109511C51
:10B49000814508BF4FF000090329BB63D6F8B48289
:10B4A0005FD04048C6F8D81296F8DC1240F822B0B7
:10B4B00000295FD1584606EB8A0A06EB8902CAF8D2
:10B4C000E002397CD2F8E0C22A78C6F8D49200298A
:10B4D000A8EB0C080CBF052102214044372AC6F80E
:10B4E000B402217604D12B4A5380A2F804B0D08054
:10B4F0007B8A002B43D103B0BDE8F08F2648836AD6
:10B50000984748BB4FF47A73274A1268136103B017
:10B51000BDE8F08F204D6B6A284698470322AB8A1E
:10B520002276E6E71C48036A98470028EAD00223FF
:10B5300023764FF47A73E7E71748C36998470028E2
:10B54000E0D001232376DDE7134DAB692846984709
:10B5500000226B8A2276CCE7042323764FF47A7399
:10B56000D2E7104A0121C2F808B0002286F8DC12A6
:10B57000C6F8D822019351F00DFE019B9BE70A2BE0
:10B58000B8BF0A23C0E700BF50B0002061BC002054
:10B590008801002064BC002054B00020F018002076
:10B5A000D0BB002068E600206C2B00102DE9F04B8A
:10B5B00084B02BF091FDE8B19C4C41F2BC43E358C0
:10B5C000002B1ADC6378022B1CD0032B12D141F222
:10B5D000D853E35C2BBB41F2C443E35C4BBB41F269
:10B5E0000853E35C0BBB41F24C53E35C13B190484E
:10B5F0002BF0EAFC04B0BDE8F08B2AF075FA637812
:10B60000022BE2D1A3784FF00109072BF2D8DFE833
:10B6100013F05A00E900700051001700AA00B400AE
:10B62000140084482BF0D0FCD5E783482BF0CCFCE9
:10B63000D9E782482BF0C8FCD1E703236370D9E730
:10B640002278237DDFF814827D4E032A14BF4FF445
:10B6500080778027002B00F0B180012BFAD1794B45
:10B6600062681968D8F800004FEA412C00234FF0B7
:10B67000FF31B1FBFCF112EB010B43F1000C002197
:10B68000614500F1020008BF584538BF83465A465D
:10B690006D4902202AF018FF032800F2C48001A39C
:10B6A00053F820F0F5B5000893B70008F5B5000889
:10B6B00093B7000841F29053E35C002B9AD06348A3
:10B6C0002BF082FC96E7002303AD29461846092299
:10B6D0002AF085FB01288DD1039B93F8FE21552A82
:10B6E00000F0BE8041F2D45202210123A1546370C4
:10B6F00080E7574B009303253023052255495348D3
:10B70000A5702EF0DDFC75E723690622652BA2707B
:10B7100033D92278032A14BF6FF0FF026FF07F0243
:10B72000A3F1650303EA020303F1010314BF4FF41D
:10B73000807280229A4223611FD2D8F80020E668E6
:10B7400002329F19974202D32AF03EFA2369424AF5
:10B750006660D16FA760490203FB01F342E907333A
:10B7600005211660A170A268354901202AF08FFDDD
:10B77000012840F011810623A370002133482AF0EC
:10B78000C5FC012840F00881A3780133DBB2A37027
:10B790003BE7D4E901232569991AA94288BFC4E986
:10B7A00003210328B0D00133B3FBF7F207FB1232B9
:10B7B0000AB13B449B1A002263602275D8F800202E
:10B7C0003146023200202AF07FFE03282BD801A345
:10B7D00053F820F0F5B500081BB80008F5B50008CF
:10B7E00009B7000803AD41F21C662946A0590023A1
:10B7F00009222AF0F4FA01287FF4FCAE0023039A10
:10B800002370B2F80B30B3F5007F6BD041F2D45205
:10B8100003210123A1546370ECE6636884F814905B
:10B820000133A3601BE7237D14E700BFE80201207A
:10B8300034180120C0180120F0170120AC17012096
:10B84000EC02012018190120F002012078180120D3
:10B85000F5470308A89D06089C180120101901202F
:10B8600093F8FF21AA2A7FF43DAFD3F8C61149B15E
:10B8700093F8C221A2F10B0001282DD902F0F702A2
:10B88000062A29D0D3F8D61149B193F8D221A2F1D2
:10B890000B00012820D902F0F702062A1CD0D3F8A9
:10B8A000E61149B193F8E221A2F10B00012813D966
:10B8B00002F0F702062A0FD0D3F8F61100293FF460
:10B8C00011AF93F8F231A3F10B02012A04D903F06E
:10B8D000F703062B7FF406AF41F21C620123A1504F
:10B8E000A37080E7137C022B90D192F8FE31552B88
:10B8F0008CD192F8FF31AA2B88D1D589A7592E492E
:10B900002F440F60567B41F23061731E7F2B6650CF
:10B910003FF67CAF734236EA03037FF477AF41F220
:10B9200038617302013B6350D18A01B9516A2348DF
:10B9300041F22463E150B2F811305B0103F2FF13CE
:10B940005B120360B2F8130000B9106A49001D448D
:10B950000D44401B41F2286C40F6F475B0FBF6F044
:10B96000A84244F80C0024D94FF6F475A8421CD91B
:10B9700003202070D56A124A3B440B4441F22C60EC
:10B9800041F23C611278235065500AB92AF080F8E0
:10B99000A3780133A3702DE602287FF42BAE41F289
:10B9A000D4520123A354637024E60222227000259E
:10B9B000E1E70123237029E7081901202819012054
:10B9C000E81801202DE9F04F2DED028BA0F10A03BC
:10B9D00087B00C46ED2B01F2D581DFE813F0C407E8
:10B9E000D309D309D309D309D309D309D309D30977
:10B9F000D309D309D309D309D309D309D309D30967
:10BA0000D309D309D309D309D309D309D309A50786
:10BA1000D309D309D3099507D309D309D3093C0224
:10BA2000D309C701D309AF01D3091A04D3091204FA
:10BA3000D309ED03D309BB03D309D309D3094A04BE
:10BA40003004D3093704D309D309A801D309D30992
:10BA5000D309D309D3099801D309D309D309D30949
:10BA60007901D3095A01D3093D015104D309D309FE
:10BA7000D309D309D309D309D3091009D3098009FC
:10BA8000D3093806D309EA02D309D602D309D30968
:10BA9000D309D309B9026D0249021D01F0083E081D
:10BAA0006B095B070309D3098B08FF00D309D3098E
:10BAB000D309D309EE00D309D3097307D309D309F6
:10BAC000D30983046C041305D004D309D309D30923
:10BAD000A90492044B072807FD06BE06D309D30923
:10BAE000D705D309D309D309D309D309D309D30976
:10BAF000D309D309D309B902D309D309D309D30987
:10BB0000D309D309D309D309D309D309D309D30955
:10BB1000D309A005D309D309D309D309D309D3097C
:10BB2000D309D309D309D309D309D309D309D30935
:10BB3000D309D309D309D309D309D309D309D30925
:10BB40009005D309D309D309D309D309D309D3095C
:10BB5000D309D309D309D309D309D309D309D30905
:10BB6000D309D309D309D309D309D309D309D309F5
:10BB7000D309D309D309D309D309D309D309D309E5
:10BB8000D309D309D309D309D309D309D309D309D5
:10BB9000D309D309D309D309D309D309D309D309C5
:10BBA000D309D309D3096D05D30932080708D3098E
:10BBB000D309D309D309D309D707B149522322683E
:10BBC000501C2060137011F8013F002BF7D10123A6
:10BBD000184607B0BDEC028BBDE8F08FA94D0020E0
:10BBE0002A68216800EB40035B001A444E1C127A5D
:10BBF00026600A702A6821681A444E1C527A266010
:10BC00000A702A682168134401309B7A4A1C05286F
:10BC100022600B70E4D1DAE79B4E9C4F00250BE0CD
:10BC2000326893ED000A936898470146204634F045
:10BC300023FC0135082DCAD0336893F82E20E8B2D2
:10BC40002AB15B69984707EB85030028E8D10021FA
:10BC5000204634F011FCECE78D4B5D79002D41F06E
:10BC60007C8129462E462A46284623685F1C276089
:10BC700018702368581C20601A7023685A1C2260B0
:10BC800020461E7034F0E0FB2946204634F0DCFBF1
:10BC90009DE7804FBB78002B99D0DFF818820025F4
:10BCA0004646236818F81520591C21601A707178CF
:10BCB00001EB810101EB810101F2EE21204634F01C
:10BCC000DBFBBB780135AB4206F10206E9DC7EE71F
:10BCD0000B68714D591C2A7921601A7023686A79A2
:10BCE000591C21601A702988204634F0C5FB23684E
:10BCF000AA79591C21601A706988204634F0BCFB6F
:10BD00002268E979531C23600123117060E7634EB8
:10BD10003568002D41F002810B685A1C0A602046EC
:10BD200029461D7034F090FB29462046AAE70846B4
:10BD300008225B4934F058FB012349E7594D05F1CE
:10BD40004006B5F88010204634F096FB236895F83D
:10BD50008220591C21601A70236895F883200435CD
:10BD6000591CAE4221601A70EBD130E74C4D0B6884
:10BD70002A7A591C21601A70E98A204634F07CFB2B
:10BD8000698A204634F078FBA98A204634F074FB97
:10BD900023686A7B591C21601A70E98B204634F0B5
:10BDA0006BFB298C204634F067FB23682A7E591CE4
:10BDB00021601A702368AA7E591C21601A702B7F9B
:10BDC00003EB8303590001F57A71204634F054FBEC
:10BDD000236800265A1C226031461E70204634F02B
:10BDE00033FB2368304A591C21601E702368E97EAA
:10BDF000581C206019702368697E581C20601970D7
:10BE0000236895F82510581C20601970236895F850
:10BE10002610581C20601970236895F82710581CAC
:10BE200020601970236895F82910581C206019703B
:10BE3000236895F82A10581C20601970127823681E
:10BE4000591C21601A70226895F82B10531C23602E
:10BE500001231170BCE6154B22681978501C206034
:10BE6000117022685978531C236001231170AFE6CA
:10BE7000084610220E4934F0B7FA0123A8E600BFA5
:10BE8000F0170608C4B40020CC2C0010442B00107E
:10BE90000CDF002048E60020A4330020C03700203B
:10BEA000F0E50020181F0020045E00202C48002030
:10BEB00070490020444B0020B04B1B8BB3F5006F42
:10BEC00001F22680B3F5806F01F25F80B3F5007F49
:10BED000B7EE008AF6EE007A28BFB0EE678AA84D6A
:10BEE00005F10C06B5EC010A20EE080A54F03EF903
:10BEF00081B2204634F0C0FAAE42F3D1A14DDFF852
:10BF0000AC92DFF8AC82A04F05F10C0699F8003036
:10BF1000B5EC010A012B14BF43463B46D3ED077A2B
:10BF200080EE270A54F022F981B2204634F0A4FAB8
:10BF3000AE42EBD1954D05F10C06B5EC010A54F07B
:10BF400015F981B2204634F097FAAE42F5D13EE6BB
:10BF5000002306461D46DFF85C82CDE9033399468F
:10BF600002E0282D00F054872946404638F04EFF65
:10BF7000EFB201350028F4D038462FF0DBF8002866
:10BF800040F0038709F10109EBE70B68804A81491A
:10BF90009078814A5D1C2560187023685279581C7E
:10BFA00020601A702268C978531C23600123117025
:10BFB0000EE60021204634F05FFA0021204634F0DE
:10BFC0005BFA0021204634F057FA2368734D0026AF
:10BFD0005A1C22601E7023682A68591C92F8462059
:10BFE00021601A7023682A68591C92F84720216042
:10BFF0001A7023685A1C22601E7023685A1C226023
:10C000001E7023685A1C22601E7023685A1C22600E
:10C010001E702B682046198F34F02EFA2B682046AC
:10C02000D98E34F029FA23682A68591C92F82D20F9
:10C0300021601A7023685A1C22601E702B682046EB
:10C04000598E34F019FA2B682046998E34F014FA80
:10C050003146204634F010FA23682A68591C92F8B9
:10C06000512021601A7023685A1C22601E702368B8
:10C070002A68591C92F8542021601A7023682A6893
:10C08000591C92F8522021601A7023682A68591CA2
:10C0900092F85A2021601A7023682A68591C92F875
:10C0A0004F2021601A7023682A68591C92F8552085
:10C0B00021601A702B682046998934F0DDF92B68CD
:10C0C0002046598A34F0D8F92B682046198B34F071
:10C0D000D3F923682A68591C92F8302021601A701D
:10C0E00023682A68591C92F86C2021601A70236812
:10C0F0002A68591C92F86D2021601A7023682A68FA
:10C10000591C92F86E2021601A7023682A68591C05
:10C1100092F86F2021601A7023682A68591C92F8DF
:10C12000702021601A702B6893F869202368591CCD
:10C1300021601A7023682A68591C92F86A202160CD
:10C140001A702B68226893F85310531C2360012344
:10C1500011703DE5124D134E05F1300795F90210AF
:10C16000114B93F906208A4203F1080300F032864E
:10C170009E42F6D10835BD42F0D128E55C2A001078
:10C18000AC2A0010300000100C0600100037002010
:10C1900010B5002040480020D0BB0020C4B40020CF
:10C1A000A0E7002004E80020D4E700209C0700104E
:10C1B000D40600100C6A0020A94B002603F59675E2
:10C1C0002268511C2160167022681978501C20606A
:10C1D000117022685978501C20601170226899787B
:10C1E000501C206011702268D978501C206011709A
:10C1F000226819790A33501C9D4220601170DFD1EA
:10C20000E5E40A68974BD97B531C23600123117026
:10C21000DEE4954D05F1800655F8041F204634F004
:10C2200013F9AE42F8D122689049501C01232060D6
:10C2300013702268C978D01820601170C8E40A68A9
:10C240000121531823600B461170C1E40B68884A22
:10C2500088495278581C20601A7023680022581CA4
:10C2600020601A7022680979531C23600123117021
:10C27000AEE4814B0846196A34F0E6F80123A7E4DE
:10C280000A687E4B7E490125501C2060157022688B
:10C290009878561926601070226850192060157021
:10C2A000226809785019206011701988204634F0EE
:10C2B000E3F82B468CE40A68724B73491878551CD6
:10C2C0002560107022685878551C2560107022680F
:10C2D0009B78501C206013702046C98834F0CCF83D
:10C2E000012375E4684D0846298834F0C5F869884B
:10C2F000204634F0C1F8A988204634F0BDF8012367
:10C3000066E40A68614B501C19782060117022683D
:10C310005978501C2060117022689978501C206058
:10C3200011702268D978531C2360012311704FE4E7
:10C33000574D0846A98A34F09FF8E98A204634F020
:10C340009BF8298B204634F097F82368514A581CF3
:10C350001178206019702368A97E4F4A581C20600C
:10C3600019702368A979581C206019702168126817
:10C370004B1CC2F3C062236001230A7028E4DFF87B
:10C3800034C10027FEB2614600232268501C2060A1
:10C3900016702268501C20601370226811F8010F7B
:10C3A0000133551C062B25601070EED10137062F86
:10C3B0000CF1060CE6D1394900232268501C20609C
:10C3C00017702268501C20601370226811F8010F4A
:10C3D0000133551C0B2B25601070EED123683049BA
:10C3E000581C072220601A7023680022581C206005
:10C3F0001A70226891F8EF10531C2360012311700A
:10C40000FFF7E6BB274828490379284D012B23680D
:10C410000CBF4A7DCA795E1C26601A7023685E1CB8
:10C4200026601A702368AD78214A5E1C26601D7054
:10C43000236812785D1C25601A7023680279581CE5
:10C4400020601A702368CA79581C20601A7022680C
:10C45000497D531C236001231170FFF7B9BB00BF56
:10C4600074590020F0E50020141F002094200020C3
:10C470009C530020B4B3002044E40020D4B9002031
:10C480005C4600202CAE0020B4AD0020D0B40020CB
:10C4900078BC0020C40F001064E60020FB1F0020C1
:10C4A000181F00203C320020444500204048002056
:10C4B00058480020D71F00200B68B84D591C142283
:10C4C000216005F178061A7028782EF085FE07465F
:10C4D00068792EF081FE23683A7A591C21601A701F
:10C4E00023682A79591C21601A702368027A06355C
:10C4F000591CB54221601A70E6D1FFF768BB0B6882
:10C50000A74A591C1278216003A81A7034F0CCFC99
:10C510002268531C236001231070FFF759BB0B687E
:10C52000A04F591C3A7821601A703B78002B3FF4D9
:10C530004EABDFF89CC29C4D9C489D4963462268E7
:10C5400013F8016B02F1010EC4F800E016702268C6
:10C5500015F8016B02F1010EC4F800E016702268B4
:10C5600010F8016B02F1010EC4F800E016702268A9
:10C5700011F8016B02F1010EC4F800E016703E786C
:10C58000A3EB0C029642DADCFFF721BB0B68894F64
:10C59000591C3A7821601A703B78002B3FF417AB96
:10C5A000854EDFF830B201974FF0000928E0002FE8
:10C5B00040F097840097BA46B8463D463946204633
:10C5C00033F042FF2946204633F056FF2568681CA9
:10C5D00020605146204685F8008033F04DFF0099D9
:10C5E000204633F049FF3946204633F045FF019B92
:10C5F0001B7809F101094B4506F104067FF6E7AA0D
:10C600006E4ADBF80030957903F00067002DCED03C
:10C61000B189B37B907EC82202FB01F15FFA89F8F1
:10C6200091FBF0F1002B40F0548442F21075002F82
:10C6300000F06984404600912DF0A0FC00998388A9
:10C6400090F80180B0F802A000930789B7E75C4E2C
:10C650000B68B2795B4D591C21601A702B6820461B
:10C66000598833F009FF2B682046198833F004FFFE
:10C670007189204633F000FFB189204633F0FCFE7B
:10C680002B682046998833F0F7FE2B682046D9881E
:10C6900033F0F2FEF189204633F0EEFE318A204677
:10C6A00033F0EAFE23682A68591C92F8262021609C
:10C6B0001A702368B278591C21601A70236800220E
:10C6C000591C21601A70F188204633F0D5FE31895B
:10C6D000204633F0D1FE2368727D591C21601A7008
:10C6E0002368B27D591C21601A702B682046B3F86C
:10C6F0004C1033F0C1FE23682A68591C92F85E2062
:10C7000021601A70B18B204633F0B6FEF18B2046C3
:10C7100033F0B2FE2B682046B3F8601033F0ACFE65
:10C720002B682046B3F8621033F0A6FE236896F813
:10C730002020591C21601A70236896F82120591C6A
:10C7400021601A70718C204633F096FEB18C204621
:10C7500033F092FE1C4BFFF77FBB1C4D0846298926
:10C7600033F08AFE6989204633F086FEA989204687
:10C7700033F082FEE98A204633F07EFE298B204684
:10C7800033F07AFE698B204633F076FEE989204645
:10C7900033F072FE0123FFF71BBA00BFCC49002023
:10C7A00052400020393400204C3400206C340020EA
:10C7B0005C340020C40F0010BC2A001078BC00209C
:10C7C0003C320020C4B4002084AC002014BA002005
:10C7D0003C34002064E60020B74D0846298833F039
:10C7E0004BFE6988204633F047FEA988204633F087
:10C7F00043FEE988204633F03FFE298A204633F085
:10C800003BFE698A204633F037FEA98A204633F082
:10C8100033FE236895F82020591C21601A70226885
:10C82000297F531C236001231170FFF7D1B9A34B5B
:10C830001B6813F000633FF4CBA90B68A04F591C91
:10C840003A7821601A703B78002B3FF4C0A900258C
:10C85000E8B22DF093FB23684278591C21601A70CE
:10C860008189204633F008FE3B780135AB42EFDC8E
:10C87000FFF7ADB9934B9449B3F9003081FB032125
:10C88000DB17C3EBA101204689B233F0F5FD01238C
:10C89000FFF79EB98D4D0846298833F0EDFD698874
:10C8A000204633F0E9FDB5F90430874AD91782FBF9
:10C8B0000323C1EBA301204689B233F0DDFD012340
:10C8C000FFF786B9824D05F16006A988204633F04E
:10C8D000D3FDE988204633F0CFFD2989204633F087
:10C8E000CBFD2368AA7A591C21601A702368EA7A62
:10C8F000591C21601A7055F80C1B204633F0A4FD1A
:10C90000B542E2D1FFF763B9724D0846298833F08A
:10C91000B3FDA988204633F0AFFD2989204633F0C6
:10C92000ABFD0123FFF754B96B4D05F1780628786C
:10C930002EF052FC2368027A591C21601A70236879
:10C940006A78591C21601A702368AA78591C2160E2
:10C950001A702368EA780635591CAE4221601A70B5
:10C96000E5D1FFF734B95D4D284652F03BFB002876
:10C970003FF42DA92B460544226813F8011B501CD7
:10C980009D4220601170F7D1FFF721B903A834F060
:10C990008BFA00283FF41BA9BDF80C10204633F099
:10C9A0006BFD23689DF80E20591C21601A702368C6
:10C9B0009DF80F20591C21601A7023689DF81020E3
:10C9C000591C21601A7023689DF81120591C2160A0
:10C9D0001A7023689DF81220591C21601A70204695
:10C9E000BDF8141033F048FDFFF7F1B83C4B03F1EC
:10C9F000700522681978501C2060117022685978DF
:10CA0000501C2060117022689978501C20601170B1
:10CA10002268D978501C2060117022681979501C46
:10CA20002060117022685979501C206011702268B2
:10CA300099790733501C9D4220601170D9D1FFF7BE
:10CA4000C6B8284D0846A98933F016FD69892046E5
:10CA500033F012FD0123FFF7BBB8234B0A681B78A4
:10CA6000224D511C03F002032160137023682A7DBC
:10CA7000591C21601A702968204633F0E5FC69686A
:10CA8000204633F0E1FC1A4AAB68D91782FB032336
:10CA9000C1EB631181F3100189B2204633F0ECFC45
:10CAA000E989204633F0E8FC298A204633F0E4FC8B
:10CAB0000123FFF78DB800BF14BA002064E6002000
:10CAC000C40F00104048002067666666ACB30020C3
:10CAD00094AE0020746A0020CC49002044BA0020A3
:10CAE0008CAA002010B50020A4B3002088E7002005
:10CAF0001F85EB51A84D0B682A68591CD27821601C
:10CB00001A702B6822689979531C236000231170D6
:10CB10002A6821681A440133527A481C032B20608A
:10CB20000A70F5D123682A68591C127B21601A709B
:10CB300023682A68591C127821601A7023682A68B1
:10CB4000591C527821601A702B682046D98933F01D
:10CB500093FC23682A68591C127A21601A70236892
:10CB60002A68591C527921601A7023682A68591C56
:10CB7000127921601A7023682A68591CD2792160C1
:10CB80001A7023682A68591C127C21601A70236865
:10CB90002A68591C527C21601A702B682046598AD9
:10CBA00033F06AFC2B682046998A33F065FC2B68C9
:10CBB0002046D98A33F060FC0123FFF709B8774F8C
:10CBC000BB78002B3FF403A8754E002536F9021BF5
:10CBD000204689B233F050FCBB780135AB42F5DC1E
:10CBE000FEF7F5BF6F4B0846196833F02DFC6E4B0E
:10CBF0002046198833F040FC0123FEF7E9BF6B4B58
:10CC00001D6800230393002D00F0868103A92846A8
:10CC100008F032F9284608F08BFB2B689B68074622
:10CC2000002B00F0E2812846984705462368604EB5
:10CC30005A1C22601F7023683278591C21601A70B8
:10CC400023687278591C21601A702368B278591CC5
:10CC500021601A702268039B511C03F001032160BC
:10CC60001370B188204633F007FC23685A1C2260F9
:10CC70001D702368327A591C21601A70F188204691
:10CC800033F0FAFB21684B4A0123481C20600B70EB
:10CC900021681078CD182560087021685078CD186B
:10CCA00025600870216892F8EA20C81820600A7090
:10CCB000FEF78EBF404B0846198833F0DDFB3F4B33
:10CCC0002046198833F0D8FB3D4B21681A784B1C5D
:10CCD00002F00102236001230A70FEF779BF0B689E
:10CCE000384D394A6978394E581C206019702368CC
:10CCF0001278591C21601A7023683279591C2160FE
:10CD00001A702368B278591C21601A703188204645
:10CD100033F0B2FB718A204633F0AEFB2368002269
:10CD2000591C21601A702368F278591C21601A700E
:10CD300023682A79591C21601A702368EA78591CE3
:10CD400021601A7023682A78591C21601A70698B37
:10CD5000204633F091FB698A204633F08DFB23682F
:10CD6000297D1B4A581C2060197023689278591C31
:10CD700021601A7022683C21531C2360012311702A
:10CD8000FEF726BF0023FEF723BF494603A838F06D
:10CD90002DF8FFF7F7B800BFDCB5002048E600200B
:10CDA00018E80020E0B40020E6B30020446700202B
:10CDB0003867002028380020A6B30020A8B3002040
:10CDC000233600203C3200207CAC002078BC0020C0
:10CDD0002CE3002023685A1C226019702988204601
:10CDE00033F04AFB2368EA78591C21601A702368E3
:10CDF0002A79591C21601A702368AA79591C21606C
:10CE00001A7023686A79591C21601A70FFF7B2B949
:10CE1000824B834DB3F89C10204633F02DFB814BA1
:10CE20002046198833F028FB7F4B19684B0103F02B
:10CE30002002C1F340031343C1F3800243EA4203DB
:10CE4000C1F3C00243EA8203C1F3401243EAC203C2
:10CE500001F010011943204633F00EFB03A9042210
:10CE6000204633F0C1FA23682978704A581C2060A4
:10CE7000197011886429A8BF6421204633F0FCFA98
:10CE8000962E77D00021204633F0F6FA2168B9F1CA
:10CE9000190348BFA9F11203A3F3C4034A1C22607B
:10CEA00020461A460B7004A933F09EFA2368604AA4
:10CEB000581C1821206019701168204633F0C4FAFC
:10CEC00022685C4B1978531C236001231170FEF714
:10CED0007FBE404600913BF0ABF9009985B2FFF769
:10CEE000A6BB5FFA89F02DF049F8534B9F7EB0F94D
:10CEF0000C3003EB830303EB830399007B0891FB66
:10CF0000F3F1FFF79CBB0097BA46B846FFF757BB53
:10CF1000B4EE008AFEF7E3BFFF2787E61DF0CEFBE5
:10CF200005464EF0B5FB236845F002055A1C226009
:10CF30001D70838841880133591A204633F084FAE2
:10CF40003168204633F080FA1DF06EFA0146204623
:10CF500033F07AFA0123FEF73BBE2AF0C5F8C0B9D8
:10CF6000364E41F2D453054601460246F65C012096
:10CF7000FEF77BBE23680322591C21601A702368C8
:10CF80006A78591C21601A7080E7B5EE008AFEF7B6
:10CF9000A6BF2AF099F8294E40B941F2D453012294
:10CFA00005460146F65C1046FEF75FBE7778022F15
:10CFB0001DD0032F08D041F2D45300250122F65C86
:10CFC00029461046FEF751BE41F2985241F2D45321
:10CFD000B158F65C890A00912AF070F8056800994A
:10CFE00004226D080120FEF740BE18461DE6144BD2
:10CFF0001B68DB69984740B141F2D4530025F65CC9
:10D00000294603220120FEF730BE41F2D4530546E3
:10D0100001463A46F65C0120FEF727BEA811002023
:10D020002CE300202CC8002050B00020E00C0010A1
:10D03000F8B40020B437002078BC0020E8020120BA
:10D0400084DF002010B50A4CA378022B09D0012BF5
:10D0500001D0002010BD074B1868003018BF012018
:10D0600010BD2AF031F80028F4D1A378EFE700BF13
:10D07000D4B90020C037002008B50E4B197801291B
:10D0800013D00DD3022902D1002018F079FC17F03B
:10D09000D7FE094B00F5F42000F59070186008BD2C
:10D0A0000021084618F032FFF1E7002018F02EFFAB
:10D0B000EDE700BF9E530020A053002010B50446AA
:10D0C000204618F0C5FB00B110BD0A2018F0A2F9E7
:10D0D000F6E710B5084A002352F83310884202EBF5
:10D0E000C30403D00133062BF6D110BD0021C16269
:10D0F000A18042F83310F8E7D4E700202DE9F04F83
:10D1000085B092460E9E9DF83C709DF84080424A44
:10D11000029104469B460025EB000393134493F9C8
:10D120000610A14252D00135062DF5D14FF000096D
:10D1300031E01E2C33D01F2C3ED0142CF6D11B20F6
:10D1400018F02EFC18B12923837180F807904CF059
:10D15000E9FE18B1292383710023C37128F06EFC06
:10D160002E4B1B78012B0BBF2D492E4901F12C00B2
:10D17000A1F11C004EF07CFC2B4B2C4AC3F8A023E1
:10D1800003F56879244A89F83840EB001344029982
:10D1900042F835909980484605B0BDE8F08F484682
:10D1A000CDE9007833465A46514624F031F981469C
:10D1B000B9F1000FE6D1B9E7CDE9007833465A4618
:10D1C0005146012024F024F98146F1E7B3F8049098
:10D1D000B9F1000FAAD1052C03D0AADC0CB1022CA6
:10D1E000A4D143463A463146E0B23BF0B9F9814614
:10D1F00000289BD0012380F868300023C0E9073362
:10D20000C0E90933C0E90BAB0771866080F805807F
:10D210003AF0E2FEB6E700BFD4E70020045E00204B
:10D22000A4010020EC010020F01800200C180608D2
:10D2300038B1038813EA020003D00B4214BF012067
:10D240000020704738B1038813EA010003D08B42F5
:10D250000CBF01200220704770B50B4C0B4D002312
:10D26000062BDAB202D1237000200AE05E1C05EB27
:10D27000C30135F8333001321842D2B202D0084629
:10D28000227070BD3346EBE7286A0020A0E700203B
:10D2900018280AD800EB4000054B13F8200028B1ED
:10D2A0000123013803FA00F070470020704700BFE7
:10D2B000A873060810B5002018F0ECFD064A074BCD
:10D2C000002414701C70FFF7D7FE0549054A064B71
:10D2D0000C6014801C6010BDECB900209E5300202F
:10D2E0001854002016540020BC530020002830D0D1
:10D2F000194B1B6813F4003324D1012290421749C3
:10D3000008D00133192B03EB430223D011F822205C
:10D310009042F6D130B4124C104A2068590030B116
:10D320004578C81802EB80004078A84208D20B4428
:10D330000C480D4902EB83020023226003800B603E
:10D3400030BC7047094B1B78032B02D0012200230D
:10D35000D4E7AFE7704700BFB0530020A8730608BA
:10D36000BC5300201654002018540020C8B40020DC
:10D370002DE9F84306460B2045F0BEFF10B30A2006
:10D38000FFF7B4FF614D2C68D4B1614F3B68B342E5
:10D3900016D8DFF8B09199F80030002B5BD0DFF899
:10D3A000A8816268B8F80030D25C002A3DD1002222
:10D3B00042F21071013301FB0266A8F800303E60B2
:10D3C000BDE8F883534B1B681D06DBD51D2045F0D7
:10D3D00093FF0028D6D0504B1B68DC05D2D44F4BAE
:10D3E0001B789807CED54E4B187D0428CAD94D4BD3
:10D3F00040F605221A801F461A46052502230A24F4
:10D4000006E00233402B9570D47002F102027AD00C
:10D41000C3F346018842F4D8591E32207854FF22C3
:10D420000E20FA54FFF762FFACE7002018F032FD3F
:10D430003D4A0023137089F80030FFF71DFE2A686B
:10D44000B8F800305268D25CFE2A56D10023A8F802
:10D450000030BDE8F88343F03BFED0B923780A2BB7
:10D4600040D0022B15D12C4A93689B0711D42F4B27
:10D470002F491B68F31A8B420BD92E4B1B6843B9FB
:10D480002D482E49066012790978FF201AF076F8A7
:10D490002C68DFF8B4806268B8F80030D25C002AEB
:10D4A00085D023781C4A013B0124126804FA03F357
:10D4B00013421CD01C4B01221A70FFF7DDFDB8F897
:10D4C00000302A68002BBDD11178481F012801D9EE
:10D4D0001829B7D117F0B4FC194B2A681860B8F8AE
:10D4E0000030AFE70C4A93689905C0D5D1E72046D4
:10D4F00018F0D0FC89F80040DCE7FF2A7FF458AF31
:10D50000BDE8F843D6E63F2187E700BFBC530020C3
:10D510001854002064E60020B0530020A4B300207B
:10D5200088E70020D45300209E5300202054002080
:10D53000804F120004B5002008B50020C40F001071
:10D5400034480020ECB90020165400204000402848
:10D55000094A30B4A8BF4020002302251424D55422
:10D560000233D118834201F8014CF8D3FF21D15482
:10D570000E2030BCBAE600BFD453002008B50A4BD9
:10D580001B78DB0700D508BD084B1B781BB1084B87
:10D5900000221A7008BD074B02229A7317F0B4FDDF
:10D5A0000420FFF7A3FEF2E748670020085C002094
:10D5B000245400202CE300202DE9F047CE4C2DED23
:10D5C000028BA36820469847002800F0D480CB4BFC
:10D5D0001B780122042B84F85C2000F0D080B4F981
:10D5E0001A3006EE903AB4F91C3007EE103AB4F94E
:10D5F0001E3007EE903AF8EEE66AB8EEC77AF8EE1B
:10D60000E77AC4ED146A84ED157AC4ED167ABC4B42
:10D610001B88002B60D0BB4B94ED142AD4ED152A47
:10D6200094ED163A93ED008AD3ED054A93ED090A7D
:10D63000D3ED0E3AD3ED120A93ED174A93ED011A8A
:10D6400093ED065AD3ED0A1A93ED0F6AD3ED137AD0
:10D6500093ED187AD3ED045AD3ED0D6AE8EE024A41
:10D66000E0EE223AA3EE204AA1EE025AA1EEA26A0F
:10D67000A3EE277A93ED038AD3ED167A93ED020A8F
:10D68000D3ED0C0A93ED0B1AD3ED151AC4ED144A21
:10D6900065EEE45AA8EE645A66EEE36AD3ED144AE6
:10D6A00083ED055A67EEC47AE0EE025AA0EEE36A13
:10D6B000E1EE226AA4EE617AE3EE247AC3ED065A23
:10D6C000C4ED153A83ED0E6AC3ED0F6A83ED177A48
:10D6D000C3ED187A84ED164A94F8221009296BD00C
:10D6E000894810F037F8894F894E3B88D6F8F453B3
:10D6F000002B40F02781874B1B685B0700F1BF8040
:10D70000B5F9003094ED156A94ED167A94ED145A3B
:10D71000814905EE903AB5F902300A6806EE903A72
:10D72000B5F9043007EE903AF8EEE55A7B4BF8EE87
:10D73000E66AF8EEE77AD3ED003A93ED014AD3EDCD
:10D74000024A75EE655A76EE666A77EE677AC4ED40
:10D75000145A34EE266A73EEA55A34EEA77A0132D3
:10D76000C3ED005AC4ED156A83ED016AC4ED167A63
:10D7700083ED027A0A60BDEC028BBDE8F087B4F954
:10D780001A00B4F91C10B4F91E20654B07EE900A7C
:10D79000F8EEE76A07EE901AB8EEE77A07EE902AFD
:10D7A000F8EEE77AC4ED146A188059809A8084ED07
:10D7B000157AC4ED167A2AE794ED157AD4ED0D6A40
:10D7C000D4ED0E7A94ED0F2AD4ED145AD4ED0A2A32
:10D7D00094ED0B3AD4ED0C3A94ED166A94ED104AA0
:10D7E000D4ED114A94ED125A4E4B67EE266A67EE5D
:10D7F000277A27EE027AE5EEA26A1B78E5EE837AB5
:10D80000A5EEA37AE6EE046AE6EE247AA6EE057AA1
:10D81000C4ED146AC4ED157A84ED167A002B7FF4FA
:10D8200062AF414B93ED046AD3ED035A93ED052AA1
:10D8300093ED013AD3ED002AD3ED023A93ED064A77
:10D84000D3ED074A93ED085A27EE866A67EEA55A8C
:10D8500067EE827AA6EE836AE6EEA25AE6EEA37A35
:10D86000F0EE466AE7EE045AE7EE246AE7EE057A40
:10D87000C4ED145AC4ED156AC4ED167A33E72B4F84
:10D880003B88322B00F0E880002B40F0348128499F
:10D890000B78002B3FF434AF2648D6F81834D6F86E
:10D8A0001474D6F8102480FB03ECDB17C3EB2C13A5
:10D8B000B4F818C0A3EB0C03AB8080FB023C80FBE8
:10D8C0000730FB17C3EB201300271B480F70D2173C
:10D8D000C2EB2C1219492A806B8002234781878171
:10D8E0008B7317F011FC17F0FDFA0120FFF72EFEE5
:10D8F000D6F8F45304E700BF5C2A001061BC002096
:10D900006045002064450020AC2A00109853002098
:10D91000F018002064E60020E0AD0020E4AD002017
:10D9200064BC00203B0B00201849002062590020F5
:10D93000605900201F85EB5110B500202CE300201A
:10D9400000000000B3F5C87F18BFD6EDFE7A94ED55
:10D95000147A0CBF5FED067AF8EEE77A002000211A
:10D9600077EE877A20652980B7F80080FDEEE77AA8
:10D97000B8F5C87F17EE903AC6EDFE7A59D0D6EDCD
:10D98000FF7AD6F80024D4ED166A94ED156A606526
:10D99000B8EEE77A07EE902AF8EEE77A37EE067AE5
:10D9A00077EEA67ABDEEC77AFDEEE77AB8F1010F01
:10D9B00017EE902A698017EE10EAA06586EDFF7ACF
:10D9C000C6F80024A9802FD15E48B4F818C0C83228
:10D9D00080FB02A9C8330EF1C80ED217C2EBE912C0
:10D9E00080FB03A980FB0EA04FEAEE7ECEEBE01E8B
:10D9F000DB175548A5F802E0A2EB0C02C3EBE913D4
:10DA0000DFF854C1AA802B800223418181818CF8E8
:10DA10000E3017F079FB17F065FA4046FFF796FDD8
:10DA2000B7F80080D6F8F45308F1FF38A7F8008063
:10DA300061E6D4ED167A94ED157A6065FDEEE77A2D
:10DA4000BDEEC77A17EE903A698086EDFF7AA06541
:10DA5000C6F80034A980E7E73B4B2A68D3F80A30C0
:10DA6000C6F80C349FED397AB5F90430C6F80424B1
:10DA7000A6F80834D4ED146ADFED347A37EE267A4E
:10DA80000023C4ED147ABDEEC77A2B803B8817EED5
:10DA9000102A322BC6F8102405D0D6F8143407EE1D
:10DAA000903AF8EEE77A94ED157A3B8877EE877A2C
:10DAB0000021FDEEE77A002217EE900A322B616515
:10DAC000C6F814046A8031D094ED167AA165D6F8B0
:10DAD0001814AA8007EE901AF8EEE77A012B77EE79
:10DAE000877AFDEEE77A17EE901AC6F8181409D077
:10DAF000013B3B80CBE6D6F8103407EE903AB8EE07
:10DB0000E77AB7E71248134902700B200B70FFF752
:10DB1000EDFBD6F804342B600B4AB6F90804D6F8AE
:10DB20000C14A8803B88C2F80A10E1E7D4ED167AFD
:10DB3000A165FDEEE77AAA8017EE902AC6F81824B0
:10DB4000D6E700BF1F85EB5110B500200000000094
:10DB5000645900205F5900202CE30020024A13681A
:10DB600018431060704700BF50B0002010B5094C3A
:10DB7000238823EA00009842208009D0064B41F216
:10DB80000241FF2219809A700E20FFF7AFFB238815
:10DB9000184610BDE4B30020D453002010B5094C42
:10DBA000238818439842208009D0074B41F2024154
:10DBB000FF2219809A700E20FFF798FB23881846E1
:10DBC00010BD00BFE4B30020D4530020024A136804
:10DBD00018431060704700BFF8B400202DE9F04FE3
:10DBE000DF4D2DED068B2B7893B0044633B1DD4E1F
:10DBF00033693046984780F001002870DA4B1A7874
:10DC0000002A00F00282DFF8ACA3D8489AF81C542E
:10DC1000DAF8201404F5EC425F32026000221A7038
:10DC2000002D00F0F7818C4202D9013D8AF81C5486
:10DC3000204624F081F8002800F0E781DAF8AC34BF
:10DC4000CB4DCAF8AC44E41A47F230539C42A8BF0B
:10DC50001C462E78C749C84BC84FB4F57A7F4FF0A1
:10DC60000102B8BF4FF47A7416400C801A7000F0AD
:10DC70006282C34AB7F906301268D1898B4280F2BA
:10DC80001F82C04A4FF07E511160BF4ABF4992F9CE
:10DC900004004D8AB7F9008092F800E092F801C0C4
:10DCA000BB4CA8EB0502002814BF01204FF0FF3049
:10DCB000002AB8BF5242B2F5FA7FA8BF4FF4FA72F9
:10DCC0007245C5BFA2EB0E0207EE902ADFEDB17AD6
:10DCD000F8EEE77A4545B7F90280C4ED007AA8EB83
:10DCE0000502C4BFF1EE677AC4ED007A002AB8BF1E
:10DCF0005242B2F5FA7FA8BF4FF4FA729645BABF06
:10DD0000A2EB0E0207EE902ADFEDA27AB7F90470BB
:10DD1000B8BFF8EEE77A4545A7EB0502C4ED017AF6
:10DD2000C4BFF1EE677AC4ED017A002AB8BF52424F
:10DD3000B2F5FA7FA8BF4FF4FA72944580F2D88109
:10DD4000A2EB0C0C00FB0CFC07EE90CAF8EEE77A95
:10DD5000914AC4ED027ABD421068C4BFF1EE677A01
:10DD6000C4ED027A10F4805000F09781B3F5FA6F99
:10DD7000A8BF4FF4FA63B3F57A7FB8BF4FF47A7354
:10DD8000A3F57A71854B1A78002A40F08F81DFF86D
:10DD900028E2DFF828C28EFB0123CA17C2EB631307
:10DDA0005F1C6FF063023CF917703CF913C002FB73
:10DDB0000313A7EB0C0103FB01F38EFB0312DB172C
:10DDC000C3EB621363441BB207EE903AB8EEE78AE6
:10DDD00084ED038A002840F08282714B1B885A062A
:10DDE00040F10F8140F603026E49D4ED011A91ED26
:10DDF000010AD1ED033AD1ED028AD1ED005A94ED3A
:10DE0000002A69491340694A08BFD4ED022A92EDFD
:10DE1000019A92ED026AD2ED030A92ED004A18BF10
:10DE2000DFED5C2A624A30EE635A39EE461A74EE30
:10DE3000207A25EE011A75EEE86A35EEA8AA74EE8E
:10DE4000609A66EEA76AB0EE413AAAEE293AB0EEC1
:10DE5000665A30EE237A79EE067AAAEE295AA7EEB0
:10DE6000273AA7EE675AF0EE414AD7EE274A33EE3B
:10DE7000263AB6EE008A75EE80AA28EE433A35EED1
:10DE8000415A34EE091AB0EE647AEAEE694AAAEE13
:10DE9000813A77EE667A36EE601A73EEE8AA25EEDE
:10DEA000085AEAEE297AAAEE815A74EEA64A63EE7F
:10DEB000036A34EE494A73EEA83A64EE884A75EE76
:10DEC000C05A36EE206A67EE887AB0EE667AE3EEE4
:10DED000844A95EE057AE5EE056AE5EE867AB1EEBE
:10DEE000648AF0EE665AF0EE476AB1EE674AE8EEF1
:10DEF000246A63EE270A67EEA43AE4EE275AB1EEED
:10DF0000450AB0EE609AB0EE631AA4EE277A23EECB
:10DF1000244AE7EEA76AA5EE249AA0EE031AE8EEDB
:10DF2000245AB0EE448A31EEA16AE0EE240AA5EE4E
:10DF3000278A66EEA16A72EE028AE5EE033A61EE86
:10DF4000211A26EE096AA4EEA47AA0EE274AA2EED0
:10DF5000256AE8EEA06AE2EE081A73EEA33A2FE013
:10DF60000044002048E6002008440020044400202B
:10DF7000486700202CAC002010AF002018E80020DB
:10DF8000DCB5002084AB00202CAE0020F0E50020A2
:10DF9000C8B300200000000064E60020B86900203B
:10DFA000E4B30020540C0020A01D0020EC10002041
:10DFB00024110020F01800201F85EB51F8AE00203E
:10DFC00027EE227A34EE044AF0EE005AE2EEA36A1B
:10DFD000A2EE846AA1EEA57AC4ED016AC1ED016AE0
:10DFE00081ED006A84ED006A81ED027A82ED005ACB
:10DFF00082ED013AC2ED027AC2ED034A002B00F035
:10E000009780002E77D11FF0A9F913B0BDEC068BD5
:10E01000BDE8F08F8C427FF60BAEC94B1B78002B0E
:10E0200000F0B081C74EDFF85483DFF854933746D1
:10E030000AF2244B28E018F805109847032D0346F0
:10E0400029DCC8B109EB850339F825105A88401A34
:10E050004FF47A7303FB00F0521A40F6CA0390FBA8
:10E06000F2F000F57A709842A8BF184640F2EE230D
:10E070009842B8BF184600B2B14B2BF8020B1B7880
:10E0800001359D4280F27E81072D3846B368D2DD8E
:10E09000E9B29847034618B2EEE78A8A934237DA24
:10E0A000A94B1A780146002A3FF471AE5B78A74A63
:10E0B00001FB03F382FB0321DB17C3EB611166E66F
:10E0C000B3F5FA6F127B9FEDA27ABFBF581A424395
:10E0D000C1F5FA6192FBF1F2C2F1640207EE902AF7
:10E0E000F8EEE77A9B4A67EE877AC2ED007ACCE5D4
:10E0F000DFED997A2CE6994A994B1178186801F06E
:10E10000010117F0BFFE13B0BDEC068BBDE8F08F28
:10E11000B3F5FA6FD4BFC2EB0303C2F5FA634FF451
:10E120007A71C2F5FA6201FB03F3B3FBF2F129E65F
:10E1300084ED027A65E7B7F900C0B7F90200B7F9D4
:10E140000C10B7F90420B7F90830864CBCF5FA6F0B
:10E15000A8BF4FF4FA6CB0F5FA6FA8BF4FF4FA609D
:10E16000B1F5FA6FA8BF4FF4FA61B2F5FA6FA8BF24
:10E170004FF4FA62B3F5FA6FA8BF4FF4FA63BCF537
:10E180007A7FB8BF4FF47A7CB0F57A7FB8BF4FF48E
:10E190007A70B1F57A7FB8BF4FF47A71B2F57A7FB1
:10E1A000B8BF4FF47A72B3F57A7FB8BF4FF47A7381
:10E1B000A3F57A78B7F90630B3F5FA6FA8BF4FF434
:10E1C000FA63B3F57A7FB8BF4FF47A73A3F57A7E1A
:10E1D000B7F90E30B3F5FA6FA8BF4FF4FA63B3F591
:10E1E0007A7FB8BF4FF47A73A3F57A73C3EBC31386
:10E1F0004FEA4309B7F90A30B3F5FA6FA8BF4FF4F5
:10E20000FA63A0F57A70B3F57A7FC0EBC010B8BF9F
:10E210004FF47A734000A4FB00A0ACF57A7CA1F522
:10E220007A71A2F57A72A3F57A73CCEBCC1CC1EBB0
:10E23000C111C2EBC212C8EBC818CEEBCE1EC3EBA5
:10E24000C31380095B00A4FB09A9C0F17F004FEA5A
:10E250004C0C490052004FEA48084FEA4E0EA4FB0E
:10E260000CACA4FB01A1A4FB02A2A4FB08A8A4FB84
:10E270000EAE8DF84100A4FB03343B484FEA9913DE
:10E280007F3B8DF8463090F812314FEA9C1C89098B
:10E2900092094FEA98184FEA9E1EA409ACF17F0C30
:10E2A0007F397F3AA8F17F08AEF17F0E7F3C032BC8
:10E2B0008DF840C08DF842108DF843208DF84480D1
:10E2C0008DF845E08DF847407FF4D3AC082310AAC1
:10E2D000832129F0EBFA2E7806F00106C9E4234BDE
:10E2E000DB78002B7FF479AD214B22481F7B152171
:10E2F00036F08CFD002F40F0348100283FF46DADE6
:10E30000DFED1D7A174978EE677AC5F5FA63FDEE01
:10E31000E77A1AB217EE903A1BB21B0381FB030196
:10E32000DB17C3EBA11302FB03F343F30F332B44BF
:10E3300007EE903AF8EEE77AC4ED037A4DE500BFB8
:10E34000F84A002048E60020B86900201F85EB51FC
:10E350000AD7233C84AB0020000000000FC7002038
:10E3600010C70020D34D621014D900204C67002044
:10E37000B4AD00203846002000007A44F0E50020CB
:10E38000104B0020B84AB9491278D1F80090002A01
:10E3900040F0E2801746B64909780391282904D154
:10E3A000B448B549007848800A80B44A01261670FE
:10E3B000002B00F0A981B24A05921578B14A049564
:10E3C0001078B14AB14DD18B0091118C528ADFF88F
:10E3D000F0E20A922A7B049D0191AEFB05E1490817
:10E3E000DFF8C0C20D9201EB4101691AC9B2DCF835
:10E3F00000C0069103F1FF38013849000291B8F1DD
:10E40000030FC1B2DFF8BCB2A14A08930CF48050EC
:10E410004FF000050C9607910B90A8BF4FF0030832
:10E420000B460994002F00F0C1809A49009831F8FA
:10E43000151081424FEA4506C0F0B880019881422C
:10E4400000F2B48009F596704BF82500012B09B253
:10E4500040F2E580915301354545E3DDDDE90834BF
:10E460009D4229DA8C49089405EB450601EB4606E6
:10E47000874A079C24390291002F00F0B580029949
:10E48000009831F8151088424FEA450800F2AC8038
:10E4900001988842C0F0A88009F596704BF82500D5
:10E4A000012C09B240F2108122F808100135AB426C
:10E4B00006F10606E0D1089C704B1B78002B40F05B
:10E4C00025816C4B012204201A70FFF77FFB7348F3
:10E4D000664BC1681B68426803615B1A934202D9AC
:10E4E000002380F825306E4B1E78614B1B78039318
:10E4F000002E00F02381654A6A4B177B1B68624A35
:10E5000003F48053B2F81EB0B2F81290002F00F05E
:10E510003F815F49644D83B1A3E1022A40F020812D
:10E52000427802EB820202EB820202F2EE22013317
:10E530009E4221F8022B00F0018115F8132005EB13
:10E540004300002AE9D1DAB2022A40F25981032AB3
:10E5500040F006815A46EAE746490F7887F00107FE
:10E5600019E7DFED527A524A38EE678ABDEEC88A63
:10E5700018EE103A1BB21B0382FB0312DB17C3EB2E
:10E58000A213002800F02681C5F57A7212B203FBAF
:10E5900002F343F30F332B4407EE903A454BF8EE6A
:10E5A000E77A0122C4ED037A1A7016E45BF82510AD
:10E5B000A9EB01010029FFF64EAF3B4810F81510FA
:10E5C0006E003044002900F0CD80022940F0C68062
:10E5D000417801EB810101EB810101F2EE21274835
:10E5E0004FF00004047031E75BF82510A9EB01013E
:10E5F0000029FFF65BAF2C4810F815104FEA4508CC
:10E600004044002900F0B980022940F0A4804178FC
:10E6100001EB810101EB810101F2EE2140E71E488F
:10E62000029C9AF890E406EB050C00EB4C000153B9
:10E63000BEF1000F06D1049C022C7FF60BAF0C99A3
:10E640008AF890144188B0F804E0134830F81C00B0
:10E650007144014408B2184981FB0041174CA1EBF9
:10E66000E071A05309B2F5E68A20002044C70020DB
:10E6700061BC0020320B002064BC0020223A002044
:10E680008049002048E60020F0E50020B4AD0020DD
:10E6900018E80020141D0020381D00204C670020C1
:10E6A000F84A002064E60020444B002000007A4431
:10E6B000D34D62103C54002056555555841D002002
:10E6C000ABAAAAAA8449002006989AF890C426F812
:10E6D0001010BCF1000F06D1049802287FF6E4AEBA
:10E6E00001218AF89014B6F800C07188B08861449E
:10E6F000014408B27F4981FB001C7F4921F80800D2
:10E70000ACEBE07109B2CFE67C4B05937C48062167
:10E7100036F07CFB00287FF4D4AE7A4A7A4B10693D
:10E720001B689168D3601B1A8B4207D977490B6825
:10E73000012023F004030B6082F82500039B282BA3
:10E7400003D1734F734BFA88DA80059A137801333B
:10E750001370FFF76DBA32F80810A1E6915B3EE73F
:10E760000A88E4E6E9B2022948D90329F6D10B99CF
:10E77000002940F09A80009931E7E9B202293BD99B
:10E780000329E8D10B99002940F0A180009987E680
:10E79000002B39D15E49604D0DE0022A18D1427834
:10E7A00002EB820202EB820202F2EE2201339E426F
:10E7B00021F8022BC2D015F8132005EB4300002AE4
:10E7C000EBD1DAB2022A1DD9032A01D15A46EDE76C
:10E7D0000A88EBE7C5F5FA6212B203FB02F343F3D2
:10E7E0000F332B4407EE903A4C4BF8EEE77A187053
:10E7F000C4ED037AFFF7F1BA0A9951E60A99EEE6F9
:10E800004A4694E64A46D1E7DFF80481424D3C4B44
:10E810000DE0022A22D1487800EB800000EB800056
:10E8200000F2EE200137B74228F8020B86D015F827
:10E83000172005EB4701002AEBD1FAB2022A30D9A2
:10E84000032A4FF01501184608D1009336F0DEFA7E
:10E85000009B00280CBF48465846E3E7B8F8000084
:10E86000E0E700230EE0022A19D1427802EB82028F
:10E8700002EB820202F2EE2201339E4221F8022BC9
:10E880003FF45CAF15F8132005EB4300002AEAD1F2
:10E89000DAB2022A07D9032A01D15A46ECE70A88DC
:10E8A000EAE74846BEE74A46E6E715211448CDE9BF
:10E8B0000E2336F0ABFADDE90E2300287FF45BAFC0
:10E8C0000D99009800290A9918BF014687E615217D
:10E8D0000B480993079236F099FA079A099B00288A
:10E8E0007FF454AF0D990A980029009908BF01469A
:10E8F000D6E500BF56555555841D0020804900209F
:10E90000384600204C67002044C70020F8B400209F
:10E9100018E8002064BC0020444B00203C54002038
:10E920007F4B80482DE9F041782201247E4E1C70F7
:10E93000002152F061FE7D4A7D497E4D0023304624
:10E940000B6013602CF03EFA214620462CF07EFA34
:10E95000214606202CF07AFA6F7A774A774B128E8E
:10E9600093FBF2F3391C18BF01210820C6F890313F
:10E970002CF06CFA95F80A8018F100014FF00900AC
:10E9800018BF01212CF062FAAB7B002B00F08480D1
:10E990006B4C002F40F08D8018F1000118BF012151
:10E9A000684D0A202CF052FA2B68DF0700F19280A4
:10E9B000980700F1A380D90600F199800121052074
:10E9C0002CF044FA604B072019782CF03FFA012113
:10E9D0000B202CF03BFA21680C20C1F3C0112CF065
:10E9E00035FA29680D20C1F3C0012CF02FFA2968EF
:10E9F0000E20C1F380012CF029FA2B685A0756BF6C
:10EA000021680121C1F3C01110202CF01FFA2168E8
:10EA10001120C1F340412CF019FA21684B054AD46A
:10EA2000C1F3004113202CF011FA21681420C1F326
:10EA300040512CF00BFA216811F4802104D0434B93
:10EA40001968003118BF012115202CF0FFF9216849
:10EA50001620C1F3C0612CF0F9F901211B202CF024
:10EA6000F5F901211C202CF0F1F9012117202CF0DF
:10EA7000EDF9012118202CF0E9F9012119202CF0E1
:10EA8000E5F9334B196800314FF01A0018BF012126
:10EA9000BDE8F0412CF0DAB9EB7B294C002B7FF478
:10EAA00078AF216811F480213FF47AAF002F3FF452
:10EAB00073AF012174E7012112202CF0C7F9254B17
:10EAC00021685B78083B012B9CBF4FF4FA63C6F8C2
:10EAD0009034A5E7204B1B680A2BB8BF0A230121FD
:10EAE0000220C6F890302CF0B1F92B6860E721685D
:10EAF0000F20C1F340212CF0A9F95FE70121032089
:10EB00002CF0A4F9154BDB6C0A2BB8BF0A230121AA
:10EB10000420C6F8D0302CF099F92B684BE700BFE1
:10EB2000D40F0010E42D0010A8110020E02D0010DB
:10EB3000D00F001080B20020A0E7002040420F005C
:10EB400064E6002050B00020C56A0020D0B9002043
:10EB5000DC37002048E600201C0000105C2A001072
:10EB600008B5064B02229A7316F0CEFA16F0BAF9DF
:10EB70000120BDE80840FEF7E9BC00BF2CE30020FF
:10EB800008B50121002017F0C1F901210846254CE4
:10EB900017F0BCF90121022017F0B8F9237803F02F
:10EBA0000502052A1CD003F00903092B1CD0002103
:10EBB000084617F0ABF90021012017F0A7F9002152
:10EBC000022017F0A3F9322016F024FC002016F0E2
:10EBD000D7FE012016F0D4FE022016F0D1FEF2E797
:10EBE00041F062FE2378DEE70F4A104B11681A6885
:10EBF0000B680F4C23F001030B601388206823F08F
:10EC000001031B041B0C138018B1302200238271F6
:10EC1000C371084B4A211A7816F08AFF206817F052
:10EC200025F9C4E7296A0020BC6A0020B46A0020E4
:10EC3000C06A0020B86A0020034B01224FF4001084
:10EC40001A70FEF7C3BF00BFB4370020022838B5E2
:10EC500004460FD800EB4013094A0A490A4D0C70CC
:10EC600000EB430302EB430318462B603FF00CFB21
:10EC700042F0F0F8601CC0B2BDE83840FEF766BC58
:10EC8000A83000202CE30020C4B400202DE9F04F70
:10EC90009C4B9D4D1B7895F80090DB0785B0804616
:10ECA00041D59A4C9A4EB9F1010F6AD0C0F08D80CF
:10ECB000B9F1020F2BD0E37B83B1A38973B1954BDC
:10ECC0001B785BB12BF012FE002800F01881237C2A
:10ECD00083422CBF01220022327000E03278217A78
:10ECE000632908D88C48B9F1020F037800F08980B5
:10ECF000002B40F098808949A37B914538BF91460D
:10ED000081F80090002B53D105B0BDE8F08F844A04
:10ED1000844B12881B889A42CDD9834A834B126850
:10ED2000C3F8BC2468E07E4F784C3A88A9F103030D
:10ED3000012B40F2A9807B88D31A002BB8BF5B421D
:10ED4000142B07DCE388934200F28B8021889142E8
:10ED5000C0F087806E4E764B1B78022BA3D17A8849
:10ED60003B886C499B1A002BB8BF5B42142B714A3D
:10ED700009789180CCBF00230123B9F1010FD38022
:10ED800094D1684B664A1B88617C12885B1A9A4250
:10ED900053DD694B1B88934238BF4FF00009624A2C
:10EDA00038BF85F80090614B1268C3F8BC2482E735
:10EDB000B9F1010F00F09D80B9F1020FA4D1072035
:10EDC00005B0BDE8F04FFEF791BA5B4B544A1B8883
:10EDD000617C12885B1A9A42534AE4DC5349E37D12
:10EDE0001268D1F8BC1403EB8303521A03EB8303BC
:10EDF000B2EB830FFFF65FAF4FF0010985F800908B
:10EE000059E783B90125C0F804800570C1F1640198
:10EE10004A4D03FB01F385FB0351DB17A3EBA15321
:10EE20006433437067E74368454DA8EB0303AB4287
:10EE3000C8BF41703FF75FAFE8E73B4A3B49237EDD
:10EE40001268D1F8BC1403EB8303521A03EB83035B
:10EE5000B2EB830FFFF62FAF4FF0020985F8009059
:10EE600029E7B2EB430F2A4E3FF775AF29483249E5
:10EE70002C4A00234FF0030986F8009085F8009093
:10EE800003700B80138066E7E388934229D82188BA
:10EE9000914226D37B88D31A002BB8BF5B42142B38
:10EEA0003FF758AF1A4E237D4FF0000E86F800E072
:10EEB00085F800E0002B45D0164AF1461370A18872
:10EEC0001D4AB4F802C017489BB211FB03F1118030
:10EED0001CFB03F3104A038064210023517053602C
:10EEE00039E7B2EB430FD5DCB9F1030F3FF432AF92
:10EEF00021E7082005B0BDE8F04FFEF7F7B9022280
:10EF00003270ECE648670020B269002080B2002031
:10EF1000D8690020C6B30020B8690020C8B400201A
:10EF2000C0B30020B669002044C70020F0180020BC
:10EF300061BC002064BC0020B46900206BCA5F6B18
:10EF40007F969800304923880968B2FBF3F20132BA
:10EF5000082A91F97210DFF8BC90A8BF0822D3B23A
:10EF6000914289F800304AD0002948D02749DFF87B
:10EF7000A8C091F800B00BF10101ACFB01A0400862
:10EF800000EB4000081A5845029038D020494FF055
:10EF9000860A0AFB001E9EF972E0964527D0CDE94D
:10EFA00000CA03934FF0FF3A014603E09CF972E078
:10EFB000964527D001F1010C0099A1FB0C314908BD
:10EFC000019B01EB4101ACEB01019C46104BBAF1F6
:10EFD000000F0CFB013C03DABEF1000F08BF8246B4
:10EFE00059450846E2D1039B5046002807DBC0B2D2
:10EFF000FFF72CFE99F8003095F800905FE74FF08E
:10F0000000095CE7039BF0E7C4B400202CE3002078
:10F01000A8300020C6B30020ABAAAAAA2DE9F04F61
:10F02000B74C2378222B8DB000F04C81B54B1D7866
:10F03000002D59D1B44BB54C93F800A0DFF804B3C0
:10F04000DFF804930AF0010A04F52876A4F10B080E
:10F0500054F80B0C40B116F007FC0746002840F0AE
:10F06000F08014F8033C3BB9E034B44205F10105EB
:10F07000EED10DB0BDE8F08FD9F8002054F8071C90
:10F08000521A632AF0D9012B00F02583022BEBD111
:10F090009F4BA049DB78A04AA048CBF8CC050033B1
:10F0A00018BF01230B7054F80B3C9D491160CBF83D
:10F0B000C0349449CBF8C835CBF8D0354023012271
:10F0C0008BF8D43597488BF8D5750A7031F06EF807
:10F0D0004FF40050FEF77AFD934831F051F88BF869
:10F0E00018768BF81976BFE78B4B1B68002BC0D0C6
:10F0F000DFF85092DFF830A231F032F809F5996864
:10F10000D9F8C00416F0B0FB0028B2D0D9F8C0047A
:10F1100016F0A2FB09280346D9F8C47419D03F2879
:10F1200017D017B9042800F0D2820C2B00F06282AD
:10F130007F2B40F0B480002FE2D0013F09EB0703A2
:10F1400000227A48C9F8C47483F8C82431F018F84A
:10F15000D6E7002F53D1764B3D4603F55C76002D64
:10F1600046D01033B342FAD1DFF8E0B12868DBF8BB
:10F170000020C45DD35D9C42384402EB070140F09F
:10F18000E3827C1E44443A4613B9FD2A40F20D82C4
:10F1900004F8013F0132C9F8C42410F8013F11F806
:10F1A000016F9E42F0D00AB15D4513D0614830F046
:10F1B000E7FF5D4508D855F8100B30F0E1FF092056
:10F1C00030F0C5FF5D45F6D9504630F0D9FFD9F88B
:10F1D000C4240027974293D27C1E444414F8010FA4
:10F1E00030F0B5FFD9F8C43401379F42F6D387E732
:10F1F00003F11002B2421D46B6D01346AFE74C4CA5
:10F200004FF0000B04F55C765D4602E01034B4422A
:10F210000DD03A462168404631F0E4FB0028F5D194
:10F22000A346002DF2D125461034B442F1D1002D71
:10F230009CD1BBF1000F3FF463AF3E4830F0A0FF1C
:10F24000B9E7D9F8003044F8073C0023C5EBC507FF
:10F2500004F8033CA4F10B0308EB4717009354F8A0
:10F260000B0C16F001FB00283FF4FEAE54F80B0C1B
:10F2700016F0F2FA14F8021C4B1E02460B2B00F299
:10F28000A181DFE813F068015F0153012B0119012F
:10F29000FD00D000B200A5007E0065003300002F05
:10F2A00000F06C810A2B00F0B6810D2B00F0B381C9
:10F2B000FF2F3FF625AFA3F12002D2B25E2A40F223
:10F2C00066811DE71C4B1868002800F06B8116F062
:10F2D00037FE2378194A222B10807FF4A7AE184BF3
:10F2E0001B68003318BF012353809FE694F8CE308B
:10F2F000934200F0CA80002304F8023CAFE700BF4D
:10F3000061BC0020746700204867002087E000206F
:10F310002CE30020D40F001004E70020811A02081B
:10F32000BC1E0020F09D0608BC9D0608D09D060866
:10F330003C180608B49D06088067002064BC0020C5
:10F34000005E0020F018002044C700209C1B060827
:10F35000114694F8CE00019231F05EFED4F8C5302B
:10F36000019A84F8CE00F9180133C4F8C530CA7286
:10F37000D4F8C92093427FF472AF0C2304F8023C06
:10F380006DE7D4F8C530F9180133C4F8C530CA7236
:10F3900094F8CE000193114631F03EFE019B84F8B3
:10F3A000CE00052B7FF45BAFB4F80120B4F8033036
:10F3B0002178A4F8C1200022C4F8C93084F8C31011
:10F3C000C4F8C520002BD8D00B2304F8023C46E734
:10F3D00094F8CD3094F8CE105340914284F8CD305B
:10F3E00089D1062304F8023C39E7114694F8CE008F
:10F3F000019231F011FED4F8C53094F8CD10019A85
:10F4000084F8CE00F81851400133C4F8C53084F8B0
:10F41000CD10C272D4F8C92093427FF420AF0923E3
:10F4200004F8023C1BE7D4F8C530F9180133C4F8DE
:10F43000C530CA7294F8CDC094F8CE00019382EA28
:10F440000C0C114684F8CDC031F0E6FD019B84F828
:10F45000CE00072B7FF403AFB4F80320B4F80530D7
:10F46000A178A4F8C1200022C4F8C93084F8C310E0
:10F47000C4F8C520002BD2D0082304F8023CEEE6E5
:10F4800094F8CD3093427FF436AF0D2304F8023C5C
:10F4900014F801CCBCF1000F00F0DF80BCF1010FCB
:10F4A00000F05481002304F8023CE034B44205F13A
:10F4B00001057FF4CDADDCE5D4F8C530F918013392
:10F4C000C4F8C530CA7294F8CD00D4F8C9104240CF
:10F4D0008B4284F8CD207FF4C2AE82E7D4F8C530E9
:10F4E000F9180133C4F8C530CA7294F8CD10022B54
:10F4F00082EA010284F8CD207FF4B1AE2378C02BDC
:10F500003FF6F9AE6178FF2900F03F810022C4F890
:10F51000C930A4F8C11084F8C320C4F8C520002B5A
:10F520003FF45FAF052304F8023C98E60A233C2A27
:10F5300004F8023C0BD03E2A7FF4DDAE012304F830
:10F54000013C8CE604233C2A04F8023CF3D100235E
:10F5500004F8013C83E600234D2AC4F8C53084F842
:10F56000CD3084F8CE3050D0582A7FF407AF032234
:10F57000022304F8022C84F8C43070E6A3F12002C0
:10F58000D2B25E2A3FF6BCAD202B3FF4B9AD09EBF9
:10F5900007021846013782F8C834C9F8C47430F03D
:10F5A000D6FDADE5814A108099E6511C09EB0100BA
:10F5B0004A44202482F8C844C9F8C4140A4680F892
:10F5C000C834F1E5242A1CD0BAF1000F03D00D296C
:10F5D0007FF445AE5CE7764B93F83230934205D02A
:10F5E000232A04BF022304F8033CF0E7012304F8B4
:10F5F000033CECE76F4830F0C3FD504630F0C0FDEF
:10F600007EE5012304F8023C29E6022284F8C43096
:10F6100004F8022C23E630F0C5FD2321664852F0A1
:10F6200002F8002864D0A0EB0802C9F8C424002A1C
:10F630007BD0531E09EB030191F8C814202940F038
:10F64000AE80023A4244002B6DD012F801192029F5
:10F6500003F1FF304FD10346F5E7584BADF82CC00E
:10F660000FCB04AF87E80F000DF1300ED4F8C9209E
:10F670004EF824CDA11894F8C3300991B4F8C11004
:10F68000ADF828101F464FF0010CD4F8D1000894B3
:10F69000734604AA08A98DF82A708DF82EC02CF0A4
:10F6A000C1FCD0B9039F002304F8023C002F3FF4B3
:10F6B000DBAC54F80B0CFDF701FDE03454F8EB0C17
:10F6C000B847B44205F101057FF4C2ACD1E440462D
:10F6D00035F024FE14E54FF013FC049A384B0592E4
:10F6E00004A9009894F8C42004932BF0DDFBD9E71B
:10F6F000D9F8C4249BE7C9F8C4344B44314C0022E8
:10F7000083F8C82404F55C7602E01034B44248D093
:10F710002168404631F0D0F90028F6D0B44240D2FA
:10F72000E36898470023C9F8C4344FF4807200217D
:10F73000404651F061FF244B1B78002B3FF4E0ACB6
:10F74000504630F01DFDDBE43A462CE5D4F8C930D4
:10F75000B4F8C1200894234409936E2A4FF00003A3
:10F76000ADF82E30CDF82A30ADF828207FF49AAECF
:10F7700008A830F023FE08A830F014FE08A830F0E6
:10F7800011FE08A830F00EFE8CE6052B7FF6B3AD17
:10F790000122072384F8C42004F8023C5FE51346E5
:10F7A000ABE70A4831F0ECFDBCE700BF64BC0020C9
:10F7B000A0E70020C49D0608B81D0020AC1B060869
:10F7C0002C1901203C18060874670020D49D0608F7
:10F7D00008B516F085F80B4B1B78032B03D8DFE830
:10F7E00003F00D0B030308BD022B0ABF064B0020DC
:10F7F000B3F9000035F0F0FD4FF082FB72B650F027
:10F8000065FB00BF106B0020846700200000000033
:10F8100070B41B4C2388E0B903F00103BBB9257910
:10F82000ADB1184A02F1F00602E00133AB420ED04E
:10F8300052F8041B4904F8D594F8F01004EB810148
:10F84000D1F8880046F823000133AB42F0D170BCF8
:10F8500070475B08012B08D90A68238002F5C33280
:10F86000A03203F001030A60D8E70B6803F5C33345
:10F87000A03348F2050222800B6070BC704700BFC5
:10F88000101F0020181F00202DE9F041A0BB2D4AB9
:10F89000107960B32C4A2D4B92F800C092F901E028
:10F8A00092F90280CCF1FF07ACF17F06FFB2F6B20D
:10F8B00003EB800003F1F002002403E0834202F135
:10F8C000040214D053F8041B8904F7D5E1B2A1EB6C
:10F8D0000E0181EAE175A5EBE175012D09DD082135
:10F8E0008342D17004F1010402F10402EAD1BDE8BF
:10F8F000F08179B96146F3E7134B1A78F02A0ED8F4
:10F9000002F10F000F4A18700B6803F582431A3397
:10F910000B60BDE7414514BF39463146E0E7094A6F
:10F9200093F90100957993F902407F26A8421E7051
:10F9300005DB644264B29C7020445870E4E7002800
:10F94000FADAF6E7101F002018020020181F002026
:10F950002DE9F041344E78B196F87831002B44D03F
:10F96000013B324ADBB286F878311378DC073ED4AB
:10F970002F4A0B6813440B60347934B32D492B4F55
:10F98000002301F1F00C1D4602E00133A3421CD01C
:10F9900051F8042BC2F303200628F6D13878C007AB
:10F9A00015D596F8780196F8078000EB050E9EFBBA
:10F9B000F8F008FB10E00128CCBF0020012058B966
:10F9C0000133A34205F10105E2D1BDE8F081E8432E
:10F9D00000F001000028F3D0C2F3834206EB82025C
:10F9E000D2F888204CF82320EAE7F379B8E7124AE6
:10F9F000124BB2F906201248A2F57A74642202FB77
:10FA000004F283FB0234D317C3EBA41303EB4303C9
:10FA1000C3EB031380FB0302DB17C3EB6213053355
:10FA2000084A92FBF3F2A4E7101F00204867002069
:10FA3000400D0300181F002018E80020D34D62106D
:10FA40001F85EB5140420F00F0B54E4C94F87921E0
:10FA5000002857D1002A54D04B4BD3ED007AB3EE97
:10FA6000097AF4EEC77AF1EE10FA79DCBBEE097A86
:10FA7000F4EEC77AF1EE10FA4CBF08270027D3ED59
:10FA8000017AB3EE097AF4EEC77AF1EE10FA69DD85
:10FA900047F001072579A5B33C48DFF8FCE000F109
:10FAA000F00C002218E094F97C61B142ACBF022155
:10FAB000002194F97D61B34220DA94F97E61B3426A
:10FAC000D8BF41F008010F421CBFDEF80C304CF8E3
:10FAD00022300132954214D050F8043BD903F8D5B6
:10FAE00094F97B6103F00F01B142C3F30313DADC35
:10FAF00094F97D61B3424FF00101DEDB41F0040176
:10FB0000E1E7F0BD94F87A310868ABB31E4B204EA4
:10FB1000D3ED007A93ED017A1E4DF0EEE77AB0EE68
:10FB2000C77AF4EEC77AF1EE10FAB8BFF0EE477A72
:10FB3000FDEEE77A82F0010217EE903A193B03EBF3
:10FB40004303C3EB031386FB0376DB17C3EBE61318
:10FB5000053395FBF3F3184484F87921086079E7BD
:10FB600004278CE7BBEE097AF4EEC77AF1EE10FABF
:10FB700048BF47F002078DE700F5433000F5A0705D
:10FB8000086067E7101F0020C8B30020181F00207E
:10FB9000353AFC4440420F00BC1B060870B40A4EC4
:10FBA00034797CB106F108020546F836002352F894
:10FBB000040B35EA000004BF086846F8230001334F
:10FBC000A342F4D170BC7047101F002030B42A4B00
:10FBD00060B92A48027DCAB993F8F1302849203328
:10FBE00001EB83014FF4A06030BCD7E793F87F218D
:10FBF000F2B1013A214883F87F210A6802F5C32255
:10FC000002F520720A60027D002AE5D01D4A1268C2
:10FC10009106E1D51C4A93F87F11127892071AD504
:10FC200011BB93F8F3301649203301EB8301D9E778
:10FC3000124893F88041057DA54205D8042483F835
:10FC4000802183F87F41D8E70134012283F8804185
:10FC500083F87F21D1E70029BED193F8F23008491B
:10FC6000203301EB8301BDE793F8EF3004492033E3
:10FC700001EB8301B6E700BF101F002088E70020DA
:10FC8000181F002050B00020A4B3002010B4A8B961
:10FC90001C481D4C90F881210B6823440B6012B165
:10FCA0005DF8044B704790F8EF3018495DF8044B4D
:10FCB000203301EB83014FF440706FE7144B1B7846
:10FCC0009BB1012B08D10F48124C90F8812182F092
:10FCD000010280F88121DFE70A480F4C90F881216A
:10FCE00082F0010280F88121D6E70B68054A5DF8B1
:10FCF000044B03F5742303F5107301200B6082F8A5
:10FD000081017047101F002040420F00181F002083
:10FD1000C8B4002020A1070048E80100A8B93D4868
:10FD200090F882316BB190F883118A081341DB0798
:10FD30000AD501F00101032A06D8DFE802F0514993
:10FD40004139354B1B785BBB7047324890F88331A3
:10FD5000013303F00F0380F883313BB190F8823117
:10FD60000A6802F5C332A0320A60DBE72B4A80F84A
:10FD70008231527A002A44D1294AD2781AB143F00A
:10FD8000040380F88231274A1278D20730D5264AF8
:10FD90001278002AE4D043F0080380F88231DFE7CC
:10FDA00090F88E31214901EB83014FF40030F5E6E4
:10FDB0001E4B03F13002002914BF19461146F4E727
:10FDC0001B4BA3F11802002914BF19461146ECE79A
:10FDD000164B03F10802002914BF19461146E4E747
:10FDE000124B03F11802002914BF19461146DCE733
:10FDF000104A1268002ACAD043F0010380F8823109
:10FE0000C5E70D4A1278002AB6D0022380F8823165
:10FE1000B2E700BF101F0020ECB9002080B2002024
:10FE20004C67002048670020B2B30020BC1B0608C6
:10FE3000E41B0608F8B40020C8B4002090F8603035
:10FE400043B942690121072082F84430A2F84600F4
:10FE500082F84810704700BF034A0123E021C373B2
:10FE600051701846704700BF68B700204FF0FF3050
:10FE7000704700BF4FF0FF30704700BF704700BFB2
:10FE80000020704700207047F0B4067ABEB1427A75
:10FE90000C4C002120276AB10023142B07DC072912
:10FEA00004EB030003DCC578202D18BFC7700133B5
:10FEB0009342F2D101318E4204F11504EBD10020BE
:10FEC000F0BC704768B7002010B50024C473FFF77A
:10FED000DBFF024B01225A70204610BD68B700209C
:10FEE00070B402EB42000C4CC0EBC000013B044478
:10FEF0000BE0142907D8072A04EB010503D8EE7894
:10FF0000864218BFE8700131C9B213F8010F00280A
:10FF1000EFD170BC704700BF68B7002014290CD81F
:10FF2000072A0AD802EB42020548C2EBC202024489
:10FF30001144CA789A4218BFCB700020704700BFA6
:10FF400068B70020027A407A02FB00F0704700BFD9
:10FF5000027A407A02FB00F0704700BF0020704731
:10FF6000002070474FF0FF30704700BF034B93F8FD
:10FF70002921027293F82A31437270471CB800207D
:10FF80000020704701207047012070470020704713
:10FF9000027A407A02FB00F0704700BF00207047F1
:10FFA0000123C373184670470123C3731846704773
:10FFB0004FF0FF30704700BF704700BF0020704710
:10FFC0000120704700207047027A407A02FB00F05F
:10FFD000704700BF002070474FF0FF30704700BFF0
:10FFE000704700BF00207047012070470020704715
:10FFF000027A407A02FB00F0704700BF0020704791
:020000040801F1
:100000000020704700207047002070470020704794
:100010001D290DD80F2A0BD810B406481E2414FB36
:1000200002110144002081F890315DF8044B7047C3
:1000300000207047101F0020014B9888704700BFB8
:1000400018020020014B002018607047F8B900200A
:10005000002302220271037043708370C3707047E3
:100060007047037913F0020308D00369D0E909202F
:10007000013B101A1840C0B2181A70471846704752
:1000800001717047704703799B070AD5436A8269FB
:10009000D154436A01690133B3FBF1F201FB12331E
:1000A00043627047037913F0010306D0D0E90732A9
:1000B000C0689B1A0138184070471846704710B541
:1000C000037913F0010301460ED0FFF7EBFF50B1A7
:1000D0000B6A4A69CC68D05C0133B3FBF4F204FBD1
:1000E0001233C0B20B6210BD1846FCE790F84F38CF
:1000F00030B53BB990F84D1890F84E380124DAB27B
:10010000914200D830BDB0F8565804FA03F22A43A1
:10011000A0F856280133F2E7D0E90920131A584213
:1001200058417047014BD3F898037047101F0020C7
:10013000034B002283F89C2383F89D23704700BF64
:10014000101F0020014B9868704700BF1802002064
:1001500070472DE9F04F784989B091F89E330490AB
:10016000002B42D091F89F3303F0FF06002B3CD1C7
:10017000724BD1F8A0E31A7B0593002A0DF1200CF5
:100180000CBF73462023B1F8A823019303924FF0CC
:100190003C08B1F8AA234CF8046D91F8A49391F8A7
:1001A000A54391F8A63302924046019AB2421FD16C
:1001B00081F8A633059B624A81F8A4930020187346
:1001C000012381F89F3352F8A43C52F8A02C81F807
:1001D000A54340F22A3159605062118841F0010173
:1001E00011801A6842F001021A6009B0BDE8F08F70
:1001F000764536BF534A674602EB8607BD78FA78E4
:10020000C5F1FF05ADB2002D00F09080C5F1FF05EE
:1002100055433F88B7FBF8FA2D12BAF1050F00F2EB
:100220008880DFE80AF0033242536573EBB2551B56
:100230007D43B5FBF0F41C44E4B2049D012D0BBFDB
:100240002502150245EA024545EA04451D4300958D
:10025000182505FB06FB0027C7F11709012505FA3C
:1002600009F9009D19EA050F029DA946039D14BFD7
:10027000CA46AA4607EB0B09334D0137182F45F83C
:1002800029A0E9D1013691468FE7B7FBF0F400FBD6
:100290001477BFB2EBB2C7F13C07551B7D43B5FBEA
:1002A000F0F51D441446EAB2C7E7B7FBF0F300FBD4
:1002B00013775FFA85F9BFB2551B07FB05F3B3FB54
:1002C000F0F34B441446DBB24A46B6E7B7FBF0F313
:1002D00000FB1377BFB25FFA85F9C7F13C07551BE6
:1002E0007D43B5FBF0F44C441346E4B24A46A4E720
:1002F000B7FBF0F300FB1377ECB2BFB2551B7D43A5
:10030000B5FBF0F525441346EAB296E7B7FBF0F3E8
:1003100000FB1377BFB2ECB2C7F13C07551B05FBDE
:1003200007F3B3FBF0F32344DBB286E7134614462E
:1003300083E74A4681E700BF101F00201802002013
:100340000830002008200020BC220020074A30B5D9
:100350000023044602F1F805D2F8A013994200D810
:1003600030BD206845F823000133F5E7101F002059
:1003700010B5084B084909480024FF2201F89C4C9D
:100380005A73FFF7E3FF064BBDE8104093F8860170
:10039000DFE600BF1802002008300020BC1B060862
:1003A000101F0020034B13F89B0C80F0010040420B
:1003B000704700BF08300020064B13F89B2C064BFB
:1003C0002AB19A7B0AB901229A73002070479A7366
:1003D000FBE700BF0830002018020020174B184A26
:1003E00013F89A1C39B31749097809BB164991616A
:1003F000164A43F8982C164A1649126803F8942CAA
:10040000154A43F8902C303243F8602C134A43F8D5
:10041000382C134A43F8681C12491268096803F81B
:10042000342C114A03F8641C43F8302C0020704728
:100430000E499161DCE70E499161D9E7083000204F
:100440001802002074690020F41B06086C69002063
:100450006C5E00206D6900207C2F002070690020F8
:10046000205E0020345E002060B500208E1C06084F
:100470000C1D0608034B33F82C2C034B4FF0FF30B8
:100480001A8070470830002072690020034B1A88D8
:10049000034B002023F82C2C704700BF726900200A
:1004A00008300020074B93F90030012B06D0064B93
:1004B00033F8282C23F82A2C002070474FF0FF3007
:1004C000704700BF740D00200830002008B5064BAF
:1004D0001A782AB1054A1278012A1CBF00221A7024
:1004E000FFF77CFF002008BD746900206A690020C6
:1004F0000A4B93F900200A4B12B91A70002070477A
:100500001A780AB90122F8E7064B13F8262C012ABB
:1005100084BF012203F8262CF0E700BF740D0020F1
:1005200070690020083000200B4A0C4B92F9001033
:1005300019B903F8261C0020704713F8261C19B9B6
:10054000012203F8262CF6E7054B92F902201978D0
:100550008A4218BF1A70EEE7740D002008300020A0
:1005600070690020104B114A13F8251C517213F8C2
:10057000241C917233F8221C118013F81D2C03F8EF
:10058000202C33F8182C23F81C2C33F8162C23F8C5
:100590001A2C33F8102C23F8142C33F80E2C23F8D3
:1005A000122C0020704700BF0830002080B20020CD
:1005B000104A114B517A03F8251C917A128823F8BE
:1005C000222C13F8202C03F81D2C33F81C2C23F8B4
:1005D000182C33F81A2C23F8162C33F8142C23F883
:1005E000102C33F8122C03F8241C23F80E2C0020B6
:1005F000704700BF80B2002008300020094A0A4B33
:1006000092F8902003F80C2C13F8062C03F80B2C0E
:1006100013F8052C03F8032C13F8042C03F8022C10
:10062000002070479CB20020083000200E4A0F487E
:1006300012F8013C517803F00F0343EA0123D1780B
:100640000901C9B20B43A0F876309178137812797A
:1006500003F00F03120143EA0123D2B21343A0F8BF
:1006600078300020704700BF083000209CB2002086
:100670000C490D4BB1F8762002F00F0003F8010C85
:10068000C2F30310120A5A70B1F87820D87002F041
:100690000F011970C2F30311120A19719A70002028
:1006A000704700BF9CB20020083000200B4B0C4A62
:1006B000597982F87410D988A2F8C610197A82F88C
:1006C000C8105989A2F870109989A2F87210054AC9
:1006D000997BDB7BD17513760020704708300020B2
:1006E0009CB2002080B200200B4A0C4B92F8741090
:1006F0005971B2F8C610D98092F8C8101972B2F8C0
:100700007010B2F872209A81054A5981D17D127E0B
:100710009973DA73002070479CB2002008300020E3
:1007200080B2002008B57022024903484FF040FC17
:10073000002008BD9CB20020183000200A4A0B4956
:10074000B2F880308B8292F8823003EB83035B0037
:100750004B82074B92F88310D976064B92F884208F
:100760009A700020704700BF0830002078BC00203D
:10077000F0E500202CE300200A4A0B4B918AA3F8F5
:100780008010528A0A21B2FBF1F283F88220074AD4
:10079000D27E83F88320064A927883F88420002052
:1007A000704700BF78BC002008300020F0E5002032
:1007B0002CE3002030B1007910F1FF3018BF4FF06A
:1007C000FF3070474FF0FF307047154A154B528885
:1007D00002F0010283F88520134A92F8871183F80A
:1007E000861092F8881183F8871092F8891183F89F
:1007F0008810B2F88A11A3F88A1092F88C1183F845
:100800008C1092F88D1183F88D1092F8841192F863
:100810008E2183F88E1083F88F200020704700BF50
:1008200064E6002008300020101F0020034B002049
:1008300083F8900083F89100704700BF08300020D3
:100840000A4B0B4A1B68B2F892105980B2F8941008
:10085000A3F84C10B2F896109980B2F89810B2F83C
:100860009A20D9801A800020704700BFC4B40020AD
:10087000083000200D4B93F89C20862101FB0232AA
:100880000020B2F8A210A3F89210B2F8EC10A3F86E
:100890009410B2F8A410A3F89610B2F8A610B2F80B
:1008A000A020A3F89810A3F89A20704708300020E1
:1008B000124B93F85C2283F8542293F85D2283F85C
:1008C0005522B3F85E22A3F85622B3F86022A3F8AB
:1008D00058220B4AB3F862121268A3F85012B3F808
:1008E0006412A3F85212B3F86612B3F86832A2F891
:1008F0006010A2F862300020704700BF083000206E
:10090000C4B40020134B93F8542283F85C2293F86C
:10091000552283F85D22B3F85622B3F85012A3F89B
:100920005E22B3F85822A3F86022A3F8621293F86B
:100930009C20B3F85212A3F86412862101FB023204
:100940000020B2F80011B2F80221A3F86612A3F851
:1009500068227047083000200F4BB3F86A22A3F8D2
:100960003A22B3F86C22A3F83C22B3F86E22A3F823
:100970003E22B3F87022A3F84022B3F87222A3F803
:100980004222B3F87422A3F8442293F8762283F823
:1009900038220020704700BF083000200F4BB3F80A
:1009A0003A22A3F86A22B3F83C22A3F86C22B3F8E7
:1009B0003E22A3F86E22B3F84022A3F87022B3F8C7
:1009C0004222A3F87222B3F84422A3F8742293F8C7
:1009D000382283F876220020704700BF08300020BC
:1009E0000D4A92F89C30862101FB032392F877127E
:1009F00083F8041192F8781283F8081192F87912AA
:100A000083F8051192F87A1292F87B2283F8061186
:100A100083F8072100207047083000200D4B93F821
:100A20009C20862101FB0232002092F8041183F8F9
:100A3000771292F8081183F8781292F8051183F86A
:100A4000791292F8061192F8072183F87A1283F846
:100A50007B227047083000200A4A92F8483322214E
:100A600001FB032303F51F7302F24A3102F26A32DB
:100A700051F8040B43F8040B9142F9D10A881A800B
:100A800000207047083000200749084B0A7883F897
:100A90009C20013283F86C234A7883F84823013282
:100AA00083F86D23002070472CE3002008300020DD
:100AB000194A1A4BB2F86E131980B2F870135980A4
:100AC000B2F872139980B2F87413D980B2F8761321
:100AD0001982B2F878135982B2F87A13998292F88F
:100AE0007C131977B2F87E13D98392F8801383F8B8
:100AF0002110B2F88213D984B2F88413998492F841
:100B0000861383F82810B2F88813B2F88A2359851F
:100B10009A850020704700BF0830002014BA0020DA
:100B2000194A1A4B1188A3F86E135188A3F8701351
:100B30009188A3F87213D188A3F87413118AA3F8CB
:100B40007613518AA3F87813918AA3F87A13117F48
:100B500083F87C13D18BA3F87E1392F8211083F8CD
:100B60008013D18CA3F88213918CA3F8841392F88C
:100B7000281083F88613518D928DA3F88813A3F85B
:100B80008A230020704700BF14BA002008300020DC
:100B90000C4A0D4BB2F88C131981B2F88E1359819F
:100BA000B2F890139981B2F89213D981B2F89413E4
:100BB000D982B2F89613B2F8982319835A83002089
:100BC000704700BF0830002014BA00200C4A0D4BBB
:100BD0001189A3F88C135189A3F88E139189A3F876
:100BE0009013D189A3F89213D18AA3F89413118B8F
:100BF000528BA3F89613A3F898230020704700BFE8
:100C000014BA002008300020094B93F8A82383F879
:100C1000A32393F8A92383F8A02393F8AA2383F8A6
:100C2000A123B3F8AC23A3F89C230020704700BF96
:100C300008300020094B93F8A32383F8A82393F8E6
:100C4000A02383F8A92393F8A12383F8AA23B3F858
:100C50009C23A3F8AC230020704700BF083000207D
:100C60000A4930B50A4C002201F2AE30135DA3F1FF
:100C70006105052D9CBF203BDBB283540132072A5E
:100C8000F4D1002081F8B50330BD00BF083000204A
:100C900026AA0608084B93F8B623012A074A06D865
:100CA00093F8B713481E022888BF03219170B3F848
:100CB000B83313800020704708300020D4B90020DA
:100CC00010B5044623790E2B00D110BD032B04D19F
:100CD000D4F809309868FFF7F3FF0E34F2E70B49B8
:100CE000D1F8BC339A68134618790E280CD19B1A98
:100CF0005A10074B5343013B91F8C52393FBF2F382
:100D0000013381F8C43370470E33EDE7083000201B
:100D1000B76DDBB6084BD3F8C80310B558B1074C14
:100D2000E169013191FBF0F200FB121003EB80034B
:100D3000E061D3F8CC0310BD083000201802002079
:100D4000054B30B11A69186001321A6105221A7513
:100D5000704704221A75704784B5002038B500F139
:100D60006E020446831EEA2123F8021F9342FBD140
:100D700043F6491363852F4B63600025CE232381FF
:100D80000320C4F8845048F0C9FC052048F0C6FC94
:100D9000082048F0C3FC092048F0C0FC0A2048F0B5
:100DA000BDFC0C2048F0BAFC0D2048F0B7FC022036
:100DB00048F0B4FC0120204984F87500CA6F2B4626
:100DC00000FA03F50133102B42EA0502F8D14FF483
:100DD000206322F46042CA67A4F8763040F601230B
:100DE000A4F87830154B2367142384F874308023DB
:100DF00084F8883042F61403A4F880304FF6FF736D
:100E0000A4F88A30A4F88C304623A4F88E3040F23F
:100E10000123A4F89030002384F8923084F8A330A2
:100E200084F8B4305023A4F8C6303C23A4F8C8306A
:100E300038BD00BFCD004E009CB200209808640071
:100E400010B580220446002150F0D6FB382204F170
:100E50008000002150F0D0FB0D482246002350F8BE
:100E60002310C2F8801001330E2B02F10402F6D1D8
:100E70001E22084904F1C0004FF09AF80B220649DF
:100E800004F1E4004FF094F8032384F8EF3010BD30
:100E9000BC1B0608541D0608741D060838B50C4B0B
:100EA0000C4C4FF490721846202150F0A5FB0A4AD2
:100EB00003461268002001252D32C3F82001C3F833
:100EC000240183F8280183F82B51C4F8DC2338BDB2
:100ED0001CB800200830002044C700200022C27344
:100EE000DCE700BF10B50C46A0B9194B194993F8BF
:100EF000E02323680B44236002B110BD164991F82A
:100F0000EF3001EB830188314FF48060BDE8104081
:100F1000FEF744BE0EF0A2FF32280ADD23680C4A19
:100F200003F5742303F510730121236082F8E013A5
:100F300010BD074B93F8E023142882F00102C7BFCD
:100F400083F8E0230549064983F8E023D1E700BF91
:100F50000830002040420F00101F002020A1070091
:100F600048E8010038B5044602234FF4FA703222F3
:100F70000021E37003250123E08025712281217087
:100F80006371A372102013F061F9607038BD00BF67
:100F9000F0B55B4C5B4DD4F8E4232B68DFED5A6A67
:100FA0005A4E2968C4F8E4139B1A07EE903AF8EEFB
:100FB000677AB7EE007A67EEA67A3378F4EEC77AEE
:100FC000F1EE10FA88BFF0EE477A13F0010383B018
:100FD000C4EDFA7A0CD14E4A4E4812784E4903803D
:100FE000D2070B8031D4012384F8083403B0F0BD5C
:100FF00001AB6A4604F57C7104F57B704CF046FE4B
:1010000043484649019B009A0078DFF808C1424FE7
:10101000A1FB02E281FB03E1DB17C3EB6113520981
:10102000C107ACF800203B80DDD533782D68DB07A5
:101030005FD53B4F3B4EBB798BBBF3890F2B30D831
:10104000B068D4F8F433C11A05E0364ED4F8F4335E
:10105000B0682D68C11AD4F80424C4F8F4034FF41E
:101060007A73AA1A03FB01F340F2DC5193FBF2F30B
:101070001BB28B422C4AC4F80454A8BF0B469342BF
:10108000B8BF1346D6E90021A4F800340123C4F800
:10109000FC13C4F8F82384F8083403B0F0BDB38916
:1010A000CCE7224901AB081F6A464CF0EFFDBB7943
:1010B000B06843B9D4F8F433009FC11A1C4A1368CE
:1010C0003B441360C7E7D4F8F433DDED007AC11A6E
:1010D000F8EE677A07EE101A67EEA77AB8EEC77ACD
:1010E000E7EE077AB1EEE77AFCEEC77A17EE907A70
:1010F000E4E70C4ED4F8F433B068C11AABE700BF94
:101100000830002044C700206F12833AA4B30020A7
:1011100048670020A6B30020A8B300201F85EB512C
:10112000D0B4002088E7002024FAFFFF0434002018
:10113000E8B400202DE9F043B74B1B7885B0C5B269
:10114000002B00F08780012B40F08180B34C94F895
:101150009834082B7BD8DFE813F0910179012C013A
:101160008001DC019B01BA014D013401D4F89434B3
:1011700094F80C2401332121012AC4F8943484F812
:101180007C1400F07582022A40F00F81A44DA54B1B
:10119000B4F82024DA81D5E90001B4F824241A82B5
:1011A000722384F87C3450EA010340F0FE80D4F8C6
:1011B0002C24002A00F0F980D4F82814002900F02B
:1011C000F480642301EA0300B2FBF3F703FB172C5E
:1011D00000EB80000CF5FA6C4600ADF804C0B7FBDC
:1011E000F3F0B1FBF3FC03FB1070BCFBF3F703FB64
:1011F00017C78DF806008DF80A7042F21070B2FB26
:10120000F0F2B2FBF3F703FB1722B1FBF0F08DF81D
:101210000720B0FBF3F703FB17078348B1FBF0F19E
:1012200001A8B1FBF3F203FB12118DF80970ADF8C0
:101230000C608DF808102FF05BFE7C4B1A68861A44
:1012400061F10007C5E90067002384F8783405B030
:10125000BDE8F083A5F10A03222B78D8DFE803F07C
:101260004D77774D77777777777777777777777762
:101270007777777777777777777744777777777731
:1012800012771200654C6A4F94F80A3494F8096496
:101290000020F854002E71D1664984F80C64384659
:1012A0004DF096FE002800F04581634938464DF028
:1012B0008FFE002800F03E81604938464DF088FEE0
:1012C000002800F0CA815E4938464DF081FE0028B2
:1012D00000F0C38138465B494DF07AFE002858D1B2
:1012E000032384F80C3454E04C4B002283F8092487
:1012F00083F80A2483F80B24A9E7484C94F878343F
:10130000002B52D004F27C4104F5926313F8012DB6
:101310005A709942FAD1464F3B78402B40F20E81E9
:10132000373B1B01DBB27A78402A8CBF373A303A20
:10133000D2B2134494F80B24DBB29A423FF416AFB6
:101340003F22002384F87C2484F878347FE7334CF0
:1013500094F80A340E2B04D835495A1CCD5484F81D
:101360000A2494F87834002B7FF471AF94F80B348E
:101370005D4084F80B5405B0BDE8F08394F80C345C
:10138000022B00F01B81032B00F0DC80012B00F00E
:101390001083013600232A2D84F8096484F80A3466
:1013A000E4D1012384F8783451E7002384F87834B9
:1013B0004DE7032384F89A5484F89B5484F89834B6
:1013C00045E7214B0022A3F1140184F8982413F877
:1013D000012D5A709942FAD194F89B34AB4200F037
:1013E0002F81D4F8FC353F220133C4F8FC3584F852
:1013F0007C242CE794F89A340822AB4284F8982491
:101400003FF425AFD4F8FC3501221344C4F8FC3571
:1014100084F899241BE700BFD0B4002008300020D6
:10142000B8B4002088E7002040420F0044C70020E5
:1014300074E600203CAC060844AC06084CAC060838
:1014400054AC06085CAC060898340020622814BF2F
:101450000023022384F89834F9E694F89A3494F837
:101460009B2484F89C541D44EDB2AB18042284F8EC
:101470009A5484F89B3484F89824E8E6B5287FF4DD
:10148000E6AE0022012384F8992484F89834DEE63D
:1014900094F89A24B4F89E3494F89B14154403EB02
:1014A0000020EDB280B26B180622B0F5AC7F84F854
:1014B0009A5484F89B34A4F89E0484F8982477D92D
:1014C0000122002384F89924A4F8A034BFE694F8FC
:1014D0009A24B4F8A03494F89B142A44D2B2B3F5F9
:1014E000AC7F114484F89A2438BFE21803F1010359
:1014F00038BF82F8A454B4F89E2484F89B149BB29D
:101500009A42A4F8A0343FF6A2AE072384F8983498
:101510009DE694F89A3494F89B24A4F89E041D4404
:10152000EDB2AB18052284F89A5484F89B3484F801
:1015300098248CE6012384F80C342AE71B0103F07D
:10154000F003F0E6022E00F08C80032E05D14DF062
:101550000BF994F8096484F83104032E7FF619AF6F
:10156000331F94F83074C3F3870303EB8707FD3709
:10157000FFB2102F3FF60DAFF21EA2EB830303F074
:10158000FF03012B00F0C881042B0BD100204DF08C
:10159000EBF87B1E2344002294F8096483F854047A
:1015A00083F86424D4F874340133C4F87434F0E656
:1015B0000023A4F8A0340028A7D048E6731E082B07
:1015C0003FF6E7AE01A252F823F000BF3116010842
:1015D000931301089313010893130108931301084F
:1015E000931301081116010801160108F1150108ED
:1015F00000204DF0B9F894F80964C4F82C04C8E64A
:1016000001204DF0B1F894F80964A4F82404C0E670
:1016100001204DF0A9F841F21843CC4A94F809642E
:1016200003FB00F3A2FB03239B09A4F82034B0E6DC
:1016300002204DF099F894F80964C4F82804A8E64B
:10164000D4F8943494F899240133C4F89434002ADB
:1016500047D03E2384F87C34F9E5022384F80C3427
:1016600097E64DF081F894F8096484F8300474E743
:10167000B74D2B78672213F0020384F87C2400F026
:101680004881B44BD4F81004D4F8141494F81824F6
:1016900018605960D4F81C04B4F822141A7500229A
:1016A0009860598284F87824AB4AD4F804361268DA
:1016B000C4F804262020C4F80836FCF74FFA94F842
:1016C0001B362A7883F0010384F81B3693077FF5D5
:1016D000BEADA04B1B7D042B7FF6B9ADFFF758FCC8
:1016E000B5E594F89C342121023B84F87C142E2B20
:1016F0003FF6ADAD01A151F823F000BFB3180108CA
:10170000EB1801084F1201084F120108591801087F
:101710004F1201084F1201084F1201084F12010821
:101720004F1201084F1201084F1201084F12010811
:101730004F1201084F1201084F1201081918010831
:101740004F1201084F1201084F1201084F120108F1
:101750004F1201084F1201084F1201084F120108E1
:101760004F1201084F1201084F1201084F120108D1
:101770004F1201084F1201084F1201084F120108C1
:101780004F1201084F1201084F1201084F120108B1
:101790004F1201084F1201084F1201084F120108A1
:1017A0004F1201084F1201084F1201084F12010891
:1017B0004F120108B917010894F8A82484F83124BD
:1017C0004923102A84F87C3440F2B380102284F834
:1017D0003124624B0021A3F17007A3F16006A3F14D
:1017E0004005A3F1500093F808E093F809C007F80A
:1017F00001EB013193F80BE006F801CB8A4213F8B4
:101800000CCF05F801EB00F801CBECD8D4F8743418
:101810000133C4F8743441E04E4BD4F8B4049881D9
:10182000D4F8B804D88194F81916D4F8BC245620FA
:1018300084F87C04012042F2107584F81A0692FBA9
:10184000F5F21A8200293FF402AD002384F819361C
:1018500084F81A363E4D27E794F8AF044F23C107AA
:1018600084F87C3403D594F8AE34032B6CD0384D17
:101870002B7823F002032B70394984F81826D1E91C
:101880000023344D94F8D374B4F8D0642F75134307
:101890006E8203D100F00C000C2863D094F8193646
:1018A000002B3FF4D4AC94F81A36002B3FF4CFACA5
:1018B000CBE7284BD4F8A804254D94F818165860A7
:1018C000D4F8B4240A2092FBF0F2D4F8AC049A6065
:1018D0005022186084F87C242B7871B343F0020303
:1018E00001222B7084F81926DDE794F8A9345322DD
:1018F000D80784F87C2403D594F8A834032B1FD090
:10190000134D2B78002223F002032B7084F8182645
:10191000C4E784F87834C7E607F1FF38A044002014
:1019200088F834744CF020FF94F8096488F8440473
:1019300038E6002A7FF44DAF68E703F0FD03CFE7F8
:10194000012384F81836A9E7012295E7D34D6210E8
:10195000A4B3002088E7002044C70020AC34002056
:10196000B8B400203E48B4F9AC64D4F8A454A6FB43
:101970000023F71700FB0733D4F8A864394F3A481F
:1019800096FBF7FC34A7D7E9006712EB050843F193
:101990000009006818EB0C0249EBEC7312EB060827
:1019A00043EB0709B8EB000269F10003C1E900232A
:1019B00074E7B31E072B3FF6ECACDFE803F00443FB
:1019C0003E34292114094BF0EFFCC4F81004E0E484
:1019D00001204CF0C9FE00EB80004000C4F81C045C
:1019E00094F80964D5E401204CF0BEFE00EB8000C1
:1019F00000EB80008300A4F8223494F80964C8E462
:101A000000204CF0B1FE94F8096484F81804C0E496
:101A1000164A3978137830298CBF43F0020323F03B
:101A200002031370B5E43B78572B7FF4B2ACD4F8C3
:101A300014345B42C4F81434ABE44BF0B5FCC4F886
:101A40001404A6E43B78532B7FF4A3ACD4F81034F1
:101A50005B42C4F810349CE4B0F5F79049000000F4
:101A600000840C2440420F0044C70020A4B300208F
:101A70002DE9F041C24CD4F81C3605464BB9A9E11A
:101A8000D4F81C0613F0E8FE80B2FFF753FBD4F83D
:101A90001C36184613F0E8FE0028F1D194F81426FD
:101AA000531E052B0CD8DFE803F0600B606022A109
:101AB0000026B04500F025855EF8281010F000F8EB
:101AC000B04B1B6803F02003002B3BD1AE4F3B789B
:101AD000DA0704D4AD4B5B79002B00F0B78041F0FE
:101AE000A1FB0646002840F0BC80BDE8F081A84A72
:101AF000D4F8041613685B1A40F6C4118B4200F246
:101B0000BA8194F81636002B40F0E981A14A127888
:101B10009107D5D50522C4F80C3684F816269E4ABE
:101B2000D4F81C06134493F8281313F0A1FE954B28
:101B3000D4F80C261B68013203F02003C4F80C26ED
:101B4000002BC3D0D4F82036EB1A002BBEDB934B0E
:101B50001B7D042BBAD905F5123505F5F875012062
:101B6000C4F8205613F00CFFB0E7884F3E78002EE3
:101B700000F05981012EA3D1D4F81C0613F068FEA1
:101B800000289DD094F81436032B00F00C84042B0D
:101B900000F0C983012B93D17D4AD4F81036116827
:101BA000CB1AC72B8CD9D4F80C36042B00F28B84BB
:101BB000DFF8E4C1D4F81C06DFF814E2C4F810160C
:101BC00003EB43030CEB8302002392F8C581876883
:101BD00071461A4604E0102B3FF46AAF51F8042F07
:101BE0009742DEB203F10103F5D162E7674AD4F808
:101BF0000036D2780133C4F8003662B194F8153655
:101C0000674A0133DBB2A2FB0312920802EB8202A5
:101C10009B1A84F815365F485D490278594B5F4E30
:101C20001B6822F0020202700A680968C4F80426E0
:101C3000C4F810160022012103F020033275C4F805
:101C40000C2684F8162684F814163DE7514A1378BA
:101C500023F00103137041F0E5FA064600283FF433
:101C600044AF504B504D1B8813F4006300F0D980F3
:101C70002B78002B00F0438194F814364B494C4AE2
:101C8000C978126885F83810A3F10503B3FA83F315
:101C90005B0985F82830AA6013F0D2F894F808346C
:101CA000002B4ED0434AAB6892ED147AD2ED164A1F
:101CB000D2ED155A92ED003AD4F82826C4F8283609
:101CC00027EE077A9B1AA4EEA47A3B4A07EE903AD5
:101CD000A5EEA57AD4F82436C4F82406C01AB1EECD
:101CE000C76A364B12881B88AB812C4B2A821A7D1F
:101CF000DB892A756B82DFED322ADFED326A9FEDD8
:101D0000325AD5ED093A95ED074AF8EEE77A07EE33
:101D1000100A67EEA27AB8EE477A26EE036AC7EE9B
:101D2000875A66EE267A65EEA66AE3EE857AE4EED9
:101D3000056A85ED086AC5ED097AC5ED065AC5ED57
:101D4000076A13F07DF894F81436052B40F0A48050
:101D5000104B1B7813F0010200F09E80D4F82C2663
:101D60001A49821A8A4200F2D18094F83036002B48
:101D700040F0928094F8316686F001068DE000BF55
:101D80000830002050B0002048670020D0B4002068
:101D900044C70020A4B30020BC1B060888E700202D
:101DA000CDCCCCCCE4B3002020B500204C67002083
:101DB000E0B400205C2A0010A8B30020A6B30020E5
:101DC00000247449CDCC4C3ECDCC4C3F3F420F005B
:101DD0008C93060894F81B2696077FF55FAEA34AFE
:101DE000C4F80C36116884F816361268C4F8101658
:101DF0000523202084F81436C4F80426FBF7AEFE31
:101E00009B4B1B78980705D59A4B1B7D042B01D95A
:101E1000FFF7BEF894F81B3623F0020384F81B3654
:101E20003CE62B7028E7012A00F0DA81032A7FF4D0
:101E300047AE8E49D4F810360A68D31AB3F57A7FC4
:101E4000FFF43EAED4F80C36C4F81026002B00F098
:101E5000CA82012B40F23083874B0A681B68C4F8A2
:101E600010260522C4F80C6684F8166603F02003D9
:101E700084F8142628E6804912680B68C4F81026F6
:101E800023F02003002206200B6084F81406C4F817
:101E90000C2684F8162619E600262B7885F839607A
:101EA000072B11D8DFE813F08E01F4009501CA006A
:101EB0007D00590008000E004FF40000FBF786FE7D
:101EC0001CF080F900232B7040F060FD2B780BB1E3
:101ED00040F012FE002384F80834BDE8F081052BA1
:101EE0007FF4EEADD4F80C362B2B7FF618AE624B98
:101EF0001B68062203F0200384F81626E4E501237C
:101F00002B7040F0F9FD40F041FDB5E613F00203FF
:101F100008BF3246DFF87481C4F82C0608BF1E469D
:101F2000544B98F81C101B7D18BF002284F83026F3
:101F300094F932268B422CBF4FF0FF330123D31884
:101F400000F14A81022B00F37C8184F8323600F0E4
:101F50007B81002384F831369FE7AB68D5ED097AA1
:101F6000632BD4BF9FED457AB7EE087A67EE877A88
:101F700095ED087AB4EEE77AF1EE10FA07DD4FF44A
:101F80000000FBF723FE1CF01DF907232B70012135
:101F900000234FF4706285F83610C5E90B33AA862A
:101FA00092E7DFF8E880AA89B8F82630934209D38F
:101FB000B8F82400A968642303FB00F39942DCBF4E
:101FC00005232B702E4BDFED2F6A13ED016AD3ED45
:101FD000007A9FED2D7A05EE902AF8EEE55AE5EEAF
:101FE000867A67EEA67AF4EEC77AF1EE10FAB8BFF9
:101FF000F0EE477AFDEEE77AC82A17EE903A40F203
:102000001381D4F88426E96A632B40F30B818B4259
:10201000A8BF0B46632AEB622B6B40F310819A42F8
:10202000A8BF1A46B8F8003085F8353001210A23D8
:102030002A6385F8361085F8343045E7B4F88836D9
:10204000AA89D4F83416E9629A429CBF04232B7003
:102050000E4BDA8818882A630F23012285F8350091
:1020600085F8362085F834302EE700BF44C70020BD
:10207000A4B3002088E7002050B000209A99993F2F
:10208000983600200000C8420000000014BA00206A
:10209000B4F87436DFF8B0831BB9B8F81430A4F87C
:1020A0007436B8F808309FEDD96ADFEDD95AD94AAD
:1020B00006EE903AB8F80C30127807EE103AB8F8FD
:1020C0000A3007EE903AF8EEE66AB8EEC77AF8EE14
:1020D000E77AD14B66EE866A27EE067A67EEA57A36
:1020E000C3ED006A83ED027AC3ED017AD30705D40C
:1020F0004FF40000FBF76AFD1CF064F8AB89B8F8F8
:102100001E209A4206D995F8382006216970002AC7
:1021100040F06181B8F80410B8F80620C4F88426AD
:10212000994204D9053B1E2BB8BF1E2399B2B8F8BB
:102130000270B8F82430B948A4F8881606EE903A30
:1021400007EE907AB8F82630F8EE677AF8EEE66A8D
:10215000CB1A77EEE66A07EE903AF8EEE77A07EEEA
:10216000107A86EEA76A6B68642603F2DC5206FBDF
:1021700007F39A42B8BF1A460223C4F834262B70DC
:1021800007EE901AB8EEC77AF8EEE77AA0EC016A8B
:10219000A6EE677A80ED007AEB6AA968EA625B1ABC
:1021A000002BB8BF5B42B3F57A7FBCBF03232B7013
:1021B00001204FF4FA7140F60A7385F8360029635E
:1021C000AB8681E63B7813F0010342D16B60EB8173
:1021D0007AE6D4F83426DFE7002384F83236B8E60E
:1021E0008F49D4F810360A68D31AB3F57A7FFFF412
:1021F00067ACD4F80C36C4F81026002B00F026810A
:10220000012B40F24181874B0A681B68C4F81026F5
:102210000322C4F80C6684F8166603F0200384F8E1
:10222000142651E46423F5E6B8F806007E4902FB63
:1022300000F2A1FB02129209C4F88426E3E66422AC
:10224000F0E6022384F83236012384F83136002682
:1022500023E694F83836002B3FF436AE734AAB6869
:102260006868D2ED037A724AA989D2ED086A83427E
:10227000FCEEE77AB8BF0346E8896B6017EE903A48
:10228000F6EE007A8142F4EEE76A38BF01469BB26F
:102290000020F1EE10FAA4F84436E981C4F84006B3
:1022A000C4F83C067FF710AEDFED627AF4EEE76A21
:1022B000F1EE10FA7FF508AED4F86C16DFED5E7A19
:1022C00007EE101AB8EE477AB4EEE77AF1EE10FA9C
:1022D0007FF5FAAD40F22E4083427FF6F5ADA3F5CF
:1022E0007A7307EE903AB8EEE77ADFED547AE7EECC
:1022F000267A4E1CFCEEE77A17EE903A9BB207EE78
:10230000903A002940F01881F8EE677A02F128032C
:10231000B0EE670AC3ED007A4DF028FFC4F86C6692
:10232000A4F87406D0E5BA78002A00F0B48094F8D6
:102330001616002940F0928084F81666D4F80C2610
:10234000B22A40F2E98000230222C4F80C3684F855
:1023500016263B4AD4F81C06134493F8B41213F023
:1023600087FAD4F80C3694F816160133C4F80C36F4
:10237000032900F0AF802B4A1368032903F02003E0
:102380007FF6A2AB264913680A68C4F81026052117
:10239000002203F0200384F81416C4F80C2684F8F5
:1023A0001626FFF791BB94F81536254A2549D4F82F
:1023B0001C0603EB430302EB830393F8C53151F88A
:1023C00023100FF07DFB164A164B12681B68C4F8E9
:1023D00010260421DCE74FF40000FBF7F7FB1BF0AD
:1023E000F1FEAB8996E694F81536154A1549D4F8EE
:1023F0001C0603EB430302EB830393F8C53151F84A
:1024000023100FF05DFBFFF792BB00BF0AD7A33983
:10241000CDCCCC3DA4B300208036002094360020E3
:1024200044C7002050B000201F85EB51C8B30020E6
:10243000503600208FC2753F0024744900007A4452
:10244000BC1B06088C93060814BA00204FF4965162
:10245000D4F81C060FF034FBFFF769BB01293FF4E9
:102460006DAF022984D1D4F80C36092B7FF671AFF9
:102470000F2B72D93A7900230321C4F80C3684F863
:10248000161672BB3A4A7DE73A49D4F81C0613F097
:10249000F3F9FFF74CBB364B37491B680868C4F8A3
:1024A0000C26052184F8162603F02003C4F8100634
:1024B00084F81416FFF708BB3049D4F81C0613F053
:1024C000DBF9FFF734BB2A4B12681B68C4F81026EF
:1024D00003215DE73B79002BD4D0D4F80C36432B95
:1024E000D0D8274AD4F81C06134493F8E41213F00A
:1024F000BFF9D4F80C3694F816160133C4F80C362C
:1025000039E794F815360C2202FB03C3D3F8C8113F
:1025100013F0B2F9FFF70BBB194BD4F81C061344A8
:1025200093F8001213F0A4F9D4F80C3694F81616A8
:102530000133C4F80C3694E792ED0A6A07EE106A8C
:10254000F8EEE77AF8EE476A77EEC67A134687EE3A
:10255000A67A283377EE067ADAE67978084AD4F84C
:102560001C06C1EBC1010A44134493F8B712F6E606
:1025700050B0002064AC060844C7002084AC0608B4
:10258000BC1B060878B310B582B040F25514AA22DD
:1025900000238DF80210ADF800408DF803208DF86F
:1025A0000430694655220DF103045340082213F00C
:1025B000800F4FEA430318BF83F03103013ADBB2C7
:1025C000F5D1A14202D011F8012FEEE702688DF893
:1025D0000330536AAA228DF80420694605221BB1F4
:1025E000984702B010BD704713F0ECF8F9E700BF50
:1025F00070B590F8603044699AB073B94268537806
:1026000084F84430D1789378012243EA0123A4F876
:10261000463084F848201AB070BD054602E02068B4
:1026200013F01AF9206813F01FF90028F7D10146BA
:1026300062220DF106004EF0DFFF154A1549D2F86F
:1026400098360968144C92F8942603930B44179219
:102650000493124A6B69A6781148029040F2FF5128
:10266000ADF80410CDE905235EB96078642202FB61
:10267000004001A904304DF09BFC01226B6966709B
:10268000A2701868FF211AB0BDE870407AE700BF59
:102690000830002044C7002010E000203DFE000864
:1026A000D0DF002090F8603063B910B50278032ABB
:1026B0000DD0042A19D0022A1C4C0FD0002384F814
:1026C000A43610BD194B002283F8A4267047174C7E
:1026D00084F8A536002384F8A43610BD012384F8BD
:1026E000A536002384F8A43610BD4268017E5278D6
:1026F0000E4C0120814202F00F0284F8A50609D099
:102700000229DBD1002AD9D0162084F8A636FAF7A0
:10271000EDFDD3E72AB1152084F8A616FAF7E6FDF9
:10272000CCE71620FAF7E2FDC8E700BF083000202A
:1027300038B50A484CF056FC084AC0B2002302449F
:1027400020251918CCB2092C05D9054B0B440022C1
:1027500083F8A72638BDD5540133F2E7AF36002001
:102760000830002038B50A484CF03CFC084AC0B29A
:102770000023024420251918CCB2142C05D9054B8E
:102780000B44002283F8A72638BDD5540133F2E765
:10279000AF360020083000202DE9F0411E4600230E
:1027A0008B55074608460C4690464CF01BFC751EA0
:1027B000301A2118254440426A1A002AA5EB040366
:1027C00012DA234420211A1B002A11DA0023A35510
:1027D000094B93F8BD16891B234642463846C9B2B9
:1027E000BDE8F04114F002BB2B5C05F80139E3E7CA
:1027F00003F80119E7E700BF083000202DE9F04198
:10280000144D95F82A4184421AD906461046884646
:1028100017464CF0E7FBA31B834204FB0864A8BFE8
:1028200003462C441A46204639461E464EF0BCFE4E
:102830004544002814BF0123002385F8203101D12D
:10284000BDE8F081324639462046BDE8F0414DF002
:10285000AFBB00BF1CB80020074890F82901904288
:1028600007D908B5084611461A46FFF7C7FF0020EA
:1028700008BD0020704700BF1CB8002030B583B0F1
:1028800014460D461A4601A8074931F0C9FA074B0C
:1028900093F82931A34204D901AA21462846FFF71B
:1028A000ADFF002003B030BD9CAC06081CB8002072
:1028B00010B5044B044C1A880449204631F0B0FA94
:1028C000204610BD72690020C6360020FB120708A2
:1028D00010B5054B054933F8282C03F2C364204694
:1028E00031F09EFA204610BD08300020FB12070888
:1028F000082A07D808B5084611461A4645F034FBA1
:10290000002008BD00207047F8B507460026F5B244
:102910000024E0B220222946013445F025FB0C2C8E
:10292000F7D10136092EF2D11B4D422201200021A0
:10293000441C45F019FB15F8012FE4B22046002A8B
:10294000F5D197F90F302BBB144D14464D22E0B250
:10295000022145F009FB15F8012F0134002AF6D1B8
:102960000F4D2B2202200321441C45F0FDFA15F8DF
:10297000012FE4B22046002AF5D10A4D2B22022075
:102980000421441C45F0F0FA15F8012FE4B220466A
:10299000002AF5D10020F8BDC8AC0608B8AC06087E
:1029A000ACAC0608A0AC060810B50024C473FFF751
:1029B000ABFF204610BD00BFF8B5084617465E1EA7
:1029C00016F8015F421CD4B239462A462DB1082FB1
:1029D00001D845F0C9FA2046F2E72846F8BD00BF05
:1029E00070B50B4C4FF0FF3504F528762368E034C2
:1029F000184643B193F83830142B04D012F030FF4E
:102A0000854228BF0546A642F0D1284670BD00BFCA
:102A10007CE0002010B50B4B0B4993F8C92693F8C6
:102A2000C836097882B00D321E3304240272437214
:102A30008DF8044021B901210DEB040049F090FD0F
:102A400002B010BD0830002074670020F0B51846B1
:102A50008BB01C460E4617464CF0C4FA1E2828BF01
:102A60001E200323214602460546002402A88DF8B5
:102A700004308DF805708DF806608DF807404DF034
:102A800097FA064B1B7813B120460BB0F0BD291DF9
:102A900001A849F065FD0BB0F0BD00BF74670020D0
:102AA00010B582B000248DF8043001AB8DF80540DC
:102AB000FFF7CCFF02B010BD00B5094B83B01B7807
:102AC00004228DF804201BB1002003B05DF804FB44
:102AD00001210DEB020049F043FD03B05DF804FB5A
:102AE0007467002000B5094B83B01B7802228DF873
:102AF00004201BB1002003B05DF804FB012101A8F4
:102B000049F02EFD03B05DF804FB00BF74670020A0
:102B100000B5084B83B01B7801218DF804101BB160
:102B2000002003B05DF804FB01A849F019FD03B0D3
:102B30005DF804FB7467002000B5074B83B01B7879
:102B400000208DF804001BB9012101A849F008FDFF
:102B500003B05DF804FB00BF74670020ECE700BF22
:102B600010B5044619F0ECF818F0BCFA084A094B05
:102B700092F8202013F8071C13F8083C12F0400FBD
:102B800014BF10220D220A441E332272637210BD3C
:102B9000180200200830002019F05ABB0F2A07D86D
:102BA00008B5084611461A4618F02AF8002008BD54
:102BB0000020704708B5044B93F8CD360BB919F0D7
:102BC0006FFA002008BD00BF0830002010B5094C86
:102BD00014F8060C19F00EFC14F8041C14F8050C7B
:102BE00019F05CFB4FF4F072202103484EF004FD15
:102BF000002010BD08300020A020002038B5A0F62D
:102C000068040022606C354D03685A62A1F1290303
:102C1000302B31D895F8CE360133DBB2012B85F855
:102C2000CE360BD995F8CF3685F8CE26B4F856288F
:102C300001335208A4F8562885F8CF3695F8CF26E8
:102C40000023082AA4F8583815D185F8CF36B5F8EE
:102C5000D03601339BB2032BA5F8D03608D923799F
:102C6000DB0705D5E36A94F8560853B3216B984700
:102C70000023A4F8563838BD5B396C290ED8B4F857
:102C8000563885F8CE265B0843F08003A4F8563802
:102C900095F8CF36013385F8CF36CFE794F8513821
:102CA000002BCBD1012185F8CE36A5F8D036802374
:102CB00084F85118A4F8563885F8CF1649F094FADC
:102CC000BCE7E3696269D054E369E1680133B3FBAF
:102CD000F1F201FB1233E361CAE700BF08300020C4
:102CE00038B5A0F6680423796579DB0722D594F816
:102CF0004C3803B3D4F848341A68D36A5B0853627B
:102D000094F8503823B1B4F85A380133A4F85A383B
:102D1000E94301F00101606C49F066FA012384F88F
:102D20004F38002384F84D3884F84E38A4F85638CC
:102D300084F84C3838BD94F84F38012B04BF94F810
:102D40004D3884F84E382046FDF7D0F994F84F38C6
:102D50004BB90123E94384F84F381940606CBDE852
:102D6000384049F041BA002384F84F3805F001019A
:102D7000606CBDE8384049F037BA00BF2DE9F84330
:102D8000574C584B20681F6800284AD0564E574D64
:102D9000DFF87091DFF85C8112F066FD00283BD00F
:102DA000206812F059FD95F89C33032B2FD8DFE8EB
:102DB00003F03A2819024E4AB22302F1060C12F827
:102DC000011B0B449445DBB2F9D198423DD0B6F8D3
:102DD000E0360133A6F8E036002385F89C3385F809
:102DE0009D3314E095F89D23531CDBB23244062B2F
:102DF00085F89D3382F8D40609D1032385F89C33E6
:102E000005E059280CBF0223002385F89C33206875
:102E100012F02AFD0028C3D1D6F8DC36FF1AC82FDD
:102E200007D8BDE8F8835928F1D1012385F89C33F0
:102E3000EDE7304B1B78012B45D0022BF1D12068F8
:102E40002D49BDE8F84349F043B996F8D52696F8E0
:102E5000D43699F8001043EA02231BB21D299AB216
:102E600011D098F80030012B1ED0022B35D1A2F1E1
:102E70002803B3F5076F2CD296F8D836062B28D93D
:102E8000C5F8982329E096F8D7C696F8D6061B49C8
:102E900040EA0C20488096F8D8C696F8D9060B80F0
:102EA000A1F804C0C880DCE7A2F12803B3F5916F54
:102EB0000FD296F8D836C5F89823072B0DD10D3AC6
:102EC000C5F8982309E020680D49BDE8F84349F0AA
:102ED000FFB84FF0FF33C5F89833C6F8DC767BE7D0
:102EE0003CE4002044C7002008300020101F0020D0
:102EF000DC36002040E400204402002064BC0020B6
:102F00003C02002061BC002010B50D4CD4F8E40652
:102F100013F016F830B911F093FFD4F8E836834275
:102F200005D310BD11F08CFFC4F8E80610BD054AAA
:102F3000C01A1368C4F8EC36C4F8F00610BD00BF20
:102F40000830002044C7002001EB81010D4B70B513
:102F5000A1F1A1051D449C3B06465C1815F8013FF4
:102F6000717996F90400402237F01EF9A542F5D197
:102F7000717996F9040000234022BDE8704037F0D3
:102F800013B900BF101F060838B505464C1E14F8CB
:102F9000011F01B938BD2846FFF7D6FFF7E770B526
:102FA00005460C468E1814F8013B697995F9040022
:102FB000802237F0F9F808B1A642F4D170BD07B508
:102FC00001EB410301EB4101C1F3C301503A103160
:102FD0005B008DF8042003F00E038DF80610032229
:102FE00001A98DF80530FFF7DAFF03B05DF804FBA7
:102FF00038B504461D464068FFF7E1FF6068294682
:10300000FFF7A2FF002038BD38B504461D464068D2
:10301000FFF7D5FF60682946FFF7B6FF002038BDEF
:103020000A460021CBE72DE9F0410F4FDFF8408041
:10303000002407F2A76638F914300C4922463046BE
:1030400030F0EEFEFFF78EFBD7F8F4560134E1B214
:103050002846FFF7E5FF31462846FFF795FF042C89
:10306000E9D1BDE8F08100BF0830002030AA060891
:1030700064BC00202DE9F0472D4DDFF8C080D5F865
:10308000F4462DED028B20468EB00121FFF7C8FFDC
:10309000204628499FED288AFFF776FF0024022664
:1030A00005F2A76704A9E0B227F050FE9DF818309A
:1030B000ABB3062C33D0DDED087A099B0B98B8EE44
:1030C000E77A41F2883EC8EE077A42F2107C06F1B8
:1030D00001095FFA89F9FDEEE77A17EE902A00FB05
:1030E00002E102FB03E2B1FBFCF1B2FBFCF2029154
:1030F000CDE9000241462246384630F091FEFFF706
:1031000031FBD5F8F4A631465046FFF789FF394622
:103110005046FFF739FFB9F1080F03D84E46013486
:103120001D2CBFD10EB0BDEC028BBDE8F08700BFF7
:103130000830002039AA0608002474494FAA06085E
:103140002DE9F743554C564ED4F8F4560121284644
:10315000FFF766FF53492846FFF716FF33689907C4
:1031600040F19980504D95ED140A4CF0FFFF95ED1C
:10317000150A07464CF0FAFF95ED160A80464CF00A
:10318000F5FF3B46494A4A49CDE9008004F2A76071
:1031900030F046FEFFF7E6FAD4F8F456022128464E
:1031A000FFF73EFF284604F2A761FFF7EDFE032577
:1031B0003368DA0725D53F4F97ED050A4CF0D6FF67
:1031C00097ED060A80464CF0D1FF97ED070A81463D
:1031D0004CF0CCFF4346384A3549CDE9009037489A
:1031E00030F01EFEFFF7BEFAD4F8F48629464046BA
:1031F000FFF716FF314940466F1CFFF7C5FEFFB2CF
:103200003D4633681B0727D52D4E96ED000A4CF03E
:10321000ADFF96ED010A07464CF0A8FF96ED020AB5
:1032200080464CF0A3FF3B46264A2149CDE9008069
:10323000A6F1510030F0F4FDFFF794FAD4F8F486CB
:1032400029464046FFF7ECFEA6F1510140466F1CAF
:10325000FFF79AFEFFB23D461B4A0A20B2F9003042
:10326000B2F9041091FBF0F10191B2F90220009241
:103270000F49164A114830F0D3FDFFF773FAD4F81E
:10328000F44629462046FFF7CBFE0C49204603B002
:10329000BDE8F04378E602258AE700BF0830002049
:1032A00050B000205FAA06085C2A001075AA060824
:1032B00079AA06081C00001088AA0608AF3600206C
:1032C000003700208CAA0608ACB3002090AA06089C
:1032D0007C4B1B6813F0800F2DE9F0417A4C07D12D
:1032E00094F8103743F0020384F81037BDE8F081FA
:1032F000D4F87424D4F818379A4208D094F81C37BC
:10330000C4F81827013303F0030384F81C37D4F8FA
:10331000F466DFF8F081012200213046FFF74FFE0E
:1033200094F81C37694A3046D15CFFF70DFE012244
:1033300002213046FFF743FE0025362718F8051016
:10334000C1EBC10191FBF7F10629A8BF0621603945
:10335000C9B230460135FFF7F7FD102DEED15C4BB9
:103360005C4D1B782A7D5C495C4813F0020F0CBF52
:103370004E23592330F054FDFFF7F4F9D4F8F466E6
:1033800002213046FFF74CFE30465449FFF7FCFD62
:1033900029686B68524A514893FBF2F391FBF2F2B1
:1033A000504930F03DFDFFF7DDF9D4F8F466032114
:1033B0003046FFF735FE30464849FFF7E5FDEA891C
:1033C0004949464830F02CFDFFF7B2F9D4F8F466CD
:1033D00004213046FFF724FE30464049FFF7D4FD74
:1033E0002A8A42493D4830F01BFDFFF7A1F9D4F885
:1033F000F456042228460A21FFF7E1FD2846374902
:10340000FFF7C2FDD4F894243949344830F008FD60
:10341000FFF78EF9D4F8F45605212846FFF700FE91
:1034200028462E49FFF7B0FDD4F80036D4F8FC2525
:1034300030492A4830F0F4FCFFF77AF9D4F8F45612
:10344000052228460A21FFF7BAFD28462349FFF73F
:103450009BFDD4F80836D4F8042627491F48D21A11
:1034600030F0DEFCFFF764F9D4F8F4560621284664
:10347000FFF7D6FD28461949FFF786FDD4F8002648
:103480001E49164830F0CCFCFFF752F9D4F8F44648
:10349000062220460A21FFF792FD20460F49FFF73A
:1034A00073FD1749152201F22B204EF0E3F8FFF7C8
:1034B0003FF920460721FFF7B3FD20460749BDE845
:1034C000F04161E564E600200830002094AA060877
:1034D000A4B3002088E7002099AA0608AF36002090
:1034E00080969800AAAA0608B7AA0608BFAA0608E6
:1034F000C6AA0608CDAA0608D6AA0608DDAA0608A6
:10350000843400205C340020F7B5374B374F5C78AB
:10351000374907F2A7662246304630F081FCD7F8DB
:10352000F45601212846FFF77BFD31462846FFF778
:103530002BFD3049304630F073FCFFF713F9D7F814
:10354000F45602212846FFF76BFD31462846FFF767
:103550001BFD222303FB0474304694F8811294F877
:10356000803294F87F220091234930F059FCFFF714
:10357000F9F8D7F8F45603212846FFF751FD3146F4
:103580002846FFF701FD94F8871294F8863294F8E4
:10359000852200913046194930F042FCFFF7E2F8ED
:1035A000D7F8F45604212846FFF73AFD314628465D
:1035B000FFF7EAFC94F8841294F8833294F882229C
:1035C000009130460E4930F02BFCFFF7CBF8D7F8CE
:1035D000F44605212046FFF723FD3146204603B07F
:1035E000BDE8F040D0E400BF2CE30020083000200C
:1035F000E5AA0608F6AA060809AB06081CAB0608E9
:103600002FAB06082DE9F3471D4B1E4C1A781E49B7
:10361000DFF87CA0DFF87C9004F2A76030F000FCBB
:10362000D4F8F45601212846FFF7FAFC284604F2A4
:10363000A761FFF7A9FC154B1E68002504F2A768D7
:10364000B27A337A0192727A009249465AF825206A
:10365000404630F0E5FBFFF785F8D4F8F476A91C76
:10366000C9B23846FFF7DCFC013541463846FFF762
:103670008BFC032D06F10606E2D102B0BDE8F0870F
:103680002CE300200830002042AB0608C4B4002020
:10369000B42106084EAB060838B50E4C0E4B0F4A47
:1036A0000F4904F2A765284630F0BAFBD4F8F44677
:1036B00001212046FFF7B4FC29462046FFF764FCB1
:1036C00020460221FFF7ACFC20460649BDE8384001
:1036D0005AE400BF0830002026AA060863AB06089B
:1036E00069AB060872AB060838B5042208490546DE
:1036F000FFF755FC4FF48064013C002340226979B8
:1037000095F90400A4B236F04FFD002CF4D138BD79
:10371000C021060808B54068FFF7E6FF002008BD95
:1037200008B50B4B13F89B2C72B193F81D1721B9F8
:10373000012283F81D27002008BD4B1E5942594124
:10374000492025F059FFF6E783F81D27F3E700BF6E
:103750000830002008B5044B33F82A0C40F4004030
:1037600026F004F9002008BD0830002008B50D4BF4
:1037700093F900200C4B012A04D1002283F81E2764
:10378000002008BD022A03DD012283F81E27F7E787
:1037900093F81E070028F7D0012818BF022026F052
:1037A00081F8EDE7740D002008300020F8B5184CC2
:1037B000184B94F900701A78012F05460E4605D172
:1037C000012A01D001221A700020F8BD012A03D17C
:1037D000002026F067F8F7E7022AF3D10E4B00220B
:1037E00083F81E27FFF7C2FF94F90030022B07DD94
:1037F000E37813F0020F0CBF0520012026F052F8E9
:10380000064B0022314628461A70FCF75FFEDBE7C4
:10381000740D00206A6900200830002074690020BF
:1038200010B50A4C14F80C0C032801D845F062FFBF
:1038300014F80B3C04F8063C14F8033C04F8053C6F
:1038400014F8023C04F8043C002010BD08300020AD
:1038500008B57022034904484CF0AAFB45F00CF966
:10386000002008BD183000209CB2002008B5064B8F
:1038700093F8910028B1054B01385978C0B21EF079
:1038800021FA002008BD00BF083000202CE30020F2
:1038900008B5064B93F8900028B1054B013819780C
:1038A000C0B23AF0AFF9002008BD00BF08300020D8
:1038B0002CE3002038B52B4D95F89C40862303FB64
:1038C000045495F81F3784F8E730274B18683AF00E
:1038D000B5F995F8203784F8143195F8213784F834
:1038E000BA3095F8223784F8BB3095F8233784F83E
:1038F000BC30B5F82437A4F8D430B5F82637A4F88E
:10390000D23095F8283784F8EF3095F8293784F8C5
:10391000113195F82A3784F8123195F82B3784F84D
:103920000C3195F82C3784F80D3195F82D3784F843
:103930000E3195F82E3784F80F3195F82F3784F82B
:10394000103195F8303784F8F43095F8313784F831
:10395000F23095F8323784F8F3303DF07BFA0020EE
:1039600038BD00BF08300020C4B4002038B50D4B6E
:103970000D4A18680021034602F1090514781C72EB
:1039800054785C7294789C7235F811409C810131B6
:10399000032902F1030203F10603EFD13AF04EF9D5
:1039A000002038BDC4B400203B37002008B5054BCB
:1039B00093F86D030138C0B283F848031EF0A8F9EC
:1039C000002008BD0830002008B5054B93F86C03B3
:1039D0000138C0B283F89C00FBF738F9002008BD1D
:1039E0000830002010B5054C94F89C00FBF72EF928
:1039F00094F848031EF08CF9002010BD0830002018
:103A0000F0B4214A92F9C443D2F8BC53214491FB4B
:103A1000F4F304FB131192F8C54382F8C013CBB240
:103A2000A96863430E2505FB03130021C2F8443740
:103A300082F848171D462F790E2FCEB201F10101F1
:103A40001AD1B442214628BF3146102982F84817BE
:103A500084BF102182F8481792F848170139C9B27B
:103A600082F84817C1EBC101084A03EB41019942B2
:103A700004D2F0BC13F0DEB90E35DCE75C7B02F853
:103A8000014F0E33F3E700BF08300020503700200D
:103A900038B5164BD3F8BC23526805461C46BAB954
:103AA00094F8590798B10138C0B284F8590704EB6B
:103AB000C00000F25C7003C80D4B83E80300FDF703
:103AC0000EF9284694F9C013FFF79AFF002038BD7D
:103AD00093F9C103D3F84437C0EBC00003EB4000B7
:103AE00090470028DCDA4FF0FF30F0E70830002084
:103AF000C433002038B505460C4641B31D4BD3F8FE
:103B0000BC238A4225D093F85927082A1FD8511C74
:103B100083F8591703F56F7103C903EBC20202F270
:103B20005C7282E803000022C3F8BC4383F8C1231F
:103B3000236833B19847013003D12846BDE83840A7
:103B4000A6E7FDF7CCF800212846FFF759FF002033
:103B500038BD93F9C11393F8C52391FBF2F402FB2E
:103B6000141283F8C123FDF7BAF821462846FFF75F
:103B700047FFECE70830002008B5064B93F8AC3758
:103B800023B10549FFF7B6FF002008BD0349FFF741
:103B9000B1FFF9E7083000204C0200205802002055
:103BA0002DE9F0413C4B9B78012B49D0022B6BD186
:103BB00023F09AFA044698B938493948394E30F01A
:103BC0002FF9254633462A463749384830F028F938
:103BD0003346224634493648BDE8F04130F020B93A
:103BE00023F072FA044630B932492D482D4E30F098
:103BF00017F92546E6E7304C6378022B16D0032BE5
:103C00001CD12E492648274E30F00AF941F298532C
:103C1000E4584FF47A23B4FBF3F423F04FFA4FF453
:103C2000FA620568B5FBF2F52D1BCBE724491C4869
:103C30001C4E002430F0F4F82546C3E71D49F6E792
:103C40002048D0F8B857BDB11C4900F2AD7030F033
:103C5000E7F847F01DFD064616F0A0FF074616F0F0
:103C6000E3FBB4887388184EE31A7C68850A03FB6B
:103C70000444C5EB9424A5E70E49134E00F2AD7041
:103C800030F0CEF82C469DE710490548104E002430
:103C900030F0C6F8254695E7D4B9002084AB060875
:103CA000B53700207EAB06089DAB0608C437002060
:103CB000CC3700208CAB0608E802012092AB060846
:103CC00098AB06080830002081AB0608FE190708EB
:103CD000EC18070808B5FFF763FF054A054B917814
:103CE00083F8B7131288A3F8B823002008BD00BFDB
:103CF000D4B9002008300020134BD3F8B83710B5E2
:103D00000446D3B113F096F8104B03220521204648
:103D100013F06CF8204613F057F816F0DDFC16F09F
:103D2000CDFC60B11320F9F7E1FA204613F082F8D8
:103D3000204613F049F8FFF733FF002010BD642040
:103D400011F068FBEBE700BF08300020A3AB0608CA
:103D500010B9074A1075704710B5054C606049F0FE
:103D60003FFF4FF6FF720223A281237510BD00BFF3
:103D700084B5002070B50B4C054616460B4602462E
:103D80000221206813F032F82A46074B20681421DC
:103D900013F02CF833462A4620681621BDE87040FF
:103DA00013F024B8D0B90020FECB06080F2A03D8A0
:103DB000052803D805290CD900207047062812D001
:103DC0000728F9D10029F7D10B4B012083F8F72000
:103DD0007047094B00EB400003EB40000144012019
:103DE00081F8C82070470A29E6D8034B19440120FE
:103DF00081F8EC20704700BF101F00201A4B2DE9FE
:103E0000F04100F120070C4603EB870840F26716EB
:103E1000002520462CF0E6FE03469E424FF02C0182
:103E200020461ADB85B1104E06EB87062C21B372B3
:103E30004DF0F9FB88B101302CF0D4FEFF280CDCEA
:103E4000F0722846BDE8F081A8F808304DF0EBFB91
:103E500018B1441CFF260125DBE7044B002043F882
:103E60002700BDE8F08100BF101F0020181F0020B0
:103E700074492DE9F043002508462E462B460AE0FA
:103E8000062C03F1010308BF0136940448BF013535
:103E9000202B00F0C18050F8042BC2F30324002A29
:103EA000EED1694F694A3B71F6B201207E71BD7156
:103EB000C7F8A0331073002B00F0B98000204FF03A
:103EC0000F0EF04605460446894659F8042BC2F306
:103ED000031C654502F00F02B8BF6546E045A8BF68
:103EE000E046904204F10104B8BF10469645A8BFD1
:103EF00096469C42E9DB454540F38B8045446C1077
:103F00000134013D64B245F34702704587F87E21D4
:103F100087F87D4176DD704444100134013864B285
:103F200040F347024A4887F87B21A0FB060292082B
:103F300002EB4202A6EB420212F0FF0F87F87C412F
:103F400065D0062E324608D9F00706D401E0D50721
:103F500002D45210062AFADCD6B2FE71002B6DD0C4
:103F6000BD68C5F305356C074FD40C1F04EB830403
:103F70000A4603E052F8040F400446D49442F9D1B3
:103F80000126AC070CD40C1F04EB83040A4603E0A3
:103F900052F8040F870403D49442F9D146F0020684
:103FA0006A090CD10C1F04EB83040A4603E052F8A3
:103FB000040F800303D49442F9D146F48076280795
:103FC0000CD40C1F04EB83040A4603E052F8040FE0
:103FD000070403D4A242F9D146F01006EA060BD436
:103FE0000A1F02EB830303E051F8042FD50303D427
:103FF0008B42F9D146F00806B6B2164BA3F8CC674F
:10400000BDE8F083062207248CE70026B9E70626E0
:10401000A3E70622072478E70B4F0C4A3B71F6B260
:1040200001207E71BD71C7F8A033107346E70622E8
:10403000072487F87E2187F87D4173E740F21B163D
:10404000DBE700BF181F0020101F0020180200200F
:10405000ABAAAAAA083000202DE9F04F714ADFF878
:10406000D0B1002389B042F820300C4602909A4625
:10407000019319461E4699461F464FF02C0E4FF0ED
:10408000010823785FFA8AF5A3B173457ED0601CDE
:104090000DF1140C00220CF8013B044610F8013B12
:1040A000013243B1734572D00A2AF4D1002009B01D
:1040B000BDE8F08F1A4608AB1A44002302F80C3C06
:1040C000BEF1000FF2D16B1E0134032B03D8DFE8E1
:1040D00003F05439106405A82CF084FD0135EDB2CD
:1040E000042D014660D85D440AF1010A95F808E6FE
:1040F000C7E79DF81420002A45D00DF1140E8C4618
:104100004320824248494FF0000306D00133072B79
:1041100004D011F8010B8242F8D19946542A64D098
:104120004F2A67D0422A6CD0562A73D0492A57D0DA
:10413000572A08BF052354D01EF8012F002ADFD1CB
:10414000614620E09DF81430EBB105AA0EE0452B46
:1041500055D0532B5AD0572B5AD0552B5FD0442BC8
:1041600008BF052305D012F8013F63B14E2BEED1F5
:10417000002308FA03F31F43F5E705A803912CF089
:1041800031FD039901900135EDB2ACE7002208AB97
:104190001A44002302F80C3C95E705A803912CF083
:1041A00021FD0F28039919DD0022019B03F00F0365
:1041B00043EA8753134343EA09231C4A43EA06367A
:1041C000029B0901C9B202EB83090E43C9F80860DA
:1041D000FFF74EFE012009B0BDE8F08F8204E4E74E
:1041E000042308FA03F31E43A6E7002308FA03F3A7
:1041F0001E43A1E7012308FA03F31E439CE70123B2
:10420000B7E7022308FA03F31E4395E70223B0E75A
:104210000323AEE7032308FA03F31E438CE70423CA
:10422000A7E700BF181F0020F1960608101F002006
:10423000BC1B060810B5FFF71BFE074B40F6A84253
:1042400003F56B70002193F885414DF0D5F9034BD0
:1042500083F8CE4710BD00BF101F0020083000209B
:10426000F0B5364B364D374C19782B68C4F81036FC
:104270002868C4F804060023022985B0C4F88034F5
:10428000C4F88434C4F88834C4F88C3484F8903486
:1042900084F81536C4F8FC35C4F80036C4F87C340C
:1042A00084F81436C4F80C3684F816363BD0022055
:1042B000F8F7D2FFA8B3077994F81536224E02E03A
:1042C000CBB2042B35D803EB430206EB8202591C18
:1042D00092F8C521BA42F3D184F8153694F8153610
:1042E0001A4A90F902000C2101FB0366002796F898
:1042F000C531029752F823300093032101913B46C8
:104300003A460221F8F7FAFEC4F81C0648B12B68B9
:10431000C4F810360123C4F80C7684F8167684F8B5
:10432000143605B0F0BD2B68C4F8103684F81416A6
:10433000F7E7002384F81536D0E700BFD0B400209B
:1043400044C7002008300020BC1B06088C930608D8
:1043500070B50446CC2582B044306171A11D257131
:10436000CDE90010251D9AB16E46114630461A4619
:104370002CF03AF8304629462CF012FE009A0192B1
:1043800020680095521B294611F03EFA02B070BD1C
:104390006E46EFE72DE9F04F9D4DDFF888B2AB7820
:1043A00087B005F104084FF0640ADBF800604BB3F6
:1043B0002C780AFB0452144613690434002B52D0A3
:1043C0009E4250D9D36D002B00F38A8002274FF014
:1043D00000090BE0AB7085F800909BB12B69002BB6
:1043E00040D0B3423ED2EB6D002B79DC236984F8D8
:1043F00060702046444603B19847AA78531EDBB24A
:10440000002AE7D1834C844FA4F5FA6505F2D478ED
:1044100000265FFA86FA0AF118095FFA89F9484618
:104420003EF06AFF00286ED0A35D002B40F0D780DD
:10443000B9F1190FB5F81A3800F0D680B9F11A0F92
:1044400040F09F8058077CD53B78DA0700F18580E3
:10445000724B1A6812F0600F40F066814FF01B0A31
:104460000221C6E044466369186811F0FDF900288E
:10447000C8D06369186811F0EFF9A37853B994F8BC
:104480005720012A04D02AB9552803D0AB788CE7ED
:10449000CC28FBD16268D054A37862780133DBB2B8
:1044A0009A42A370F2D194F85730012B35D0002BEB
:1044B00043D162681178552973D02369012284F8A9
:1044C0006020002BE2D02046984794F86020AB781B
:1044D000002A7FF46AAF002B4ED1DBF8003091E761
:1044E00094F85730012B3BD023B9636921781868C1
:1044F000FEF748F8A268A36D1644013B0022E6606F
:10450000A365A2707EE70AF1190AA0555FFA8AFA3C
:10451000BAF11B0F1AD001367BE762B16668013E23
:10452000B718002016F8011F2CF076FDBE42F9D115
:10453000021C18BF012284F860202369002BC2D11D
:10454000C3E7D5F89C3659073FF57EAF344B1B784F
:104550001BB9314B1B78DB0766D507B0BDE8F08F80
:1045600060690368002BC5D094F85630217804F1B7
:104570001802FFF7EDFEBDE7013BDBB2AB702A701E
:1045800013E70AF1190A9B075FFA8AFA7BD53B7891
:10459000D907BDD4214B1B6813F06003B8D119466D
:1045A00027E05178012988D19178FF2985D11179A7
:1045B000AA2982D1D678D17061680F1D11F8012B1C
:1045C0005340082204E05B00DBB2013A00F0B28005
:1045D0001806F8D5580080F03100C3B2F5E70AF1AB
:1045E000190A5FFA8AFA93E7DA0752D54FF01A0AE6
:1045F000012195F818388DF81610012B4ED023B9EB
:104600000131D5F8D407FDF7BDFF0123A3557FE79E
:1046100010E00020D837002048670020F8B40020C0
:10462000FBB5002044C70020794B1B6813F06003E2
:1046300093D1784C94F8A526002A3AD0764A9188EE
:10464000A1F24751B1F5957F87D85188A1F2475122
:10465000B1F5957F81D81288A2F24752B2F5957FC5
:104660003FF67BAF6D4A029202214FF4C872CDE94A
:10467000002104F2D4701A46032147F047FD0123BC
:1046800084F8A43669E7D5F89C3698077FF540AFE3
:104690007DE7D5F89C36DB07A8D43CE7D5F8D427CE
:1046A000002AB2D019460DF116024046FFF750FE1F
:1046B000ABE794F8A436002B7FF44FAF564B94F839
:1046C000A616D888A0F2475080B2B0F5957F3AD8A8
:1046D000B3F90020A2F24755ADB2B5F5957F68D881
:1046E0005D88A5F24755B5F5957F44D8B3F90450D8
:1046F000B5F5876F3FDA00293FF42FAF06AA0223F2
:1047000002F8013D454901934FF4C87302910093AB
:104710000421012304F2D47047F0F8FC012384F84B
:10472000A53684F8A43618E73D4A1278002A3FF4EB
:104730007CAF12E7B9427FF441AFF31A18BF0123EF
:1047400084F86030F9E600293FF407AFB3F90020A0
:10475000B2F5876F30DA022306AA304802F8013D2D
:1047600002214FF4C873CDE9011000932D480123B5
:1047700047F0CCFCD2E7F9B95A88A2F24752B2F519
:10478000957F3FF6EAAEB3F90430B3F5F06F7FF7EB
:10479000E4AE06AA0123214902F8013D022002915C
:1047A0004FF4C871CDE9001004211E4847F0AEFC5B
:1047B000B4E70029CCD1D0E6B3F90210B1F5F06F1F
:1047C0001FDCB2F5F06F1EDCB1F5876F1DDBB0F5B5
:1047D000957F3FF6C2AEA2F2475292B2B2F5957FF4
:1047E0003FF6BBAEA1F2475292B2B2F5957F3FF6CB
:1047F000B4AEB3F90430B3F5F06F7FF7AEAE01237A
:10480000AAE70423A8E70323A6E70523A4E700BF3C
:10481000F8B400200830002018E80020A526010880
:10482000FBB50020DC37002030B51B4C85B00025DF
:104830004FF4804084F81C58F8F70EFD18B34FF47D
:10484000E133032290F902000295CDE900324FF4E2
:1048500080412B462A46F8F751FC94F8A036C4F85C
:10486000D40784F8183870B10C4994F89426D4F819
:1048700098360093CDE901212B462A46294604F2B9
:10488000D47047F043FC012384F8D03784F8D13743
:1048900084F8D23705B030BD08300020F12501087A
:1048A0000A4B30B5D3F80C17094C0022155D854230
:1048B00008BFA1181032A02AF8D193F81027C3F826
:1048C0000C1742F0020283F8102730BD0830002098
:1048D000CC210608144C08B50646D4F81C06F8F797
:1048E000EDFB3046F8F7EAFBD4F81C5629798A0725
:1048F00011D50E4B1B689B0308D50820FFF7D0FF8E
:1049000094F8103723F0010384F810373146284615
:10491000074A48F0CBFD284641F0020110F094FF11
:10492000D4F81C56E5E700BF0830002064E60020FC
:1049300081610108024B0146D3F8F406FEF704BB7F
:1049400008300020F8B5104E104F0024B378A34271
:1049500001DD0E2C00D1F8BD61100131C9B2D7F8CC
:10496000F406E5B2FEF75CFB284649F0D7FEB378C3
:10497000A34206DD2020FFF7DDFF681CC0B249F02E
:10498000CDFE0234E2E700BF48E6002008300020F8
:10499000642928BF6421F8B511FB00F5642406469C
:1049A00095FBF4F40027E4B2FBB29C4212D8A64275
:1049B0000BD9142095FBF0F0C4EB84156638C4EBDA
:1049C00085052844C0B2FFF7B5FF0134E4B2B44214
:1049D00005D3F8BD9F20FFF7ADFF0137E4E79A202C
:1049E000FFF7A8FFF1E7F7B52F4F7A7A002A57D0E3
:1049F0002E4B2F4D19886423B1FBF3F203FB1213E6
:104A00002C49097800919BB22B4905F2A7602FF041
:104A100007FAFDF7A7FED5F8F44601212046FEF778
:104A2000FFFA05F2A7612046FEF7AEFA25F05EFF19
:104A3000022105462046FEF7F3FA29461520FFF726
:104A4000A7FF0326BB7A6BB31C49194D0868896818
:104A5000009164230A2190FBF3F203FB120305F299
:104A6000A76093FBF1F316492FF0DAF9FDF77AFE10
:104A7000D5F8F44631462046FEF7D2FA05F2A76192
:104A80002046FEF781FA25F031FF711C05462046CD
:104A9000FEF7C6FA2946152003B0BDE8F04077E7D7
:104AA0000126CFE703B0F0BD80B20020C0B30020E4
:104AB00008300020C6B30020B4AB0608D8B30020ED
:104AC000CDAB0608072937DCF0B500EB81001B4FA2
:104AD00083B00D4600F1FF0420262A46394601A87E
:104AE0002FF09EF99DF80430E21EABB19DF8052031
:104AF00004F8033C2346CAB19DF8061004F8022CC2
:104B0000B9B104F8011C01350022082D04F1040498
:104B10001A70E2D103B0F0BD0220531E111803F841
:104B2000016F9942FBD1431C1344ECE7A21E012004
:104B3000F3E704F8016CE6E7704700BFD4AC060861
:104B40002DE9F04100EB01130024DFF884805C8044
:104B500082B007460E469C80DC801C815C819C8173
:104B6000DC811C8200F1D2050134284622464146F0
:104B70002FF056F9082C05F10205F5D1721C1349E6
:104B800068462FF04DF906EBC602823269463A4478
:104B900011F8013B013C73B102F8013B002CF7D145
:104BA000374400233136137087F8CA6087F8E23043
:104BB00002B0BDE8F081531E1019202103F8011F37
:104BC0008342FBD101342244EAE700BFDCAC060893
:104BD0005C05070810B411F8013B541E4BB100F8F6
:104BE000013B2246002CF6D1002303705DF8044BF4
:104BF0007047002AF8D0431E0119202203F8012F24
:104C00009942FBD101342044002303705DF8044B2A
:104C1000704700BF2DE9F04F394F3A493A4B97F8AA
:104C2000200897F8212808601A6007F6A206A7F165
:104C3000880907F6EA0507F63D1807F6471E07F547
:104C4000026C07F5156B07F5166A00240CEB0402DD
:104C50000BEB04030AEB040032F8021F23F8021BDB
:104C60008342F9D115F8012B49F8046B1034EB7D20
:104C700008F8012B802C06F109060EF8013FE5D15A
:104C8000224B234947F88C1C9A1C47F8542C1A1DB8
:104C900047F8502C9A1D47F84C2C03F1080247F8AE
:104CA000482C03F10A022D2147F8442C03F10C0291
:104CB000184C47F8402C87F83C1903F10E021648AF
:104CC000164947F8583C47F83C2C0CF1FC0C03F112
:104CD0001A0247F85C4C2A3332F8024B41F8043B85
:104CE000624520F8024F03F10403F5D10C490D4B46
:104CF00097F80A090C4A08601A60BDE8F08F00BFF7
:104D0000083000206C5E0020345E0020FA3800205D
:104D1000E4AC060838BF0608225E002064B5002017
:104D2000205E002060B50020FE19070860B151B177
:104D3000064B1B68994206DC0139054B33F81130EC
:104D40001380012070470020704700BF205E0020C4
:104D5000245E0020A0B1002911DD0A4B1B688B42A4
:104D60000DDB002A0BDD084B1B689A4207DC02EBC7
:104D7000C102064901EB4202B2F83E097047002029
:104D8000704700BF6C5E0020345E002008300020B9
:104D900010B50A4C14F89B3C6BB1094B93F84C10BE
:104DA00041B193F84D202AB1064B1868FFF7D2FFA6
:104DB000A4F8D00910BDA4F8D039FBE708300020D2
:104DC000180200204467002008B5094B13F89B2CFB
:104DD000084B52B193F84D2022B9012283F84D209F
:104DE000002008BDFFF7D4FFFAE783F84D20F7E76E
:104DF000083000201802002008B5094B13F89B2C3E
:104E0000084B52B193F84C2022B9012283F84C2070
:104E1000002008BDFFF7BCFFFAE783F84C20F7E756
:104E2000083000201802002058B1002909DD064B87
:104E30001B68994205DC054B03EB810151F85C0CC2
:104E400070470348704700BF345E002008300020E0
:104E50001EAC060850B1002908DD054B1B689942BD
:104E600004DC044B194491F83C0970473F2070471B
:104E70006C5E00200830002003689B6A18470368B6
:104E80005B6A184703681B6A184703682DE9F341FA
:104E9000DB6980460D461646984718B12B7883BBD0
:104EA000337873BB184B1B785BB3184A127842B344
:104EB000174C234493F847791FBB0DF10601404678
:104EC000FFF7DDFFE8B1134B2F703770124A1B68F4
:104ED0001768BDF806C0013B04F5156202EB03122A
:104EE000002B0EDB0021B94202DB013B103AF7E751
:104EF00032F81140644501F10101F4D101332B7006
:104F0000317002B0BDE8F0817D6700207E6700202F
:104F1000083000206C5E0020345E00202DE9F04156
:104F2000754B1C6882B0002C3DD0FF230D468DF8D8
:104F300003308DF80230002838D1704C94F8D23903
:104F4000002B6CD06E4B1D796DB36E4994F8D80967
:104F50000A6D91F84EE000284FF0000102F00108C0
:104F600003F1080014BF4FF00F0C8C460A460F46A1
:104F7000F83350F8044B24040ED5002A4CD0964543
:104F800003D3B8F1000F00F08680002426460132DA
:104F9000D2B21E809F70DC700131A94203D0062A74
:104FA00003F10403E5D102B0BDE8F081554E0DF1E7
:104FB00002020DF103012046FFF767FF06F14E01E3
:104FC0002046FFF75FFF06F150012046FFF754FF30
:104FD0009DF803809DF80270204641463A46FFF74F
:104FE000B9FE326D96F84E10444C02F0010303EB0B
:104FF000410303EB081394F8D229A4F8D40903EB76
:1050000007239BB2002A49D1B4F8D6299A425ED030
:10501000A4F8D6390F2243E064467826B7E7394E24
:10502000B4F8D43941F22862934219D80123344AA2
:10503000316D02EB8303D3F888300193CB0740D561
:1050400094F8D839002B0CBF00230F2301A94FF48B
:1050500000408DF80730FAF7A1FD02B0BDE8F081FD
:1050600041F24F6293422ED941F2766293422CD99B
:1050700041F29D62934239D941F2C562934237D9D8
:1050800041F2EB62934235D941F2127293428CBFE6
:105090000D230B23CBE764461E2678E7A4F8D63908
:1050A000296894F8D809531E01F54332DBB202F5A2
:1050B000A07280F0010184F8D2392A6084F8D819EE
:1050C0003EE7FF23C2E70223B1E70323AFE72B68E4
:1050D00094F8D819A4F8D62903F5433303F5A0733F
:1050E00081F001022B6084F8D82999E704239EE718
:1050F00006239CE70A239AE7446700200830002033
:10510000101F00201802002003685B69184770B563
:10511000334B86B01A788DF80C205A788DF80D2014
:1051200000269A78CDF80E608DF80E209A88ADF89A
:1051300010201A7ACDF8126003AD8DF8142095E88E
:1051400007006C4603C42280264A1278022A1C46B5
:1051500037D1254B1978254B8DF800101A78244B40
:105160008DF801201868FFF7F5FDADF80400214E19
:105170009DF80210327891420AD11F4B13F8261C79
:1051800031B18B1E59425941194B1868FFF7BCFFCA
:1051900036788DF802600A22694628464CF004FAF7
:1051A00058B19DF8003023709DF801306370BDF850
:1051B0000430A670A380F9F7D3FC4FF0FF3006B09F
:1051C00070BD0E4B1B78002BC3D0304624F06AFB19
:1051D0000B4B8DF800601B88ADF80430C7E700BFAB
:1051E000386700206A6900206C6900206D69002022
:1051F0004467002070690020083000207469002096
:1052000072690020034A1268914202DC03681B693C
:1052100018477047205E002070B50D4604461646BC
:10522000FFF798FD0146A8B10B4B1E700B4B1D708C
:105230000B4B22682B4493F8473933B1D368294686
:1052400032462046BDE87040184720469369BDE8C5
:105250007040184770BD00BF7E6700207D6700204A
:105260000830002070B5114E114C356894F84D206F
:1052700094F84C102846FFF7CFFFA17B28460D4D30
:10528000FFF7C0FF24F06CF994F84C1094F84D200F
:10529000A37B306829706A70AB70FFF75BFDA88054
:1052A000F9F75EFC4FF0FF3070BD00BF446700208F
:1052B000180200203867002008B5054B1A78054B06
:1052C0001978054B1868FFF745FD044B188008BD99
:1052D0006D6900206C690020446700206E69002021
:1052E00008B5074B93F90020064B12B91A7000203D
:1052F00008BD1A780AB90122F8E7FFF7DDFFF6E7E3
:10530000740D00206C69002008B5074B93F900204C
:10531000064B12B91A70002008BD1A780AB901228A
:10532000F8E7FFF7C9FFF6E7740D00206D6900206C
:1053300010B103685B681847FF20704710B50C4632
:1053400058B110F02DFB18B1032383710023C371F2
:105350002146BDE8104010F0BBBC10BD10B504469E
:1053600001210079FFF7EAFF6279206891088389BB
:1053700002228A4023EA0203838110BD10B504464D
:1053800022210079FFF7DAFF637922689908022366
:105390008B409BB2D94389B2118291890B4393818F
:1053A00010BD73B590F85F38032B05460C462AD123
:1053B00000231E4E8DF807309DF8073095F86028C1
:1053C0009A4201D802B070BD9DF8073006EBC303C6
:1053D0001B797BB184F0010373B19DF8073056F857
:1053E000330010F049FD9DF807300133DBB28DF832
:1053F0000730E1E72346EFE79DF8073056F8330022
:1054000010F034FDEFE7436C006CDB79DB0748BF3D
:1054100081F0010424B102B0BDE8704010F02CBD51
:1054200002B0BDE8704010F021BD00BF10E70020C1
:1054300070B5A0F6640494F8513893B1B4F85838B4
:1054400001339BB2082BA4F858381CD9002184F8EA
:105450005118A4F85818606C46F0C6FE94F85138FC
:105460008BB93E4E96F8D9391BB901212046FFF77A
:1054700098FF94F8503853BBD4E909239A4203D1DA
:10548000002386F8D93970BD96F8D929022A12D896
:1054900002F1010214BFFF237F2386F8D929A4F863
:1054A0005438082384F85238012384F85038606C4B
:1054B000BDE8704052E75A1CA169A262CB5C216929
:1054C0008A4228BF0022DBB228BFA262E7E794F934
:1054D0005238C3B394F8541896F8DA5911F0010110
:1054E00023D0012D03D801212046FFF75AFFAB1E20
:1054F000012B03D800212046FFF753FF0135EDB201
:10550000032D86F8DA59BED9B4F854385B08A4F8EC
:10551000543894F85238013B5BB2002284F8523878
:1055200086F8DA29002BA7D0ADE715F0FD0304D1EA
:1055300001212046FFF735FFE0E7012BDED12046B1
:10554000FFF72FFFDAE7D4E9091291429BD184F8E3
:105550005038606CBDE8704010E700BF0830002094
:1055600010B5A0F6640494F851381BBB94F8502889
:105570008ABBD4E9091399421CD0591CA069A162C5
:10558000C35C2069DBB25B0043F40073A4F85438B9
:105590000A2384F85238012384F8503894F85F388D
:1055A000814228BFA262012B01D0042B02D1606C82
:1055B000FFF7D4FE94F84C38002B6FD194F84D3897
:1055C0000133DBB2092B84F84D3827D12046BDE8E2
:1055D0001040FAF78BBD94F952387BB1B4F85418E7
:1055E0004B08A4F8543801F001012046FFF7D9FE1A
:1055F00094F85238013B84F85238DBE784F850388D
:10560000D4E909239A42D5D194F85F38012B01D00F
:10561000042BCFD1606CFFF7B1FECBE70A2B3DD155
:1056200094F84F382BB9B4F8563843F00103A4F876
:1056300056382379D9070AD5B4F85608820501D41B
:10564000C30718D4B4F85C380133A4F85C380122DD
:1056500084F84C2894F84F280023012A84F84D3808
:105660001CD1617984F84F38606C01F00101BDE80C
:10567000104046F0B9BDE36AC0F3470013B1216B97
:105680009847E4E7E3696269D054E369E16801336C
:10569000B3FBF1F201FB1233E361D8E710BD00BFA9
:1056A00010B5074CD4F8DC0910F0E6FB0B200FF026
:1056B00053FED4F8DC09BDE8104010F0D7BB00BFA2
:1056C00008300020164B174AD3F8E019126801F190
:1056D0003C00904222D2D3F8EC06411A3C2916D85D
:1056E000D3F8F016104810B480FB01C00F4CC91756
:1056F000C1EBE001A160A168B1F5C87F02DD4FF008
:10570000FF31A1605DF8044BC3F8E029C8E7074901
:10571000C3F8E0296FF001008860C1E7704700BF5F
:105720000830002044C70020BF3CB62218020020E9
:105730002DE9F043B74E96F89E9399B0B9F1000F5A
:1057400040F04B81B44C94F8CE87B8F1000F00F0D4
:1057500044814A462F2140460EF0EAFD05460028C6
:1057600000F03B81036844F8A03C10F035FD0028B0
:1057700000F03381436844F8A43C002B00F02D81F5
:105780008768404610F00CF9C4F8E40918B12F23DB
:10579000837180F807902A7A2A2110F0C9F954F809
:1057A000A00C0EF0C5FB44F09FFB54F8A00C9B49E5
:1057B00003889B4ADFF880C223F001031B041B0C03
:1057C0008842038011D0DFF85CE2136870450CD08A
:1057D0000EF5804E704508D00EF5806E704504D0F1
:1057E0000EF5806E704540F0FB801368634540F213
:1057F000FD80884210D0DFF82CC260450CD00CF53B
:10580000804C604508D00CF5806C604504D00CF5E8
:10581000806C604540F0E78003F1B77303F558539F
:10582000DFF818C2B3FBFCF3013B9BB288420FD0F8
:105830007C4988420CD001F58041884208D001F5AE
:105840008061884204D001F58061884240F0D180B7
:105850001268591C4FF0030CB2FBF1F27249B2FB13
:10586000F1F291B2B1FBFCF14FEA410CA6F8A8139A
:1058700018A94FF0000821F85C3DA6F8AAC3ADF8BE
:105880000C80ADF806808DF80E80029223F0B2F9FC
:10589000CDE906886023CDF820800493EB79ADF83C
:1058A0001480980740F1A880DB00042203F008036D
:1058B000ADF81420ADF81E300023069304AA6979D0
:1058C00054F8A00C0DF05CFB0822697954F8A00C88
:1058D0000DF026FB54F8A03C54F8A40CB3F8442077
:1058E00042F40042A3F844201A8842F080021A8051
:1058F000EA79697912F0020F14BF042201228A406A
:10590000198C92B221EA02011984198C0A431A8473
:105910001A8842F001021A8032F040FD00222F2145
:1059200032F04EFD54F8A40C32F038FD60223F49AD
:10593000002332F07DFD54F8A40C22F0B7FF54F898
:10594000A40C036823F00103036022F0AFFF09A851
:1059500022F070FF54F8A03C6A7954F8A40C09971F
:10596000343313440A934FF0000840F22A33CDE950
:105970000D384FF480630F932D4B0B9340230C9302
:105980004FF480514FF48043CDE910134FF440336E
:1059900009A9CDE9128322F05EFF697954F8A02CA1
:1059A0000C2904D8234B03EB4103B3F8B086938949
:1059B00048EA0308A2F80C8054F8A42C136843F0BA
:1059C0001003136009A800230993FAF7BFFC012014
:1059D000FAF7BFFB012386F89E3319B0BDE8F083C8
:1059E000BCEB530F04D213685B0815E700231DE7D7
:1059F0000023126852082CE701225B00ADF8122048
:105A000003F002034FF48072ADF82020ADF81C3093
:105A100052E700BF101F00200830002000040140A2
:105A200058BE00200000014000350C009D550408C0
:105A3000BC220020BC1B0608FF6BDC02006CDC02F1
:105A40002DE9F04FC44C94F89E338DB013B194F807
:105A50009F3313B10DB0BDE8F08FC04D15F89C7C9D
:105A600006460C203DF048FC002F72D0002875D16E
:105A7000FFF75EFE012305F89C3C94F88771012F27
:105A800073D9022FE6D10023B54FDFF80083DFF88A
:105A900000E3DFF80093B5F8CC074FF0010C1D468A
:105AA00040FA03F212F0010F4FEA83010DD157F8CB
:105AB0002320B21A02EB080AF2450CFA03FB04D9C0
:105AC0004A4588BFCE5145EA0B050133092BE7D182
:105AD000002DBFD02079002800F01F81A14E94F83E
:105AE000EF70DFF8B4A236889F4994F8EC2094F860
:105AF000ED300596203794F8F760097804960AEBA4
:105B0000870620323AF8277002972033B778F67864
:105B100003960AEB800001F001010AEB82020AEB16
:105B200083030197069109920893D3460AF1F00680
:105B3000814607955BF8047BC7F3032307F4805580
:105B4000042B63D8DFE813F07B004A0046014301D1
:105B50002E0100288CD00DB0BDE8F08FFAF708FCBC
:105B600015F89C3C002B88D174E70B203DF0C4FB5A
:105B7000002800F038817D4A7D4B126894F88E71C0
:105B8000A3FB02131B09FA2101FB13237D2B28BF62
:105B90000027DFF8088298F80D30BB4204D1D5F811
:105BA0000C3A9E42FFF456AF724800EB8700FAF7BA
:105BB000CDFB94F88601FAF7CCFA07EE906A9FEDD8
:105BC0006E7A88F80D70F8EE677A77EE877AFCEED9
:105BD000E77A17EE903AC5F80C3A3BE705990022B0
:105BE0004023194207D10132052A0FD0634B33F805
:105BF0002230002BF5D1C7F38553002143FA01F081
:105C0000C00700F13F8101310629F7D1DDE90232F9
:105C100001994FF4B470002D6AD0049F584D35F9A6
:105C200017504FF4B477A5F57A7507FB05F5504F7B
:105C300087FB05C7ED17C5EBA715284458E0C7F348
:105C4000834707F120030AEB83023AF82330917867
:105C5000D278002D00F0E58007F1110000F00F0070
:105C600020300A900AEB800507F10F080498444F92
:105C700037F910C00A9808F00F083AF820000A9087
:105C800008F12008A8780B900AEB880E40F2DB5050
:105C900084453AF82870ED789EF802809EF803E07B
:105CA00000F3C480ACF57A7C314DA1EB08010CFB0C
:105CB00001F1A2EB0E02DB1B0CFB02F20CFB03F367
:105CC00085FB01C0C917C1EB6011294885FB02C5DE
:105CD00080FB03C0D217DB17C3EB6013C2EB651266
:105CE000414472443B44C9B2D2B29BB24FF4B47047
:105CF00003442448B17080FB03051D44D817C0EB52
:105D000025204FF4B47505FB1030D945F270308072
:105D100006F104067FF40EAF079D114FDFF8808077
:105D2000194B00264FF0010901E058F8043F09FA29
:105D300006F22A4214BF0120002039460136984756
:105D4000092E07F10407F0D194F886010DB0BDE8E3
:105D5000F04FFAF7FEB900BF101F002008300020F6
:105D6000F0390020E4B300204867002044C7002039
:105D7000D34D6210BC1B0608002474498822060813
:105D800018E80020B7600BB611F800083F4B4C0034
:105D90003E4B4C009F860100181F00201802002077
:105DA0009C2206080AF05AF800B200EB80004B4B28
:105DB000C0EB00104000A3FB003040091E3820EA71
:105DC000E070002300F5B4701946FF2223E724F0A9
:105DD0008DFDE9E7069B3BB3089B9978DA781B8831
:105DE0004FF4B47017E73E4BDB78002B7FF4C3AE63
:105DF000012F44D194F88D31002B59D0394B1B78A9
:105E000013F0010354D11F4694F88431002B3FF462
:105E1000C0AE354B1B78002B3FF4BBAE94F88E71AF
:105E2000B7E64FF4B47063E7099BD6E70B98471ABF
:105E30000A98ACF2DC5CC01A0CFB00F0AD1A0A90B8
:105E40002A480CFB05F50CFB07F780FB07EC80FBF1
:105E5000058E4FEAE5780A9DFF17C7EB6C1780FBAC
:105E6000050CE817C0EB6C10C8EB6E150344394401
:105E70002A44C9B2D2B29BB24FF4B47038E794F856
:105E80008871C1E71A4B03EB82024FF4B47092F8A9
:105E9000CE3603EB430304EB4303194491F8C830B7
:105EA00020330AEB83023AF823309178D278B2E6B5
:105EB000104AB4F88A1194F88C311068074FB0FB7F
:105EC000F1F201FB03F301FB1202A7FB0313B2EB98
:105ED000531F94F8897128BF002795E71F85EB5160
:105EE0004C67002048670020ECB90020D34D6210B9
:105EF000BC1B060844C7002010B51D4C94F8853023
:105F000073B31C4A136843F480331360FFF710FC2B
:105F1000012304F89C3C94F88620174B022A98BF72
:105F200083F8872194F8872083F8882194F88820C3
:105F300083F88921B4F88A20A3F88A2194F88C2068
:105F400083F88C2194F88D2083F88D2194F88E208D
:105F500083F8842194F88F2083F88E21002010BDCF
:105F6000FAF706FA4FF480302AF03DF9D3E700BF84
:105F70000830002064E60020101F002038B5417969
:105F80000446AE23802290F9040034F00DF9054652
:105F900088B1162209492046FDF701F80422084974
:105FA0002046FCF7FCFF2046FDF79EFB0322054937
:105FB0002046FCF7F4FF284638BD00BFC022060883
:105FC000D6220608DA22060870B5654CD4F8103AD5
:105FD000064623B193F90F30002B00F3C080D4F8AC
:105FE000143AF31A002BC0F2BA8006F5433303F5D6
:105FF000A073C4F8143A5B4B1D7894F8183A05F076
:10600000010584F8185A75B3012B00F0A88001200F
:10601000FEF746FC012384F8083794F80837002B74
:1060200059D094F8103723F0020384F810374E4B00
:106030003344D4F8F466C4F814373046FFF79EFFB3
:1060400084F8190A002800F08A803046FDF74CFBDE
:1060500030460021FCF7E4FFD4F80C37304659688D
:10606000FCF792FF37E02BB194F8103743F00203AE
:1060700084F8103794F8103713F002011DD0012274
:1060800084F80827D907C8D594F8113737480A216A
:106090000133DBB2B3FBF1F201FB1233DBB200EBF5
:1060A000031292F81C26D207F2D4314A84F8113731
:1060B00002EB0313C4F80C37AFE7D4F81427B21A75
:1060C000002A02DA84F80817A7E703F0010284F82F
:1060D0000827002AD6D194F8193A002B3FD0D4F8DB
:1060E0000C379B689847002D39D1224BD4F8F466C1
:1060F00093F82420062A9BBF1C4B9B183F2593F83E
:106100002157002212213046FCF759FF294630461C
:10611000FCF71AFF132100223046FCF750FF164B04
:1061200093F87A31002B94F81A3A14BF7221212186
:10613000002B18BF52213046FCF706FF0022142125
:106140003046FCF73CFF94F81B5A0C4B595D013567
:10615000304605F00305FCF7F7FE84F81B5A70BDC6
:106160000830002048670020404B4C00BC1B06084C
:10617000CC2106084C670020101F002094AA0608B6
:1061800008B5FAF7D7FF054B1B689B0300D408BD81
:106190000EF056FEBDE8084016E700BF64E600209A
:1061A000304B13F89B3C37B53BB92F491F222F4882
:1061B00003B0BDE830404BF05DBA2D4B1B6813B106
:1061C0002C4B1B6813B91F222B49F0E72B4B2C4C8F
:1061D0001D682A2384F854300DF1060220230DF1A6
:1061E0000701284684F85530FEF74FFE224628B1B5
:1061F0009DF807109DF80640F9B9F4B9552382F8C7
:106200005630462382F85730202382F858301D4BF1
:106210001D481A68F2B11D492DF002FE1C4B1D48A5
:106220001B88DBB11C4A1D4912889A4214BF2A22DE
:1062300020222DF0F5FD03B030BD2846FEF70AFE02
:10624000214682F856002846FEF7EEFD037882F8D4
:106250005730D9E712492DF0E3FDDFE711492DF062
:10626000DFFDE8E708300020E0AB06086C02002004
:106270006C5E0020205E0020F5AB0608446700201D
:1062800018020020185E002071020020FB1207088F
:1062900026690020750200201C5E00200FAC060855
:1062A00017AC060816AC06082DE9F843DFF8F490A1
:1062B000324CD9F80080002504F89B5CB8F1000F3F
:1062C00059D04046FFF734F82D4E04280CBF012367
:1062D0002B4604F89B3C06F10E0738D106F14D021F
:1062E00006F14C014046FEF7D0FDFEF751FD254B6F
:1062F0001B78013384F81D37234B1B883BB139468B
:10630000D9F80000FEF7BEFD08B90123B3731F4B97
:106310001B6884F8203A1E4B1B6884F82C3A1D4BEE
:106320001B6884F8383A1C4B1C4AC4F8243A3033B2
:10633000C4F81C2AC4F8303A0132194BC4F8282A90
:10634000C4F8347AC4F83C3A0020BDE8F88384F8F5
:106350001D5786F84C5086F84D50B57384F8205A76
:10636000C4F8245A84F82C5AC4F8305A84F8385A9D
:10637000FFF716FFD7E74FF0FF30E6E708300020C1
:1063800018020020165E00201C5E00206C5E0020BB
:10639000345E0020205E00207C2F0020640200205C
:1063A00060B50020446700202DE9F3415A4E96F96C
:1063B0000030002B00F0AD80584D15F89A2C0AB92A
:1063C00005F89A3C35F8282C1AB9F2880AB125F854
:1063D000282C534A118811B9B18801B11180022BC0
:1063E00061D1F37813F008035AD0012385F81E37E2
:1063F0004C4B4D4A1F684D4B4D4C1B78D35C84F879
:1064000073304C4B1B78002B50D10DF106020DF16F
:1064100005013846FEF739FD9DF805103846FEF7B0
:1064200019FD9DF8061084F875003846FEF7FCFC4F
:10643000037884F87630F378DFF8248103F00A03D8
:106440000A2B3AD1F2883C4940462DF0E9FC202342
:1064500084F87C30F37813F002023CD013F0080F7C
:1064600014BF4F234923022284F87E30522305F8BB
:10647000262C84F87F305022002384F87D2084F875
:1064800080302E4B1B681BB12D4B1B68002B40D15D
:106490002C492D481F2202B0BDE8F0414BF0EAB86C
:1064A00085F81E37A4E7032BA2D19EE7552384F875
:1064B0007530462384F87630BDE702A9002321F821
:1064C000023D3846FEF7DBFCBDF806201A4940467F
:1064D0002DF0A6FCBBE702A9012301F8022D3846E6
:1064E00005F8263CFEF7CEFC78B187B19DF8063062
:1064F0006BB1134A1268934209DC144A52F8232004
:10650000134914482DF08CFCBBE7134AF8E7134AF3
:10651000F6E702B0BDE8F081740D002008300020DD
:10652000726900204467002020AC06086A690020D8
:10653000180200206B690020FB1207086C5E002027
:10654000205E0020F5AB06088B02002060B500201D
:1065500062C10608950200201CAC06081EAC0608A5
:10656000900200203B49087870B53B4C002847D189
:106570003A4BD3F8C8230AB9226070BD384AD569AE
:10658000002DB8BFD061D26903EB8202D2F8CC23D0
:106590002260002AF1D001220A70324AC3F8BC23DB
:1065A0000022A3F8C0234FF4804083F85927F7F75F
:1065B0000DFB206810F030FC2068284B427A017AED
:1065C000112A4FF0010435D883F8414A022483F898
:1065D000424A002483F8434A4C0883F8BD2683F8D6
:1065E000C543047B34B1002483F8434A83F8BD26B5
:1065F00083F8C513D3F8BC13BDE87040FDF77ABA31
:10660000FAF788FB256885420646B6D0134B93F807
:10661000C00393F8C11393F8C52300FB021283F85B
:10662000C1232B6828465B689847EB7B2660013BBB
:10663000EB73BEE783F8424A022483F8434A941E70
:10664000002583F8BD468C1E83F8415A83F8C54364
:10665000C7E700BFFBB50020FCB5002008300020D4
:1066600018020020AC0200202DE9F843C44BD3F8F7
:10667000BC2307460E461D460AB9FA2005E0062946
:1066800005D1FFF76FFF4FF4FA70BDE8F8830529D5
:106690000ED193F8442A2AB1002283F8442A4FF4F9
:1066A000FA70F2E73846FDF7F3F94FF4FA70ECE7C9
:1066B000072911D1002283F8442A93F8AC372BB173
:1066C000B049FDF717FA4FF4FA70DEE7AE49FDF76F
:1066D00011FA4FF4FA70D8E7022944D193F8444AEA
:1066E0005CB993F9C13395F84827934232DA013304
:1066F00085F8C133731E012B03D895F8443A002B5B
:10670000BBD095F9C133D5F84447C3EBC30204EBC2
:1067100042042279013A0C2AAFD801A151F822F0A3
:106720001F68010801680108C7670108DD670108E3
:106730002D68010891690108D1680108F369010811
:106740003D6A01087B660108D16801086768010895
:106750001F69010895F8C013013149B2FDF750F9DE
:1067600085F8C143C6E70129C4D193F8443A002B08
:10677000C3D195F8C113D5F844274B1E5BB2C3EBC8
:10678000C30002EB400085F8C133007920B9002B2B
:10679000C4BF023985F8C11395F9C133591C06D01D
:1067A000C3EBC30302EB43031B79002BA5D195F880
:1067B000C013013949B23846FDF722F995F8483738
:1067C00085F8C13396E7042E7FF457AFD4F809104B
:1067D0003846FDF78FF94FF4FA7056E7D4F80530D4
:1067E000002B3FF44AAF042E7FF447AFD4F80910D2
:1067F0003846984701303FF455AF4FF4FA7044E7FC
:10680000D4F80530002B3FF438AF042E7FF435AFB9
:10681000D4F80910384698474FF4FA7035E73846EF
:10682000FDF736F9002385F8443AE6E7D4F8092065
:10683000002A3FF422AF311F4E424E411D441078D2
:10684000167095F8491741F0010185F84917637BE7
:10685000DC067FF512AF137883423FF40EAFF8F7F2
:10686000EBF9FA2011E7D4F8091000293FF405AF3D
:10687000042E088895F8442A40F01681434EA2B9A8
:10688000012285F8442AC6F8A0201D4495F849271E
:1068900042F0010285F84927637BDA067FF5EDAE09
:1068A0000B8883423FF4E9AED9E7D6F8A020022A4C
:1068B000EBD80132C6F8A020E7E7012E40F0E780D0
:1068C000324AD2F8A0200A32964006430E80DCE716
:1068D000D4F80920002A3FF4D0AE1068042E0178C5
:1068E00016D156798E4202D996790E4406701D440F
:1068F00095F8490740F0010085F84907637BDB06FE
:1069000066D513681B788B4262D0F8F795F95FE083
:1069100016798E42EBD296798E1B0670E7E7D4F893
:106920000990D9F80030042E93F8008021D199F80D
:106930000420424502D908F101021A70D4F805304A
:106940001BB1D4F809103846984795F9C1331D4456
:1069500095F8493743F0010385F84937637BDE0634
:106960007FF58BAED9F800301B7843453FF485AEF8
:1069700075E7B8F1000FE1D008F1FF321A70DDE7DA
:10698000083000204C02002058020020180200208D
:10699000D4F80920002A3FF470AE1068042E90F954
:1069A00000101ED192F905608E4202DD96790E44E8
:1069B00006701D4495F8490740F0010085F8490725
:1069C000637BDD0604D5136893F900308B429CD1BC
:1069D000D4F80530002B3FF450AE21463846984796
:1069E0004BE692F904608E42E3DA96798E1B0670CC
:1069F000DFE7D4F80920002A3FF43FAE1068042EE8
:106A0000018814D1D6888E4202D916890E44068098
:106A10001D4495F8490740F0010085F84907637B5C
:106A2000D806D5D513681B888B42D1D06DE79688E0
:106A30008E42EDD216898E1B0680E9E7D4F8092034
:106A4000002A3FF41AAE1068042EB0F9001016D1D7
:106A5000B2F906608E4202DD16890E4406801D449E
:106A600095F8490740F0010085F84907637BDB068C
:106A7000AED51368B3F900308B42A9D045E7B2F91F
:106A800004608E42EBDA16898E1B0680E7E7022E41
:106A90007FF4FBAE0C4AD2F8A06001220A36B24065
:106AA00020EA02020A80F0E6002A3FF4EEAE032E4E
:106AB0007FF403AF044ED6F8A020012A7FF6E5AE9E
:106AC000013AC6F8A020E0E6180200202DE9F04FB8
:106AD000824DD5F8C833002B8BB0804642DBD5F809
:106AE000483A03F54343503398423BD3C5F8480A2C
:106AF0001F203CF001FC002834D195F8A696B9F18E
:106B0000000F2FD1764B1B781BB9764B1B78012BCE
:106B100028D0754B93F800A0BAF1000F25D1734B24
:106B2000DA88A2F2E342B2F5F97F16D8B3F904107D
:106B300040F2E142914210DCB3F9022040F2D66308
:106B40009A420ADD6A4B1B78DD0706D4FFF70AFD7F
:106B5000684B4FF4FA72A3F8A420674B1A685F4B96
:106B6000C3F8502A0BB0BDE8F08F644F95F8404A47
:106B7000604E4FF47A73B8FBF3F301933B68ECB1CA
:106B800018462146FFF770FD0023A6F8A40085F8FB
:106B9000403AD5F84437002B40F0B2804F4C019A70
:106BA000D4F8543A03F5FA739A42D6D9534B18687D
:106BB00010F00EF9019BC4F8543ACEE74B4AD08846
:106BC000B2F90210A0F2E340B0F5F97F104614D8F4
:106BD000B2F904C040F2E14294450EDC40F2D662C4
:106BE00091420EDD424A127812F0010F0CBF0624CA
:106BF0000124D6F8AC2001321BE040F2D66291426B
:106C000025DC40F2E142914223DDB0F900C0944519
:106C100021DD40F2D6618C451FDCB0F904009042C2
:106C20001DDD88421DDC01220021C6F8A820C5F820
:106C30004C1AC6F8AC20B6F9A420002A13DDD5F80A
:106C4000503A1344019A9B1AA6F8A430A1E70124F4
:106C5000CFE70224CDE70324CBE70424C9E70524CA
:106C6000C7E70724C5E7002C93D04FF0000BD6F8F8
:106C7000A82058465A4526DC033C00B2012CA6F851
:106C8000A40086D8D6F8AC30142B82DDA3F1140210
:106C900090FBF2F03228A6F8A4003FF77AAFD5F8BF
:106CA0004C2A0AB9C5F84C3AD5F84C2A9B1AD6F8A2
:106CB000A820052193FBF1F313448B42C8BF0B4678
:106CC000C6F8A83065E718462146029200930BF1FA
:106CD000010BFFF7C9FC029A009BCBE708300020AC
:106CE000C6B30020045E0020FBB5002018E8002099
:106CF000486700201802002044C70020FCB500208F
:106D000095F8413A3F68002B40F0D28095F848272B
:106D10003B7A9B1A022293FBF2F3DBB20093D5F885
:106D2000583A03F5C333A03398453B6888BFC5F88C
:106D3000588ADB6A384688BFD14698477A7B1FFA63
:106D400080FA002A00F0C28095F84837D5F8441739
:106D5000C3EBC30301EB43030022994202F1010498
:106D600040F2A98000237B73D5F8440795F8C1331E
:106D700059B2C1EBC10200EB420201331279DBB21E
:106D8000002AF5D097F90E2085F8C113002A0FDBF1
:106D90008A4228D095F8423A009903FB0212D2B2F7
:106DA000B74B95F8431A384610F020F8AAEB000AC2
:106DB000BAF11D0F7FF6F2AE95F9C12397F90E30A7
:106DC000934214D095F8423A009903FB0212D2B2D2
:106DD000AC4B95F8431A384610F008F895F8C133D3
:106DE000BB73AAEB000ABAF11D0F7FF6D7AE0023E2
:106DF000D5F84487DFF890920393A34A9DF80C409E
:106E000092F84837D2F84427C3EBC30302EB43039D
:106E100098453FF6C3AE9C4B1E1996F84937980724
:106E20001FD5994B93F8431A93F8422A009B02FB13
:106E3000043298F80430002B18BF0131D2B2D8F8D0
:106E40000030C9B238460FF0D1FF96F84937AAEBA7
:106E5000000A23F00203BAF11D0F86F849377FF6C6
:106E60009DAE09EB040393F84927D10740F1F18067
:106E7000009B99F8426A06FB043699F8413AF6B24B
:106E80000BB10136F6B298F804300D2B00F2758183
:106E9000DFE813F0580173017301460046007200E9
:106EA000130108011E011E01390028019000830012
:106EB0000123009333E755FA82F20E3192F8490725
:106EC00040F0030082F84907224646E7B9F1000F77
:106ED0003FF44AAF95F84837D5F84417C3EBC303DE
:106EE00001EB430399423FF63FAF487B440707D588
:106EF00055FA82F494F8490740F0010084F84907F4
:106F00000E310132EEE7D8F80910002900F0358182
:106F10000C2206A84AF0AEFB0C23324606A920E05C
:106F20000DF1280B0021032B0BF8101D0AD1D8F806
:106F300005303BB1120705D598470C22014658464B
:106F40004AF098FB4F4958464AF05EFB99F8413A9F
:106F50000BB1013EF6B2584648F044F83246C3B28F
:106F600059464C443846FBF717FC94F8493723F050
:106F7000010384F8493766E0D8F80900002862D098
:106F800003782BB1414906A84AF05AFB0323C4E712
:106F90003F4906A84AF054FBF8E7D8F809301A68C8
:106FA0009B68117806A853F821100C224AF062FB66
:106FB0000C23B2E7D8F809300293002B00F0DD80F3
:106FC00099F9C1330493334B1A684FF47A73B2FBC7
:106FD000F3F103FB1123059300232B4A92F8441A83
:106FE00006AAD018029AB2F800C04FF4006203F16A
:106FF000010B02FA03F31CEA030F30D079B1059BB1
:10700000B3F5FA7F0BD2049B9C4208D1224BD3F8F4
:10701000A0305B4503D11A494AF012FB02E01F4938
:107020004AF00EFBBBF1030F5B46D6D1324606A9F0
:107030003846FBF7B1FB144B1C4494F8493723F056
:10704000010384F84937AAEB000ABAF11D0F7FF655
:10705000A5AD039B013308F10E080393CDE659B1AA
:10706000059BB3F5FA7F07D2049B9C4204D10A4BDF
:10707000D3F8A0305B45CED009494AF0E1FAD1E718
:1070800004C30608EB1907080830002024AC0608E2
:1070900028AC060844C7002018020020530B07083C
:1070A00038BF0608D8F809000028CCD0036806A924
:1070B000187846F097F805232FE7D8F8090000283C
:1070C000C1D0036806A993F9000046F08BF8F2E7F7
:1070D000D8F809000028B6D0036806A9188846F039
:1070E00081F8E8E7D8F809000028ACD003680089E7
:1070F0001B78584300F5C33006A9A03046F072F85B
:107100009DF81A309DF819208DF819302E238DF82E
:107110001A309DF81D308DF81820302B01D02E2B01
:107120000AD19DF81C10002330298DF81D3001D0A4
:107130002E2901D18DF81C30302A04BF20238DF870
:107140001830B8E7D8F809B0BBF1000F17D0D8F85D
:10715000000047F047FF95F8431A013101442C44E1
:107160005B463246C9B238460FF040FE94F84937C4
:1071700023F0010384F8493765E7002063E75846A8
:1071800061E70A4B70B5D3F8C85306464DB90020E5
:1071900070BDF9F7BFFD864205D00134A542F8DC89
:1071A000F5E70024FAE70120F2E700BF08300020ED
:1071B00008B5094B1B7803B108BD0848FFF7E1FF8C
:1071C0000028F9D0FFF7CEF9054B064A1B6803F5F6
:1071D000C873C2F8DC3308BDFBB5002048B90020F5
:1071E00044C7002008300020074BD3F8C823042AE6
:1071F00008D0511CC3F8C81303EB8203C3F8CC03B7
:1072000001207047002070470830002038B5154B2A
:10721000D3F85C2A824209DA134A9478022C07D008
:10722000032C10D0012C05D0022038BD002038BD21
:10723000012038BD7F28F7DC054613F02DFA854282
:107240000BDC204638BDD3F8603A1B69002BEFD029
:107250008342CCBF0120022038BD13F0E3F9204661
:1072600038BD00BF08300020D4B9002038B51E4B0F
:107270009B78022B1FD0032B17D0012B11D01B4C56
:107280000020D4F85C3A94F8642A1344B3F5807F64
:10729000A8BF4FF480738342A8BF0346C4F85C3A8A
:1072A00038BD13F0F9F9114CEBE7104CD4F8600A33
:1072B0000EF0D6FAE5E700200D49034641F22645D7
:1072C00003F5A17201EB021205EB0314D279D20788
:1072D00003F1010304D40A5D012A98BF00F5007090
:1072E0000A2BEDD1014CCCE7D4B9002008300020A6
:1072F000E802012008B5124B9B78022B10D0032B1B
:1073000007D0012B01D0002008BDBDE8084013F0D4
:10731000D5B90C4BD3F8600A003018BF012008BD66
:107320001FF0E2FE0028EED01FF0CEFE0028EAD0CB
:10733000054B5878A0F10300B0FA80F0400908BD71
:10734000D4B9002008300020E80201200B4B9B78C4
:10735000012B08D0022B04D1094A41F2D553D05C4D
:10736000704700207047074BD3F8680AD3F8B83746
:10737000984234BF00200120704700BFD4B90020DC
:10738000E8020120083000200D4B9B78022B0CD026
:10739000032B05D0012B01D00020704713F042B918
:1073A000084BD3F8600A0EF053BA074A41F2BC43C7
:1073B000D358002B01DD1EF097BB0120704700BFA2
:1073C000D4B9002008300020E802012030B52D4B50
:1073D0009B78012B83B0044626D0022B0CD02A4D7B
:1073E000D5F8600A0EF03CFA20B12146D5F8600AC3
:1073F0000EF03EFA03B030BD244B8DF8070018683C
:1074000090F91A20531C2FD0436840F2FF11C3F3A8
:1074100008038B4228D003EB42231D4A9C54436847
:107420000133436003B030BD174A92F86C1A4B1C0D
:107430001144DBB281F8700A190682F86C3A44BF35
:10744000002382F86C3A92F8F02A54BF1946194684
:10745000934236BFC2F18002891A89183F29C9D9DF
:1074600013F0E0F803B030BD037E13F0060FC1D077
:1074700090F82830002BBDD101220DF107011FF03B
:10748000EFF9B7E7D4B900200830002084B5002018
:10749000000301202DE9F047494B9B78012B86B072
:1074A000054622D0022B0ED000782C4600287CD036
:1074B000FFF78CFF15F8010F0028F9D12C1B20468F
:1074C00006B0BDE8F08747F08DFD3E4B04461868D6
:1074D000037E13F0060FF2D090F82830002BEED187
:1074E000294622461FF0BCF9E9E7374F47F07AFDFD
:1074F00097F8F03A97F86C6A0295B34207F5276956
:1075000009EB030299BF0021F31AC3F1800331464E
:10751000CDE90029CA1802443F2A80460446CDE935
:107520000331059025D9032203A90023684612F0F0
:1075300091FFDDE90312DDF8148001B9BAB397F8C1
:10754000F03A0344DBB2180697F86C0A48BF83F0A0
:107550008003984287F8F03A04D1002387F86C3A08
:1075600087F8F03A42440A447F2AA8D8029D97F847
:107570006C6AC6F1800AC24528BFC24609EB060004
:107580005644F6B25246294648F012FD802E87F83E
:107590006C6A94D1A8EB0A0805EB0A0142460B4835
:1075A00048F006FD87F86C8A89E7044687E787F884
:1075B0006C2A87F8F02AB8F1000F80D0D2E700BF1C
:1075C000D4B9002084B5002008300020783A00208B
:1075D00031312DE9F041017005461046164647F05D
:1075E00001FD8046D8B120232F466B70282307F871
:1075F000023F013E032416F8010F29F047FAA21EAC
:10760000424504F1010307F8010F06DB2922EA5481
:10761000023400232B55BDE8F0811C46EBE7012422
:10762000F7E738B52B4C2C4B94F89C501A68294638
:1076300004F6F1207532FFF7CBFF862101FB0541EF
:10764000002091F8E73084F81F3791F8143184F85E
:10765000203791F8BA3084F8213791F8BB3084F89C
:10766000223791F8BC3084F82337B1F8D430A4F82D
:107670002437B1F8D230A4F8263791F8EF3084F8E7
:10768000283791F8113184F8293791F8123184F8AC
:107690002A3791F80C3184F82B3791F80D3184F8A2
:1076A0002C3791F80E3184F82D3791F80F3184F88A
:1076B0002E3791F8103184F82F3791F8F43084F890
:1076C000303791F8F23084F8313791F8F33084F89C
:1076D000323738BD08300020C4B4002070B50F4CDC
:1076E00094F84853222606FB0542294604F6FE205C
:1076F00006FB054502F29522FFF76AFF04F24A34C1
:1077000005F51F7305F5277553F8042B44F8042B72
:10771000AB42F9D11B882380002070BD08300020C7
:1077200038B5134C134B94F89C501A68294675329F
:1077300004F6F120FFF74CFF04F1A003862105FBBE
:107740000131002204F2337304F23C74087A187099
:10775000487A5870887A9870888924F81200013223
:10776000032A01F1060103F10303EFD1002038BD24
:1077700008300020C4B400204B1E032B2DE9F0413B
:1077800004460E46284F0FD8284BD3F89C00F9F733
:1077900097FAD7F8BC335B680BB100209847F31E0B
:1077A000012B29D9F7F7DCF9214B00251D7023683F
:1077B00020465B689847E37BC7F8BC53013B022E29
:1077C000E37303D0042E01D0052E24D120460FF000
:1077D00031FB184B0322052120460FF007FB204602
:1077E0000FF0F2FA39F060F80EF07AF8C8200DF0D8
:1077F00011FE72B648F06AFB97F85957DFF83C80E3
:10780000013D6B1CCED058F835305B680BB10020C1
:107810009847013DF5E7084A136823F48043136055
:107820002846BDE8F08100BF083000201802002083
:10783000FBB500202CAC0608F8B40020643700200B
:1078400008B5044B93F80B3B13B90121FFF794FFE4
:10785000002008BD0830002030B44FF49871114D5D
:10786000114C124B016040F29E71114AC0F8065053
:1078700044614FF4FA7501240183C0F81A300821DD
:107880000023C58380F8204080F82110C0F8222012
:107890000371C0F80A30C0F80E30438280F82630F9
:1078A00030BC7047C800FA00020000017D00C8002B
:1078B0007800960000230A2203604360836083817E
:1078C000028070472DE9F843704CE279237A9A429E
:1078D0007FD0E279E379C2EBC20204EB8202C3EB10
:1078E000C30304EB830392F82B101E7C8B1E9E4275
:1078F0002CD0674AB4F864301278E16801339BB247
:107900001A2AA4F8643067D00025E379614A01336C
:10791000A2FB0302520802EB42029B1ADBB2E371A4
:1079200000293BD00DF08CFAD4F89830C01AB0F58D
:10793000FA7F04DB002345F0040584F89630D4F880
:107940009030002B32D12846BDE8F883E37904F16A
:107950001007C3EBC30307EB830361B11944002293
:1079600013F8015B2A44994292B2F9D1D3B203EBE6
:107970001222FF2A38D0464AB4F864301278E168FF
:1079800001339BB21A2AA4F86430BDD1424BB4F83B
:1079900064205A8004229A800025B6E794F8963035
:1079A000002BBFD1D4F89030002BCCD03B4A1268CA
:1079B000D31AB3F5FA7FC6D994F86630032B04BF07
:1079C0000023A4F88C300023C4F890302846BDE88A
